{
  "abi": [
    {
      "inputs": [],
      "stateMutability": "nonpayable",
      "type": "constructor"
    },
    {
      "anonymous": false,
      "inputs": [
        {
          "indexed": true,
          "internalType": "address",
          "name": "owner",
          "type": "address"
        },
        {
          "indexed": true,
          "internalType": "address",
          "name": "approved",
          "type": "address"
        },
        {
          "indexed": true,
          "internalType": "uint256",
          "name": "tokenId",
          "type": "uint256"
        }
      ],
      "name": "Approval",
      "type": "event"
    },
    {
      "anonymous": false,
      "inputs": [
        {
          "indexed": true,
          "internalType": "address",
          "name": "owner",
          "type": "address"
        },
        {
          "indexed": true,
          "internalType": "address",
          "name": "operator",
          "type": "address"
        },
        {
          "indexed": false,
          "internalType": "bool",
          "name": "approved",
          "type": "bool"
        }
      ],
      "name": "ApprovalForAll",
      "type": "event"
    },
    {
      "anonymous": false,
      "inputs": [
        {
          "indexed": false,
          "internalType": "uint256",
          "name": "amount",
          "type": "uint256"
        },
        {
          "indexed": false,
          "internalType": "uint256",
          "name": "date",
          "type": "uint256"
        }
      ],
      "name": "CoinsReleasedToOwner",
      "type": "event"
    },
    {
      "anonymous": false,
      "inputs": [
        {
          "indexed": true,
          "internalType": "address",
          "name": "previousOwner",
          "type": "address"
        },
        {
          "indexed": true,
          "internalType": "address",
          "name": "newOwner",
          "type": "address"
        }
      ],
      "name": "OwnershipTransferred",
      "type": "event"
    },
    {
      "anonymous": false,
      "inputs": [
        {
          "indexed": false,
          "internalType": "address",
          "name": "sender",
          "type": "address"
        },
        {
          "indexed": false,
          "internalType": "uint256",
          "name": "amount",
          "type": "uint256"
        }
      ],
      "name": "Received",
      "type": "event"
    },
    {
      "anonymous": false,
      "inputs": [
        {
          "indexed": true,
          "internalType": "address",
          "name": "from",
          "type": "address"
        },
        {
          "indexed": true,
          "internalType": "address",
          "name": "to",
          "type": "address"
        },
        {
          "indexed": true,
          "internalType": "uint256",
          "name": "tokenId",
          "type": "uint256"
        }
      ],
      "name": "Transfer",
      "type": "event"
    },
    {
      "inputs": [],
      "name": "addy",
      "outputs": [
        {
          "internalType": "address",
          "name": "",
          "type": "address"
        }
      ],
      "stateMutability": "view",
      "type": "function"
    },
    {
      "inputs": [
        {
          "internalType": "address",
          "name": "to",
          "type": "address"
        },
        {
          "internalType": "uint256",
          "name": "tokenId",
          "type": "uint256"
        }
      ],
      "name": "approve",
      "outputs": [],
      "stateMutability": "nonpayable",
      "type": "function"
    },
    {
      "inputs": [
        {
          "internalType": "address",
          "name": "owner",
          "type": "address"
        }
      ],
      "name": "balanceOf",
      "outputs": [
        {
          "internalType": "uint256",
          "name": "",
          "type": "uint256"
        }
      ],
      "stateMutability": "view",
      "type": "function"
    },
    {
      "inputs": [],
      "name": "baseURI",
      "outputs": [
        {
          "internalType": "string",
          "name": "",
          "type": "string"
        }
      ],
      "stateMutability": "view",
      "type": "function"
    },
    {
      "inputs": [
        {
          "internalType": "uint256",
          "name": "_tokenId",
          "type": "uint256"
        }
      ],
      "name": "buyTheDip",
      "outputs": [],
      "stateMutability": "nonpayable",
      "type": "function"
    },
    {
      "inputs": [
        {
          "internalType": "bytes",
          "name": "",
          "type": "bytes"
        }
      ],
      "name": "checkUpkeep",
      "outputs": [
        {
          "internalType": "bool",
          "name": "upkeepNeeded",
          "type": "bool"
        },
        {
          "internalType": "bytes",
          "name": "",
          "type": "bytes"
        }
      ],
      "stateMutability": "nonpayable",
      "type": "function"
    },
    {
      "inputs": [
        {
          "internalType": "uint32",
          "name": "percentDrop",
          "type": "uint32"
        }
      ],
      "name": "createCollectible",
      "outputs": [
        {
          "internalType": "bytes32",
          "name": "",
          "type": "bytes32"
        }
      ],
      "stateMutability": "payable",
      "type": "function"
    },
    {
      "inputs": [
        {
          "internalType": "uint256",
          "name": "_tokenId",
          "type": "uint256"
        }
      ],
      "name": "destroyAndRefund",
      "outputs": [],
      "stateMutability": "nonpayable",
      "type": "function"
    },
    {
      "inputs": [
        {
          "internalType": "uint256",
          "name": "_tokenId",
          "type": "uint256"
        },
        {
          "internalType": "string",
          "name": "imageURI",
          "type": "string"
        }
      ],
      "name": "formatTokenURI",
      "outputs": [
        {
          "internalType": "string",
          "name": "",
          "type": "string"
        }
      ],
      "stateMutability": "view",
      "type": "function"
    },
    {
      "inputs": [
        {
          "internalType": "address",
          "name": "_addy",
          "type": "address"
        }
      ],
      "name": "getAllNFTsByOwner",
      "outputs": [
        {
          "internalType": "uint256[]",
          "name": "",
          "type": "uint256[]"
        }
      ],
      "stateMutability": "view",
      "type": "function"
    },
    {
      "inputs": [
        {
          "internalType": "uint256",
          "name": "tokenId",
          "type": "uint256"
        }
      ],
      "name": "getApproved",
      "outputs": [
        {
          "internalType": "address",
          "name": "",
          "type": "address"
        }
      ],
      "stateMutability": "view",
      "type": "function"
    },
    {
      "inputs": [],
      "name": "getLatestPrice",
      "outputs": [
        {
          "internalType": "uint256",
          "name": "",
          "type": "uint256"
        }
      ],
      "stateMutability": "view",
      "type": "function"
    },
    {
      "inputs": [],
      "name": "highestDip",
      "outputs": [
        {
          "internalType": "uint256",
          "name": "",
          "type": "uint256"
        }
      ],
      "stateMutability": "view",
      "type": "function"
    },
    {
      "inputs": [
        {
          "internalType": "address",
          "name": "owner",
          "type": "address"
        },
        {
          "internalType": "address",
          "name": "operator",
          "type": "address"
        }
      ],
      "name": "isApprovedForAll",
      "outputs": [
        {
          "internalType": "bool",
          "name": "",
          "type": "bool"
        }
      ],
      "stateMutability": "view",
      "type": "function"
    },
    {
      "inputs": [],
      "name": "name",
      "outputs": [
        {
          "internalType": "string",
          "name": "",
          "type": "string"
        }
      ],
      "stateMutability": "view",
      "type": "function"
    },
    {
      "inputs": [],
      "name": "owner",
      "outputs": [
        {
          "internalType": "address",
          "name": "",
          "type": "address"
        }
      ],
      "stateMutability": "view",
      "type": "function"
    },
    {
      "inputs": [
        {
          "internalType": "uint256",
          "name": "tokenId",
          "type": "uint256"
        }
      ],
      "name": "ownerOf",
      "outputs": [
        {
          "internalType": "address",
          "name": "",
          "type": "address"
        }
      ],
      "stateMutability": "view",
      "type": "function"
    },
    {
      "inputs": [
        {
          "internalType": "bytes",
          "name": "",
          "type": "bytes"
        }
      ],
      "name": "performUpkeep",
      "outputs": [],
      "stateMutability": "nonpayable",
      "type": "function"
    },
    {
      "inputs": [],
      "name": "performUpkeepTest",
      "outputs": [],
      "stateMutability": "nonpayable",
      "type": "function"
    },
    {
      "inputs": [],
      "name": "profitReceiver",
      "outputs": [
        {
          "internalType": "address",
          "name": "",
          "type": "address"
        }
      ],
      "stateMutability": "view",
      "type": "function"
    },
    {
      "inputs": [
        {
          "internalType": "uint256",
          "name": "_tokenId",
          "type": "uint256"
        }
      ],
      "name": "redip",
      "outputs": [
        {
          "internalType": "bytes32",
          "name": "",
          "type": "bytes32"
        }
      ],
      "stateMutability": "payable",
      "type": "function"
    },
    {
      "inputs": [],
      "name": "renounceOwnership",
      "outputs": [],
      "stateMutability": "nonpayable",
      "type": "function"
    },
    {
      "inputs": [
        {
          "internalType": "address",
          "name": "from",
          "type": "address"
        },
        {
          "internalType": "address",
          "name": "to",
          "type": "address"
        },
        {
          "internalType": "uint256",
          "name": "tokenId",
          "type": "uint256"
        }
      ],
      "name": "safeTransferFrom",
      "outputs": [],
      "stateMutability": "nonpayable",
      "type": "function"
    },
    {
      "inputs": [
        {
          "internalType": "address",
          "name": "from",
          "type": "address"
        },
        {
          "internalType": "address",
          "name": "to",
          "type": "address"
        },
        {
          "internalType": "uint256",
          "name": "tokenId",
          "type": "uint256"
        },
        {
          "internalType": "bytes",
          "name": "_data",
          "type": "bytes"
        }
      ],
      "name": "safeTransferFrom",
      "outputs": [],
      "stateMutability": "nonpayable",
      "type": "function"
    },
    {
      "inputs": [
        {
          "internalType": "address",
          "name": "operator",
          "type": "address"
        },
        {
          "internalType": "bool",
          "name": "approved",
          "type": "bool"
        }
      ],
      "name": "setApprovalForAll",
      "outputs": [],
      "stateMutability": "nonpayable",
      "type": "function"
    },
    {
      "inputs": [
        {
          "internalType": "uint256",
          "name": "_tokenId",
          "type": "uint256"
        },
        {
          "internalType": "uint8",
          "name": "_dipLevel",
          "type": "uint8"
        }
      ],
      "name": "setDipLevel",
      "outputs": [],
      "stateMutability": "nonpayable",
      "type": "function"
    },
    {
      "inputs": [
        {
          "internalType": "uint256",
          "name": "_tokenId",
          "type": "uint256"
        },
        {
          "internalType": "uint256",
          "name": "_energy",
          "type": "uint256"
        }
      ],
      "name": "setEnergy",
      "outputs": [],
      "stateMutability": "nonpayable",
      "type": "function"
    },
    {
      "inputs": [
        {
          "internalType": "uint256",
          "name": "tokenId",
          "type": "uint256"
        },
        {
          "internalType": "string",
          "name": "_tokenURI",
          "type": "string"
        }
      ],
      "name": "setTokenURI",
      "outputs": [],
      "stateMutability": "nonpayable",
      "type": "function"
    },
    {
      "inputs": [
        {
          "internalType": "bytes4",
          "name": "interfaceId",
          "type": "bytes4"
        }
      ],
      "name": "supportsInterface",
      "outputs": [
        {
          "internalType": "bool",
          "name": "",
          "type": "bool"
        }
      ],
      "stateMutability": "view",
      "type": "function"
    },
    {
      "inputs": [
        {
          "internalType": "string",
          "name": "svg",
          "type": "string"
        }
      ],
      "name": "svgToImageURI",
      "outputs": [
        {
          "internalType": "string",
          "name": "",
          "type": "string"
        }
      ],
      "stateMutability": "pure",
      "type": "function"
    },
    {
      "inputs": [],
      "name": "symbol",
      "outputs": [
        {
          "internalType": "string",
          "name": "",
          "type": "string"
        }
      ],
      "stateMutability": "view",
      "type": "function"
    },
    {
      "inputs": [
        {
          "internalType": "uint256",
          "name": "index",
          "type": "uint256"
        }
      ],
      "name": "tokenByIndex",
      "outputs": [
        {
          "internalType": "uint256",
          "name": "",
          "type": "uint256"
        }
      ],
      "stateMutability": "view",
      "type": "function"
    },
    {
      "inputs": [],
      "name": "tokenCounter",
      "outputs": [
        {
          "internalType": "uint256",
          "name": "",
          "type": "uint256"
        }
      ],
      "stateMutability": "view",
      "type": "function"
    },
    {
      "inputs": [
        {
          "internalType": "uint256",
          "name": "",
          "type": "uint256"
        }
      ],
      "name": "tokenIdToDipLevel",
      "outputs": [
        {
          "internalType": "uint8",
          "name": "",
          "type": "uint8"
        }
      ],
      "stateMutability": "view",
      "type": "function"
    },
    {
      "inputs": [
        {
          "internalType": "uint256",
          "name": "",
          "type": "uint256"
        }
      ],
      "name": "tokenIdToDipPercent",
      "outputs": [
        {
          "internalType": "uint256",
          "name": "",
          "type": "uint256"
        }
      ],
      "stateMutability": "view",
      "type": "function"
    },
    {
      "inputs": [
        {
          "internalType": "uint256",
          "name": "",
          "type": "uint256"
        }
      ],
      "name": "tokenIdToDipValue",
      "outputs": [
        {
          "internalType": "uint256",
          "name": "",
          "type": "uint256"
        }
      ],
      "stateMutability": "view",
      "type": "function"
    },
    {
      "inputs": [
        {
          "internalType": "uint256",
          "name": "",
          "type": "uint256"
        }
      ],
      "name": "tokenIdToEnergy",
      "outputs": [
        {
          "internalType": "uint256",
          "name": "",
          "type": "uint256"
        }
      ],
      "stateMutability": "view",
      "type": "function"
    },
    {
      "inputs": [
        {
          "internalType": "uint256",
          "name": "",
          "type": "uint256"
        }
      ],
      "name": "tokenIdToIsWaitingToBuy",
      "outputs": [
        {
          "internalType": "bool",
          "name": "",
          "type": "bool"
        }
      ],
      "stateMutability": "view",
      "type": "function"
    },
    {
      "inputs": [
        {
          "internalType": "uint256",
          "name": "",
          "type": "uint256"
        }
      ],
      "name": "tokenIdToStableCoin",
      "outputs": [
        {
          "internalType": "uint256",
          "name": "",
          "type": "uint256"
        }
      ],
      "stateMutability": "view",
      "type": "function"
    },
    {
      "inputs": [
        {
          "internalType": "address",
          "name": "owner",
          "type": "address"
        },
        {
          "internalType": "uint256",
          "name": "index",
          "type": "uint256"
        }
      ],
      "name": "tokenOfOwnerByIndex",
      "outputs": [
        {
          "internalType": "uint256",
          "name": "",
          "type": "uint256"
        }
      ],
      "stateMutability": "view",
      "type": "function"
    },
    {
      "inputs": [
        {
          "internalType": "uint256",
          "name": "_tokenId",
          "type": "uint256"
        }
      ],
      "name": "tokenURI",
      "outputs": [
        {
          "internalType": "string",
          "name": "",
          "type": "string"
        }
      ],
      "stateMutability": "view",
      "type": "function"
    },
    {
      "inputs": [],
      "name": "totalStableCoin",
      "outputs": [
        {
          "internalType": "uint256",
          "name": "",
          "type": "uint256"
        }
      ],
      "stateMutability": "view",
      "type": "function"
    },
    {
      "inputs": [],
      "name": "totalSupply",
      "outputs": [
        {
          "internalType": "uint256",
          "name": "",
          "type": "uint256"
        }
      ],
      "stateMutability": "view",
      "type": "function"
    },
    {
      "inputs": [
        {
          "internalType": "address",
          "name": "from",
          "type": "address"
        },
        {
          "internalType": "address",
          "name": "to",
          "type": "address"
        },
        {
          "internalType": "uint256",
          "name": "tokenId",
          "type": "uint256"
        }
      ],
      "name": "transferFrom",
      "outputs": [],
      "stateMutability": "nonpayable",
      "type": "function"
    },
    {
      "inputs": [
        {
          "internalType": "address",
          "name": "newOwner",
          "type": "address"
        }
      ],
      "name": "transferOwnership",
      "outputs": [],
      "stateMutability": "nonpayable",
      "type": "function"
    },
    {
      "stateMutability": "payable",
      "type": "receive"
    }
  ],
  "bytecode": "60a06040526000196012556127106013556000601455603c608052655af3107a400060165561012c601755606460185564e8d4a51000601955620186a0601a55662386f26fc10000601b55601e80546001600160a01b031990811673232da19534032cbfe838e5f620c495d52061e94717909155601f80548216737a250d5630b4cf539739df2c5dacb4c659f2488d179055602080548216735c69bee701ef814a2b6a3edd4b1652cb9cc5aa6f179055602180548216734dbcdf9b62e891a7cec5a2568c3f4faf9e8abe2b17908190556022805483166001600160a01b039290921691909117905560238054909116738a753747a1fa494ec906ce90e9f37563a8af630e1790553480156200011357600080fd5b50604080518082018252600b81526a057654275795468654469760ac1b6020808301919091528251808401909352600383526204449560ec1b9083015290620001636301ffc9a760e01b6200025b565b815162000178906006906020850190620002f3565b5080516200018e906007906020840190620002f3565b50620001a16380ac58cd60e01b6200025b565b620001b3635b5e139f60e01b6200025b565b620001c563780e9d6360e01b6200025b565b5060009050620001d4620002e0565b600a80546001600160a01b0319166001600160a01b038316908117909155604051919250906000907f8be0079c531659141344cd1fd0a4f28419497f9722a3daafe3b4186f6b6457e0908290a3506000600b5562000231620002e4565b601c80546001600160a01b0319166001600160a01b0392909216919091179055426015556200038f565b6001600160e01b03198082161415620002bb576040805162461bcd60e51b815260206004820152601c60248201527f4552433136353a20696e76616c696420696e7465726661636520696400000000604482015290519081900360640190fd5b6001600160e01b0319166000908152602081905260409020805460ff19166001179055565b3390565b600a546001600160a01b031690565b828054600181600116156101000203166002900490600052602060002090601f016020900481019282601f106200033657805160ff191683800117855562000366565b8280016001018555821562000366579182015b828111156200036657825182559160200191906001019062000349565b506200037492915062000378565b5090565b5b8082111562000374576000815560010162000379565b608051615d05620003aa60003980611edf5250615d056000f3fe6080604052600436106102765760003560e01c80634f6ccce71161014f5780638e15f473116100c1578063d082e3811161007a578063d082e38114610d3f578063e985e9c514610d54578063f2fde38b14610d8f578063fb1b0f2914610dc2578063fc4a72fb14610dec578063fd4889c114610e01576102b7565b80638e15f47314610baf57806395d89b4114610bc4578063a22cb46514610bd9578063ae153e3e14610c14578063b88d4fde14610c44578063c87b56dd14610d15576102b7565b80636e04ff0d116101135780636e04ff0d14610a2457806370a0823114610b20578063715018a614610b535780638b772ba414610b685780638d98ebc114610b855780638da5cb5b14610b9a576102b7565b80634f6ccce71461090e5780635d2e11571461093857806360570068146109bb5780636352211e146109e55780636c0360eb14610a0f576102b7565b806323b872dd116101e857806342842e0e116101ac57806342842e0e1461079057806343413e8a146107d35780634585e33b146107f65780634661720a1461087157806347b6b4911461089b578063498a4af3146108db576102b7565b806323b872dd146106395780632f745c591461067c57806330d871c6146106b5578063351c7d3514610766578063355c89731461077b576102b7565b8063095ea7b31161023a578063095ea7b3146104b85780630a537537146104f1578063162094c41461052d57806318160ddd146105e557806318ff04ee146105fa5780632223c5f11461060f576102b7565b806301ffc9a7146102bc5780630419e3141461030457806304276b2f1461043157806306fdde031461045d578063081812fc14610472576102b7565b366102b7576040805133815234602082015281517f88a5966d370b9919b20f3e2c13ff65706f196a4e32cc2c12bf57088f88525874929181900390910190a1005b600080fd5b3480156102c857600080fd5b506102f0600480360360208110156102df57600080fd5b50356001600160e01b031916610e2b565b604080519115158252519081900360200190f35b34801561031057600080fd5b506103bc6004803603604081101561032757600080fd5b81359190810190604081016020820135600160201b81111561034857600080fd5b82018360208201111561035a57600080fd5b803590602001918460018302840111600160201b8311171561037b57600080fd5b91908080601f016020809104026020016040519081016040528093929190818152602001838380828437600092019190915250929550610e4e945050505050565b6040805160208082528351818301528351919283929083019185019080838360005b838110156103f65781810151838201526020016103de565b50505050905090810190601f1680156104235780820380516001836020036101000a031916815260200191505b509250505060405180910390f35b34801561043d57600080fd5b5061045b6004803603602081101561045457600080fd5b50356110f4565b005b34801561046957600080fd5b506103bc6112ce565b34801561047e57600080fd5b5061049c6004803603602081101561049557600080fd5b5035611364565b604080516001600160a01b039092168252519081900360200190f35b3480156104c457600080fd5b5061045b600480360360408110156104db57600080fd5b506001600160a01b0381351690602001356113c6565b3480156104fd57600080fd5b5061051b6004803603602081101561051457600080fd5b50356114a1565b60408051918252519081900360200190f35b34801561053957600080fd5b5061045b6004803603604081101561055057600080fd5b81359190810190604081016020820135600160201b81111561057157600080fd5b82018360208201111561058357600080fd5b803590602001918460018302840111600160201b831117156105a457600080fd5b91908080601f0160208091040260200160405190810160405280939291908181526020018383808284376000920191909152509295506114b3945050505050565b3480156105f157600080fd5b5061051b61150d565b34801561060657600080fd5b5061045b61151e565b34801561061b57600080fd5b5061051b6004803603602081101561063257600080fd5b50356115ad565b34801561064557600080fd5b5061045b6004803603606081101561065c57600080fd5b506001600160a01b038135811691602081013590911690604001356115bf565b34801561068857600080fd5b5061051b6004803603604081101561069f57600080fd5b506001600160a01b038135169060200135611616565b3480156106c157600080fd5b506103bc600480360360208110156106d857600080fd5b810190602081018135600160201b8111156106f257600080fd5b82018360208201111561070457600080fd5b803590602001918460018302840111600160201b8311171561072557600080fd5b91908080601f01602080910402602001604051908101604052809392919081815260200183838082843760009201919091525092955061163f945050505050565b34801561077257600080fd5b5061049c6117fd565b34801561078757600080fd5b5061049c61180c565b34801561079c57600080fd5b5061045b600480360360608110156107b357600080fd5b506001600160a01b0381358116916020810135909116906040013561181b565b61051b600480360360208110156107e957600080fd5b503563ffffffff16611836565b34801561080257600080fd5b5061045b6004803603602081101561081957600080fd5b810190602081018135600160201b81111561083357600080fd5b82018360208201111561084557600080fd5b803590602001918460018302840111600160201b8311171561086657600080fd5b509092509050611509565b34801561087d57600080fd5b5061051b6004803603602081101561089457600080fd5b5035611aac565b3480156108a757600080fd5b506108c5600480360360208110156108be57600080fd5b5035611abe565b6040805160ff9092168252519081900360200190f35b3480156108e757600080fd5b5061045b600480360360408110156108fe57600080fd5b508035906020013560ff16611ad3565b34801561091a57600080fd5b5061051b6004803603602081101561093157600080fd5b5035611bfd565b34801561094457600080fd5b5061096b6004803603602081101561095b57600080fd5b50356001600160a01b0316611c13565b60408051602080825283518183015283519192839290830191858101910280838360005b838110156109a757818101518382015260200161098f565b505050509050019250505060405180910390f35b3480156109c757600080fd5b5061045b600480360360208110156109de57600080fd5b5035611d03565b3480156109f157600080fd5b5061049c60048036036020811015610a0857600080fd5b5035611e50565b348015610a1b57600080fd5b506103bc611e78565b348015610a3057600080fd5b50610a9f60048036036020811015610a4757600080fd5b810190602081018135600160201b811115610a6157600080fd5b820183602082011115610a7357600080fd5b803590602001918460018302840111600160201b83111715610a9457600080fd5b509092509050611ed9565b60405180831515815260200180602001828103825283818151815260200191508051906020019080838360005b83811015610ae4578181015183820152602001610acc565b50505050905090810190601f168015610b115780820380516001836020036101000a031916815260200191505b50935050505060405180910390f35b348015610b2c57600080fd5b5061051b60048036036020811015610b4357600080fd5b50356001600160a01b0316611f22565b348015610b5f57600080fd5b5061045b611f8a565b61051b60048036036020811015610b7e57600080fd5b5035612048565b348015610b9157600080fd5b5061051b61222f565b348015610ba657600080fd5b5061049c612235565b348015610bbb57600080fd5b5061051b612244565b348015610bd057600080fd5b506103bc61233b565b348015610be557600080fd5b5061045b60048036036040811015610bfc57600080fd5b506001600160a01b038135169060200135151561239c565b348015610c2057600080fd5b5061045b60048036036040811015610c3757600080fd5b50803590602001356124a1565b348015610c5057600080fd5b5061045b60048036036080811015610c6757600080fd5b6001600160a01b03823581169260208101359091169160408201359190810190608081016060820135600160201b811115610ca157600080fd5b820183602082011115610cb357600080fd5b803590602001918460018302840111600160201b83111715610cd457600080fd5b91908080601f01602080910402602001604051908101604052809392919081815260200183838082843760009201919091525092955061250e945050505050565b348015610d2157600080fd5b506103bc60048036036020811015610d3857600080fd5b5035612566565b348015610d4b57600080fd5b5061051b612bee565b348015610d6057600080fd5b506102f060048036036040811015610d7757600080fd5b506001600160a01b0381358116916020013516612bf4565b348015610d9b57600080fd5b5061045b60048036036020811015610db257600080fd5b50356001600160a01b0316612c22565b348015610dce57600080fd5b506102f060048036036020811015610de557600080fd5b5035612d37565b348015610df857600080fd5b5061051b612d4c565b348015610e0d57600080fd5b5061051b60048036036020811015610e2457600080fd5b5035612d52565b6001600160e01b0319811660009081526020819052604090205460ff165b919050565b606060016000848152600c602052604090205461105c90849060ff1615610e8e57604051806040016040528060018152602001603160f81b815250610ea9565b604051806040016040528060018152602001600360fc1b8152505b6000878152600d6020526040902054610ec190612d64565b60405160200180603761567d8239603701602b61581d8239602b01806b16101134b6b0b3b2911d101160a11b815250600c0184805190602001908083835b60208310610f1e5780518252601f199092019160209182019101610eff565b5181516020939093036101000a6000190180199091169216919091179052601160f91b920191825250741610113730b6b2911d1011213abcaa3432a234b81160591b60018201526016016050615c80823960500183805190602001908083835b60208310610f9d5780518252601f199092019160209182019101610f7e565b5181516020939093036101000a600019018019909116921691909117905261207d60f01b9201918252506002016041615610823960410182805190602001908083835b60208310610fff5780518252601f199092019160209182019101610fe0565b5181516020939093036101000a600019018019909116921691909117905261207d60f01b920191825250605d60f81b6002820152607d60f81b600382015260408051808303601b19018152600490920190529350612e3c92505050565b60405160200180807f646174613a6170706c69636174696f6e2f6a736f6e3b6261736536342c000000815250601d0182805190602001908083835b602083106110b65780518252601f199092019160209182019101611097565b6001836020036101000a0380198251168184511680821785525050505050509050019150506040516020818303038152906040529150505b92915050565b6110fc612244565b6000828152600d60205260409020541115611155576040805162461bcd60e51b8152602060048201526014602482015273141c9a58d94818589bdd9948191a5c13195d995b60621b604482015290519081900360640190fd5b60004790506000611168836018546130b3565b602154601f546040805163095ea7b360e01b81526001600160a01b03928316600482015260248101859052905193945091169163095ea7b3916044808201926020929091908290030181600087803b1580156111c357600080fd5b505af11580156111d7573d6000803e3d6000fd5b505050506040513d60208110156111ed57600080fd5b505060215460009081906112269084906001600160a01b031661120f88611e50565b601f546013546001600160a01b0390911690613282565b6040805182815242602082015281519395509193507f4bcdd9b8b0cadbbafa70adc1d3944dfb4731760c7d447e4c7da9f6f5645f8c6792918290030190a16000858152601060209081526040808320805460ff19169055600c909152902054600760ff90911610156112b5576000858152600c60205260409020805460ff8082166001011660ff199091161790555b5050506000918252506011602052604090206127109055565b60068054604080516020601f600260001961010060018816150201909516949094049384018190048102820181019092528281526060939092909183018282801561135a5780601f1061132f5761010080835404028352916020019161135a565b820191906000526020600020905b81548152906001019060200180831161133d57829003601f168201915b5050505050905090565b600061136f8261371f565b6113aa5760405162461bcd60e51b815260040180806020018281038252602c8152602001806155e4602c913960400191505060405180910390fd5b506000908152600460205260409020546001600160a01b031690565b60006113d182611e50565b9050806001600160a01b0316836001600160a01b031614156114245760405162461bcd60e51b81526004018080602001828103825260218152602001806157fc6021913960400191505060405180910390fd5b806001600160a01b031661143661372c565b6001600160a01b0316148061145757506114578161145261372c565b612bf4565b6114925760405162461bcd60e51b815260040180806020018281038252603881526020018061543a6038913960400191505060405180910390fd5b61149c8383613730565b505050565b600d6020526000908152604090205481565b6114c46114be61372c565b8361379e565b6114ff5760405162461bcd60e51b81526004018080602001828103825260318152602001806159836031913960400191505060405180910390fd5b6115098282613842565b5050565b600061151960026138a5565b905090565b42601555600061152c612244565b905060005b600b548110156115095760008181526010602052604090205460ff1615156001141561157a576000818152600d6020526040902054821061157557611575816110f4565b6115a5565b6012546000828152600d602052604090205410156115a5576000818152600d60205260409020546012555b600101611531565b60116020526000908152604090205481565b6115d06115ca61372c565b8261379e565b61160b5760405162461bcd60e51b81526004018080602001828103825260318152602001806159836031913960400191505060405180910390fd5b61149c8383836138b0565b6001600160a01b038216600090815260016020526040812061163890836139fc565b9392505050565b604080518082018252601a81527f646174613a696d6167652f7376672b786d6c3b6261736536342c0000000000006020918201528151808301835260138082527219185d184e9a5b5859d94bdcdd99cade1b5b0b606a1b8284019081529351606094600094849388939091019182918083835b602083106116d15780518252601f1990920191602091820191016116b2565b51815160209384036101000a600019018019909216911617905285519190930192850191508083835b602083106117195780518252601f1990920191602091820191016116fa565b6001836020036101000a0380198251168184511680821785525050505050509050019250505060405160208183030381529060405292505050610e49565b602083106117765780518252601f199092019160209182019101611757565b51815160209384036101000a600019018019909216911617905285519190930192850191508083835b602083106117be5780518252601f19909201916020918201910161179f565b6001836020036101000a038019825116818451168082178552505050505050905001925050506040516020818303038152906040529350505050919050565b6024546001600160a01b031681565b601c546001600160a01b031681565b61149c8383836040518060200160405280600081525061250e565b600060165460195434011015611893576040805162461bcd60e51b815260206004820152601760248201527f4e6f7420656e6f756768206e617469766520636f696e2e000000000000000000604482015290519081900360640190fd5b60648263ffffffff16106118d85760405162461bcd60e51b81526004018080602001828103825260288152602001806151b06028913960400191505060405180910390fd5b6118e0613a08565b601954601d80549091019055600b8054600181019091556119013382613aa3565b6000818152600c60205260409020805460ff191690556064611921612244565b8460640363ffffffff16028161193357fe5b6000838152600d6020908152604080832094909304909355600e909252812063ffffffff85169055602154601f546013546119819234926001600160a01b0391821692309290911690613abd565b91505060195434018134028161199357fe5b6000848152600f602052604090209190049055601954348101908202816119b657fe5b601d80549290910490910190556000828152600f6020526040902054611a1e576040805162461bcd60e51b815260206004820152601860248201527722b93937b910902737903a37b5b2b739903137bab3b43a1760411b604482015290519081900360640190fd5b6000828152600f6020526040902054611a3690613e0c565b6012546000838152600d60205260409020541115611a61576000828152600d60205260409020546012555b60148054820190556000828152601060205260409020805460ff19166001179055611a9482611a8f81612566565b613842565b8160021415611aa557611aa561151e565b5050919050565b600e6020526000908152604090205481565b600c6020526000908152604090205460ff1681565b611adb61372c565b6001600160a01b0316611aec612235565b6001600160a01b031614611b47576040805162461bcd60e51b815260206004820181905260248201527f4f776e61626c653a2063616c6c6572206973206e6f7420746865206f776e6572604482015290519081900360640190fd5b60088160ff1610611b93576040805162461bcd60e51b8152602060048201526011602482015270125b9d985b1a5908111a5c0813195d995b607a1b604482015290519081900360640190fd5b600b548210611bdb576040805162461bcd60e51b815260206004820152600f60248201526e125b9d985b1a59081d1bdad95b9259608a1b604482015290519081900360640190fd5b6000918252600c6020526040909120805460ff191660ff909216919091179055565b600080611c0b600284613ef9565b509392505050565b60606000805b600b54811015611c5457836001600160a01b0316611c3682611e50565b6001600160a01b03161415611c4c576001820191505b600101611c19565b5060608167ffffffffffffffff81118015611c6e57600080fd5b50604051908082528060200260200182016040528015611c98578160200160208202803683370190505b5090506000805b600b54811015611cf957838210611cb557611cf9565b856001600160a01b0316611cc882611e50565b6001600160a01b03161415611cf15780838381518110611ce457fe5b6020026020010181815250505b600101611c9f565b5090949350505050565b611d0c81611e50565b6001600160a01b0316336001600160a01b031614611d68576040805162461bcd60e51b815260206004820152601460248201527326bab9ba103132903a37b5b2b71037bbb732b91760611b604482015290519081900360640190fd5b611d70612244565b6000828152600d602052604090205411611d9257611d8d816110f4565b611e4d565b6000611da0826017546130b3565b602154601f546040805163095ea7b360e01b81526001600160a01b03928316600482015260248101859052905193945091169163095ea7b3916044808201926020929091908290030181600087803b158015611dfb57600080fd5b505af1158015611e0f573d6000803e3d6000fd5b505050506040513d6020811015611e2557600080fd5b50506021546000908190611e479084906001600160a01b031661120f87611e50565b50505050505b50565b60006110ee8260405180606001604052806029815260200161555d6029913960029190613f15565b60098054604080516020601f600260001961010060018816150201909516949094049384018190048102820181019092528281526060939092909183018282801561135a5780601f1061132f5761010080835404028352916020019161135a565b600060607f00000000000000000000000000000000000000000000000000000000000000006015544203118015611f195750611f13612244565b60125411155b91509250929050565b60006001600160a01b038216611f695760405162461bcd60e51b815260040180806020018281038252602a815260200180615472602a913960400191505060405180910390fd5b6001600160a01b03821660009081526001602052604090206110ee906138a5565b611f9261372c565b6001600160a01b0316611fa3612235565b6001600160a01b031614611ffe576040805162461bcd60e51b815260206004820181905260248201527f4f776e61626c653a2063616c6c6572206973206e6f7420746865206f776e6572604482015290519081900360640190fd5b600a546040516000916001600160a01b0316907f8be0079c531659141344cd1fd0a4f28419497f9722a3daafe3b4186f6b6457e0908390a3600a80546001600160a01b0319169055565b60006016543410156120a1576040805162461bcd60e51b815260206004820152601b60248201527f4e6f7420456e6f75676820424e422d2d6f722077686174657665720000000000604482015290519081900360640190fd5b60008281526010602052604090205460ff16156120ef5760405162461bcd60e51b81526004018080602001828103825260218152602001806152ec6021913960400191505060405180910390fd5b6120f7613a08565b6064612101612244565b6000848152600e6020526040902054606403028161211b57fe5b6000848152600d60205260409020919004905561213b82611a8f81612566565b602154601f546013546121619234926001600160a01b0391821692309290911690613abd565b6000848152600f60205260409020819055151590506121c2576040805162461bcd60e51b815260206004820152601860248201527722b93937b910902737903a37b5b2b739903137bab3b43a1760411b604482015290519081900360640190fd5b6000828152600f60205260409020546121da90613e0c565b6000828152600f602090815260408083205460148054909101905560108252808320805460ff19166001179055601254600d909252909120541115610e49576000918252600d60205260409091205460125590565b60145481565b600a546001600160a01b031690565b600080600080600080602360009054906101000a90046001600160a01b03166001600160a01b031663feaf968c6040518163ffffffff1660e01b815260040160a06040518083038186803b15801561229b57600080fd5b505afa1580156122af573d6000803e3d6000fd5b505050506040513d60a08110156122c557600080fd5b5080516020820151604083015160608401516080909401519298509096509450909250905081612331576040805162461bcd60e51b8152602060048201526012602482015271526f756e64206e6f7420636f6d706c65746560701b604482015290519081900360640190fd5b5091935050505090565b60078054604080516020601f600260001961010060018816150201909516949094049384018190048102820181019092528281526060939092909183018282801561135a5780601f1061132f5761010080835404028352916020019161135a565b6123a461372c565b6001600160a01b0316826001600160a01b0316141561240a576040805162461bcd60e51b815260206004820152601960248201527f4552433732313a20617070726f766520746f2063616c6c657200000000000000604482015290519081900360640190fd5b806005600061241761372c565b6001600160a01b03908116825260208083019390935260409182016000908120918716808252919093529120805460ff19169215159290921790915561245b61372c565b6001600160a01b03167f17307eab39ab6107e8899845ad3d59bd9653f200f220920489ca2b5937696c318360405180821515815260200191505060405180910390a35050565b6000828152601160205260409020548111156124fc576040805162461bcd60e51b815260206004820152601560248201527443616e277420696e63726561736520656e6572677960581b604482015290519081900360640190fd5b60009182526011602052604090912055565b6125196114be61372c565b6125545760405162461bcd60e51b81526004018080602001828103825260318152602001806159836031913960400191505060405180910390fd5b61256084848484613f22565b50505050565b60606125718261371f565b6125ac5760405162461bcd60e51b815260040180806020018281038252602f815260200180615719602f913960400191505060405180910390fd5b600082815260106020908152604080832054600c835281842054600d9093529083205460ff918216939290911691604e906125e5612244565b90506000856125f5575081612643565b6000888152600e602052604090205460649081039085028161261357fe5b04821161263d576064828584036064028161262a57fe5b0460640384028161263757fe5b04612640565b60005b90505b60008881526011602052604090205460606001881515141561271d5761266883612d64565b6040516020018060c161549c823960c1018061533960c1913960c101807f253343636972636c652063783d27313735272063793d273230302720723d2700815250601f0182805190602001908083835b602083106126d75780518252601f1990920191602091820191016126b8565b6001836020036101000a038019825116818451168082178552505050505050905001806152be602e9139602e0191505060405160208183030381529060405290506127ea565b61272683612d64565b6040516020018060b4615748823960b40160b2615bce823960b201807f253343636972636c652063783d27313735272063793d273230302720723d2700815250601f0182805190602001908083835b602083106127945780518252601f199092019160209182019101612775565b6001836020036101000a038019825116818451168082178552505050505050905001806152be602e9139602e0160b3615a4f823960b3016056615b02823960560191505060405160208183030381529060405290505b60606128006127f7612244565b60086002613f74565b61280d8860086002613f74565b6040516020018060aa6150d4823960aa01610100615883823961010001610213614dfc82396102130160516159fe8239605101603c6155868239603c0183805190602001908083835b602083106128755780518252601f199092019160209182019101612856565b5181516020939093036101000a60001901801990911692169190911790526a2533432f7465787425334560a81b920191825250600b0160516150318239605101603c6156b48239603c0182805190602001908083835b602083106128ea5780518252601f1990920191602091820191016128cb565b5181516020939093036101000a60001901801990911692169190911790526a2533432f7465787425334560a81b920191825250600b01605261508282396052019250505060405160208183030381529060405290508061295561294c8d61407c565b60066002613f74565b61295e85612d64565b6129678e612d64565b856040516020018086805190602001908083835b6020831061299a5780518252601f19909201916020918201910161297b565b6001836020036101000a0380198251168184511680821785525050505050509050018061525e603c9139603c0185805190602001908083835b602083106129f25780518252601f1990920191602091820191016129d3565b5181516020939093036101000a60001901801990911692169190911790526b202533432f7465787425334560a01b920191825250600c01604a6159b48239604a01603b6158488239603b0184805190602001908083835b60208310612a685780518252601f199092019160209182019101612a49565b5181516020939093036101000a60001901801990911692169190911790526a2533432f7465787425334560a81b920191825250600b0160606151fe823960600183805190602001908083835b60208310612ad35780518252601f199092019160209182019101612ab4565b5181516020939093036101000a60001901801990911692169190911790526a2533432f7465787425334560a81b920191825250600b016076615b58823960760182805190602001908083835b60208310612b3e5780518252601f199092019160209182019101612b1f565b5181516020939093036101000a60001901801990911692169190911790526b2ab739bab83837b93a32b21760a11b920191825250692533432f73766725334560b01b600c82015260408051808303600919018152601690920190529650505060028c10159350612bce9250505057612bbe8b612bb98361163f565b610e4e565b9950505050505050505050610e49565b604051806020016040528060008152509950505050505050505050610e49565b600b5481565b6001600160a01b03918216600090815260056020908152604080832093909416825291909152205460ff1690565b612c2a61372c565b6001600160a01b0316612c3b612235565b6001600160a01b031614612c96576040805162461bcd60e51b815260206004820181905260248201527f4f776e61626c653a2063616c6c6572206973206e6f7420746865206f776e6572604482015290519081900360640190fd5b6001600160a01b038116612cdb5760405162461bcd60e51b81526004018080602001828103825260268152602001806151d86026913960400191505060405180910390fd5b600a546040516001600160a01b038084169216907f8be0079c531659141344cd1fd0a4f28419497f9722a3daafe3b4186f6b6457e090600090a3600a80546001600160a01b0319166001600160a01b0392909216919091179055565b60106020526000908152604090205460ff1681565b60125481565b600f6020526000908152604090205481565b606081612d8957506040805180820190915260018152600360fc1b6020820152610e49565b8160005b8115612da157600101600a82049150612d8d565b60608167ffffffffffffffff81118015612dba57600080fd5b506040519080825280601f01601f191660200182016040528015612de5576020820181803683370190505b50905060001982015b8515612e3357600a860660300160f81b82828060019003935081518110612e1157fe5b60200101906001600160f81b031916908160001a905350600a86049550612dee565b50949350505050565b60608082905060006003825181612e4f57fe5b06905060006003828103066003845160020181612e6857fe5b0460040203905060608167ffffffffffffffff81118015612e8857600080fd5b506040519080825280601f01601f191660200182016040528015612eb3576020820181803683370190505b5090506000805b85518260030111612fbd57612f21868381518110612ed457fe5b602001015160f81c60f81b60f81c60ff16878460010181518110612ef457fe5b602001015160f81c60f81b60f81c60ff16888560020181518110612f1457fe5b016020015160f81c614137565b868581518110612f2d57fe5b60200101878660010181518110612f4057fe5b60200101888760020181518110612f5357fe5b60200101898860030181518110612f6657fe5b6001600160f81b0319861660001a9101602001536001600160f81b0319851660001a90536001600160f81b0319851660001a90536001600160f81b0319851660001a90535050506003929092019150600401612eba565b84156130a7576000868688510381518110612fd457fe5b016020015160f81c9050600060028714156130045787600189510381518110612ff957fe5b016020015160f81c90505b60008060008061301c8660ff168660ff166000614137565b93509350935093508389888151811061303157fe5b60200101906001600160f81b031916908160001a9053508289886001018151811061305857fe5b60200101906001600160f81b031916908160001a9053508a600214156130a0578189886002018151811061308857fe5b60200101906001600160f81b031916908160001a9053505b5050505050505b50909695505050505050565b6000828152600f6020908152604080832054601e5482516370a0823160e01b81523060048201529251919385936001600160a01b03909216926370a08231926024808201939291829003018186803b15801561310e57600080fd5b505afa158015613122573d6000803e3d6000fd5b505050506040513d602081101561313857600080fd5b50516014549091506000908383028161314d57fe5b6000888152600f6020526040812055601480548690039055601e5491900491506001600160a01b0316632e1a7d4d6127108781038402046040518263ffffffff1660e01b815260040180828152602001915050600060405180830381600087803b1580156131ba57600080fd5b505af11580156131ce573d6000803e3d6000fd5b50506022546040805163a9059cbb60e01b81523060048201526127108a8103870204602482015290516001600160a01b03909216935063a9059cbb92506044808201926020929091908290030181600087803b15801561322d57600080fd5b505af1158015613241573d6000803e3d6000fd5b505050506040513d602081101561325757600080fd5b5050601d80546127108784020401905561326f61423a565b6127108581038202049695505050505050565b60408051600280825260608083018452600093849391929060208301908036833701905050905086816000815181106132b757fe5b60200260200101906001600160a01b031690816001600160a01b031681525050846001600160a01b031663ad5c46486040518163ffffffff1660e01b815260040160206040518083038186803b15801561331057600080fd5b505afa158015613324573d6000803e3d6000fd5b505050506040513d602081101561333a57600080fd5b505181518290600190811061334b57fe5b60200260200101906001600160a01b031690816001600160a01b031681525050600080866001600160a01b031663d06ca61f8b856040518363ffffffff1660e01b81526004018083815260200180602001828103825283818151815260200191508051906020019060200280838360005b838110156133d45781810151838201526020016133bc565b50505050905001935050505060006040518083038186803b1580156133f857600080fd5b505afa15801561340c573d6000803e3d6000fd5b505050506040513d6000823e601f3d908101601f19168201604052602081101561343557600080fd5b8101908080516040519392919084600160201b82111561345457600080fd5b90830190602082018581111561346957600080fd5b82518660208202830111600160201b8211171561348557600080fd5b82525081516020918201928201910280838360005b838110156134b257818101518382015260200161349a565b505050509050016040525050506000815181106134cb57fe5b6020026020010151905061271086612710038202816134e657fe5b049150506060866001600160a01b03166318cbafe58b84868c426040518663ffffffff1660e01b81526004018086815260200185815260200180602001846001600160a01b03168152602001838152602001828103825285818151815260200191508051906020019060200280838360005b83811015613570578181015183820152602001613558565b505050509050019650505050505050600060405180830381600087803b15801561359957600080fd5b505af11580156135ad573d6000803e3d6000fd5b505050506040513d6000823e601f3d908101601f1916820160405260208110156135d657600080fd5b8101908080516040519392919084600160201b8211156135f557600080fd5b90830190602082018581111561360a57600080fd5b82518660208202830111600160201b8211171561362657600080fd5b82525081516020918201928201910280838360005b8381101561365357818101518382015260200161363b565b5050505090500160405250505090508060008151811061366f57fe5b602002602001015160001415801561369c57508060018151811061368f57fe5b6020026020010151600014155b6136e4576040805162461bcd60e51b815260206004820152601460248201527339bbb0b822bc30b1ba22aa24103330b4b632b21760611b604482015290519081900360640190fd5b806000815181106136f157fe5b60200260200101518160018151811061370657fe5b6020026020010151945094505050509550959350505050565b60006110ee600283614323565b3390565b600081815260046020526040902080546001600160a01b0319166001600160a01b038416908117909155819061376582611e50565b6001600160a01b03167f8c5be1e5ebec7d5bd14f71427d1e84f3dd0314c0f7b2291e5b200ac8c7c3b92560405160405180910390a45050565b60006137a98261371f565b6137e45760405162461bcd60e51b815260040180806020018281038252602c81526020018061530d602c913960400191505060405180910390fd5b60006137ef83611e50565b9050806001600160a01b0316846001600160a01b0316148061382a5750836001600160a01b031661381f84611364565b6001600160a01b0316145b8061383a575061383a8185612bf4565b949350505050565b61384b8261371f565b6138865760405162461bcd60e51b815260040180806020018281038252602c815260200180615651602c913960400191505060405180910390fd5b6000828152600860209081526040909120825161149c92840190614d68565b60006110ee8261432f565b826001600160a01b03166138c382611e50565b6001600160a01b0316146139085760405162461bcd60e51b81526004018080602001828103825260298152602001806156f06029913960400191505060405180910390fd5b6001600160a01b03821661394d5760405162461bcd60e51b815260040180806020018281038252602481526020018061529a6024913960400191505060405180910390fd5b61395883838361149c565b613963600082613730565b6001600160a01b03831660009081526001602052604090206139859082614333565b506001600160a01b03821660009081526001602052604090206139a8908261433f565b506139b56002828461434b565b5080826001600160a01b0316846001600160a01b03167fddf252ad1be2c89b69c2b068fc378daa952ba7f163c4a11628f55a4df523b3ef60405160405180910390a4505050565b60006116388383614361565b60145460009081805b600b54811015613a9b5760008181526010602052604090205460ff16151560011415613a9357613a40816143c5565b6000828152600f60205260409020549092508211613a5f576000613a71565b6000818152600f602052604090205482035b9350601a54841115613a93576000818152600f60205260409020829055918301915b600101613a11565b505060145550565b611509828260405180602001604052806000815250614467565b604080516002808252606080830184526000938493919290602083019080368337019050509050846001600160a01b031663ad5c46486040518163ffffffff1660e01b815260040160206040518083038186803b158015613b1d57600080fd5b505afa158015613b31573d6000803e3d6000fd5b505050506040513d6020811015613b4757600080fd5b505181518290600090613b5657fe5b60200260200101906001600160a01b031690816001600160a01b0316815250508681600181518110613b8457fe5b60200260200101906001600160a01b031690816001600160a01b031681525050600080866001600160a01b031663d06ca61f8b856040518363ffffffff1660e01b81526004018083815260200180602001828103825283818151815260200191508051906020019060200280838360005b83811015613c0d578181015183820152602001613bf5565b50505050905001935050505060006040518083038186803b158015613c3157600080fd5b505afa158015613c45573d6000803e3d6000fd5b505050506040513d6000823e601f3d908101601f191682016040526020811015613c6e57600080fd5b8101908080516040519392919084600160201b821115613c8d57600080fd5b908301906020820185811115613ca257600080fd5b82518660208202830111600160201b82111715613cbe57600080fd5b82525081516020918201928201910280838360005b83811015613ceb578181015183820152602001613cd3565b50505050905001604052505050600081518110613d0457fe5b602002602001015190506127108661271003820281613d1f57fe5b049150506060866001600160a01b0316637ff36ab58b84868c42610168016040518663ffffffff1660e01b81526004018085815260200180602001846001600160a01b03168152602001838152602001828103825285818151815260200191508051906020019060200280838360005b83811015613da7578181015183820152602001613d8f565b50505050905001955050505050506000604051808303818588803b158015613dce57600080fd5b505af1158015613de2573d6000803e3d6000fd5b50505050506040513d6000823e601f3d908101601f1916820160405260208110156135d657600080fd5b602254601e546040805163095ea7b360e01b81526001600160a01b039283166004820152602481018590529051919092169163095ea7b39160448083019260209291908290030181600087803b158015613e6557600080fd5b505af1158015613e79573d6000803e3d6000fd5b505050506040513d6020811015613e8f57600080fd5b5050601e546040805163b6b55f2560e01b81526004810184905290516001600160a01b039092169163b6b55f259160248082019260009290919082900301818387803b158015613ede57600080fd5b505af1158015613ef2573d6000803e3d6000fd5b5050505050565b6000808080613f0886866144b9565b9097909650945050505050565b600061383a848484614534565b613f2d8484846138b0565b613f39848484846145fe565b6125605760405162461bcd60e51b815260040180806020018281038252603281526020018061517e6032913960400191505060405180910390fd5b606080613f8c84600a0a8681613f8657fe5b04612d64565b90506060613fad848603600a0a86600a0a8881613fa557fe5b0681613f8657fe5b905081816040516020018083805190602001908083835b60208310613fe35780518252601f199092019160209182019101613fc4565b6001836020036101000a03801982511681845116808217855250505050505090500180601760f91b81525060010182805190602001908083835b6020831061403c5780518252601f19909201916020918201910161401d565b6001836020036101000a03801982511681845116808217855250505050505090500192505050604051602081830303815290604052925050509392505050565b601e54604080516370a0823160e01b8152306004820152905160009260019284926001600160a01b03909216916370a0823191602480820192602092909190829003018186803b1580156140cf57600080fd5b505afa1580156140e3573d6000803e3d6000fd5b505050506040513d60208110156140f957600080fd5b50516000858152600f6020526040902054601454919250901561412b5760145481848402028161412557fe5b0461412e565b60005b95945050505050565b60408051606081018252818152600091829182918291601089901b600889901b17871791603f601284901c811692600c85901c821692600686901c831692861691906153fa6020830139848151811061418c57fe5b602001015160f81c60f81b98506040518060600160405280604081526020016153fa6040913983815181106141bd57fe5b602001015160f81c60f81b97506040518060600160405280604081526020016153fa6040913982815181106141ee57fe5b602001015160f81c60f81b96506040518060600160405280604081526020016153fa60409139818151811061421f57fe5b602001015160f81c60f81b9550505050505093509350935093565b601d80546000909155601b54811115611e4d57614255614766565b601c5460408051712932b632b0b9b4b73390383937b334ba399760711b815290516000926001600160a01b031691849160128083019286929190829003018185875af1925050503d80600081146142c8576040519150601f19603f3d011682016040523d82523d6000602084013e6142cd565b606091505b5050905080611509576040805162461bcd60e51b815260206004820152601a60248201527f436f756c64206e6f742072656c656173652070726f666974732e000000000000604482015290519081900360640190fd5b600061163883836148e9565b5490565b60006116388383614901565b600061163883836149c7565b600061383a84846001600160a01b038516614a11565b815460009082106143a35760405162461bcd60e51b815260040180806020018281038252602281526020018061500f6022913960400191505060405180910390fd5b8260000182815481106143b257fe5b9060005260206000200154905092915050565b6000818152600f6020908152604080832054601e5482516370a0823160e01b81523060048201529251919385936001600160a01b03909216926370a08231926024808201939291829003018186803b15801561442057600080fd5b505afa158015614434573d6000803e3d6000fd5b505050506040513d602081101561444a57600080fd5b50516014549091506000901561412b576014548284028161412557fe5b6144718383614aa8565b61447e60008484846145fe565b61149c5760405162461bcd60e51b815260040180806020018281038252603281526020018061517e6032913960400191505060405180910390fd5b8154600090819083106144fd5760405162461bcd60e51b81526004018080602001828103825260228152602001806155c26022913960400191505060405180910390fd5b600084600001848154811061450e57fe5b906000526020600020906002020190508060000154816001015492509250509250929050565b600082815260018401602052604081205482816145cf5760405162461bcd60e51b81526004018080602001828103825283818151815260200191508051906020019080838360005b8381101561459457818101518382015260200161457c565b50505050905090810190601f1680156145c15780820380516001836020036101000a031916815260200191505b509250505060405180910390fd5b508460000160018203815481106145e257fe5b9060005260206000209060020201600101549150509392505050565b6000614612846001600160a01b0316614bd6565b61461e5750600161383a565b606061472c630a85bd0160e11b61463361372c565b88878760405160240180856001600160a01b03168152602001846001600160a01b0316815260200183815260200180602001828103825283818151815260200191508051906020019080838360005b8381101561469a578181015183820152602001614682565b50505050905090810190601f1680156146c75780820380516001836020036101000a031916815260200191505b5095505050505050604051602081830303815290604052906001600160e01b0319166020820180516001600160e01b03838183161783525050505060405180606001604052806032815260200161517e603291396001600160a01b0388169190614bdc565b9050600081806020019051602081101561474557600080fd5b50516001600160e01b031916630a85bd0160e11b1492505050949350505050565b601e54604080516370a0823160e01b815230600482015290516000926001600160a01b0316916370a08231916024808301926020929190829003018186803b1580156147b157600080fd5b505afa1580156147c5573d6000803e3d6000fd5b505050506040513d60208110156147db57600080fd5b5051601454601d549192506000918302816147f257fe5b601d805460148054919091039055600090819055601e5460408051632e1a7d4d60e01b8152949093046004850181905292519294506001600160a01b031692632e1a7d4d926024808301939282900301818387803b15801561485357600080fd5b505af1158015614867573d6000803e3d6000fd5b50506022546040805163a9059cbb60e01b81523360048201526024810186905290516001600160a01b03909216935063a9059cbb92506044808201926020929091908290030181600087803b1580156148bf57600080fd5b505af11580156148d3573d6000803e3d6000fd5b505050506040513d602081101561256057600080fd5b60009081526001919091016020526040902054151590565b600081815260018301602052604081205480156149bd578354600019808301919081019060009087908390811061493457fe5b906000526020600020015490508087600001848154811061495157fe5b60009182526020808320909101929092558281526001898101909252604090209084019055865487908061498157fe5b600190038181906000526020600020016000905590558660010160008781526020019081526020016000206000905560019450505050506110ee565b60009150506110ee565b60006149d383836148e9565b614a09575081546001818101845560008481526020808220909301849055845484825282860190935260409020919091556110ee565b5060006110ee565b600082815260018401602052604081205480614a76575050604080518082018252838152602080820184815286546001818101895560008981528481209551600290930290950191825591519082015586548684528188019092529290912055611638565b82856000016001830381548110614a8957fe5b9060005260206000209060020201600101819055506000915050611638565b6001600160a01b038216614b03576040805162461bcd60e51b815260206004820181905260248201527f4552433732313a206d696e7420746f20746865207a65726f2061646472657373604482015290519081900360640190fd5b614b0c8161371f565b15614b5e576040805162461bcd60e51b815260206004820152601c60248201527f4552433732313a20746f6b656e20616c7265616479206d696e74656400000000604482015290519081900360640190fd5b614b6a6000838361149c565b6001600160a01b0382166000908152600160205260409020614b8c908261433f565b50614b996002828461434b565b5060405181906001600160a01b038416906000907fddf252ad1be2c89b69c2b068fc378daa952ba7f163c4a11628f55a4df523b3ef908290a45050565b3b151590565b606061383a848460008585614bf085614bd6565b614c41576040805162461bcd60e51b815260206004820152601d60248201527f416464726573733a2063616c6c20746f206e6f6e2d636f6e7472616374000000604482015290519081900360640190fd5b60006060866001600160a01b031685876040518082805190602001908083835b60208310614c805780518252601f199092019160209182019101614c61565b6001836020036101000a03801982511681845116808217855250505050505090500191505060006040518083038185875af1925050503d8060008114614ce2576040519150601f19603f3d011682016040523d82523d6000602084013e614ce7565b606091505b5091509150614cf7828286614d02565b979650505050505050565b60608315614d11575081611638565b825115614d215782518084602001fd5b60405162461bcd60e51b815260206004820181815284516024840152845185939192839260440191908501908083836000831561459457818101518382015260200161457c565b828054600181600116156101000203166002900490600052602060002090601f016020900481019282601f10614da957805160ff1916838001178555614dd6565b82800160010185558215614dd6579182015b82811115614dd6578251825591602001919060010190614dbb565b50614de2929150614de6565b5090565b5b80821115614de25760008155600101614de756fe25334372656374207374796c65203d20276f7061636974793a302e363b6d69782d626c656e642d6d6f64653a6e6f726d616c3b66696c6c3a6e6f6e653b7374726f6b653a2532333062393130303b7374726f6b652d77696474683a31353b7374726f6b652d6c696e656a6f696e3a6d697465723b7374726f6b652d6d697465726c696d69743a343b7374726f6b652d6461736861727261793a6e6f6e653b7374726f6b652d6f7061636974793a313b7061696e742d6f726465723a6e6f726d616c27206964203d20277265637439323627207769647468203d20273331352720686569676874203d2027333135272078203d20273137272079203d2027313727202f2533452025334372656374207374796c65203d20276f7061636974793a302e33333b6d69782d626c656e642d6d6f64653a6e6f726d616c3b66696c6c3a6e6f6e653b7374726f6b653a2532333062393130303b7374726f6b652d77696474683a312e38323439363b7374726f6b652d6c696e656a6f696e3a6d697465723b7374726f6b652d6d697465726c696d69743a343b7374726f6b652d6461736861727261793a6e6f6e653b7374726f6b652d6f7061636974793a313b7061696e742d6f726465723a6e6f726d616c27206964203d2027726563743932362d3427207769647468203d20273238382720686569676874203d2027323838272078203d20273331272079203d2027333127202f253345456e756d657261626c655365743a20696e646578206f7574206f6620626f756e64732533437465787420783d2733352720793d273630272020666f6e742d7765696768743d27626f6c64272066696c6c3d2762726f776e27253345537472696b652050726963653a2533432f746578742533452533437465787420783d2733352720793d273735272020666f6e742d7765696768743d27626f6c64272066696c6c3d2762726f776e272533455553444320496e7665737465643a2533432f7465787425334525334373766720786d6c6e733d27687474703a2f2f7777772e77332e6f72672f323030302f737667272077696474683d2733353027206865696768743d273335302725334520253343726563742077696474683d2733353027206865696768743d2733353027207374796c653d2766696c6c3a726762283235352c3235352c323535293b7374726f6b652d77696474683a333b7374726f6b653a72676228302c302c302927202f2533454552433732313a207472616e7366657220746f206e6f6e20455243373231526563656976657220696d706c656d656e74657250657263656e742058206d75737420636f6e666f726d20746f3a203130203c3d2058203c203130304f776e61626c653a206e6577206f776e657220697320746865207a65726f20616464726573732533437465787420783d273530252720793d2732332720746578742d616e63686f723d276d6964646c652720666f6e742d7765696768743d27626f6c642720666f6e742d73697a653d27312e31656d272066696c6c3d277768697465272533452533437465787420783d273137352720793d2737352720666f6e742d7765696768743d276e6f726d616c272066696c6c3d2762726f776e27253345244552433732313a207472616e7366657220746f20746865207a65726f206164647265737327207374726f6b653d2727207374726f6b652d77696474683d2730272066696c6c3d27677265656e27202f253345616c726561647920696e2070726f63657373206f6620627579696e67206469702e4552433732313a206f70657261746f7220717565727920666f72206e6f6e6578697374656e7420746f6b656e253343636972636c65207374796c653d2766696c6c3a2532336666666666663b7374726f6b653a2532333030303030303b7374726f6b652d77696474683a343b7374726f6b652d6c696e656a6f696e3a726f756e643b7374726f6b652d6d697465726c696d69743a343b7374726f6b652d6461736861727261793a6e6f6e653b7374726f6b652d6f7061636974793a302e3332272069643d27706174683834362d35272063783d27313735272063793d273230302720723d27383027202f2533454142434445464748494a4b4c4d4e4f505152535455565758595a6162636465666768696a6b6c6d6e6f707172737475767778797a303132333435363738392d5f4552433732313a20617070726f76652063616c6c6572206973206e6f74206f776e6572206e6f7220617070726f76656420666f7220616c6c4552433732313a2062616c616e636520717565727920666f7220746865207a65726f2061646472657373253343636972636c65207374796c653d2766696c6c3a2532336666666666663b7374726f6b653a2532333030343562623b7374726f6b652d77696474683a312e33383b7374726f6b652d6c696e656a6f696e3a726f756e643b7374726f6b652d6f7061636974793a313b7374726f6b652d6d697465726c696d69743a343b7374726f6b652d6461736861727261793a6e6f6e65272069643d2770617468383436272063783d27313735272063793d273230302720723d2731303027202f253345204552433732313a206f776e657220717565727920666f72206e6f6e6578697374656e7420746f6b656e2533437465787420783d273137352720793d2734352720666f6e742d7765696768743d276e6f726d616c272066696c6c3d2762726f776e2725334524456e756d657261626c654d61703a20696e646578206f7574206f6620626f756e64734552433732313a20617070726f76656420717565727920666f72206e6f6e6578697374656e7420746f6b656e2c207b22646973706c61795f74797065223a20226e756d626572222c202274726169745f74797065223a20224469702056616c7565222c202276616c7565223a204552433732314d657461646174613a2055524920736574206f66206e6f6e6578697374656e7420746f6b656e7b226465736372697074696f6e223a2022546865204e4654206c696d6974206f726465722074686174206561726e73206d6f6e657921222533437465787420783d273137352720793d2736302720666f6e742d7765696768743d276e6f726d616c272066696c6c3d2762726f776e27253345244552433732313a207472616e73666572206f6620746f6b656e2074686174206973206e6f74206f776e4552433732314d657461646174613a2055524920717565727920666f72206e6f6e6578697374656e7420746f6b656e253343636972636c65207374796c653d2766696c6c3a2532336666666666663b7374726f6b653a2532333030343562623b7374726f6b652d77696474683a312e33383b7374726f6b652d6c696e656a6f696e3a726f756e643b7374726f6b652d6f7061636974793a313b7374726f6b652d6d697465726c696d69743a343b7374726f6b652d6461736861727261793a6e6f6e65272063783d27313735272063793d273230302720723d2731303027202f253345204552433732313a20617070726f76616c20746f2063757272656e74206f776e65722c202265787465726e616c5f75726c223a202268747470733a2f2f77656275797468656469702e636f6d222533437465787420783d273137352720793d2739302720666f6e742d7765696768743d276e6f726d616c272066696c6c3d2762726f776e2725334525334372656374207374796c653d276f7061636974793a302e33333b66696c6c3a2532333135373730303b66696c6c2d6f7061636974793a302e33333b7374726f6b653a2532333062393130303b7374726f6b652d77696474683a313b7374726f6b652d6c696e656361703a726f756e643b7374726f6b652d6c696e656a6f696e3a726f756e643b7374726f6b652d6d697465726c696d69743a343b7374726f6b652d6461736861727261793a6e6f6e653b7374726f6b652d6f7061636974793a313b7061696e742d6f726465723a6e6f726d616c272077696474683d2733353027206865696768743d273335302720783d27302720793d273027202f2533454552433732313a207472616e736665722063616c6c6572206973206e6f74206f776e6572206e6f7220617070726f7665642533437465787420783d2733352720793d2739302720666f6e742d7765696768743d27626f6c64272066696c6c3d2762726f776e27253345456e657267793a2533432f746578742533452533437465787420783d2733352720793d2734352720666f6e742d7765696768743d27626f6c64272066696c6c3d2762726f776e2725334543757272656e742050726963653a2533432f7465787425334525334370617468207374796c653d2766696c6c3a6e6f6e653b7374726f6b653a2532336666666666663b7374726f6b652d77696474683a31353b7374726f6b652d6c696e656361703a726f756e643b7374726f6b652d6c696e656a6f696e3a726f756e643b7374726f6b652d6d697465726c696d69743a343b7374726f6b652d6f7061636974793a312720643d276d203133392c3231382032302e342c32332e372035362e392c2d35362e3627202f253345202533437465787420783d2735352720793d27333138272066696c6c3d2762726f776e27253345436f6e67726174756c6174696f6e732120596f7520626f7567687420746865206469702e202533432f746578742533452533437465787420783d273530252720793d273333382720746578742d616e63686f723d276d6964646c652720666f6e742d7765696768743d27626f6c642720666f6e742d73697a653d27312e31656d272066696c6c3d2777686974652725334520455448455245554d202533432f74657874253345253343636972636c65207374796c653d2766696c6c3a2532336666666666663b7374726f6b653a2532333030303030303b7374726f6b652d77696474683a343b7374726f6b652d6c696e656a6f696e3a726f756e643b7374726f6b652d6d697465726c696d69743a343b7374726f6b652d6461736861727261793a6e6f6e653b7374726f6b652d6f7061636974793a302e3332272063783d27313735272063793d273230302720723d27383027202f2533452c202261747472696275746573223a205b7b22646973706c61795f74797065223a20226e756d626572222c202274726169745f74797065223a2022446970204c6576656c222c202276616c7565223a20a2646970667358221220a5fc0d345f779207057de6e9ce38c2c99baf14e2cafe95a5fda80ddaf5b5531664736f6c634300060c0033",
  "bytecodeSha1": "308ffc03c04d8766e371a49001740513bf76398f",
  "compiler": {
    "evm_version": "istanbul",
    "optimizer": {
      "enabled": true,
      "runs": 200
    },
    "version": "0.6.12+commit.27d51765"
  },
  "contractName": "BuyTheDipNFT",
  "language": "Solidity",
  "natspec": {
    "kind": "dev",
    "methods": {
      "approve(address,uint256)": {
        "details": "See {IERC721-approve}."
      },
      "balanceOf(address)": {
        "details": "See {IERC721-balanceOf}."
      },
      "baseURI()": {
        "details": "Returns the base URI set via {_setBaseURI}. This will be automatically added as a prefix in {tokenURI} to each token's URI, or to the token ID if no specific URI is set for that token ID."
      },
      "getAllNFTsByOwner(address)": {
        "details": "Get all NFTs owned by owner",
        "params": {
          "_addy": "-- address to get list of NFTs of"
        },
        "returns": {
          "_0": "-- list of token IDs owned by addy"
        }
      },
      "getApproved(uint256)": {
        "details": "See {IERC721-getApproved}."
      },
      "isApprovedForAll(address,address)": {
        "details": "See {IERC721-isApprovedForAll}."
      },
      "name()": {
        "details": "See {IERC721Metadata-name}."
      },
      "owner()": {
        "details": "Returns the address of the current owner."
      },
      "ownerOf(uint256)": {
        "details": "See {IERC721-ownerOf}."
      },
      "redip(uint256)": {
        "details": "Buying the dip again on existing NFTs"
      },
      "renounceOwnership()": {
        "details": "Leaves the contract without owner. It will not be possible to call `onlyOwner` functions anymore. Can only be called by the current owner. NOTE: Renouncing ownership will leave the contract without an owner, thereby removing any functionality that is only available to the owner."
      },
      "safeTransferFrom(address,address,uint256)": {
        "details": "See {IERC721-safeTransferFrom}."
      },
      "safeTransferFrom(address,address,uint256,bytes)": {
        "details": "See {IERC721-safeTransferFrom}."
      },
      "setApprovalForAll(address,bool)": {
        "details": "See {IERC721-setApprovalForAll}."
      },
      "supportsInterface(bytes4)": {
        "details": "See {IERC165-supportsInterface}. Time complexity O(1), guaranteed to always use less than 30 000 gas."
      },
      "symbol()": {
        "details": "See {IERC721Metadata-symbol}."
      },
      "tokenByIndex(uint256)": {
        "details": "See {IERC721Enumerable-tokenByIndex}."
      },
      "tokenOfOwnerByIndex(address,uint256)": {
        "details": "See {IERC721Enumerable-tokenOfOwnerByIndex}."
      },
      "totalSupply()": {
        "details": "See {IERC721Enumerable-totalSupply}."
      },
      "transferFrom(address,address,uint256)": {
        "details": "See {IERC721-transferFrom}."
      },
      "transferOwnership(address)": {
        "details": "Transfers ownership of the contract to a new account (`newOwner`). Can only be called by the current owner."
      }
    },
    "version": 1
  },
  "opcodes": "PUSH1 0x80 PUSH1 0x40 MSTORE PUSH1 0x4 CALLDATASIZE LT PUSH2 0x276 JUMPI PUSH1 0x0 CALLDATALOAD PUSH1 0xE0 SHR DUP1 PUSH4 0x4F6CCCE7 GT PUSH2 0x14F JUMPI DUP1 PUSH4 0x8E15F473 GT PUSH2 0xC1 JUMPI DUP1 PUSH4 0xD082E381 GT PUSH2 0x7A JUMPI DUP1 PUSH4 0xD082E381 EQ PUSH2 0xD3F JUMPI DUP1 PUSH4 0xE985E9C5 EQ PUSH2 0xD54 JUMPI DUP1 PUSH4 0xF2FDE38B EQ PUSH2 0xD8F JUMPI DUP1 PUSH4 0xFB1B0F29 EQ PUSH2 0xDC2 JUMPI DUP1 PUSH4 0xFC4A72FB EQ PUSH2 0xDEC JUMPI DUP1 PUSH4 0xFD4889C1 EQ PUSH2 0xE01 JUMPI PUSH2 0x2B7 JUMP JUMPDEST DUP1 PUSH4 0x8E15F473 EQ PUSH2 0xBAF JUMPI DUP1 PUSH4 0x95D89B41 EQ PUSH2 0xBC4 JUMPI DUP1 PUSH4 0xA22CB465 EQ PUSH2 0xBD9 JUMPI DUP1 PUSH4 0xAE153E3E EQ PUSH2 0xC14 JUMPI DUP1 PUSH4 0xB88D4FDE EQ PUSH2 0xC44 JUMPI DUP1 PUSH4 0xC87B56DD EQ PUSH2 0xD15 JUMPI PUSH2 0x2B7 JUMP JUMPDEST DUP1 PUSH4 0x6E04FF0D GT PUSH2 0x113 JUMPI DUP1 PUSH4 0x6E04FF0D EQ PUSH2 0xA24 JUMPI DUP1 PUSH4 0x70A08231 EQ PUSH2 0xB20 JUMPI DUP1 PUSH4 0x715018A6 EQ PUSH2 0xB53 JUMPI DUP1 PUSH4 0x8B772BA4 EQ PUSH2 0xB68 JUMPI DUP1 PUSH4 0x8D98EBC1 EQ PUSH2 0xB85 JUMPI DUP1 PUSH4 0x8DA5CB5B EQ PUSH2 0xB9A JUMPI PUSH2 0x2B7 JUMP JUMPDEST DUP1 PUSH4 0x4F6CCCE7 EQ PUSH2 0x90E JUMPI DUP1 PUSH4 0x5D2E1157 EQ PUSH2 0x938 JUMPI DUP1 PUSH4 0x60570068 EQ PUSH2 0x9BB JUMPI DUP1 PUSH4 0x6352211E EQ PUSH2 0x9E5 JUMPI DUP1 PUSH4 0x6C0360EB EQ PUSH2 0xA0F JUMPI PUSH2 0x2B7 JUMP JUMPDEST DUP1 PUSH4 0x23B872DD GT PUSH2 0x1E8 JUMPI DUP1 PUSH4 0x42842E0E GT PUSH2 0x1AC JUMPI DUP1 PUSH4 0x42842E0E EQ PUSH2 0x790 JUMPI DUP1 PUSH4 0x43413E8A EQ PUSH2 0x7D3 JUMPI DUP1 PUSH4 0x4585E33B EQ PUSH2 0x7F6 JUMPI DUP1 PUSH4 0x4661720A EQ PUSH2 0x871 JUMPI DUP1 PUSH4 0x47B6B491 EQ PUSH2 0x89B JUMPI DUP1 PUSH4 0x498A4AF3 EQ PUSH2 0x8DB JUMPI PUSH2 0x2B7 JUMP JUMPDEST DUP1 PUSH4 0x23B872DD EQ PUSH2 0x639 JUMPI DUP1 PUSH4 0x2F745C59 EQ PUSH2 0x67C JUMPI DUP1 PUSH4 0x30D871C6 EQ PUSH2 0x6B5 JUMPI DUP1 PUSH4 0x351C7D35 EQ PUSH2 0x766 JUMPI DUP1 PUSH4 0x355C8973 EQ PUSH2 0x77B JUMPI PUSH2 0x2B7 JUMP JUMPDEST DUP1 PUSH4 0x95EA7B3 GT PUSH2 0x23A JUMPI DUP1 PUSH4 0x95EA7B3 EQ PUSH2 0x4B8 JUMPI DUP1 PUSH4 0xA537537 EQ PUSH2 0x4F1 JUMPI DUP1 PUSH4 0x162094C4 EQ PUSH2 0x52D JUMPI DUP1 PUSH4 0x18160DDD EQ PUSH2 0x5E5 JUMPI DUP1 PUSH4 0x18FF04EE EQ PUSH2 0x5FA JUMPI DUP1 PUSH4 0x2223C5F1 EQ PUSH2 0x60F JUMPI PUSH2 0x2B7 JUMP JUMPDEST DUP1 PUSH4 0x1FFC9A7 EQ PUSH2 0x2BC JUMPI DUP1 PUSH4 0x419E314 EQ PUSH2 0x304 JUMPI DUP1 PUSH4 0x4276B2F EQ PUSH2 0x431 JUMPI DUP1 PUSH4 0x6FDDE03 EQ PUSH2 0x45D JUMPI DUP1 PUSH4 0x81812FC EQ PUSH2 0x472 JUMPI PUSH2 0x2B7 JUMP JUMPDEST CALLDATASIZE PUSH2 0x2B7 JUMPI PUSH1 0x40 DUP1 MLOAD CALLER DUP2 MSTORE CALLVALUE PUSH1 0x20 DUP3 ADD MSTORE DUP2 MLOAD PUSH32 0x88A5966D370B9919B20F3E2C13FF65706F196A4E32CC2C12BF57088F88525874 SWAP3 SWAP2 DUP2 SWAP1 SUB SWAP1 SWAP2 ADD SWAP1 LOG1 STOP JUMPDEST PUSH1 0x0 DUP1 REVERT JUMPDEST CALLVALUE DUP1 ISZERO PUSH2 0x2C8 JUMPI PUSH1 0x0 DUP1 REVERT JUMPDEST POP PUSH2 0x2F0 PUSH1 0x4 DUP1 CALLDATASIZE SUB PUSH1 0x20 DUP2 LT ISZERO PUSH2 0x2DF JUMPI PUSH1 0x0 DUP1 REVERT JUMPDEST POP CALLDATALOAD PUSH1 0x1 PUSH1 0x1 PUSH1 0xE0 SHL SUB NOT AND PUSH2 0xE2B JUMP JUMPDEST PUSH1 0x40 DUP1 MLOAD SWAP2 ISZERO ISZERO DUP3 MSTORE MLOAD SWAP1 DUP2 SWAP1 SUB PUSH1 0x20 ADD SWAP1 RETURN JUMPDEST CALLVALUE DUP1 ISZERO PUSH2 0x310 JUMPI PUSH1 0x0 DUP1 REVERT JUMPDEST POP PUSH2 0x3BC PUSH1 0x4 DUP1 CALLDATASIZE SUB PUSH1 0x40 DUP2 LT ISZERO PUSH2 0x327 JUMPI PUSH1 0x0 DUP1 REVERT JUMPDEST DUP2 CALLDATALOAD SWAP2 SWAP1 DUP2 ADD SWAP1 PUSH1 0x40 DUP2 ADD PUSH1 0x20 DUP3 ADD CALLDATALOAD PUSH1 0x1 PUSH1 0x20 SHL DUP2 GT ISZERO PUSH2 0x348 JUMPI PUSH1 0x0 DUP1 REVERT JUMPDEST DUP3 ADD DUP4 PUSH1 0x20 DUP3 ADD GT ISZERO PUSH2 0x35A JUMPI PUSH1 0x0 DUP1 REVERT JUMPDEST DUP1 CALLDATALOAD SWAP1 PUSH1 0x20 ADD SWAP2 DUP5 PUSH1 0x1 DUP4 MUL DUP5 ADD GT PUSH1 0x1 PUSH1 0x20 SHL DUP4 GT OR ISZERO PUSH2 0x37B JUMPI PUSH1 0x0 DUP1 REVERT JUMPDEST SWAP2 SWAP1 DUP1 DUP1 PUSH1 0x1F ADD PUSH1 0x20 DUP1 SWAP2 DIV MUL PUSH1 0x20 ADD PUSH1 0x40 MLOAD SWAP1 DUP2 ADD PUSH1 0x40 MSTORE DUP1 SWAP4 SWAP3 SWAP2 SWAP1 DUP2 DUP2 MSTORE PUSH1 0x20 ADD DUP4 DUP4 DUP1 DUP3 DUP5 CALLDATACOPY PUSH1 0x0 SWAP3 ADD SWAP2 SWAP1 SWAP2 MSTORE POP SWAP3 SWAP6 POP PUSH2 0xE4E SWAP5 POP POP POP POP POP JUMP JUMPDEST PUSH1 0x40 DUP1 MLOAD PUSH1 0x20 DUP1 DUP3 MSTORE DUP4 MLOAD DUP2 DUP4 ADD MSTORE DUP4 MLOAD SWAP2 SWAP3 DUP4 SWAP3 SWAP1 DUP4 ADD SWAP2 DUP6 ADD SWAP1 DUP1 DUP4 DUP4 PUSH1 0x0 JUMPDEST DUP4 DUP2 LT ISZERO PUSH2 0x3F6 JUMPI DUP2 DUP2 ADD MLOAD DUP4 DUP3 ADD MSTORE PUSH1 0x20 ADD PUSH2 0x3DE JUMP JUMPDEST POP POP POP POP SWAP1 POP SWAP1 DUP2 ADD SWAP1 PUSH1 0x1F AND DUP1 ISZERO PUSH2 0x423 JUMPI DUP1 DUP3 SUB DUP1 MLOAD PUSH1 0x1 DUP4 PUSH1 0x20 SUB PUSH2 0x100 EXP SUB NOT AND DUP2 MSTORE PUSH1 0x20 ADD SWAP2 POP JUMPDEST POP SWAP3 POP POP POP PUSH1 0x40 MLOAD DUP1 SWAP2 SUB SWAP1 RETURN JUMPDEST CALLVALUE DUP1 ISZERO PUSH2 0x43D JUMPI PUSH1 0x0 DUP1 REVERT JUMPDEST POP PUSH2 0x45B PUSH1 0x4 DUP1 CALLDATASIZE SUB PUSH1 0x20 DUP2 LT ISZERO PUSH2 0x454 JUMPI PUSH1 0x0 DUP1 REVERT JUMPDEST POP CALLDATALOAD PUSH2 0x10F4 JUMP JUMPDEST STOP JUMPDEST CALLVALUE DUP1 ISZERO PUSH2 0x469 JUMPI PUSH1 0x0 DUP1 REVERT JUMPDEST POP PUSH2 0x3BC PUSH2 0x12CE JUMP JUMPDEST CALLVALUE DUP1 ISZERO PUSH2 0x47E JUMPI PUSH1 0x0 DUP1 REVERT JUMPDEST POP PUSH2 0x49C PUSH1 0x4 DUP1 CALLDATASIZE SUB PUSH1 0x20 DUP2 LT ISZERO PUSH2 0x495 JUMPI PUSH1 0x0 DUP1 REVERT JUMPDEST POP CALLDATALOAD PUSH2 0x1364 JUMP JUMPDEST PUSH1 0x40 DUP1 MLOAD PUSH1 0x1 PUSH1 0x1 PUSH1 0xA0 SHL SUB SWAP1 SWAP3 AND DUP3 MSTORE MLOAD SWAP1 DUP2 SWAP1 SUB PUSH1 0x20 ADD SWAP1 RETURN JUMPDEST CALLVALUE DUP1 ISZERO PUSH2 0x4C4 JUMPI PUSH1 0x0 DUP1 REVERT JUMPDEST POP PUSH2 0x45B PUSH1 0x4 DUP1 CALLDATASIZE SUB PUSH1 0x40 DUP2 LT ISZERO PUSH2 0x4DB JUMPI PUSH1 0x0 DUP1 REVERT JUMPDEST POP PUSH1 0x1 PUSH1 0x1 PUSH1 0xA0 SHL SUB DUP2 CALLDATALOAD AND SWAP1 PUSH1 0x20 ADD CALLDATALOAD PUSH2 0x13C6 JUMP JUMPDEST CALLVALUE DUP1 ISZERO PUSH2 0x4FD JUMPI PUSH1 0x0 DUP1 REVERT JUMPDEST POP PUSH2 0x51B PUSH1 0x4 DUP1 CALLDATASIZE SUB PUSH1 0x20 DUP2 LT ISZERO PUSH2 0x514 JUMPI PUSH1 0x0 DUP1 REVERT JUMPDEST POP CALLDATALOAD PUSH2 0x14A1 JUMP JUMPDEST PUSH1 0x40 DUP1 MLOAD SWAP2 DUP3 MSTORE MLOAD SWAP1 DUP2 SWAP1 SUB PUSH1 0x20 ADD SWAP1 RETURN JUMPDEST CALLVALUE DUP1 ISZERO PUSH2 0x539 JUMPI PUSH1 0x0 DUP1 REVERT JUMPDEST POP PUSH2 0x45B PUSH1 0x4 DUP1 CALLDATASIZE SUB PUSH1 0x40 DUP2 LT ISZERO PUSH2 0x550 JUMPI PUSH1 0x0 DUP1 REVERT JUMPDEST DUP2 CALLDATALOAD SWAP2 SWAP1 DUP2 ADD SWAP1 PUSH1 0x40 DUP2 ADD PUSH1 0x20 DUP3 ADD CALLDATALOAD PUSH1 0x1 PUSH1 0x20 SHL DUP2 GT ISZERO PUSH2 0x571 JUMPI PUSH1 0x0 DUP1 REVERT JUMPDEST DUP3 ADD DUP4 PUSH1 0x20 DUP3 ADD GT ISZERO PUSH2 0x583 JUMPI PUSH1 0x0 DUP1 REVERT JUMPDEST DUP1 CALLDATALOAD SWAP1 PUSH1 0x20 ADD SWAP2 DUP5 PUSH1 0x1 DUP4 MUL DUP5 ADD GT PUSH1 0x1 PUSH1 0x20 SHL DUP4 GT OR ISZERO PUSH2 0x5A4 JUMPI PUSH1 0x0 DUP1 REVERT JUMPDEST SWAP2 SWAP1 DUP1 DUP1 PUSH1 0x1F ADD PUSH1 0x20 DUP1 SWAP2 DIV MUL PUSH1 0x20 ADD PUSH1 0x40 MLOAD SWAP1 DUP2 ADD PUSH1 0x40 MSTORE DUP1 SWAP4 SWAP3 SWAP2 SWAP1 DUP2 DUP2 MSTORE PUSH1 0x20 ADD DUP4 DUP4 DUP1 DUP3 DUP5 CALLDATACOPY PUSH1 0x0 SWAP3 ADD SWAP2 SWAP1 SWAP2 MSTORE POP SWAP3 SWAP6 POP PUSH2 0x14B3 SWAP5 POP POP POP POP POP JUMP JUMPDEST CALLVALUE DUP1 ISZERO PUSH2 0x5F1 JUMPI PUSH1 0x0 DUP1 REVERT JUMPDEST POP PUSH2 0x51B PUSH2 0x150D JUMP JUMPDEST CALLVALUE DUP1 ISZERO PUSH2 0x606 JUMPI PUSH1 0x0 DUP1 REVERT JUMPDEST POP PUSH2 0x45B PUSH2 0x151E JUMP JUMPDEST CALLVALUE DUP1 ISZERO PUSH2 0x61B JUMPI PUSH1 0x0 DUP1 REVERT JUMPDEST POP PUSH2 0x51B PUSH1 0x4 DUP1 CALLDATASIZE SUB PUSH1 0x20 DUP2 LT ISZERO PUSH2 0x632 JUMPI PUSH1 0x0 DUP1 REVERT JUMPDEST POP CALLDATALOAD PUSH2 0x15AD JUMP JUMPDEST CALLVALUE DUP1 ISZERO PUSH2 0x645 JUMPI PUSH1 0x0 DUP1 REVERT JUMPDEST POP PUSH2 0x45B PUSH1 0x4 DUP1 CALLDATASIZE SUB PUSH1 0x60 DUP2 LT ISZERO PUSH2 0x65C JUMPI PUSH1 0x0 DUP1 REVERT JUMPDEST POP PUSH1 0x1 PUSH1 0x1 PUSH1 0xA0 SHL SUB DUP2 CALLDATALOAD DUP2 AND SWAP2 PUSH1 0x20 DUP2 ADD CALLDATALOAD SWAP1 SWAP2 AND SWAP1 PUSH1 0x40 ADD CALLDATALOAD PUSH2 0x15BF JUMP JUMPDEST CALLVALUE DUP1 ISZERO PUSH2 0x688 JUMPI PUSH1 0x0 DUP1 REVERT JUMPDEST POP PUSH2 0x51B PUSH1 0x4 DUP1 CALLDATASIZE SUB PUSH1 0x40 DUP2 LT ISZERO PUSH2 0x69F JUMPI PUSH1 0x0 DUP1 REVERT JUMPDEST POP PUSH1 0x1 PUSH1 0x1 PUSH1 0xA0 SHL SUB DUP2 CALLDATALOAD AND SWAP1 PUSH1 0x20 ADD CALLDATALOAD PUSH2 0x1616 JUMP JUMPDEST CALLVALUE DUP1 ISZERO PUSH2 0x6C1 JUMPI PUSH1 0x0 DUP1 REVERT JUMPDEST POP PUSH2 0x3BC PUSH1 0x4 DUP1 CALLDATASIZE SUB PUSH1 0x20 DUP2 LT ISZERO PUSH2 0x6D8 JUMPI PUSH1 0x0 DUP1 REVERT JUMPDEST DUP2 ADD SWAP1 PUSH1 0x20 DUP2 ADD DUP2 CALLDATALOAD PUSH1 0x1 PUSH1 0x20 SHL DUP2 GT ISZERO PUSH2 0x6F2 JUMPI PUSH1 0x0 DUP1 REVERT JUMPDEST DUP3 ADD DUP4 PUSH1 0x20 DUP3 ADD GT ISZERO PUSH2 0x704 JUMPI PUSH1 0x0 DUP1 REVERT JUMPDEST DUP1 CALLDATALOAD SWAP1 PUSH1 0x20 ADD SWAP2 DUP5 PUSH1 0x1 DUP4 MUL DUP5 ADD GT PUSH1 0x1 PUSH1 0x20 SHL DUP4 GT OR ISZERO PUSH2 0x725 JUMPI PUSH1 0x0 DUP1 REVERT JUMPDEST SWAP2 SWAP1 DUP1 DUP1 PUSH1 0x1F ADD PUSH1 0x20 DUP1 SWAP2 DIV MUL PUSH1 0x20 ADD PUSH1 0x40 MLOAD SWAP1 DUP2 ADD PUSH1 0x40 MSTORE DUP1 SWAP4 SWAP3 SWAP2 SWAP1 DUP2 DUP2 MSTORE PUSH1 0x20 ADD DUP4 DUP4 DUP1 DUP3 DUP5 CALLDATACOPY PUSH1 0x0 SWAP3 ADD SWAP2 SWAP1 SWAP2 MSTORE POP SWAP3 SWAP6 POP PUSH2 0x163F SWAP5 POP POP POP POP POP JUMP JUMPDEST CALLVALUE DUP1 ISZERO PUSH2 0x772 JUMPI PUSH1 0x0 DUP1 REVERT JUMPDEST POP PUSH2 0x49C PUSH2 0x17FD JUMP JUMPDEST CALLVALUE DUP1 ISZERO PUSH2 0x787 JUMPI PUSH1 0x0 DUP1 REVERT JUMPDEST POP PUSH2 0x49C PUSH2 0x180C JUMP JUMPDEST CALLVALUE DUP1 ISZERO PUSH2 0x79C JUMPI PUSH1 0x0 DUP1 REVERT JUMPDEST POP PUSH2 0x45B PUSH1 0x4 DUP1 CALLDATASIZE SUB PUSH1 0x60 DUP2 LT ISZERO PUSH2 0x7B3 JUMPI PUSH1 0x0 DUP1 REVERT JUMPDEST POP PUSH1 0x1 PUSH1 0x1 PUSH1 0xA0 SHL SUB DUP2 CALLDATALOAD DUP2 AND SWAP2 PUSH1 0x20 DUP2 ADD CALLDATALOAD SWAP1 SWAP2 AND SWAP1 PUSH1 0x40 ADD CALLDATALOAD PUSH2 0x181B JUMP JUMPDEST PUSH2 0x51B PUSH1 0x4 DUP1 CALLDATASIZE SUB PUSH1 0x20 DUP2 LT ISZERO PUSH2 0x7E9 JUMPI PUSH1 0x0 DUP1 REVERT JUMPDEST POP CALLDATALOAD PUSH4 0xFFFFFFFF AND PUSH2 0x1836 JUMP JUMPDEST CALLVALUE DUP1 ISZERO PUSH2 0x802 JUMPI PUSH1 0x0 DUP1 REVERT JUMPDEST POP PUSH2 0x45B PUSH1 0x4 DUP1 CALLDATASIZE SUB PUSH1 0x20 DUP2 LT ISZERO PUSH2 0x819 JUMPI PUSH1 0x0 DUP1 REVERT JUMPDEST DUP2 ADD SWAP1 PUSH1 0x20 DUP2 ADD DUP2 CALLDATALOAD PUSH1 0x1 PUSH1 0x20 SHL DUP2 GT ISZERO PUSH2 0x833 JUMPI PUSH1 0x0 DUP1 REVERT JUMPDEST DUP3 ADD DUP4 PUSH1 0x20 DUP3 ADD GT ISZERO PUSH2 0x845 JUMPI PUSH1 0x0 DUP1 REVERT JUMPDEST DUP1 CALLDATALOAD SWAP1 PUSH1 0x20 ADD SWAP2 DUP5 PUSH1 0x1 DUP4 MUL DUP5 ADD GT PUSH1 0x1 PUSH1 0x20 SHL DUP4 GT OR ISZERO PUSH2 0x866 JUMPI PUSH1 0x0 DUP1 REVERT JUMPDEST POP SWAP1 SWAP3 POP SWAP1 POP PUSH2 0x1509 JUMP JUMPDEST CALLVALUE DUP1 ISZERO PUSH2 0x87D JUMPI PUSH1 0x0 DUP1 REVERT JUMPDEST POP PUSH2 0x51B PUSH1 0x4 DUP1 CALLDATASIZE SUB PUSH1 0x20 DUP2 LT ISZERO PUSH2 0x894 JUMPI PUSH1 0x0 DUP1 REVERT JUMPDEST POP CALLDATALOAD PUSH2 0x1AAC JUMP JUMPDEST CALLVALUE DUP1 ISZERO PUSH2 0x8A7 JUMPI PUSH1 0x0 DUP1 REVERT JUMPDEST POP PUSH2 0x8C5 PUSH1 0x4 DUP1 CALLDATASIZE SUB PUSH1 0x20 DUP2 LT ISZERO PUSH2 0x8BE JUMPI PUSH1 0x0 DUP1 REVERT JUMPDEST POP CALLDATALOAD PUSH2 0x1ABE JUMP JUMPDEST PUSH1 0x40 DUP1 MLOAD PUSH1 0xFF SWAP1 SWAP3 AND DUP3 MSTORE MLOAD SWAP1 DUP2 SWAP1 SUB PUSH1 0x20 ADD SWAP1 RETURN JUMPDEST CALLVALUE DUP1 ISZERO PUSH2 0x8E7 JUMPI PUSH1 0x0 DUP1 REVERT JUMPDEST POP PUSH2 0x45B PUSH1 0x4 DUP1 CALLDATASIZE SUB PUSH1 0x40 DUP2 LT ISZERO PUSH2 0x8FE JUMPI PUSH1 0x0 DUP1 REVERT JUMPDEST POP DUP1 CALLDATALOAD SWAP1 PUSH1 0x20 ADD CALLDATALOAD PUSH1 0xFF AND PUSH2 0x1AD3 JUMP JUMPDEST CALLVALUE DUP1 ISZERO PUSH2 0x91A JUMPI PUSH1 0x0 DUP1 REVERT JUMPDEST POP PUSH2 0x51B PUSH1 0x4 DUP1 CALLDATASIZE SUB PUSH1 0x20 DUP2 LT ISZERO PUSH2 0x931 JUMPI PUSH1 0x0 DUP1 REVERT JUMPDEST POP CALLDATALOAD PUSH2 0x1BFD JUMP JUMPDEST CALLVALUE DUP1 ISZERO PUSH2 0x944 JUMPI PUSH1 0x0 DUP1 REVERT JUMPDEST POP PUSH2 0x96B PUSH1 0x4 DUP1 CALLDATASIZE SUB PUSH1 0x20 DUP2 LT ISZERO PUSH2 0x95B JUMPI PUSH1 0x0 DUP1 REVERT JUMPDEST POP CALLDATALOAD PUSH1 0x1 PUSH1 0x1 PUSH1 0xA0 SHL SUB AND PUSH2 0x1C13 JUMP JUMPDEST PUSH1 0x40 DUP1 MLOAD PUSH1 0x20 DUP1 DUP3 MSTORE DUP4 MLOAD DUP2 DUP4 ADD MSTORE DUP4 MLOAD SWAP2 SWAP3 DUP4 SWAP3 SWAP1 DUP4 ADD SWAP2 DUP6 DUP2 ADD SWAP2 MUL DUP1 DUP4 DUP4 PUSH1 0x0 JUMPDEST DUP4 DUP2 LT ISZERO PUSH2 0x9A7 JUMPI DUP2 DUP2 ADD MLOAD DUP4 DUP3 ADD MSTORE PUSH1 0x20 ADD PUSH2 0x98F JUMP JUMPDEST POP POP POP POP SWAP1 POP ADD SWAP3 POP POP POP PUSH1 0x40 MLOAD DUP1 SWAP2 SUB SWAP1 RETURN JUMPDEST CALLVALUE DUP1 ISZERO PUSH2 0x9C7 JUMPI PUSH1 0x0 DUP1 REVERT JUMPDEST POP PUSH2 0x45B PUSH1 0x4 DUP1 CALLDATASIZE SUB PUSH1 0x20 DUP2 LT ISZERO PUSH2 0x9DE JUMPI PUSH1 0x0 DUP1 REVERT JUMPDEST POP CALLDATALOAD PUSH2 0x1D03 JUMP JUMPDEST CALLVALUE DUP1 ISZERO PUSH2 0x9F1 JUMPI PUSH1 0x0 DUP1 REVERT JUMPDEST POP PUSH2 0x49C PUSH1 0x4 DUP1 CALLDATASIZE SUB PUSH1 0x20 DUP2 LT ISZERO PUSH2 0xA08 JUMPI PUSH1 0x0 DUP1 REVERT JUMPDEST POP CALLDATALOAD PUSH2 0x1E50 JUMP JUMPDEST CALLVALUE DUP1 ISZERO PUSH2 0xA1B JUMPI PUSH1 0x0 DUP1 REVERT JUMPDEST POP PUSH2 0x3BC PUSH2 0x1E78 JUMP JUMPDEST CALLVALUE DUP1 ISZERO PUSH2 0xA30 JUMPI PUSH1 0x0 DUP1 REVERT JUMPDEST POP PUSH2 0xA9F PUSH1 0x4 DUP1 CALLDATASIZE SUB PUSH1 0x20 DUP2 LT ISZERO PUSH2 0xA47 JUMPI PUSH1 0x0 DUP1 REVERT JUMPDEST DUP2 ADD SWAP1 PUSH1 0x20 DUP2 ADD DUP2 CALLDATALOAD PUSH1 0x1 PUSH1 0x20 SHL DUP2 GT ISZERO PUSH2 0xA61 JUMPI PUSH1 0x0 DUP1 REVERT JUMPDEST DUP3 ADD DUP4 PUSH1 0x20 DUP3 ADD GT ISZERO PUSH2 0xA73 JUMPI PUSH1 0x0 DUP1 REVERT JUMPDEST DUP1 CALLDATALOAD SWAP1 PUSH1 0x20 ADD SWAP2 DUP5 PUSH1 0x1 DUP4 MUL DUP5 ADD GT PUSH1 0x1 PUSH1 0x20 SHL DUP4 GT OR ISZERO PUSH2 0xA94 JUMPI PUSH1 0x0 DUP1 REVERT JUMPDEST POP SWAP1 SWAP3 POP SWAP1 POP PUSH2 0x1ED9 JUMP JUMPDEST PUSH1 0x40 MLOAD DUP1 DUP4 ISZERO ISZERO DUP2 MSTORE PUSH1 0x20 ADD DUP1 PUSH1 0x20 ADD DUP3 DUP2 SUB DUP3 MSTORE DUP4 DUP2 DUP2 MLOAD DUP2 MSTORE PUSH1 0x20 ADD SWAP2 POP DUP1 MLOAD SWAP1 PUSH1 0x20 ADD SWAP1 DUP1 DUP4 DUP4 PUSH1 0x0 JUMPDEST DUP4 DUP2 LT ISZERO PUSH2 0xAE4 JUMPI DUP2 DUP2 ADD MLOAD DUP4 DUP3 ADD MSTORE PUSH1 0x20 ADD PUSH2 0xACC JUMP JUMPDEST POP POP POP POP SWAP1 POP SWAP1 DUP2 ADD SWAP1 PUSH1 0x1F AND DUP1 ISZERO PUSH2 0xB11 JUMPI DUP1 DUP3 SUB DUP1 MLOAD PUSH1 0x1 DUP4 PUSH1 0x20 SUB PUSH2 0x100 EXP SUB NOT AND DUP2 MSTORE PUSH1 0x20 ADD SWAP2 POP JUMPDEST POP SWAP4 POP POP POP POP PUSH1 0x40 MLOAD DUP1 SWAP2 SUB SWAP1 RETURN JUMPDEST CALLVALUE DUP1 ISZERO PUSH2 0xB2C JUMPI PUSH1 0x0 DUP1 REVERT JUMPDEST POP PUSH2 0x51B PUSH1 0x4 DUP1 CALLDATASIZE SUB PUSH1 0x20 DUP2 LT ISZERO PUSH2 0xB43 JUMPI PUSH1 0x0 DUP1 REVERT JUMPDEST POP CALLDATALOAD PUSH1 0x1 PUSH1 0x1 PUSH1 0xA0 SHL SUB AND PUSH2 0x1F22 JUMP JUMPDEST CALLVALUE DUP1 ISZERO PUSH2 0xB5F JUMPI PUSH1 0x0 DUP1 REVERT JUMPDEST POP PUSH2 0x45B PUSH2 0x1F8A JUMP JUMPDEST PUSH2 0x51B PUSH1 0x4 DUP1 CALLDATASIZE SUB PUSH1 0x20 DUP2 LT ISZERO PUSH2 0xB7E JUMPI PUSH1 0x0 DUP1 REVERT JUMPDEST POP CALLDATALOAD PUSH2 0x2048 JUMP JUMPDEST CALLVALUE DUP1 ISZERO PUSH2 0xB91 JUMPI PUSH1 0x0 DUP1 REVERT JUMPDEST POP PUSH2 0x51B PUSH2 0x222F JUMP JUMPDEST CALLVALUE DUP1 ISZERO PUSH2 0xBA6 JUMPI PUSH1 0x0 DUP1 REVERT JUMPDEST POP PUSH2 0x49C PUSH2 0x2235 JUMP JUMPDEST CALLVALUE DUP1 ISZERO PUSH2 0xBBB JUMPI PUSH1 0x0 DUP1 REVERT JUMPDEST POP PUSH2 0x51B PUSH2 0x2244 JUMP JUMPDEST CALLVALUE DUP1 ISZERO PUSH2 0xBD0 JUMPI PUSH1 0x0 DUP1 REVERT JUMPDEST POP PUSH2 0x3BC PUSH2 0x233B JUMP JUMPDEST CALLVALUE DUP1 ISZERO PUSH2 0xBE5 JUMPI PUSH1 0x0 DUP1 REVERT JUMPDEST POP PUSH2 0x45B PUSH1 0x4 DUP1 CALLDATASIZE SUB PUSH1 0x40 DUP2 LT ISZERO PUSH2 0xBFC JUMPI PUSH1 0x0 DUP1 REVERT JUMPDEST POP PUSH1 0x1 PUSH1 0x1 PUSH1 0xA0 SHL SUB DUP2 CALLDATALOAD AND SWAP1 PUSH1 0x20 ADD CALLDATALOAD ISZERO ISZERO PUSH2 0x239C JUMP JUMPDEST CALLVALUE DUP1 ISZERO PUSH2 0xC20 JUMPI PUSH1 0x0 DUP1 REVERT JUMPDEST POP PUSH2 0x45B PUSH1 0x4 DUP1 CALLDATASIZE SUB PUSH1 0x40 DUP2 LT ISZERO PUSH2 0xC37 JUMPI PUSH1 0x0 DUP1 REVERT JUMPDEST POP DUP1 CALLDATALOAD SWAP1 PUSH1 0x20 ADD CALLDATALOAD PUSH2 0x24A1 JUMP JUMPDEST CALLVALUE DUP1 ISZERO PUSH2 0xC50 JUMPI PUSH1 0x0 DUP1 REVERT JUMPDEST POP PUSH2 0x45B PUSH1 0x4 DUP1 CALLDATASIZE SUB PUSH1 0x80 DUP2 LT ISZERO PUSH2 0xC67 JUMPI PUSH1 0x0 DUP1 REVERT JUMPDEST PUSH1 0x1 PUSH1 0x1 PUSH1 0xA0 SHL SUB DUP3 CALLDATALOAD DUP2 AND SWAP3 PUSH1 0x20 DUP2 ADD CALLDATALOAD SWAP1 SWAP2 AND SWAP2 PUSH1 0x40 DUP3 ADD CALLDATALOAD SWAP2 SWAP1 DUP2 ADD SWAP1 PUSH1 0x80 DUP2 ADD PUSH1 0x60 DUP3 ADD CALLDATALOAD PUSH1 0x1 PUSH1 0x20 SHL DUP2 GT ISZERO PUSH2 0xCA1 JUMPI PUSH1 0x0 DUP1 REVERT JUMPDEST DUP3 ADD DUP4 PUSH1 0x20 DUP3 ADD GT ISZERO PUSH2 0xCB3 JUMPI PUSH1 0x0 DUP1 REVERT JUMPDEST DUP1 CALLDATALOAD SWAP1 PUSH1 0x20 ADD SWAP2 DUP5 PUSH1 0x1 DUP4 MUL DUP5 ADD GT PUSH1 0x1 PUSH1 0x20 SHL DUP4 GT OR ISZERO PUSH2 0xCD4 JUMPI PUSH1 0x0 DUP1 REVERT JUMPDEST SWAP2 SWAP1 DUP1 DUP1 PUSH1 0x1F ADD PUSH1 0x20 DUP1 SWAP2 DIV MUL PUSH1 0x20 ADD PUSH1 0x40 MLOAD SWAP1 DUP2 ADD PUSH1 0x40 MSTORE DUP1 SWAP4 SWAP3 SWAP2 SWAP1 DUP2 DUP2 MSTORE PUSH1 0x20 ADD DUP4 DUP4 DUP1 DUP3 DUP5 CALLDATACOPY PUSH1 0x0 SWAP3 ADD SWAP2 SWAP1 SWAP2 MSTORE POP SWAP3 SWAP6 POP PUSH2 0x250E SWAP5 POP POP POP POP POP JUMP JUMPDEST CALLVALUE DUP1 ISZERO PUSH2 0xD21 JUMPI PUSH1 0x0 DUP1 REVERT JUMPDEST POP PUSH2 0x3BC PUSH1 0x4 DUP1 CALLDATASIZE SUB PUSH1 0x20 DUP2 LT ISZERO PUSH2 0xD38 JUMPI PUSH1 0x0 DUP1 REVERT JUMPDEST POP CALLDATALOAD PUSH2 0x2566 JUMP JUMPDEST CALLVALUE DUP1 ISZERO PUSH2 0xD4B JUMPI PUSH1 0x0 DUP1 REVERT JUMPDEST POP PUSH2 0x51B PUSH2 0x2BEE JUMP JUMPDEST CALLVALUE DUP1 ISZERO PUSH2 0xD60 JUMPI PUSH1 0x0 DUP1 REVERT JUMPDEST POP PUSH2 0x2F0 PUSH1 0x4 DUP1 CALLDATASIZE SUB PUSH1 0x40 DUP2 LT ISZERO PUSH2 0xD77 JUMPI PUSH1 0x0 DUP1 REVERT JUMPDEST POP PUSH1 0x1 PUSH1 0x1 PUSH1 0xA0 SHL SUB DUP2 CALLDATALOAD DUP2 AND SWAP2 PUSH1 0x20 ADD CALLDATALOAD AND PUSH2 0x2BF4 JUMP JUMPDEST CALLVALUE DUP1 ISZERO PUSH2 0xD9B JUMPI PUSH1 0x0 DUP1 REVERT JUMPDEST POP PUSH2 0x45B PUSH1 0x4 DUP1 CALLDATASIZE SUB PUSH1 0x20 DUP2 LT ISZERO PUSH2 0xDB2 JUMPI PUSH1 0x0 DUP1 REVERT JUMPDEST POP CALLDATALOAD PUSH1 0x1 PUSH1 0x1 PUSH1 0xA0 SHL SUB AND PUSH2 0x2C22 JUMP JUMPDEST CALLVALUE DUP1 ISZERO PUSH2 0xDCE JUMPI PUSH1 0x0 DUP1 REVERT JUMPDEST POP PUSH2 0x2F0 PUSH1 0x4 DUP1 CALLDATASIZE SUB PUSH1 0x20 DUP2 LT ISZERO PUSH2 0xDE5 JUMPI PUSH1 0x0 DUP1 REVERT JUMPDEST POP CALLDATALOAD PUSH2 0x2D37 JUMP JUMPDEST CALLVALUE DUP1 ISZERO PUSH2 0xDF8 JUMPI PUSH1 0x0 DUP1 REVERT JUMPDEST POP PUSH2 0x51B PUSH2 0x2D4C JUMP JUMPDEST CALLVALUE DUP1 ISZERO PUSH2 0xE0D JUMPI PUSH1 0x0 DUP1 REVERT JUMPDEST POP PUSH2 0x51B PUSH1 0x4 DUP1 CALLDATASIZE SUB PUSH1 0x20 DUP2 LT ISZERO PUSH2 0xE24 JUMPI PUSH1 0x0 DUP1 REVERT JUMPDEST POP CALLDATALOAD PUSH2 0x2D52 JUMP JUMPDEST PUSH1 0x1 PUSH1 0x1 PUSH1 0xE0 SHL SUB NOT DUP2 AND PUSH1 0x0 SWAP1 DUP2 MSTORE PUSH1 0x20 DUP2 SWAP1 MSTORE PUSH1 0x40 SWAP1 KECCAK256 SLOAD PUSH1 0xFF AND JUMPDEST SWAP2 SWAP1 POP JUMP JUMPDEST PUSH1 0x60 PUSH1 0x1 PUSH1 0x0 DUP5 DUP2 MSTORE PUSH1 0xC PUSH1 0x20 MSTORE PUSH1 0x40 SWAP1 KECCAK256 SLOAD PUSH2 0x105C SWAP1 DUP5 SWAP1 PUSH1 0xFF AND ISZERO PUSH2 0xE8E JUMPI PUSH1 0x40 MLOAD DUP1 PUSH1 0x40 ADD PUSH1 0x40 MSTORE DUP1 PUSH1 0x1 DUP2 MSTORE PUSH1 0x20 ADD PUSH1 0x31 PUSH1 0xF8 SHL DUP2 MSTORE POP PUSH2 0xEA9 JUMP JUMPDEST PUSH1 0x40 MLOAD DUP1 PUSH1 0x40 ADD PUSH1 0x40 MSTORE DUP1 PUSH1 0x1 DUP2 MSTORE PUSH1 0x20 ADD PUSH1 0x3 PUSH1 0xFC SHL DUP2 MSTORE POP JUMPDEST PUSH1 0x0 DUP8 DUP2 MSTORE PUSH1 0xD PUSH1 0x20 MSTORE PUSH1 0x40 SWAP1 KECCAK256 SLOAD PUSH2 0xEC1 SWAP1 PUSH2 0x2D64 JUMP JUMPDEST PUSH1 0x40 MLOAD PUSH1 0x20 ADD DUP1 PUSH1 0x37 PUSH2 0x567D DUP3 CODECOPY PUSH1 0x37 ADD PUSH1 0x2B PUSH2 0x581D DUP3 CODECOPY PUSH1 0x2B ADD DUP1 PUSH12 0x16101134B6B0B3B2911D1011 PUSH1 0xA1 SHL DUP2 MSTORE POP PUSH1 0xC ADD DUP5 DUP1 MLOAD SWAP1 PUSH1 0x20 ADD SWAP1 DUP1 DUP4 DUP4 JUMPDEST PUSH1 0x20 DUP4 LT PUSH2 0xF1E JUMPI DUP1 MLOAD DUP3 MSTORE PUSH1 0x1F NOT SWAP1 SWAP3 ADD SWAP2 PUSH1 0x20 SWAP2 DUP3 ADD SWAP2 ADD PUSH2 0xEFF JUMP JUMPDEST MLOAD DUP2 MLOAD PUSH1 0x20 SWAP4 SWAP1 SWAP4 SUB PUSH2 0x100 EXP PUSH1 0x0 NOT ADD DUP1 NOT SWAP1 SWAP2 AND SWAP3 AND SWAP2 SWAP1 SWAP2 OR SWAP1 MSTORE PUSH1 0x11 PUSH1 0xF9 SHL SWAP3 ADD SWAP2 DUP3 MSTORE POP PUSH21 0x1610113730B6B2911D1011213ABCAA3432A234B811 PUSH1 0x59 SHL PUSH1 0x1 DUP3 ADD MSTORE PUSH1 0x16 ADD PUSH1 0x50 PUSH2 0x5C80 DUP3 CODECOPY PUSH1 0x50 ADD DUP4 DUP1 MLOAD SWAP1 PUSH1 0x20 ADD SWAP1 DUP1 DUP4 DUP4 JUMPDEST PUSH1 0x20 DUP4 LT PUSH2 0xF9D JUMPI DUP1 MLOAD DUP3 MSTORE PUSH1 0x1F NOT SWAP1 SWAP3 ADD SWAP2 PUSH1 0x20 SWAP2 DUP3 ADD SWAP2 ADD PUSH2 0xF7E JUMP JUMPDEST MLOAD DUP2 MLOAD PUSH1 0x20 SWAP4 SWAP1 SWAP4 SUB PUSH2 0x100 EXP PUSH1 0x0 NOT ADD DUP1 NOT SWAP1 SWAP2 AND SWAP3 AND SWAP2 SWAP1 SWAP2 OR SWAP1 MSTORE PUSH2 0x207D PUSH1 0xF0 SHL SWAP3 ADD SWAP2 DUP3 MSTORE POP PUSH1 0x2 ADD PUSH1 0x41 PUSH2 0x5610 DUP3 CODECOPY PUSH1 0x41 ADD DUP3 DUP1 MLOAD SWAP1 PUSH1 0x20 ADD SWAP1 DUP1 DUP4 DUP4 JUMPDEST PUSH1 0x20 DUP4 LT PUSH2 0xFFF JUMPI DUP1 MLOAD DUP3 MSTORE PUSH1 0x1F NOT SWAP1 SWAP3 ADD SWAP2 PUSH1 0x20 SWAP2 DUP3 ADD SWAP2 ADD PUSH2 0xFE0 JUMP JUMPDEST MLOAD DUP2 MLOAD PUSH1 0x20 SWAP4 SWAP1 SWAP4 SUB PUSH2 0x100 EXP PUSH1 0x0 NOT ADD DUP1 NOT SWAP1 SWAP2 AND SWAP3 AND SWAP2 SWAP1 SWAP2 OR SWAP1 MSTORE PUSH2 0x207D PUSH1 0xF0 SHL SWAP3 ADD SWAP2 DUP3 MSTORE POP PUSH1 0x5D PUSH1 0xF8 SHL PUSH1 0x2 DUP3 ADD MSTORE PUSH1 0x7D PUSH1 0xF8 SHL PUSH1 0x3 DUP3 ADD MSTORE PUSH1 0x40 DUP1 MLOAD DUP1 DUP4 SUB PUSH1 0x1B NOT ADD DUP2 MSTORE PUSH1 0x4 SWAP1 SWAP3 ADD SWAP1 MSTORE SWAP4 POP PUSH2 0x2E3C SWAP3 POP POP POP JUMP JUMPDEST PUSH1 0x40 MLOAD PUSH1 0x20 ADD DUP1 DUP1 PUSH32 0x646174613A6170706C69636174696F6E2F6A736F6E3B6261736536342C000000 DUP2 MSTORE POP PUSH1 0x1D ADD DUP3 DUP1 MLOAD SWAP1 PUSH1 0x20 ADD SWAP1 DUP1 DUP4 DUP4 JUMPDEST PUSH1 0x20 DUP4 LT PUSH2 0x10B6 JUMPI DUP1 MLOAD DUP3 MSTORE PUSH1 0x1F NOT SWAP1 SWAP3 ADD SWAP2 PUSH1 0x20 SWAP2 DUP3 ADD SWAP2 ADD PUSH2 0x1097 JUMP JUMPDEST PUSH1 0x1 DUP4 PUSH1 0x20 SUB PUSH2 0x100 EXP SUB DUP1 NOT DUP3 MLOAD AND DUP2 DUP5 MLOAD AND DUP1 DUP3 OR DUP6 MSTORE POP POP POP POP POP POP SWAP1 POP ADD SWAP2 POP POP PUSH1 0x40 MLOAD PUSH1 0x20 DUP2 DUP4 SUB SUB DUP2 MSTORE SWAP1 PUSH1 0x40 MSTORE SWAP2 POP POP JUMPDEST SWAP3 SWAP2 POP POP JUMP JUMPDEST PUSH2 0x10FC PUSH2 0x2244 JUMP JUMPDEST PUSH1 0x0 DUP3 DUP2 MSTORE PUSH1 0xD PUSH1 0x20 MSTORE PUSH1 0x40 SWAP1 KECCAK256 SLOAD GT ISZERO PUSH2 0x1155 JUMPI PUSH1 0x40 DUP1 MLOAD PUSH3 0x461BCD PUSH1 0xE5 SHL DUP2 MSTORE PUSH1 0x20 PUSH1 0x4 DUP3 ADD MSTORE PUSH1 0x14 PUSH1 0x24 DUP3 ADD MSTORE PUSH20 0x141C9A58D94818589BDD9948191A5C13195D995B PUSH1 0x62 SHL PUSH1 0x44 DUP3 ADD MSTORE SWAP1 MLOAD SWAP1 DUP2 SWAP1 SUB PUSH1 0x64 ADD SWAP1 REVERT JUMPDEST PUSH1 0x0 SELFBALANCE SWAP1 POP PUSH1 0x0 PUSH2 0x1168 DUP4 PUSH1 0x18 SLOAD PUSH2 0x30B3 JUMP JUMPDEST PUSH1 0x21 SLOAD PUSH1 0x1F SLOAD PUSH1 0x40 DUP1 MLOAD PUSH4 0x95EA7B3 PUSH1 0xE0 SHL DUP2 MSTORE PUSH1 0x1 PUSH1 0x1 PUSH1 0xA0 SHL SUB SWAP3 DUP4 AND PUSH1 0x4 DUP3 ADD MSTORE PUSH1 0x24 DUP2 ADD DUP6 SWAP1 MSTORE SWAP1 MLOAD SWAP4 SWAP5 POP SWAP2 AND SWAP2 PUSH4 0x95EA7B3 SWAP2 PUSH1 0x44 DUP1 DUP3 ADD SWAP3 PUSH1 0x20 SWAP3 SWAP1 SWAP2 SWAP1 DUP3 SWAP1 SUB ADD DUP2 PUSH1 0x0 DUP8 DUP1 EXTCODESIZE ISZERO DUP1 ISZERO PUSH2 0x11C3 JUMPI PUSH1 0x0 DUP1 REVERT JUMPDEST POP GAS CALL ISZERO DUP1 ISZERO PUSH2 0x11D7 JUMPI RETURNDATASIZE PUSH1 0x0 DUP1 RETURNDATACOPY RETURNDATASIZE PUSH1 0x0 REVERT JUMPDEST POP POP POP POP PUSH1 0x40 MLOAD RETURNDATASIZE PUSH1 0x20 DUP2 LT ISZERO PUSH2 0x11ED JUMPI PUSH1 0x0 DUP1 REVERT JUMPDEST POP POP PUSH1 0x21 SLOAD PUSH1 0x0 SWAP1 DUP2 SWAP1 PUSH2 0x1226 SWAP1 DUP5 SWAP1 PUSH1 0x1 PUSH1 0x1 PUSH1 0xA0 SHL SUB AND PUSH2 0x120F DUP9 PUSH2 0x1E50 JUMP JUMPDEST PUSH1 0x1F SLOAD PUSH1 0x13 SLOAD PUSH1 0x1 PUSH1 0x1 PUSH1 0xA0 SHL SUB SWAP1 SWAP2 AND SWAP1 PUSH2 0x3282 JUMP JUMPDEST PUSH1 0x40 DUP1 MLOAD DUP3 DUP2 MSTORE TIMESTAMP PUSH1 0x20 DUP3 ADD MSTORE DUP2 MLOAD SWAP4 SWAP6 POP SWAP2 SWAP4 POP PUSH32 0x4BCDD9B8B0CADBBAFA70ADC1D3944DFB4731760C7D447E4C7DA9F6F5645F8C67 SWAP3 SWAP2 DUP3 SWAP1 SUB ADD SWAP1 LOG1 PUSH1 0x0 DUP6 DUP2 MSTORE PUSH1 0x10 PUSH1 0x20 SWAP1 DUP2 MSTORE PUSH1 0x40 DUP1 DUP4 KECCAK256 DUP1 SLOAD PUSH1 0xFF NOT AND SWAP1 SSTORE PUSH1 0xC SWAP1 SWAP2 MSTORE SWAP1 KECCAK256 SLOAD PUSH1 0x7 PUSH1 0xFF SWAP1 SWAP2 AND LT ISZERO PUSH2 0x12B5 JUMPI PUSH1 0x0 DUP6 DUP2 MSTORE PUSH1 0xC PUSH1 0x20 MSTORE PUSH1 0x40 SWAP1 KECCAK256 DUP1 SLOAD PUSH1 0xFF DUP1 DUP3 AND PUSH1 0x1 ADD AND PUSH1 0xFF NOT SWAP1 SWAP2 AND OR SWAP1 SSTORE JUMPDEST POP POP POP PUSH1 0x0 SWAP2 DUP3 MSTORE POP PUSH1 0x11 PUSH1 0x20 MSTORE PUSH1 0x40 SWAP1 KECCAK256 PUSH2 0x2710 SWAP1 SSTORE JUMP JUMPDEST PUSH1 0x6 DUP1 SLOAD PUSH1 0x40 DUP1 MLOAD PUSH1 0x20 PUSH1 0x1F PUSH1 0x2 PUSH1 0x0 NOT PUSH2 0x100 PUSH1 0x1 DUP9 AND ISZERO MUL ADD SWAP1 SWAP6 AND SWAP5 SWAP1 SWAP5 DIV SWAP4 DUP5 ADD DUP2 SWAP1 DIV DUP2 MUL DUP3 ADD DUP2 ADD SWAP1 SWAP3 MSTORE DUP3 DUP2 MSTORE PUSH1 0x60 SWAP4 SWAP1 SWAP3 SWAP1 SWAP2 DUP4 ADD DUP3 DUP3 DUP1 ISZERO PUSH2 0x135A JUMPI DUP1 PUSH1 0x1F LT PUSH2 0x132F JUMPI PUSH2 0x100 DUP1 DUP4 SLOAD DIV MUL DUP4 MSTORE SWAP2 PUSH1 0x20 ADD SWAP2 PUSH2 0x135A JUMP JUMPDEST DUP3 ADD SWAP2 SWAP1 PUSH1 0x0 MSTORE PUSH1 0x20 PUSH1 0x0 KECCAK256 SWAP1 JUMPDEST DUP2 SLOAD DUP2 MSTORE SWAP1 PUSH1 0x1 ADD SWAP1 PUSH1 0x20 ADD DUP1 DUP4 GT PUSH2 0x133D JUMPI DUP3 SWAP1 SUB PUSH1 0x1F AND DUP3 ADD SWAP2 JUMPDEST POP POP POP POP POP SWAP1 POP SWAP1 JUMP JUMPDEST PUSH1 0x0 PUSH2 0x136F DUP3 PUSH2 0x371F JUMP JUMPDEST PUSH2 0x13AA JUMPI PUSH1 0x40 MLOAD PUSH3 0x461BCD PUSH1 0xE5 SHL DUP2 MSTORE PUSH1 0x4 ADD DUP1 DUP1 PUSH1 0x20 ADD DUP3 DUP2 SUB DUP3 MSTORE PUSH1 0x2C DUP2 MSTORE PUSH1 0x20 ADD DUP1 PUSH2 0x55E4 PUSH1 0x2C SWAP2 CODECOPY PUSH1 0x40 ADD SWAP2 POP POP PUSH1 0x40 MLOAD DUP1 SWAP2 SUB SWAP1 REVERT JUMPDEST POP PUSH1 0x0 SWAP1 DUP2 MSTORE PUSH1 0x4 PUSH1 0x20 MSTORE PUSH1 0x40 SWAP1 KECCAK256 SLOAD PUSH1 0x1 PUSH1 0x1 PUSH1 0xA0 SHL SUB AND SWAP1 JUMP JUMPDEST PUSH1 0x0 PUSH2 0x13D1 DUP3 PUSH2 0x1E50 JUMP JUMPDEST SWAP1 POP DUP1 PUSH1 0x1 PUSH1 0x1 PUSH1 0xA0 SHL SUB AND DUP4 PUSH1 0x1 PUSH1 0x1 PUSH1 0xA0 SHL SUB AND EQ ISZERO PUSH2 0x1424 JUMPI PUSH1 0x40 MLOAD PUSH3 0x461BCD PUSH1 0xE5 SHL DUP2 MSTORE PUSH1 0x4 ADD DUP1 DUP1 PUSH1 0x20 ADD DUP3 DUP2 SUB DUP3 MSTORE PUSH1 0x21 DUP2 MSTORE PUSH1 0x20 ADD DUP1 PUSH2 0x57FC PUSH1 0x21 SWAP2 CODECOPY PUSH1 0x40 ADD SWAP2 POP POP PUSH1 0x40 MLOAD DUP1 SWAP2 SUB SWAP1 REVERT JUMPDEST DUP1 PUSH1 0x1 PUSH1 0x1 PUSH1 0xA0 SHL SUB AND PUSH2 0x1436 PUSH2 0x372C JUMP JUMPDEST PUSH1 0x1 PUSH1 0x1 PUSH1 0xA0 SHL SUB AND EQ DUP1 PUSH2 0x1457 JUMPI POP PUSH2 0x1457 DUP2 PUSH2 0x1452 PUSH2 0x372C JUMP JUMPDEST PUSH2 0x2BF4 JUMP JUMPDEST PUSH2 0x1492 JUMPI PUSH1 0x40 MLOAD PUSH3 0x461BCD PUSH1 0xE5 SHL DUP2 MSTORE PUSH1 0x4 ADD DUP1 DUP1 PUSH1 0x20 ADD DUP3 DUP2 SUB DUP3 MSTORE PUSH1 0x38 DUP2 MSTORE PUSH1 0x20 ADD DUP1 PUSH2 0x543A PUSH1 0x38 SWAP2 CODECOPY PUSH1 0x40 ADD SWAP2 POP POP PUSH1 0x40 MLOAD DUP1 SWAP2 SUB SWAP1 REVERT JUMPDEST PUSH2 0x149C DUP4 DUP4 PUSH2 0x3730 JUMP JUMPDEST POP POP POP JUMP JUMPDEST PUSH1 0xD PUSH1 0x20 MSTORE PUSH1 0x0 SWAP1 DUP2 MSTORE PUSH1 0x40 SWAP1 KECCAK256 SLOAD DUP2 JUMP JUMPDEST PUSH2 0x14C4 PUSH2 0x14BE PUSH2 0x372C JUMP JUMPDEST DUP4 PUSH2 0x379E JUMP JUMPDEST PUSH2 0x14FF JUMPI PUSH1 0x40 MLOAD PUSH3 0x461BCD PUSH1 0xE5 SHL DUP2 MSTORE PUSH1 0x4 ADD DUP1 DUP1 PUSH1 0x20 ADD DUP3 DUP2 SUB DUP3 MSTORE PUSH1 0x31 DUP2 MSTORE PUSH1 0x20 ADD DUP1 PUSH2 0x5983 PUSH1 0x31 SWAP2 CODECOPY PUSH1 0x40 ADD SWAP2 POP POP PUSH1 0x40 MLOAD DUP1 SWAP2 SUB SWAP1 REVERT JUMPDEST PUSH2 0x1509 DUP3 DUP3 PUSH2 0x3842 JUMP JUMPDEST POP POP JUMP JUMPDEST PUSH1 0x0 PUSH2 0x1519 PUSH1 0x2 PUSH2 0x38A5 JUMP JUMPDEST SWAP1 POP SWAP1 JUMP JUMPDEST TIMESTAMP PUSH1 0x15 SSTORE PUSH1 0x0 PUSH2 0x152C PUSH2 0x2244 JUMP JUMPDEST SWAP1 POP PUSH1 0x0 JUMPDEST PUSH1 0xB SLOAD DUP2 LT ISZERO PUSH2 0x1509 JUMPI PUSH1 0x0 DUP2 DUP2 MSTORE PUSH1 0x10 PUSH1 0x20 MSTORE PUSH1 0x40 SWAP1 KECCAK256 SLOAD PUSH1 0xFF AND ISZERO ISZERO PUSH1 0x1 EQ ISZERO PUSH2 0x157A JUMPI PUSH1 0x0 DUP2 DUP2 MSTORE PUSH1 0xD PUSH1 0x20 MSTORE PUSH1 0x40 SWAP1 KECCAK256 SLOAD DUP3 LT PUSH2 0x1575 JUMPI PUSH2 0x1575 DUP2 PUSH2 0x10F4 JUMP JUMPDEST PUSH2 0x15A5 JUMP JUMPDEST PUSH1 0x12 SLOAD PUSH1 0x0 DUP3 DUP2 MSTORE PUSH1 0xD PUSH1 0x20 MSTORE PUSH1 0x40 SWAP1 KECCAK256 SLOAD LT ISZERO PUSH2 0x15A5 JUMPI PUSH1 0x0 DUP2 DUP2 MSTORE PUSH1 0xD PUSH1 0x20 MSTORE PUSH1 0x40 SWAP1 KECCAK256 SLOAD PUSH1 0x12 SSTORE JUMPDEST PUSH1 0x1 ADD PUSH2 0x1531 JUMP JUMPDEST PUSH1 0x11 PUSH1 0x20 MSTORE PUSH1 0x0 SWAP1 DUP2 MSTORE PUSH1 0x40 SWAP1 KECCAK256 SLOAD DUP2 JUMP JUMPDEST PUSH2 0x15D0 PUSH2 0x15CA PUSH2 0x372C JUMP JUMPDEST DUP3 PUSH2 0x379E JUMP JUMPDEST PUSH2 0x160B JUMPI PUSH1 0x40 MLOAD PUSH3 0x461BCD PUSH1 0xE5 SHL DUP2 MSTORE PUSH1 0x4 ADD DUP1 DUP1 PUSH1 0x20 ADD DUP3 DUP2 SUB DUP3 MSTORE PUSH1 0x31 DUP2 MSTORE PUSH1 0x20 ADD DUP1 PUSH2 0x5983 PUSH1 0x31 SWAP2 CODECOPY PUSH1 0x40 ADD SWAP2 POP POP PUSH1 0x40 MLOAD DUP1 SWAP2 SUB SWAP1 REVERT JUMPDEST PUSH2 0x149C DUP4 DUP4 DUP4 PUSH2 0x38B0 JUMP JUMPDEST PUSH1 0x1 PUSH1 0x1 PUSH1 0xA0 SHL SUB DUP3 AND PUSH1 0x0 SWAP1 DUP2 MSTORE PUSH1 0x1 PUSH1 0x20 MSTORE PUSH1 0x40 DUP2 KECCAK256 PUSH2 0x1638 SWAP1 DUP4 PUSH2 0x39FC JUMP JUMPDEST SWAP4 SWAP3 POP POP POP JUMP JUMPDEST PUSH1 0x40 DUP1 MLOAD DUP1 DUP3 ADD DUP3 MSTORE PUSH1 0x1A DUP2 MSTORE PUSH32 0x646174613A696D6167652F7376672B786D6C3B6261736536342C000000000000 PUSH1 0x20 SWAP2 DUP3 ADD MSTORE DUP2 MLOAD DUP1 DUP4 ADD DUP4 MSTORE PUSH1 0x13 DUP1 DUP3 MSTORE PUSH19 0x19185D184E9A5B5859D94BDCDD99CADE1B5B0B PUSH1 0x6A SHL DUP3 DUP5 ADD SWAP1 DUP2 MSTORE SWAP4 MLOAD PUSH1 0x60 SWAP5 PUSH1 0x0 SWAP5 DUP5 SWAP4 DUP9 SWAP4 SWAP1 SWAP2 ADD SWAP2 DUP3 SWAP2 DUP1 DUP4 DUP4 JUMPDEST PUSH1 0x20 DUP4 LT PUSH2 0x16D1 JUMPI DUP1 MLOAD DUP3 MSTORE PUSH1 0x1F NOT SWAP1 SWAP3 ADD SWAP2 PUSH1 0x20 SWAP2 DUP3 ADD SWAP2 ADD PUSH2 0x16B2 JUMP JUMPDEST MLOAD DUP2 MLOAD PUSH1 0x20 SWAP4 DUP5 SUB PUSH2 0x100 EXP PUSH1 0x0 NOT ADD DUP1 NOT SWAP1 SWAP3 AND SWAP2 AND OR SWAP1 MSTORE DUP6 MLOAD SWAP2 SWAP1 SWAP4 ADD SWAP3 DUP6 ADD SWAP2 POP DUP1 DUP4 DUP4 JUMPDEST PUSH1 0x20 DUP4 LT PUSH2 0x1719 JUMPI DUP1 MLOAD DUP3 MSTORE PUSH1 0x1F NOT SWAP1 SWAP3 ADD SWAP2 PUSH1 0x20 SWAP2 DUP3 ADD SWAP2 ADD PUSH2 0x16FA JUMP JUMPDEST PUSH1 0x1 DUP4 PUSH1 0x20 SUB PUSH2 0x100 EXP SUB DUP1 NOT DUP3 MLOAD AND DUP2 DUP5 MLOAD AND DUP1 DUP3 OR DUP6 MSTORE POP POP POP POP POP POP SWAP1 POP ADD SWAP3 POP POP POP PUSH1 0x40 MLOAD PUSH1 0x20 DUP2 DUP4 SUB SUB DUP2 MSTORE SWAP1 PUSH1 0x40 MSTORE SWAP3 POP POP POP PUSH2 0xE49 JUMP JUMPDEST PUSH1 0x20 DUP4 LT PUSH2 0x1776 JUMPI DUP1 MLOAD DUP3 MSTORE PUSH1 0x1F NOT SWAP1 SWAP3 ADD SWAP2 PUSH1 0x20 SWAP2 DUP3 ADD SWAP2 ADD PUSH2 0x1757 JUMP JUMPDEST MLOAD DUP2 MLOAD PUSH1 0x20 SWAP4 DUP5 SUB PUSH2 0x100 EXP PUSH1 0x0 NOT ADD DUP1 NOT SWAP1 SWAP3 AND SWAP2 AND OR SWAP1 MSTORE DUP6 MLOAD SWAP2 SWAP1 SWAP4 ADD SWAP3 DUP6 ADD SWAP2 POP DUP1 DUP4 DUP4 JUMPDEST PUSH1 0x20 DUP4 LT PUSH2 0x17BE JUMPI DUP1 MLOAD DUP3 MSTORE PUSH1 0x1F NOT SWAP1 SWAP3 ADD SWAP2 PUSH1 0x20 SWAP2 DUP3 ADD SWAP2 ADD PUSH2 0x179F JUMP JUMPDEST PUSH1 0x1 DUP4 PUSH1 0x20 SUB PUSH2 0x100 EXP SUB DUP1 NOT DUP3 MLOAD AND DUP2 DUP5 MLOAD AND DUP1 DUP3 OR DUP6 MSTORE POP POP POP POP POP POP SWAP1 POP ADD SWAP3 POP POP POP PUSH1 0x40 MLOAD PUSH1 0x20 DUP2 DUP4 SUB SUB DUP2 MSTORE SWAP1 PUSH1 0x40 MSTORE SWAP4 POP POP POP POP SWAP2 SWAP1 POP JUMP JUMPDEST PUSH1 0x24 SLOAD PUSH1 0x1 PUSH1 0x1 PUSH1 0xA0 SHL SUB AND DUP2 JUMP JUMPDEST PUSH1 0x1C SLOAD PUSH1 0x1 PUSH1 0x1 PUSH1 0xA0 SHL SUB AND DUP2 JUMP JUMPDEST PUSH2 0x149C DUP4 DUP4 DUP4 PUSH1 0x40 MLOAD DUP1 PUSH1 0x20 ADD PUSH1 0x40 MSTORE DUP1 PUSH1 0x0 DUP2 MSTORE POP PUSH2 0x250E JUMP JUMPDEST PUSH1 0x0 PUSH1 0x16 SLOAD PUSH1 0x19 SLOAD CALLVALUE ADD LT ISZERO PUSH2 0x1893 JUMPI PUSH1 0x40 DUP1 MLOAD PUSH3 0x461BCD PUSH1 0xE5 SHL DUP2 MSTORE PUSH1 0x20 PUSH1 0x4 DUP3 ADD MSTORE PUSH1 0x17 PUSH1 0x24 DUP3 ADD MSTORE PUSH32 0x4E6F7420656E6F756768206E617469766520636F696E2E000000000000000000 PUSH1 0x44 DUP3 ADD MSTORE SWAP1 MLOAD SWAP1 DUP2 SWAP1 SUB PUSH1 0x64 ADD SWAP1 REVERT JUMPDEST PUSH1 0x64 DUP3 PUSH4 0xFFFFFFFF AND LT PUSH2 0x18D8 JUMPI PUSH1 0x40 MLOAD PUSH3 0x461BCD PUSH1 0xE5 SHL DUP2 MSTORE PUSH1 0x4 ADD DUP1 DUP1 PUSH1 0x20 ADD DUP3 DUP2 SUB DUP3 MSTORE PUSH1 0x28 DUP2 MSTORE PUSH1 0x20 ADD DUP1 PUSH2 0x51B0 PUSH1 0x28 SWAP2 CODECOPY PUSH1 0x40 ADD SWAP2 POP POP PUSH1 0x40 MLOAD DUP1 SWAP2 SUB SWAP1 REVERT JUMPDEST PUSH2 0x18E0 PUSH2 0x3A08 JUMP JUMPDEST PUSH1 0x19 SLOAD PUSH1 0x1D DUP1 SLOAD SWAP1 SWAP2 ADD SWAP1 SSTORE PUSH1 0xB DUP1 SLOAD PUSH1 0x1 DUP2 ADD SWAP1 SWAP2 SSTORE PUSH2 0x1901 CALLER DUP3 PUSH2 0x3AA3 JUMP JUMPDEST PUSH1 0x0 DUP2 DUP2 MSTORE PUSH1 0xC PUSH1 0x20 MSTORE PUSH1 0x40 SWAP1 KECCAK256 DUP1 SLOAD PUSH1 0xFF NOT AND SWAP1 SSTORE PUSH1 0x64 PUSH2 0x1921 PUSH2 0x2244 JUMP JUMPDEST DUP5 PUSH1 0x64 SUB PUSH4 0xFFFFFFFF AND MUL DUP2 PUSH2 0x1933 JUMPI INVALID JUMPDEST PUSH1 0x0 DUP4 DUP2 MSTORE PUSH1 0xD PUSH1 0x20 SWAP1 DUP2 MSTORE PUSH1 0x40 DUP1 DUP4 KECCAK256 SWAP5 SWAP1 SWAP4 DIV SWAP1 SWAP4 SSTORE PUSH1 0xE SWAP1 SWAP3 MSTORE DUP2 KECCAK256 PUSH4 0xFFFFFFFF DUP6 AND SWAP1 SSTORE PUSH1 0x21 SLOAD PUSH1 0x1F SLOAD PUSH1 0x13 SLOAD PUSH2 0x1981 SWAP3 CALLVALUE SWAP3 PUSH1 0x1 PUSH1 0x1 PUSH1 0xA0 SHL SUB SWAP2 DUP3 AND SWAP3 ADDRESS SWAP3 SWAP1 SWAP2 AND SWAP1 PUSH2 0x3ABD JUMP JUMPDEST SWAP2 POP POP PUSH1 0x19 SLOAD CALLVALUE ADD DUP2 CALLVALUE MUL DUP2 PUSH2 0x1993 JUMPI INVALID JUMPDEST PUSH1 0x0 DUP5 DUP2 MSTORE PUSH1 0xF PUSH1 0x20 MSTORE PUSH1 0x40 SWAP1 KECCAK256 SWAP2 SWAP1 DIV SWAP1 SSTORE PUSH1 0x19 SLOAD CALLVALUE DUP2 ADD SWAP1 DUP3 MUL DUP2 PUSH2 0x19B6 JUMPI INVALID JUMPDEST PUSH1 0x1D DUP1 SLOAD SWAP3 SWAP1 SWAP2 DIV SWAP1 SWAP2 ADD SWAP1 SSTORE PUSH1 0x0 DUP3 DUP2 MSTORE PUSH1 0xF PUSH1 0x20 MSTORE PUSH1 0x40 SWAP1 KECCAK256 SLOAD PUSH2 0x1A1E JUMPI PUSH1 0x40 DUP1 MLOAD PUSH3 0x461BCD PUSH1 0xE5 SHL DUP2 MSTORE PUSH1 0x20 PUSH1 0x4 DUP3 ADD MSTORE PUSH1 0x18 PUSH1 0x24 DUP3 ADD MSTORE PUSH24 0x22B93937B910902737903A37B5B2B739903137BAB3B43A17 PUSH1 0x41 SHL PUSH1 0x44 DUP3 ADD MSTORE SWAP1 MLOAD SWAP1 DUP2 SWAP1 SUB PUSH1 0x64 ADD SWAP1 REVERT JUMPDEST PUSH1 0x0 DUP3 DUP2 MSTORE PUSH1 0xF PUSH1 0x20 MSTORE PUSH1 0x40 SWAP1 KECCAK256 SLOAD PUSH2 0x1A36 SWAP1 PUSH2 0x3E0C JUMP JUMPDEST PUSH1 0x12 SLOAD PUSH1 0x0 DUP4 DUP2 MSTORE PUSH1 0xD PUSH1 0x20 MSTORE PUSH1 0x40 SWAP1 KECCAK256 SLOAD GT ISZERO PUSH2 0x1A61 JUMPI PUSH1 0x0 DUP3 DUP2 MSTORE PUSH1 0xD PUSH1 0x20 MSTORE PUSH1 0x40 SWAP1 KECCAK256 SLOAD PUSH1 0x12 SSTORE JUMPDEST PUSH1 0x14 DUP1 SLOAD DUP3 ADD SWAP1 SSTORE PUSH1 0x0 DUP3 DUP2 MSTORE PUSH1 0x10 PUSH1 0x20 MSTORE PUSH1 0x40 SWAP1 KECCAK256 DUP1 SLOAD PUSH1 0xFF NOT AND PUSH1 0x1 OR SWAP1 SSTORE PUSH2 0x1A94 DUP3 PUSH2 0x1A8F DUP2 PUSH2 0x2566 JUMP JUMPDEST PUSH2 0x3842 JUMP JUMPDEST DUP2 PUSH1 0x2 EQ ISZERO PUSH2 0x1AA5 JUMPI PUSH2 0x1AA5 PUSH2 0x151E JUMP JUMPDEST POP POP SWAP2 SWAP1 POP JUMP JUMPDEST PUSH1 0xE PUSH1 0x20 MSTORE PUSH1 0x0 SWAP1 DUP2 MSTORE PUSH1 0x40 SWAP1 KECCAK256 SLOAD DUP2 JUMP JUMPDEST PUSH1 0xC PUSH1 0x20 MSTORE PUSH1 0x0 SWAP1 DUP2 MSTORE PUSH1 0x40 SWAP1 KECCAK256 SLOAD PUSH1 0xFF AND DUP2 JUMP JUMPDEST PUSH2 0x1ADB PUSH2 0x372C JUMP JUMPDEST PUSH1 0x1 PUSH1 0x1 PUSH1 0xA0 SHL SUB AND PUSH2 0x1AEC PUSH2 0x2235 JUMP JUMPDEST PUSH1 0x1 PUSH1 0x1 PUSH1 0xA0 SHL SUB AND EQ PUSH2 0x1B47 JUMPI PUSH1 0x40 DUP1 MLOAD PUSH3 0x461BCD PUSH1 0xE5 SHL DUP2 MSTORE PUSH1 0x20 PUSH1 0x4 DUP3 ADD DUP2 SWAP1 MSTORE PUSH1 0x24 DUP3 ADD MSTORE PUSH32 0x4F776E61626C653A2063616C6C6572206973206E6F7420746865206F776E6572 PUSH1 0x44 DUP3 ADD MSTORE SWAP1 MLOAD SWAP1 DUP2 SWAP1 SUB PUSH1 0x64 ADD SWAP1 REVERT JUMPDEST PUSH1 0x8 DUP2 PUSH1 0xFF AND LT PUSH2 0x1B93 JUMPI PUSH1 0x40 DUP1 MLOAD PUSH3 0x461BCD PUSH1 0xE5 SHL DUP2 MSTORE PUSH1 0x20 PUSH1 0x4 DUP3 ADD MSTORE PUSH1 0x11 PUSH1 0x24 DUP3 ADD MSTORE PUSH17 0x125B9D985B1A5908111A5C0813195D995B PUSH1 0x7A SHL PUSH1 0x44 DUP3 ADD MSTORE SWAP1 MLOAD SWAP1 DUP2 SWAP1 SUB PUSH1 0x64 ADD SWAP1 REVERT JUMPDEST PUSH1 0xB SLOAD DUP3 LT PUSH2 0x1BDB JUMPI PUSH1 0x40 DUP1 MLOAD PUSH3 0x461BCD PUSH1 0xE5 SHL DUP2 MSTORE PUSH1 0x20 PUSH1 0x4 DUP3 ADD MSTORE PUSH1 0xF PUSH1 0x24 DUP3 ADD MSTORE PUSH15 0x125B9D985B1A59081D1BDAD95B9259 PUSH1 0x8A SHL PUSH1 0x44 DUP3 ADD MSTORE SWAP1 MLOAD SWAP1 DUP2 SWAP1 SUB PUSH1 0x64 ADD SWAP1 REVERT JUMPDEST PUSH1 0x0 SWAP2 DUP3 MSTORE PUSH1 0xC PUSH1 0x20 MSTORE PUSH1 0x40 SWAP1 SWAP2 KECCAK256 DUP1 SLOAD PUSH1 0xFF NOT AND PUSH1 0xFF SWAP1 SWAP3 AND SWAP2 SWAP1 SWAP2 OR SWAP1 SSTORE JUMP JUMPDEST PUSH1 0x0 DUP1 PUSH2 0x1C0B PUSH1 0x2 DUP5 PUSH2 0x3EF9 JUMP JUMPDEST POP SWAP4 SWAP3 POP POP POP JUMP JUMPDEST PUSH1 0x60 PUSH1 0x0 DUP1 JUMPDEST PUSH1 0xB SLOAD DUP2 LT ISZERO PUSH2 0x1C54 JUMPI DUP4 PUSH1 0x1 PUSH1 0x1 PUSH1 0xA0 SHL SUB AND PUSH2 0x1C36 DUP3 PUSH2 0x1E50 JUMP JUMPDEST PUSH1 0x1 PUSH1 0x1 PUSH1 0xA0 SHL SUB AND EQ ISZERO PUSH2 0x1C4C JUMPI PUSH1 0x1 DUP3 ADD SWAP2 POP JUMPDEST PUSH1 0x1 ADD PUSH2 0x1C19 JUMP JUMPDEST POP PUSH1 0x60 DUP2 PUSH8 0xFFFFFFFFFFFFFFFF DUP2 GT DUP1 ISZERO PUSH2 0x1C6E JUMPI PUSH1 0x0 DUP1 REVERT JUMPDEST POP PUSH1 0x40 MLOAD SWAP1 DUP1 DUP3 MSTORE DUP1 PUSH1 0x20 MUL PUSH1 0x20 ADD DUP3 ADD PUSH1 0x40 MSTORE DUP1 ISZERO PUSH2 0x1C98 JUMPI DUP2 PUSH1 0x20 ADD PUSH1 0x20 DUP3 MUL DUP1 CALLDATASIZE DUP4 CALLDATACOPY ADD SWAP1 POP JUMPDEST POP SWAP1 POP PUSH1 0x0 DUP1 JUMPDEST PUSH1 0xB SLOAD DUP2 LT ISZERO PUSH2 0x1CF9 JUMPI DUP4 DUP3 LT PUSH2 0x1CB5 JUMPI PUSH2 0x1CF9 JUMP JUMPDEST DUP6 PUSH1 0x1 PUSH1 0x1 PUSH1 0xA0 SHL SUB AND PUSH2 0x1CC8 DUP3 PUSH2 0x1E50 JUMP JUMPDEST PUSH1 0x1 PUSH1 0x1 PUSH1 0xA0 SHL SUB AND EQ ISZERO PUSH2 0x1CF1 JUMPI DUP1 DUP4 DUP4 DUP2 MLOAD DUP2 LT PUSH2 0x1CE4 JUMPI INVALID JUMPDEST PUSH1 0x20 MUL PUSH1 0x20 ADD ADD DUP2 DUP2 MSTORE POP POP JUMPDEST PUSH1 0x1 ADD PUSH2 0x1C9F JUMP JUMPDEST POP SWAP1 SWAP5 SWAP4 POP POP POP POP JUMP JUMPDEST PUSH2 0x1D0C DUP2 PUSH2 0x1E50 JUMP JUMPDEST PUSH1 0x1 PUSH1 0x1 PUSH1 0xA0 SHL SUB AND CALLER PUSH1 0x1 PUSH1 0x1 PUSH1 0xA0 SHL SUB AND EQ PUSH2 0x1D68 JUMPI PUSH1 0x40 DUP1 MLOAD PUSH3 0x461BCD PUSH1 0xE5 SHL DUP2 MSTORE PUSH1 0x20 PUSH1 0x4 DUP3 ADD MSTORE PUSH1 0x14 PUSH1 0x24 DUP3 ADD MSTORE PUSH20 0x26BAB9BA103132903A37B5B2B71037BBB732B917 PUSH1 0x61 SHL PUSH1 0x44 DUP3 ADD MSTORE SWAP1 MLOAD SWAP1 DUP2 SWAP1 SUB PUSH1 0x64 ADD SWAP1 REVERT JUMPDEST PUSH2 0x1D70 PUSH2 0x2244 JUMP JUMPDEST PUSH1 0x0 DUP3 DUP2 MSTORE PUSH1 0xD PUSH1 0x20 MSTORE PUSH1 0x40 SWAP1 KECCAK256 SLOAD GT PUSH2 0x1D92 JUMPI PUSH2 0x1D8D DUP2 PUSH2 0x10F4 JUMP JUMPDEST PUSH2 0x1E4D JUMP JUMPDEST PUSH1 0x0 PUSH2 0x1DA0 DUP3 PUSH1 0x17 SLOAD PUSH2 0x30B3 JUMP JUMPDEST PUSH1 0x21 SLOAD PUSH1 0x1F SLOAD PUSH1 0x40 DUP1 MLOAD PUSH4 0x95EA7B3 PUSH1 0xE0 SHL DUP2 MSTORE PUSH1 0x1 PUSH1 0x1 PUSH1 0xA0 SHL SUB SWAP3 DUP4 AND PUSH1 0x4 DUP3 ADD MSTORE PUSH1 0x24 DUP2 ADD DUP6 SWAP1 MSTORE SWAP1 MLOAD SWAP4 SWAP5 POP SWAP2 AND SWAP2 PUSH4 0x95EA7B3 SWAP2 PUSH1 0x44 DUP1 DUP3 ADD SWAP3 PUSH1 0x20 SWAP3 SWAP1 SWAP2 SWAP1 DUP3 SWAP1 SUB ADD DUP2 PUSH1 0x0 DUP8 DUP1 EXTCODESIZE ISZERO DUP1 ISZERO PUSH2 0x1DFB JUMPI PUSH1 0x0 DUP1 REVERT JUMPDEST POP GAS CALL ISZERO DUP1 ISZERO PUSH2 0x1E0F JUMPI RETURNDATASIZE PUSH1 0x0 DUP1 RETURNDATACOPY RETURNDATASIZE PUSH1 0x0 REVERT JUMPDEST POP POP POP POP PUSH1 0x40 MLOAD RETURNDATASIZE PUSH1 0x20 DUP2 LT ISZERO PUSH2 0x1E25 JUMPI PUSH1 0x0 DUP1 REVERT JUMPDEST POP POP PUSH1 0x21 SLOAD PUSH1 0x0 SWAP1 DUP2 SWAP1 PUSH2 0x1E47 SWAP1 DUP5 SWAP1 PUSH1 0x1 PUSH1 0x1 PUSH1 0xA0 SHL SUB AND PUSH2 0x120F DUP8 PUSH2 0x1E50 JUMP JUMPDEST POP POP POP POP POP JUMPDEST POP JUMP JUMPDEST PUSH1 0x0 PUSH2 0x10EE DUP3 PUSH1 0x40 MLOAD DUP1 PUSH1 0x60 ADD PUSH1 0x40 MSTORE DUP1 PUSH1 0x29 DUP2 MSTORE PUSH1 0x20 ADD PUSH2 0x555D PUSH1 0x29 SWAP2 CODECOPY PUSH1 0x2 SWAP2 SWAP1 PUSH2 0x3F15 JUMP JUMPDEST PUSH1 0x9 DUP1 SLOAD PUSH1 0x40 DUP1 MLOAD PUSH1 0x20 PUSH1 0x1F PUSH1 0x2 PUSH1 0x0 NOT PUSH2 0x100 PUSH1 0x1 DUP9 AND ISZERO MUL ADD SWAP1 SWAP6 AND SWAP5 SWAP1 SWAP5 DIV SWAP4 DUP5 ADD DUP2 SWAP1 DIV DUP2 MUL DUP3 ADD DUP2 ADD SWAP1 SWAP3 MSTORE DUP3 DUP2 MSTORE PUSH1 0x60 SWAP4 SWAP1 SWAP3 SWAP1 SWAP2 DUP4 ADD DUP3 DUP3 DUP1 ISZERO PUSH2 0x135A JUMPI DUP1 PUSH1 0x1F LT PUSH2 0x132F JUMPI PUSH2 0x100 DUP1 DUP4 SLOAD DIV MUL DUP4 MSTORE SWAP2 PUSH1 0x20 ADD SWAP2 PUSH2 0x135A JUMP JUMPDEST PUSH1 0x0 PUSH1 0x60 PUSH32 0x0 PUSH1 0x15 SLOAD TIMESTAMP SUB GT DUP1 ISZERO PUSH2 0x1F19 JUMPI POP PUSH2 0x1F13 PUSH2 0x2244 JUMP JUMPDEST PUSH1 0x12 SLOAD GT ISZERO JUMPDEST SWAP2 POP SWAP3 POP SWAP3 SWAP1 POP JUMP JUMPDEST PUSH1 0x0 PUSH1 0x1 PUSH1 0x1 PUSH1 0xA0 SHL SUB DUP3 AND PUSH2 0x1F69 JUMPI PUSH1 0x40 MLOAD PUSH3 0x461BCD PUSH1 0xE5 SHL DUP2 MSTORE PUSH1 0x4 ADD DUP1 DUP1 PUSH1 0x20 ADD DUP3 DUP2 SUB DUP3 MSTORE PUSH1 0x2A DUP2 MSTORE PUSH1 0x20 ADD DUP1 PUSH2 0x5472 PUSH1 0x2A SWAP2 CODECOPY PUSH1 0x40 ADD SWAP2 POP POP PUSH1 0x40 MLOAD DUP1 SWAP2 SUB SWAP1 REVERT JUMPDEST PUSH1 0x1 PUSH1 0x1 PUSH1 0xA0 SHL SUB DUP3 AND PUSH1 0x0 SWAP1 DUP2 MSTORE PUSH1 0x1 PUSH1 0x20 MSTORE PUSH1 0x40 SWAP1 KECCAK256 PUSH2 0x10EE SWAP1 PUSH2 0x38A5 JUMP JUMPDEST PUSH2 0x1F92 PUSH2 0x372C JUMP JUMPDEST PUSH1 0x1 PUSH1 0x1 PUSH1 0xA0 SHL SUB AND PUSH2 0x1FA3 PUSH2 0x2235 JUMP JUMPDEST PUSH1 0x1 PUSH1 0x1 PUSH1 0xA0 SHL SUB AND EQ PUSH2 0x1FFE JUMPI PUSH1 0x40 DUP1 MLOAD PUSH3 0x461BCD PUSH1 0xE5 SHL DUP2 MSTORE PUSH1 0x20 PUSH1 0x4 DUP3 ADD DUP2 SWAP1 MSTORE PUSH1 0x24 DUP3 ADD MSTORE PUSH32 0x4F776E61626C653A2063616C6C6572206973206E6F7420746865206F776E6572 PUSH1 0x44 DUP3 ADD MSTORE SWAP1 MLOAD SWAP1 DUP2 SWAP1 SUB PUSH1 0x64 ADD SWAP1 REVERT JUMPDEST PUSH1 0xA SLOAD PUSH1 0x40 MLOAD PUSH1 0x0 SWAP2 PUSH1 0x1 PUSH1 0x1 PUSH1 0xA0 SHL SUB AND SWAP1 PUSH32 0x8BE0079C531659141344CD1FD0A4F28419497F9722A3DAAFE3B4186F6B6457E0 SWAP1 DUP4 SWAP1 LOG3 PUSH1 0xA DUP1 SLOAD PUSH1 0x1 PUSH1 0x1 PUSH1 0xA0 SHL SUB NOT AND SWAP1 SSTORE JUMP JUMPDEST PUSH1 0x0 PUSH1 0x16 SLOAD CALLVALUE LT ISZERO PUSH2 0x20A1 JUMPI PUSH1 0x40 DUP1 MLOAD PUSH3 0x461BCD PUSH1 0xE5 SHL DUP2 MSTORE PUSH1 0x20 PUSH1 0x4 DUP3 ADD MSTORE PUSH1 0x1B PUSH1 0x24 DUP3 ADD MSTORE PUSH32 0x4E6F7420456E6F75676820424E422D2D6F722077686174657665720000000000 PUSH1 0x44 DUP3 ADD MSTORE SWAP1 MLOAD SWAP1 DUP2 SWAP1 SUB PUSH1 0x64 ADD SWAP1 REVERT JUMPDEST PUSH1 0x0 DUP3 DUP2 MSTORE PUSH1 0x10 PUSH1 0x20 MSTORE PUSH1 0x40 SWAP1 KECCAK256 SLOAD PUSH1 0xFF AND ISZERO PUSH2 0x20EF JUMPI PUSH1 0x40 MLOAD PUSH3 0x461BCD PUSH1 0xE5 SHL DUP2 MSTORE PUSH1 0x4 ADD DUP1 DUP1 PUSH1 0x20 ADD DUP3 DUP2 SUB DUP3 MSTORE PUSH1 0x21 DUP2 MSTORE PUSH1 0x20 ADD DUP1 PUSH2 0x52EC PUSH1 0x21 SWAP2 CODECOPY PUSH1 0x40 ADD SWAP2 POP POP PUSH1 0x40 MLOAD DUP1 SWAP2 SUB SWAP1 REVERT JUMPDEST PUSH2 0x20F7 PUSH2 0x3A08 JUMP JUMPDEST PUSH1 0x64 PUSH2 0x2101 PUSH2 0x2244 JUMP JUMPDEST PUSH1 0x0 DUP5 DUP2 MSTORE PUSH1 0xE PUSH1 0x20 MSTORE PUSH1 0x40 SWAP1 KECCAK256 SLOAD PUSH1 0x64 SUB MUL DUP2 PUSH2 0x211B JUMPI INVALID JUMPDEST PUSH1 0x0 DUP5 DUP2 MSTORE PUSH1 0xD PUSH1 0x20 MSTORE PUSH1 0x40 SWAP1 KECCAK256 SWAP2 SWAP1 DIV SWAP1 SSTORE PUSH2 0x213B DUP3 PUSH2 0x1A8F DUP2 PUSH2 0x2566 JUMP JUMPDEST PUSH1 0x21 SLOAD PUSH1 0x1F SLOAD PUSH1 0x13 SLOAD PUSH2 0x2161 SWAP3 CALLVALUE SWAP3 PUSH1 0x1 PUSH1 0x1 PUSH1 0xA0 SHL SUB SWAP2 DUP3 AND SWAP3 ADDRESS SWAP3 SWAP1 SWAP2 AND SWAP1 PUSH2 0x3ABD JUMP JUMPDEST PUSH1 0x0 DUP5 DUP2 MSTORE PUSH1 0xF PUSH1 0x20 MSTORE PUSH1 0x40 SWAP1 KECCAK256 DUP2 SWAP1 SSTORE ISZERO ISZERO SWAP1 POP PUSH2 0x21C2 JUMPI PUSH1 0x40 DUP1 MLOAD PUSH3 0x461BCD PUSH1 0xE5 SHL DUP2 MSTORE PUSH1 0x20 PUSH1 0x4 DUP3 ADD MSTORE PUSH1 0x18 PUSH1 0x24 DUP3 ADD MSTORE PUSH24 0x22B93937B910902737903A37B5B2B739903137BAB3B43A17 PUSH1 0x41 SHL PUSH1 0x44 DUP3 ADD MSTORE SWAP1 MLOAD SWAP1 DUP2 SWAP1 SUB PUSH1 0x64 ADD SWAP1 REVERT JUMPDEST PUSH1 0x0 DUP3 DUP2 MSTORE PUSH1 0xF PUSH1 0x20 MSTORE PUSH1 0x40 SWAP1 KECCAK256 SLOAD PUSH2 0x21DA SWAP1 PUSH2 0x3E0C JUMP JUMPDEST PUSH1 0x0 DUP3 DUP2 MSTORE PUSH1 0xF PUSH1 0x20 SWAP1 DUP2 MSTORE PUSH1 0x40 DUP1 DUP4 KECCAK256 SLOAD PUSH1 0x14 DUP1 SLOAD SWAP1 SWAP2 ADD SWAP1 SSTORE PUSH1 0x10 DUP3 MSTORE DUP1 DUP4 KECCAK256 DUP1 SLOAD PUSH1 0xFF NOT AND PUSH1 0x1 OR SWAP1 SSTORE PUSH1 0x12 SLOAD PUSH1 0xD SWAP1 SWAP3 MSTORE SWAP1 SWAP2 KECCAK256 SLOAD GT ISZERO PUSH2 0xE49 JUMPI PUSH1 0x0 SWAP2 DUP3 MSTORE PUSH1 0xD PUSH1 0x20 MSTORE PUSH1 0x40 SWAP1 SWAP2 KECCAK256 SLOAD PUSH1 0x12 SSTORE SWAP1 JUMP JUMPDEST PUSH1 0x14 SLOAD DUP2 JUMP JUMPDEST PUSH1 0xA SLOAD PUSH1 0x1 PUSH1 0x1 PUSH1 0xA0 SHL SUB AND SWAP1 JUMP JUMPDEST PUSH1 0x0 DUP1 PUSH1 0x0 DUP1 PUSH1 0x0 DUP1 PUSH1 0x23 PUSH1 0x0 SWAP1 SLOAD SWAP1 PUSH2 0x100 EXP SWAP1 DIV PUSH1 0x1 PUSH1 0x1 PUSH1 0xA0 SHL SUB AND PUSH1 0x1 PUSH1 0x1 PUSH1 0xA0 SHL SUB AND PUSH4 0xFEAF968C PUSH1 0x40 MLOAD DUP2 PUSH4 0xFFFFFFFF AND PUSH1 0xE0 SHL DUP2 MSTORE PUSH1 0x4 ADD PUSH1 0xA0 PUSH1 0x40 MLOAD DUP1 DUP4 SUB DUP2 DUP7 DUP1 EXTCODESIZE ISZERO DUP1 ISZERO PUSH2 0x229B JUMPI PUSH1 0x0 DUP1 REVERT JUMPDEST POP GAS STATICCALL ISZERO DUP1 ISZERO PUSH2 0x22AF JUMPI RETURNDATASIZE PUSH1 0x0 DUP1 RETURNDATACOPY RETURNDATASIZE PUSH1 0x0 REVERT JUMPDEST POP POP POP POP PUSH1 0x40 MLOAD RETURNDATASIZE PUSH1 0xA0 DUP2 LT ISZERO PUSH2 0x22C5 JUMPI PUSH1 0x0 DUP1 REVERT JUMPDEST POP DUP1 MLOAD PUSH1 0x20 DUP3 ADD MLOAD PUSH1 0x40 DUP4 ADD MLOAD PUSH1 0x60 DUP5 ADD MLOAD PUSH1 0x80 SWAP1 SWAP5 ADD MLOAD SWAP3 SWAP9 POP SWAP1 SWAP7 POP SWAP5 POP SWAP1 SWAP3 POP SWAP1 POP DUP2 PUSH2 0x2331 JUMPI PUSH1 0x40 DUP1 MLOAD PUSH3 0x461BCD PUSH1 0xE5 SHL DUP2 MSTORE PUSH1 0x20 PUSH1 0x4 DUP3 ADD MSTORE PUSH1 0x12 PUSH1 0x24 DUP3 ADD MSTORE PUSH18 0x526F756E64206E6F7420636F6D706C657465 PUSH1 0x70 SHL PUSH1 0x44 DUP3 ADD MSTORE SWAP1 MLOAD SWAP1 DUP2 SWAP1 SUB PUSH1 0x64 ADD SWAP1 REVERT JUMPDEST POP SWAP2 SWAP4 POP POP POP POP SWAP1 JUMP JUMPDEST PUSH1 0x7 DUP1 SLOAD PUSH1 0x40 DUP1 MLOAD PUSH1 0x20 PUSH1 0x1F PUSH1 0x2 PUSH1 0x0 NOT PUSH2 0x100 PUSH1 0x1 DUP9 AND ISZERO MUL ADD SWAP1 SWAP6 AND SWAP5 SWAP1 SWAP5 DIV SWAP4 DUP5 ADD DUP2 SWAP1 DIV DUP2 MUL DUP3 ADD DUP2 ADD SWAP1 SWAP3 MSTORE DUP3 DUP2 MSTORE PUSH1 0x60 SWAP4 SWAP1 SWAP3 SWAP1 SWAP2 DUP4 ADD DUP3 DUP3 DUP1 ISZERO PUSH2 0x135A JUMPI DUP1 PUSH1 0x1F LT PUSH2 0x132F JUMPI PUSH2 0x100 DUP1 DUP4 SLOAD DIV MUL DUP4 MSTORE SWAP2 PUSH1 0x20 ADD SWAP2 PUSH2 0x135A JUMP JUMPDEST PUSH2 0x23A4 PUSH2 0x372C JUMP JUMPDEST PUSH1 0x1 PUSH1 0x1 PUSH1 0xA0 SHL SUB AND DUP3 PUSH1 0x1 PUSH1 0x1 PUSH1 0xA0 SHL SUB AND EQ ISZERO PUSH2 0x240A JUMPI PUSH1 0x40 DUP1 MLOAD PUSH3 0x461BCD PUSH1 0xE5 SHL DUP2 MSTORE PUSH1 0x20 PUSH1 0x4 DUP3 ADD MSTORE PUSH1 0x19 PUSH1 0x24 DUP3 ADD MSTORE PUSH32 0x4552433732313A20617070726F766520746F2063616C6C657200000000000000 PUSH1 0x44 DUP3 ADD MSTORE SWAP1 MLOAD SWAP1 DUP2 SWAP1 SUB PUSH1 0x64 ADD SWAP1 REVERT JUMPDEST DUP1 PUSH1 0x5 PUSH1 0x0 PUSH2 0x2417 PUSH2 0x372C JUMP JUMPDEST PUSH1 0x1 PUSH1 0x1 PUSH1 0xA0 SHL SUB SWAP1 DUP2 AND DUP3 MSTORE PUSH1 0x20 DUP1 DUP4 ADD SWAP4 SWAP1 SWAP4 MSTORE PUSH1 0x40 SWAP2 DUP3 ADD PUSH1 0x0 SWAP1 DUP2 KECCAK256 SWAP2 DUP8 AND DUP1 DUP3 MSTORE SWAP2 SWAP1 SWAP4 MSTORE SWAP2 KECCAK256 DUP1 SLOAD PUSH1 0xFF NOT AND SWAP3 ISZERO ISZERO SWAP3 SWAP1 SWAP3 OR SWAP1 SWAP2 SSTORE PUSH2 0x245B PUSH2 0x372C JUMP JUMPDEST PUSH1 0x1 PUSH1 0x1 PUSH1 0xA0 SHL SUB AND PUSH32 0x17307EAB39AB6107E8899845AD3D59BD9653F200F220920489CA2B5937696C31 DUP4 PUSH1 0x40 MLOAD DUP1 DUP3 ISZERO ISZERO DUP2 MSTORE PUSH1 0x20 ADD SWAP2 POP POP PUSH1 0x40 MLOAD DUP1 SWAP2 SUB SWAP1 LOG3 POP POP JUMP JUMPDEST PUSH1 0x0 DUP3 DUP2 MSTORE PUSH1 0x11 PUSH1 0x20 MSTORE PUSH1 0x40 SWAP1 KECCAK256 SLOAD DUP2 GT ISZERO PUSH2 0x24FC JUMPI PUSH1 0x40 DUP1 MLOAD PUSH3 0x461BCD PUSH1 0xE5 SHL DUP2 MSTORE PUSH1 0x20 PUSH1 0x4 DUP3 ADD MSTORE PUSH1 0x15 PUSH1 0x24 DUP3 ADD MSTORE PUSH21 0x43616E277420696E63726561736520656E65726779 PUSH1 0x58 SHL PUSH1 0x44 DUP3 ADD MSTORE SWAP1 MLOAD SWAP1 DUP2 SWAP1 SUB PUSH1 0x64 ADD SWAP1 REVERT JUMPDEST PUSH1 0x0 SWAP2 DUP3 MSTORE PUSH1 0x11 PUSH1 0x20 MSTORE PUSH1 0x40 SWAP1 SWAP2 KECCAK256 SSTORE JUMP JUMPDEST PUSH2 0x2519 PUSH2 0x14BE PUSH2 0x372C JUMP JUMPDEST PUSH2 0x2554 JUMPI PUSH1 0x40 MLOAD PUSH3 0x461BCD PUSH1 0xE5 SHL DUP2 MSTORE PUSH1 0x4 ADD DUP1 DUP1 PUSH1 0x20 ADD DUP3 DUP2 SUB DUP3 MSTORE PUSH1 0x31 DUP2 MSTORE PUSH1 0x20 ADD DUP1 PUSH2 0x5983 PUSH1 0x31 SWAP2 CODECOPY PUSH1 0x40 ADD SWAP2 POP POP PUSH1 0x40 MLOAD DUP1 SWAP2 SUB SWAP1 REVERT JUMPDEST PUSH2 0x2560 DUP5 DUP5 DUP5 DUP5 PUSH2 0x3F22 JUMP JUMPDEST POP POP POP POP JUMP JUMPDEST PUSH1 0x60 PUSH2 0x2571 DUP3 PUSH2 0x371F JUMP JUMPDEST PUSH2 0x25AC JUMPI PUSH1 0x40 MLOAD PUSH3 0x461BCD PUSH1 0xE5 SHL DUP2 MSTORE PUSH1 0x4 ADD DUP1 DUP1 PUSH1 0x20 ADD DUP3 DUP2 SUB DUP3 MSTORE PUSH1 0x2F DUP2 MSTORE PUSH1 0x20 ADD DUP1 PUSH2 0x5719 PUSH1 0x2F SWAP2 CODECOPY PUSH1 0x40 ADD SWAP2 POP POP PUSH1 0x40 MLOAD DUP1 SWAP2 SUB SWAP1 REVERT JUMPDEST PUSH1 0x0 DUP3 DUP2 MSTORE PUSH1 0x10 PUSH1 0x20 SWAP1 DUP2 MSTORE PUSH1 0x40 DUP1 DUP4 KECCAK256 SLOAD PUSH1 0xC DUP4 MSTORE DUP2 DUP5 KECCAK256 SLOAD PUSH1 0xD SWAP1 SWAP4 MSTORE SWAP1 DUP4 KECCAK256 SLOAD PUSH1 0xFF SWAP2 DUP3 AND SWAP4 SWAP3 SWAP1 SWAP2 AND SWAP2 PUSH1 0x4E SWAP1 PUSH2 0x25E5 PUSH2 0x2244 JUMP JUMPDEST SWAP1 POP PUSH1 0x0 DUP6 PUSH2 0x25F5 JUMPI POP DUP2 PUSH2 0x2643 JUMP JUMPDEST PUSH1 0x0 DUP9 DUP2 MSTORE PUSH1 0xE PUSH1 0x20 MSTORE PUSH1 0x40 SWAP1 KECCAK256 SLOAD PUSH1 0x64 SWAP1 DUP2 SUB SWAP1 DUP6 MUL DUP2 PUSH2 0x2613 JUMPI INVALID JUMPDEST DIV DUP3 GT PUSH2 0x263D JUMPI PUSH1 0x64 DUP3 DUP6 DUP5 SUB PUSH1 0x64 MUL DUP2 PUSH2 0x262A JUMPI INVALID JUMPDEST DIV PUSH1 0x64 SUB DUP5 MUL DUP2 PUSH2 0x2637 JUMPI INVALID JUMPDEST DIV PUSH2 0x2640 JUMP JUMPDEST PUSH1 0x0 JUMPDEST SWAP1 POP JUMPDEST PUSH1 0x0 DUP9 DUP2 MSTORE PUSH1 0x11 PUSH1 0x20 MSTORE PUSH1 0x40 SWAP1 KECCAK256 SLOAD PUSH1 0x60 PUSH1 0x1 DUP9 ISZERO ISZERO EQ ISZERO PUSH2 0x271D JUMPI PUSH2 0x2668 DUP4 PUSH2 0x2D64 JUMP JUMPDEST PUSH1 0x40 MLOAD PUSH1 0x20 ADD DUP1 PUSH1 0xC1 PUSH2 0x549C DUP3 CODECOPY PUSH1 0xC1 ADD DUP1 PUSH2 0x5339 PUSH1 0xC1 SWAP2 CODECOPY PUSH1 0xC1 ADD DUP1 PUSH32 0x253343636972636C652063783D27313735272063793D273230302720723D2700 DUP2 MSTORE POP PUSH1 0x1F ADD DUP3 DUP1 MLOAD SWAP1 PUSH1 0x20 ADD SWAP1 DUP1 DUP4 DUP4 JUMPDEST PUSH1 0x20 DUP4 LT PUSH2 0x26D7 JUMPI DUP1 MLOAD DUP3 MSTORE PUSH1 0x1F NOT SWAP1 SWAP3 ADD SWAP2 PUSH1 0x20 SWAP2 DUP3 ADD SWAP2 ADD PUSH2 0x26B8 JUMP JUMPDEST PUSH1 0x1 DUP4 PUSH1 0x20 SUB PUSH2 0x100 EXP SUB DUP1 NOT DUP3 MLOAD AND DUP2 DUP5 MLOAD AND DUP1 DUP3 OR DUP6 MSTORE POP POP POP POP POP POP SWAP1 POP ADD DUP1 PUSH2 0x52BE PUSH1 0x2E SWAP2 CODECOPY PUSH1 0x2E ADD SWAP2 POP POP PUSH1 0x40 MLOAD PUSH1 0x20 DUP2 DUP4 SUB SUB DUP2 MSTORE SWAP1 PUSH1 0x40 MSTORE SWAP1 POP PUSH2 0x27EA JUMP JUMPDEST PUSH2 0x2726 DUP4 PUSH2 0x2D64 JUMP JUMPDEST PUSH1 0x40 MLOAD PUSH1 0x20 ADD DUP1 PUSH1 0xB4 PUSH2 0x5748 DUP3 CODECOPY PUSH1 0xB4 ADD PUSH1 0xB2 PUSH2 0x5BCE DUP3 CODECOPY PUSH1 0xB2 ADD DUP1 PUSH32 0x253343636972636C652063783D27313735272063793D273230302720723D2700 DUP2 MSTORE POP PUSH1 0x1F ADD DUP3 DUP1 MLOAD SWAP1 PUSH1 0x20 ADD SWAP1 DUP1 DUP4 DUP4 JUMPDEST PUSH1 0x20 DUP4 LT PUSH2 0x2794 JUMPI DUP1 MLOAD DUP3 MSTORE PUSH1 0x1F NOT SWAP1 SWAP3 ADD SWAP2 PUSH1 0x20 SWAP2 DUP3 ADD SWAP2 ADD PUSH2 0x2775 JUMP JUMPDEST PUSH1 0x1 DUP4 PUSH1 0x20 SUB PUSH2 0x100 EXP SUB DUP1 NOT DUP3 MLOAD AND DUP2 DUP5 MLOAD AND DUP1 DUP3 OR DUP6 MSTORE POP POP POP POP POP POP SWAP1 POP ADD DUP1 PUSH2 0x52BE PUSH1 0x2E SWAP2 CODECOPY PUSH1 0x2E ADD PUSH1 0xB3 PUSH2 0x5A4F DUP3 CODECOPY PUSH1 0xB3 ADD PUSH1 0x56 PUSH2 0x5B02 DUP3 CODECOPY PUSH1 0x56 ADD SWAP2 POP POP PUSH1 0x40 MLOAD PUSH1 0x20 DUP2 DUP4 SUB SUB DUP2 MSTORE SWAP1 PUSH1 0x40 MSTORE SWAP1 POP JUMPDEST PUSH1 0x60 PUSH2 0x2800 PUSH2 0x27F7 PUSH2 0x2244 JUMP JUMPDEST PUSH1 0x8 PUSH1 0x2 PUSH2 0x3F74 JUMP JUMPDEST PUSH2 0x280D DUP9 PUSH1 0x8 PUSH1 0x2 PUSH2 0x3F74 JUMP JUMPDEST PUSH1 0x40 MLOAD PUSH1 0x20 ADD DUP1 PUSH1 0xAA PUSH2 0x50D4 DUP3 CODECOPY PUSH1 0xAA ADD PUSH2 0x100 PUSH2 0x5883 DUP3 CODECOPY PUSH2 0x100 ADD PUSH2 0x213 PUSH2 0x4DFC DUP3 CODECOPY PUSH2 0x213 ADD PUSH1 0x51 PUSH2 0x59FE DUP3 CODECOPY PUSH1 0x51 ADD PUSH1 0x3C PUSH2 0x5586 DUP3 CODECOPY PUSH1 0x3C ADD DUP4 DUP1 MLOAD SWAP1 PUSH1 0x20 ADD SWAP1 DUP1 DUP4 DUP4 JUMPDEST PUSH1 0x20 DUP4 LT PUSH2 0x2875 JUMPI DUP1 MLOAD DUP3 MSTORE PUSH1 0x1F NOT SWAP1 SWAP3 ADD SWAP2 PUSH1 0x20 SWAP2 DUP3 ADD SWAP2 ADD PUSH2 0x2856 JUMP JUMPDEST MLOAD DUP2 MLOAD PUSH1 0x20 SWAP4 SWAP1 SWAP4 SUB PUSH2 0x100 EXP PUSH1 0x0 NOT ADD DUP1 NOT SWAP1 SWAP2 AND SWAP3 AND SWAP2 SWAP1 SWAP2 OR SWAP1 MSTORE PUSH11 0x2533432F74657874253345 PUSH1 0xA8 SHL SWAP3 ADD SWAP2 DUP3 MSTORE POP PUSH1 0xB ADD PUSH1 0x51 PUSH2 0x5031 DUP3 CODECOPY PUSH1 0x51 ADD PUSH1 0x3C PUSH2 0x56B4 DUP3 CODECOPY PUSH1 0x3C ADD DUP3 DUP1 MLOAD SWAP1 PUSH1 0x20 ADD SWAP1 DUP1 DUP4 DUP4 JUMPDEST PUSH1 0x20 DUP4 LT PUSH2 0x28EA JUMPI DUP1 MLOAD DUP3 MSTORE PUSH1 0x1F NOT SWAP1 SWAP3 ADD SWAP2 PUSH1 0x20 SWAP2 DUP3 ADD SWAP2 ADD PUSH2 0x28CB JUMP JUMPDEST MLOAD DUP2 MLOAD PUSH1 0x20 SWAP4 SWAP1 SWAP4 SUB PUSH2 0x100 EXP PUSH1 0x0 NOT ADD DUP1 NOT SWAP1 SWAP2 AND SWAP3 AND SWAP2 SWAP1 SWAP2 OR SWAP1 MSTORE PUSH11 0x2533432F74657874253345 PUSH1 0xA8 SHL SWAP3 ADD SWAP2 DUP3 MSTORE POP PUSH1 0xB ADD PUSH1 0x52 PUSH2 0x5082 DUP3 CODECOPY PUSH1 0x52 ADD SWAP3 POP POP POP PUSH1 0x40 MLOAD PUSH1 0x20 DUP2 DUP4 SUB SUB DUP2 MSTORE SWAP1 PUSH1 0x40 MSTORE SWAP1 POP DUP1 PUSH2 0x2955 PUSH2 0x294C DUP14 PUSH2 0x407C JUMP JUMPDEST PUSH1 0x6 PUSH1 0x2 PUSH2 0x3F74 JUMP JUMPDEST PUSH2 0x295E DUP6 PUSH2 0x2D64 JUMP JUMPDEST PUSH2 0x2967 DUP15 PUSH2 0x2D64 JUMP JUMPDEST DUP6 PUSH1 0x40 MLOAD PUSH1 0x20 ADD DUP1 DUP7 DUP1 MLOAD SWAP1 PUSH1 0x20 ADD SWAP1 DUP1 DUP4 DUP4 JUMPDEST PUSH1 0x20 DUP4 LT PUSH2 0x299A JUMPI DUP1 MLOAD DUP3 MSTORE PUSH1 0x1F NOT SWAP1 SWAP3 ADD SWAP2 PUSH1 0x20 SWAP2 DUP3 ADD SWAP2 ADD PUSH2 0x297B JUMP JUMPDEST PUSH1 0x1 DUP4 PUSH1 0x20 SUB PUSH2 0x100 EXP SUB DUP1 NOT DUP3 MLOAD AND DUP2 DUP5 MLOAD AND DUP1 DUP3 OR DUP6 MSTORE POP POP POP POP POP POP SWAP1 POP ADD DUP1 PUSH2 0x525E PUSH1 0x3C SWAP2 CODECOPY PUSH1 0x3C ADD DUP6 DUP1 MLOAD SWAP1 PUSH1 0x20 ADD SWAP1 DUP1 DUP4 DUP4 JUMPDEST PUSH1 0x20 DUP4 LT PUSH2 0x29F2 JUMPI DUP1 MLOAD DUP3 MSTORE PUSH1 0x1F NOT SWAP1 SWAP3 ADD SWAP2 PUSH1 0x20 SWAP2 DUP3 ADD SWAP2 ADD PUSH2 0x29D3 JUMP JUMPDEST MLOAD DUP2 MLOAD PUSH1 0x20 SWAP4 SWAP1 SWAP4 SUB PUSH2 0x100 EXP PUSH1 0x0 NOT ADD DUP1 NOT SWAP1 SWAP2 AND SWAP3 AND SWAP2 SWAP1 SWAP2 OR SWAP1 MSTORE PUSH12 0x202533432F74657874253345 PUSH1 0xA0 SHL SWAP3 ADD SWAP2 DUP3 MSTORE POP PUSH1 0xC ADD PUSH1 0x4A PUSH2 0x59B4 DUP3 CODECOPY PUSH1 0x4A ADD PUSH1 0x3B PUSH2 0x5848 DUP3 CODECOPY PUSH1 0x3B ADD DUP5 DUP1 MLOAD SWAP1 PUSH1 0x20 ADD SWAP1 DUP1 DUP4 DUP4 JUMPDEST PUSH1 0x20 DUP4 LT PUSH2 0x2A68 JUMPI DUP1 MLOAD DUP3 MSTORE PUSH1 0x1F NOT SWAP1 SWAP3 ADD SWAP2 PUSH1 0x20 SWAP2 DUP3 ADD SWAP2 ADD PUSH2 0x2A49 JUMP JUMPDEST MLOAD DUP2 MLOAD PUSH1 0x20 SWAP4 SWAP1 SWAP4 SUB PUSH2 0x100 EXP PUSH1 0x0 NOT ADD DUP1 NOT SWAP1 SWAP2 AND SWAP3 AND SWAP2 SWAP1 SWAP2 OR SWAP1 MSTORE PUSH11 0x2533432F74657874253345 PUSH1 0xA8 SHL SWAP3 ADD SWAP2 DUP3 MSTORE POP PUSH1 0xB ADD PUSH1 0x60 PUSH2 0x51FE DUP3 CODECOPY PUSH1 0x60 ADD DUP4 DUP1 MLOAD SWAP1 PUSH1 0x20 ADD SWAP1 DUP1 DUP4 DUP4 JUMPDEST PUSH1 0x20 DUP4 LT PUSH2 0x2AD3 JUMPI DUP1 MLOAD DUP3 MSTORE PUSH1 0x1F NOT SWAP1 SWAP3 ADD SWAP2 PUSH1 0x20 SWAP2 DUP3 ADD SWAP2 ADD PUSH2 0x2AB4 JUMP JUMPDEST MLOAD DUP2 MLOAD PUSH1 0x20 SWAP4 SWAP1 SWAP4 SUB PUSH2 0x100 EXP PUSH1 0x0 NOT ADD DUP1 NOT SWAP1 SWAP2 AND SWAP3 AND SWAP2 SWAP1 SWAP2 OR SWAP1 MSTORE PUSH11 0x2533432F74657874253345 PUSH1 0xA8 SHL SWAP3 ADD SWAP2 DUP3 MSTORE POP PUSH1 0xB ADD PUSH1 0x76 PUSH2 0x5B58 DUP3 CODECOPY PUSH1 0x76 ADD DUP3 DUP1 MLOAD SWAP1 PUSH1 0x20 ADD SWAP1 DUP1 DUP4 DUP4 JUMPDEST PUSH1 0x20 DUP4 LT PUSH2 0x2B3E JUMPI DUP1 MLOAD DUP3 MSTORE PUSH1 0x1F NOT SWAP1 SWAP3 ADD SWAP2 PUSH1 0x20 SWAP2 DUP3 ADD SWAP2 ADD PUSH2 0x2B1F JUMP JUMPDEST MLOAD DUP2 MLOAD PUSH1 0x20 SWAP4 SWAP1 SWAP4 SUB PUSH2 0x100 EXP PUSH1 0x0 NOT ADD DUP1 NOT SWAP1 SWAP2 AND SWAP3 AND SWAP2 SWAP1 SWAP2 OR SWAP1 MSTORE PUSH12 0x2AB739BAB83837B93A32B217 PUSH1 0xA1 SHL SWAP3 ADD SWAP2 DUP3 MSTORE POP PUSH10 0x2533432F737667253345 PUSH1 0xB0 SHL PUSH1 0xC DUP3 ADD MSTORE PUSH1 0x40 DUP1 MLOAD DUP1 DUP4 SUB PUSH1 0x9 NOT ADD DUP2 MSTORE PUSH1 0x16 SWAP1 SWAP3 ADD SWAP1 MSTORE SWAP7 POP POP POP PUSH1 0x2 DUP13 LT ISZERO SWAP4 POP PUSH2 0x2BCE SWAP3 POP POP POP JUMPI PUSH2 0x2BBE DUP12 PUSH2 0x2BB9 DUP4 PUSH2 0x163F JUMP JUMPDEST PUSH2 0xE4E JUMP JUMPDEST SWAP10 POP POP POP POP POP POP POP POP POP POP PUSH2 0xE49 JUMP JUMPDEST PUSH1 0x40 MLOAD DUP1 PUSH1 0x20 ADD PUSH1 0x40 MSTORE DUP1 PUSH1 0x0 DUP2 MSTORE POP SWAP10 POP POP POP POP POP POP POP POP POP POP PUSH2 0xE49 JUMP JUMPDEST PUSH1 0xB SLOAD DUP2 JUMP JUMPDEST PUSH1 0x1 PUSH1 0x1 PUSH1 0xA0 SHL SUB SWAP2 DUP3 AND PUSH1 0x0 SWAP1 DUP2 MSTORE PUSH1 0x5 PUSH1 0x20 SWAP1 DUP2 MSTORE PUSH1 0x40 DUP1 DUP4 KECCAK256 SWAP4 SWAP1 SWAP5 AND DUP3 MSTORE SWAP2 SWAP1 SWAP2 MSTORE KECCAK256 SLOAD PUSH1 0xFF AND SWAP1 JUMP JUMPDEST PUSH2 0x2C2A PUSH2 0x372C JUMP JUMPDEST PUSH1 0x1 PUSH1 0x1 PUSH1 0xA0 SHL SUB AND PUSH2 0x2C3B PUSH2 0x2235 JUMP JUMPDEST PUSH1 0x1 PUSH1 0x1 PUSH1 0xA0 SHL SUB AND EQ PUSH2 0x2C96 JUMPI PUSH1 0x40 DUP1 MLOAD PUSH3 0x461BCD PUSH1 0xE5 SHL DUP2 MSTORE PUSH1 0x20 PUSH1 0x4 DUP3 ADD DUP2 SWAP1 MSTORE PUSH1 0x24 DUP3 ADD MSTORE PUSH32 0x4F776E61626C653A2063616C6C6572206973206E6F7420746865206F776E6572 PUSH1 0x44 DUP3 ADD MSTORE SWAP1 MLOAD SWAP1 DUP2 SWAP1 SUB PUSH1 0x64 ADD SWAP1 REVERT JUMPDEST PUSH1 0x1 PUSH1 0x1 PUSH1 0xA0 SHL SUB DUP2 AND PUSH2 0x2CDB JUMPI PUSH1 0x40 MLOAD PUSH3 0x461BCD PUSH1 0xE5 SHL DUP2 MSTORE PUSH1 0x4 ADD DUP1 DUP1 PUSH1 0x20 ADD DUP3 DUP2 SUB DUP3 MSTORE PUSH1 0x26 DUP2 MSTORE PUSH1 0x20 ADD DUP1 PUSH2 0x51D8 PUSH1 0x26 SWAP2 CODECOPY PUSH1 0x40 ADD SWAP2 POP POP PUSH1 0x40 MLOAD DUP1 SWAP2 SUB SWAP1 REVERT JUMPDEST PUSH1 0xA SLOAD PUSH1 0x40 MLOAD PUSH1 0x1 PUSH1 0x1 PUSH1 0xA0 SHL SUB DUP1 DUP5 AND SWAP3 AND SWAP1 PUSH32 0x8BE0079C531659141344CD1FD0A4F28419497F9722A3DAAFE3B4186F6B6457E0 SWAP1 PUSH1 0x0 SWAP1 LOG3 PUSH1 0xA DUP1 SLOAD PUSH1 0x1 PUSH1 0x1 PUSH1 0xA0 SHL SUB NOT AND PUSH1 0x1 PUSH1 0x1 PUSH1 0xA0 SHL SUB SWAP3 SWAP1 SWAP3 AND SWAP2 SWAP1 SWAP2 OR SWAP1 SSTORE JUMP JUMPDEST PUSH1 0x10 PUSH1 0x20 MSTORE PUSH1 0x0 SWAP1 DUP2 MSTORE PUSH1 0x40 SWAP1 KECCAK256 SLOAD PUSH1 0xFF AND DUP2 JUMP JUMPDEST PUSH1 0x12 SLOAD DUP2 JUMP JUMPDEST PUSH1 0xF PUSH1 0x20 MSTORE PUSH1 0x0 SWAP1 DUP2 MSTORE PUSH1 0x40 SWAP1 KECCAK256 SLOAD DUP2 JUMP JUMPDEST PUSH1 0x60 DUP2 PUSH2 0x2D89 JUMPI POP PUSH1 0x40 DUP1 MLOAD DUP1 DUP3 ADD SWAP1 SWAP2 MSTORE PUSH1 0x1 DUP2 MSTORE PUSH1 0x3 PUSH1 0xFC SHL PUSH1 0x20 DUP3 ADD MSTORE PUSH2 0xE49 JUMP JUMPDEST DUP2 PUSH1 0x0 JUMPDEST DUP2 ISZERO PUSH2 0x2DA1 JUMPI PUSH1 0x1 ADD PUSH1 0xA DUP3 DIV SWAP2 POP PUSH2 0x2D8D JUMP JUMPDEST PUSH1 0x60 DUP2 PUSH8 0xFFFFFFFFFFFFFFFF DUP2 GT DUP1 ISZERO PUSH2 0x2DBA JUMPI PUSH1 0x0 DUP1 REVERT JUMPDEST POP PUSH1 0x40 MLOAD SWAP1 DUP1 DUP3 MSTORE DUP1 PUSH1 0x1F ADD PUSH1 0x1F NOT AND PUSH1 0x20 ADD DUP3 ADD PUSH1 0x40 MSTORE DUP1 ISZERO PUSH2 0x2DE5 JUMPI PUSH1 0x20 DUP3 ADD DUP2 DUP1 CALLDATASIZE DUP4 CALLDATACOPY ADD SWAP1 POP JUMPDEST POP SWAP1 POP PUSH1 0x0 NOT DUP3 ADD JUMPDEST DUP6 ISZERO PUSH2 0x2E33 JUMPI PUSH1 0xA DUP7 MOD PUSH1 0x30 ADD PUSH1 0xF8 SHL DUP3 DUP3 DUP1 PUSH1 0x1 SWAP1 SUB SWAP4 POP DUP2 MLOAD DUP2 LT PUSH2 0x2E11 JUMPI INVALID JUMPDEST PUSH1 0x20 ADD ADD SWAP1 PUSH1 0x1 PUSH1 0x1 PUSH1 0xF8 SHL SUB NOT AND SWAP1 DUP2 PUSH1 0x0 BYTE SWAP1 MSTORE8 POP PUSH1 0xA DUP7 DIV SWAP6 POP PUSH2 0x2DEE JUMP JUMPDEST POP SWAP5 SWAP4 POP POP POP POP JUMP JUMPDEST PUSH1 0x60 DUP1 DUP3 SWAP1 POP PUSH1 0x0 PUSH1 0x3 DUP3 MLOAD DUP2 PUSH2 0x2E4F JUMPI INVALID JUMPDEST MOD SWAP1 POP PUSH1 0x0 PUSH1 0x3 DUP3 DUP2 SUB MOD PUSH1 0x3 DUP5 MLOAD PUSH1 0x2 ADD DUP2 PUSH2 0x2E68 JUMPI INVALID JUMPDEST DIV PUSH1 0x4 MUL SUB SWAP1 POP PUSH1 0x60 DUP2 PUSH8 0xFFFFFFFFFFFFFFFF DUP2 GT DUP1 ISZERO PUSH2 0x2E88 JUMPI PUSH1 0x0 DUP1 REVERT JUMPDEST POP PUSH1 0x40 MLOAD SWAP1 DUP1 DUP3 MSTORE DUP1 PUSH1 0x1F ADD PUSH1 0x1F NOT AND PUSH1 0x20 ADD DUP3 ADD PUSH1 0x40 MSTORE DUP1 ISZERO PUSH2 0x2EB3 JUMPI PUSH1 0x20 DUP3 ADD DUP2 DUP1 CALLDATASIZE DUP4 CALLDATACOPY ADD SWAP1 POP JUMPDEST POP SWAP1 POP PUSH1 0x0 DUP1 JUMPDEST DUP6 MLOAD DUP3 PUSH1 0x3 ADD GT PUSH2 0x2FBD JUMPI PUSH2 0x2F21 DUP7 DUP4 DUP2 MLOAD DUP2 LT PUSH2 0x2ED4 JUMPI INVALID JUMPDEST PUSH1 0x20 ADD ADD MLOAD PUSH1 0xF8 SHR PUSH1 0xF8 SHL PUSH1 0xF8 SHR PUSH1 0xFF AND DUP8 DUP5 PUSH1 0x1 ADD DUP2 MLOAD DUP2 LT PUSH2 0x2EF4 JUMPI INVALID JUMPDEST PUSH1 0x20 ADD ADD MLOAD PUSH1 0xF8 SHR PUSH1 0xF8 SHL PUSH1 0xF8 SHR PUSH1 0xFF AND DUP9 DUP6 PUSH1 0x2 ADD DUP2 MLOAD DUP2 LT PUSH2 0x2F14 JUMPI INVALID JUMPDEST ADD PUSH1 0x20 ADD MLOAD PUSH1 0xF8 SHR PUSH2 0x4137 JUMP JUMPDEST DUP7 DUP6 DUP2 MLOAD DUP2 LT PUSH2 0x2F2D JUMPI INVALID JUMPDEST PUSH1 0x20 ADD ADD DUP8 DUP7 PUSH1 0x1 ADD DUP2 MLOAD DUP2 LT PUSH2 0x2F40 JUMPI INVALID JUMPDEST PUSH1 0x20 ADD ADD DUP9 DUP8 PUSH1 0x2 ADD DUP2 MLOAD DUP2 LT PUSH2 0x2F53 JUMPI INVALID JUMPDEST PUSH1 0x20 ADD ADD DUP10 DUP9 PUSH1 0x3 ADD DUP2 MLOAD DUP2 LT PUSH2 0x2F66 JUMPI INVALID JUMPDEST PUSH1 0x1 PUSH1 0x1 PUSH1 0xF8 SHL SUB NOT DUP7 AND PUSH1 0x0 BYTE SWAP2 ADD PUSH1 0x20 ADD MSTORE8 PUSH1 0x1 PUSH1 0x1 PUSH1 0xF8 SHL SUB NOT DUP6 AND PUSH1 0x0 BYTE SWAP1 MSTORE8 PUSH1 0x1 PUSH1 0x1 PUSH1 0xF8 SHL SUB NOT DUP6 AND PUSH1 0x0 BYTE SWAP1 MSTORE8 PUSH1 0x1 PUSH1 0x1 PUSH1 0xF8 SHL SUB NOT DUP6 AND PUSH1 0x0 BYTE SWAP1 MSTORE8 POP POP POP PUSH1 0x3 SWAP3 SWAP1 SWAP3 ADD SWAP2 POP PUSH1 0x4 ADD PUSH2 0x2EBA JUMP JUMPDEST DUP5 ISZERO PUSH2 0x30A7 JUMPI PUSH1 0x0 DUP7 DUP7 DUP9 MLOAD SUB DUP2 MLOAD DUP2 LT PUSH2 0x2FD4 JUMPI INVALID JUMPDEST ADD PUSH1 0x20 ADD MLOAD PUSH1 0xF8 SHR SWAP1 POP PUSH1 0x0 PUSH1 0x2 DUP8 EQ ISZERO PUSH2 0x3004 JUMPI DUP8 PUSH1 0x1 DUP10 MLOAD SUB DUP2 MLOAD DUP2 LT PUSH2 0x2FF9 JUMPI INVALID JUMPDEST ADD PUSH1 0x20 ADD MLOAD PUSH1 0xF8 SHR SWAP1 POP JUMPDEST PUSH1 0x0 DUP1 PUSH1 0x0 DUP1 PUSH2 0x301C DUP7 PUSH1 0xFF AND DUP7 PUSH1 0xFF AND PUSH1 0x0 PUSH2 0x4137 JUMP JUMPDEST SWAP4 POP SWAP4 POP SWAP4 POP SWAP4 POP DUP4 DUP10 DUP9 DUP2 MLOAD DUP2 LT PUSH2 0x3031 JUMPI INVALID JUMPDEST PUSH1 0x20 ADD ADD SWAP1 PUSH1 0x1 PUSH1 0x1 PUSH1 0xF8 SHL SUB NOT AND SWAP1 DUP2 PUSH1 0x0 BYTE SWAP1 MSTORE8 POP DUP3 DUP10 DUP9 PUSH1 0x1 ADD DUP2 MLOAD DUP2 LT PUSH2 0x3058 JUMPI INVALID JUMPDEST PUSH1 0x20 ADD ADD SWAP1 PUSH1 0x1 PUSH1 0x1 PUSH1 0xF8 SHL SUB NOT AND SWAP1 DUP2 PUSH1 0x0 BYTE SWAP1 MSTORE8 POP DUP11 PUSH1 0x2 EQ ISZERO PUSH2 0x30A0 JUMPI DUP2 DUP10 DUP9 PUSH1 0x2 ADD DUP2 MLOAD DUP2 LT PUSH2 0x3088 JUMPI INVALID JUMPDEST PUSH1 0x20 ADD ADD SWAP1 PUSH1 0x1 PUSH1 0x1 PUSH1 0xF8 SHL SUB NOT AND SWAP1 DUP2 PUSH1 0x0 BYTE SWAP1 MSTORE8 POP JUMPDEST POP POP POP POP POP POP JUMPDEST POP SWAP1 SWAP7 SWAP6 POP POP POP POP POP POP JUMP JUMPDEST PUSH1 0x0 DUP3 DUP2 MSTORE PUSH1 0xF PUSH1 0x20 SWAP1 DUP2 MSTORE PUSH1 0x40 DUP1 DUP4 KECCAK256 SLOAD PUSH1 0x1E SLOAD DUP3 MLOAD PUSH4 0x70A08231 PUSH1 0xE0 SHL DUP2 MSTORE ADDRESS PUSH1 0x4 DUP3 ADD MSTORE SWAP3 MLOAD SWAP2 SWAP4 DUP6 SWAP4 PUSH1 0x1 PUSH1 0x1 PUSH1 0xA0 SHL SUB SWAP1 SWAP3 AND SWAP3 PUSH4 0x70A08231 SWAP3 PUSH1 0x24 DUP1 DUP3 ADD SWAP4 SWAP3 SWAP2 DUP3 SWAP1 SUB ADD DUP2 DUP7 DUP1 EXTCODESIZE ISZERO DUP1 ISZERO PUSH2 0x310E JUMPI PUSH1 0x0 DUP1 REVERT JUMPDEST POP GAS STATICCALL ISZERO DUP1 ISZERO PUSH2 0x3122 JUMPI RETURNDATASIZE PUSH1 0x0 DUP1 RETURNDATACOPY RETURNDATASIZE PUSH1 0x0 REVERT JUMPDEST POP POP POP POP PUSH1 0x40 MLOAD RETURNDATASIZE PUSH1 0x20 DUP2 LT ISZERO PUSH2 0x3138 JUMPI PUSH1 0x0 DUP1 REVERT JUMPDEST POP MLOAD PUSH1 0x14 SLOAD SWAP1 SWAP2 POP PUSH1 0x0 SWAP1 DUP4 DUP4 MUL DUP2 PUSH2 0x314D JUMPI INVALID JUMPDEST PUSH1 0x0 DUP9 DUP2 MSTORE PUSH1 0xF PUSH1 0x20 MSTORE PUSH1 0x40 DUP2 KECCAK256 SSTORE PUSH1 0x14 DUP1 SLOAD DUP7 SWAP1 SUB SWAP1 SSTORE PUSH1 0x1E SLOAD SWAP2 SWAP1 DIV SWAP2 POP PUSH1 0x1 PUSH1 0x1 PUSH1 0xA0 SHL SUB AND PUSH4 0x2E1A7D4D PUSH2 0x2710 DUP8 DUP2 SUB DUP5 MUL DIV PUSH1 0x40 MLOAD DUP3 PUSH4 0xFFFFFFFF AND PUSH1 0xE0 SHL DUP2 MSTORE PUSH1 0x4 ADD DUP1 DUP3 DUP2 MSTORE PUSH1 0x20 ADD SWAP2 POP POP PUSH1 0x0 PUSH1 0x40 MLOAD DUP1 DUP4 SUB DUP2 PUSH1 0x0 DUP8 DUP1 EXTCODESIZE ISZERO DUP1 ISZERO PUSH2 0x31BA JUMPI PUSH1 0x0 DUP1 REVERT JUMPDEST POP GAS CALL ISZERO DUP1 ISZERO PUSH2 0x31CE JUMPI RETURNDATASIZE PUSH1 0x0 DUP1 RETURNDATACOPY RETURNDATASIZE PUSH1 0x0 REVERT JUMPDEST POP POP PUSH1 0x22 SLOAD PUSH1 0x40 DUP1 MLOAD PUSH4 0xA9059CBB PUSH1 0xE0 SHL DUP2 MSTORE ADDRESS PUSH1 0x4 DUP3 ADD MSTORE PUSH2 0x2710 DUP11 DUP2 SUB DUP8 MUL DIV PUSH1 0x24 DUP3 ADD MSTORE SWAP1 MLOAD PUSH1 0x1 PUSH1 0x1 PUSH1 0xA0 SHL SUB SWAP1 SWAP3 AND SWAP4 POP PUSH4 0xA9059CBB SWAP3 POP PUSH1 0x44 DUP1 DUP3 ADD SWAP3 PUSH1 0x20 SWAP3 SWAP1 SWAP2 SWAP1 DUP3 SWAP1 SUB ADD DUP2 PUSH1 0x0 DUP8 DUP1 EXTCODESIZE ISZERO DUP1 ISZERO PUSH2 0x322D JUMPI PUSH1 0x0 DUP1 REVERT JUMPDEST POP GAS CALL ISZERO DUP1 ISZERO PUSH2 0x3241 JUMPI RETURNDATASIZE PUSH1 0x0 DUP1 RETURNDATACOPY RETURNDATASIZE PUSH1 0x0 REVERT JUMPDEST POP POP POP POP PUSH1 0x40 MLOAD RETURNDATASIZE PUSH1 0x20 DUP2 LT ISZERO PUSH2 0x3257 JUMPI PUSH1 0x0 DUP1 REVERT JUMPDEST POP POP PUSH1 0x1D DUP1 SLOAD PUSH2 0x2710 DUP8 DUP5 MUL DIV ADD SWAP1 SSTORE PUSH2 0x326F PUSH2 0x423A JUMP JUMPDEST PUSH2 0x2710 DUP6 DUP2 SUB DUP3 MUL DIV SWAP7 SWAP6 POP POP POP POP POP POP JUMP JUMPDEST PUSH1 0x40 DUP1 MLOAD PUSH1 0x2 DUP1 DUP3 MSTORE PUSH1 0x60 DUP1 DUP4 ADD DUP5 MSTORE PUSH1 0x0 SWAP4 DUP5 SWAP4 SWAP2 SWAP3 SWAP1 PUSH1 0x20 DUP4 ADD SWAP1 DUP1 CALLDATASIZE DUP4 CALLDATACOPY ADD SWAP1 POP POP SWAP1 POP DUP7 DUP2 PUSH1 0x0 DUP2 MLOAD DUP2 LT PUSH2 0x32B7 JUMPI INVALID JUMPDEST PUSH1 0x20 MUL PUSH1 0x20 ADD ADD SWAP1 PUSH1 0x1 PUSH1 0x1 PUSH1 0xA0 SHL SUB AND SWAP1 DUP2 PUSH1 0x1 PUSH1 0x1 PUSH1 0xA0 SHL SUB AND DUP2 MSTORE POP POP DUP5 PUSH1 0x1 PUSH1 0x1 PUSH1 0xA0 SHL SUB AND PUSH4 0xAD5C4648 PUSH1 0x40 MLOAD DUP2 PUSH4 0xFFFFFFFF AND PUSH1 0xE0 SHL DUP2 MSTORE PUSH1 0x4 ADD PUSH1 0x20 PUSH1 0x40 MLOAD DUP1 DUP4 SUB DUP2 DUP7 DUP1 EXTCODESIZE ISZERO DUP1 ISZERO PUSH2 0x3310 JUMPI PUSH1 0x0 DUP1 REVERT JUMPDEST POP GAS STATICCALL ISZERO DUP1 ISZERO PUSH2 0x3324 JUMPI RETURNDATASIZE PUSH1 0x0 DUP1 RETURNDATACOPY RETURNDATASIZE PUSH1 0x0 REVERT JUMPDEST POP POP POP POP PUSH1 0x40 MLOAD RETURNDATASIZE PUSH1 0x20 DUP2 LT ISZERO PUSH2 0x333A JUMPI PUSH1 0x0 DUP1 REVERT JUMPDEST POP MLOAD DUP2 MLOAD DUP3 SWAP1 PUSH1 0x1 SWAP1 DUP2 LT PUSH2 0x334B JUMPI INVALID JUMPDEST PUSH1 0x20 MUL PUSH1 0x20 ADD ADD SWAP1 PUSH1 0x1 PUSH1 0x1 PUSH1 0xA0 SHL SUB AND SWAP1 DUP2 PUSH1 0x1 PUSH1 0x1 PUSH1 0xA0 SHL SUB AND DUP2 MSTORE POP POP PUSH1 0x0 DUP1 DUP7 PUSH1 0x1 PUSH1 0x1 PUSH1 0xA0 SHL SUB AND PUSH4 0xD06CA61F DUP12 DUP6 PUSH1 0x40 MLOAD DUP4 PUSH4 0xFFFFFFFF AND PUSH1 0xE0 SHL DUP2 MSTORE PUSH1 0x4 ADD DUP1 DUP4 DUP2 MSTORE PUSH1 0x20 ADD DUP1 PUSH1 0x20 ADD DUP3 DUP2 SUB DUP3 MSTORE DUP4 DUP2 DUP2 MLOAD DUP2 MSTORE PUSH1 0x20 ADD SWAP2 POP DUP1 MLOAD SWAP1 PUSH1 0x20 ADD SWAP1 PUSH1 0x20 MUL DUP1 DUP4 DUP4 PUSH1 0x0 JUMPDEST DUP4 DUP2 LT ISZERO PUSH2 0x33D4 JUMPI DUP2 DUP2 ADD MLOAD DUP4 DUP3 ADD MSTORE PUSH1 0x20 ADD PUSH2 0x33BC JUMP JUMPDEST POP POP POP POP SWAP1 POP ADD SWAP4 POP POP POP POP PUSH1 0x0 PUSH1 0x40 MLOAD DUP1 DUP4 SUB DUP2 DUP7 DUP1 EXTCODESIZE ISZERO DUP1 ISZERO PUSH2 0x33F8 JUMPI PUSH1 0x0 DUP1 REVERT JUMPDEST POP GAS STATICCALL ISZERO DUP1 ISZERO PUSH2 0x340C JUMPI RETURNDATASIZE PUSH1 0x0 DUP1 RETURNDATACOPY RETURNDATASIZE PUSH1 0x0 REVERT JUMPDEST POP POP POP POP PUSH1 0x40 MLOAD RETURNDATASIZE PUSH1 0x0 DUP3 RETURNDATACOPY PUSH1 0x1F RETURNDATASIZE SWAP1 DUP2 ADD PUSH1 0x1F NOT AND DUP3 ADD PUSH1 0x40 MSTORE PUSH1 0x20 DUP2 LT ISZERO PUSH2 0x3435 JUMPI PUSH1 0x0 DUP1 REVERT JUMPDEST DUP2 ADD SWAP1 DUP1 DUP1 MLOAD PUSH1 0x40 MLOAD SWAP4 SWAP3 SWAP2 SWAP1 DUP5 PUSH1 0x1 PUSH1 0x20 SHL DUP3 GT ISZERO PUSH2 0x3454 JUMPI PUSH1 0x0 DUP1 REVERT JUMPDEST SWAP1 DUP4 ADD SWAP1 PUSH1 0x20 DUP3 ADD DUP6 DUP2 GT ISZERO PUSH2 0x3469 JUMPI PUSH1 0x0 DUP1 REVERT JUMPDEST DUP3 MLOAD DUP7 PUSH1 0x20 DUP3 MUL DUP4 ADD GT PUSH1 0x1 PUSH1 0x20 SHL DUP3 GT OR ISZERO PUSH2 0x3485 JUMPI PUSH1 0x0 DUP1 REVERT JUMPDEST DUP3 MSTORE POP DUP2 MLOAD PUSH1 0x20 SWAP2 DUP3 ADD SWAP3 DUP3 ADD SWAP2 MUL DUP1 DUP4 DUP4 PUSH1 0x0 JUMPDEST DUP4 DUP2 LT ISZERO PUSH2 0x34B2 JUMPI DUP2 DUP2 ADD MLOAD DUP4 DUP3 ADD MSTORE PUSH1 0x20 ADD PUSH2 0x349A JUMP JUMPDEST POP POP POP POP SWAP1 POP ADD PUSH1 0x40 MSTORE POP POP POP PUSH1 0x0 DUP2 MLOAD DUP2 LT PUSH2 0x34CB JUMPI INVALID JUMPDEST PUSH1 0x20 MUL PUSH1 0x20 ADD ADD MLOAD SWAP1 POP PUSH2 0x2710 DUP7 PUSH2 0x2710 SUB DUP3 MUL DUP2 PUSH2 0x34E6 JUMPI INVALID JUMPDEST DIV SWAP2 POP POP PUSH1 0x60 DUP7 PUSH1 0x1 PUSH1 0x1 PUSH1 0xA0 SHL SUB AND PUSH4 0x18CBAFE5 DUP12 DUP5 DUP7 DUP13 TIMESTAMP PUSH1 0x40 MLOAD DUP7 PUSH4 0xFFFFFFFF AND PUSH1 0xE0 SHL DUP2 MSTORE PUSH1 0x4 ADD DUP1 DUP7 DUP2 MSTORE PUSH1 0x20 ADD DUP6 DUP2 MSTORE PUSH1 0x20 ADD DUP1 PUSH1 0x20 ADD DUP5 PUSH1 0x1 PUSH1 0x1 PUSH1 0xA0 SHL SUB AND DUP2 MSTORE PUSH1 0x20 ADD DUP4 DUP2 MSTORE PUSH1 0x20 ADD DUP3 DUP2 SUB DUP3 MSTORE DUP6 DUP2 DUP2 MLOAD DUP2 MSTORE PUSH1 0x20 ADD SWAP2 POP DUP1 MLOAD SWAP1 PUSH1 0x20 ADD SWAP1 PUSH1 0x20 MUL DUP1 DUP4 DUP4 PUSH1 0x0 JUMPDEST DUP4 DUP2 LT ISZERO PUSH2 0x3570 JUMPI DUP2 DUP2 ADD MLOAD DUP4 DUP3 ADD MSTORE PUSH1 0x20 ADD PUSH2 0x3558 JUMP JUMPDEST POP POP POP POP SWAP1 POP ADD SWAP7 POP POP POP POP POP POP POP PUSH1 0x0 PUSH1 0x40 MLOAD DUP1 DUP4 SUB DUP2 PUSH1 0x0 DUP8 DUP1 EXTCODESIZE ISZERO DUP1 ISZERO PUSH2 0x3599 JUMPI PUSH1 0x0 DUP1 REVERT JUMPDEST POP GAS CALL ISZERO DUP1 ISZERO PUSH2 0x35AD JUMPI RETURNDATASIZE PUSH1 0x0 DUP1 RETURNDATACOPY RETURNDATASIZE PUSH1 0x0 REVERT JUMPDEST POP POP POP POP PUSH1 0x40 MLOAD RETURNDATASIZE PUSH1 0x0 DUP3 RETURNDATACOPY PUSH1 0x1F RETURNDATASIZE SWAP1 DUP2 ADD PUSH1 0x1F NOT AND DUP3 ADD PUSH1 0x40 MSTORE PUSH1 0x20 DUP2 LT ISZERO PUSH2 0x35D6 JUMPI PUSH1 0x0 DUP1 REVERT JUMPDEST DUP2 ADD SWAP1 DUP1 DUP1 MLOAD PUSH1 0x40 MLOAD SWAP4 SWAP3 SWAP2 SWAP1 DUP5 PUSH1 0x1 PUSH1 0x20 SHL DUP3 GT ISZERO PUSH2 0x35F5 JUMPI PUSH1 0x0 DUP1 REVERT JUMPDEST SWAP1 DUP4 ADD SWAP1 PUSH1 0x20 DUP3 ADD DUP6 DUP2 GT ISZERO PUSH2 0x360A JUMPI PUSH1 0x0 DUP1 REVERT JUMPDEST DUP3 MLOAD DUP7 PUSH1 0x20 DUP3 MUL DUP4 ADD GT PUSH1 0x1 PUSH1 0x20 SHL DUP3 GT OR ISZERO PUSH2 0x3626 JUMPI PUSH1 0x0 DUP1 REVERT JUMPDEST DUP3 MSTORE POP DUP2 MLOAD PUSH1 0x20 SWAP2 DUP3 ADD SWAP3 DUP3 ADD SWAP2 MUL DUP1 DUP4 DUP4 PUSH1 0x0 JUMPDEST DUP4 DUP2 LT ISZERO PUSH2 0x3653 JUMPI DUP2 DUP2 ADD MLOAD DUP4 DUP3 ADD MSTORE PUSH1 0x20 ADD PUSH2 0x363B JUMP JUMPDEST POP POP POP POP SWAP1 POP ADD PUSH1 0x40 MSTORE POP POP POP SWAP1 POP DUP1 PUSH1 0x0 DUP2 MLOAD DUP2 LT PUSH2 0x366F JUMPI INVALID JUMPDEST PUSH1 0x20 MUL PUSH1 0x20 ADD ADD MLOAD PUSH1 0x0 EQ ISZERO DUP1 ISZERO PUSH2 0x369C JUMPI POP DUP1 PUSH1 0x1 DUP2 MLOAD DUP2 LT PUSH2 0x368F JUMPI INVALID JUMPDEST PUSH1 0x20 MUL PUSH1 0x20 ADD ADD MLOAD PUSH1 0x0 EQ ISZERO JUMPDEST PUSH2 0x36E4 JUMPI PUSH1 0x40 DUP1 MLOAD PUSH3 0x461BCD PUSH1 0xE5 SHL DUP2 MSTORE PUSH1 0x20 PUSH1 0x4 DUP3 ADD MSTORE PUSH1 0x14 PUSH1 0x24 DUP3 ADD MSTORE PUSH20 0x39BBB0B822BC30B1BA22AA24103330B4B632B217 PUSH1 0x61 SHL PUSH1 0x44 DUP3 ADD MSTORE SWAP1 MLOAD SWAP1 DUP2 SWAP1 SUB PUSH1 0x64 ADD SWAP1 REVERT JUMPDEST DUP1 PUSH1 0x0 DUP2 MLOAD DUP2 LT PUSH2 0x36F1 JUMPI INVALID JUMPDEST PUSH1 0x20 MUL PUSH1 0x20 ADD ADD MLOAD DUP2 PUSH1 0x1 DUP2 MLOAD DUP2 LT PUSH2 0x3706 JUMPI INVALID JUMPDEST PUSH1 0x20 MUL PUSH1 0x20 ADD ADD MLOAD SWAP5 POP SWAP5 POP POP POP POP SWAP6 POP SWAP6 SWAP4 POP POP POP POP JUMP JUMPDEST PUSH1 0x0 PUSH2 0x10EE PUSH1 0x2 DUP4 PUSH2 0x4323 JUMP JUMPDEST CALLER SWAP1 JUMP JUMPDEST PUSH1 0x0 DUP2 DUP2 MSTORE PUSH1 0x4 PUSH1 0x20 MSTORE PUSH1 0x40 SWAP1 KECCAK256 DUP1 SLOAD PUSH1 0x1 PUSH1 0x1 PUSH1 0xA0 SHL SUB NOT AND PUSH1 0x1 PUSH1 0x1 PUSH1 0xA0 SHL SUB DUP5 AND SWAP1 DUP2 OR SWAP1 SWAP2 SSTORE DUP2 SWAP1 PUSH2 0x3765 DUP3 PUSH2 0x1E50 JUMP JUMPDEST PUSH1 0x1 PUSH1 0x1 PUSH1 0xA0 SHL SUB AND PUSH32 0x8C5BE1E5EBEC7D5BD14F71427D1E84F3DD0314C0F7B2291E5B200AC8C7C3B925 PUSH1 0x40 MLOAD PUSH1 0x40 MLOAD DUP1 SWAP2 SUB SWAP1 LOG4 POP POP JUMP JUMPDEST PUSH1 0x0 PUSH2 0x37A9 DUP3 PUSH2 0x371F JUMP JUMPDEST PUSH2 0x37E4 JUMPI PUSH1 0x40 MLOAD PUSH3 0x461BCD PUSH1 0xE5 SHL DUP2 MSTORE PUSH1 0x4 ADD DUP1 DUP1 PUSH1 0x20 ADD DUP3 DUP2 SUB DUP3 MSTORE PUSH1 0x2C DUP2 MSTORE PUSH1 0x20 ADD DUP1 PUSH2 0x530D PUSH1 0x2C SWAP2 CODECOPY PUSH1 0x40 ADD SWAP2 POP POP PUSH1 0x40 MLOAD DUP1 SWAP2 SUB SWAP1 REVERT JUMPDEST PUSH1 0x0 PUSH2 0x37EF DUP4 PUSH2 0x1E50 JUMP JUMPDEST SWAP1 POP DUP1 PUSH1 0x1 PUSH1 0x1 PUSH1 0xA0 SHL SUB AND DUP5 PUSH1 0x1 PUSH1 0x1 PUSH1 0xA0 SHL SUB AND EQ DUP1 PUSH2 0x382A JUMPI POP DUP4 PUSH1 0x1 PUSH1 0x1 PUSH1 0xA0 SHL SUB AND PUSH2 0x381F DUP5 PUSH2 0x1364 JUMP JUMPDEST PUSH1 0x1 PUSH1 0x1 PUSH1 0xA0 SHL SUB AND EQ JUMPDEST DUP1 PUSH2 0x383A JUMPI POP PUSH2 0x383A DUP2 DUP6 PUSH2 0x2BF4 JUMP JUMPDEST SWAP5 SWAP4 POP POP POP POP JUMP JUMPDEST PUSH2 0x384B DUP3 PUSH2 0x371F JUMP JUMPDEST PUSH2 0x3886 JUMPI PUSH1 0x40 MLOAD PUSH3 0x461BCD PUSH1 0xE5 SHL DUP2 MSTORE PUSH1 0x4 ADD DUP1 DUP1 PUSH1 0x20 ADD DUP3 DUP2 SUB DUP3 MSTORE PUSH1 0x2C DUP2 MSTORE PUSH1 0x20 ADD DUP1 PUSH2 0x5651 PUSH1 0x2C SWAP2 CODECOPY PUSH1 0x40 ADD SWAP2 POP POP PUSH1 0x40 MLOAD DUP1 SWAP2 SUB SWAP1 REVERT JUMPDEST PUSH1 0x0 DUP3 DUP2 MSTORE PUSH1 0x8 PUSH1 0x20 SWAP1 DUP2 MSTORE PUSH1 0x40 SWAP1 SWAP2 KECCAK256 DUP3 MLOAD PUSH2 0x149C SWAP3 DUP5 ADD SWAP1 PUSH2 0x4D68 JUMP JUMPDEST PUSH1 0x0 PUSH2 0x10EE DUP3 PUSH2 0x432F JUMP JUMPDEST DUP3 PUSH1 0x1 PUSH1 0x1 PUSH1 0xA0 SHL SUB AND PUSH2 0x38C3 DUP3 PUSH2 0x1E50 JUMP JUMPDEST PUSH1 0x1 PUSH1 0x1 PUSH1 0xA0 SHL SUB AND EQ PUSH2 0x3908 JUMPI PUSH1 0x40 MLOAD PUSH3 0x461BCD PUSH1 0xE5 SHL DUP2 MSTORE PUSH1 0x4 ADD DUP1 DUP1 PUSH1 0x20 ADD DUP3 DUP2 SUB DUP3 MSTORE PUSH1 0x29 DUP2 MSTORE PUSH1 0x20 ADD DUP1 PUSH2 0x56F0 PUSH1 0x29 SWAP2 CODECOPY PUSH1 0x40 ADD SWAP2 POP POP PUSH1 0x40 MLOAD DUP1 SWAP2 SUB SWAP1 REVERT JUMPDEST PUSH1 0x1 PUSH1 0x1 PUSH1 0xA0 SHL SUB DUP3 AND PUSH2 0x394D JUMPI PUSH1 0x40 MLOAD PUSH3 0x461BCD PUSH1 0xE5 SHL DUP2 MSTORE PUSH1 0x4 ADD DUP1 DUP1 PUSH1 0x20 ADD DUP3 DUP2 SUB DUP3 MSTORE PUSH1 0x24 DUP2 MSTORE PUSH1 0x20 ADD DUP1 PUSH2 0x529A PUSH1 0x24 SWAP2 CODECOPY PUSH1 0x40 ADD SWAP2 POP POP PUSH1 0x40 MLOAD DUP1 SWAP2 SUB SWAP1 REVERT JUMPDEST PUSH2 0x3958 DUP4 DUP4 DUP4 PUSH2 0x149C JUMP JUMPDEST PUSH2 0x3963 PUSH1 0x0 DUP3 PUSH2 0x3730 JUMP JUMPDEST PUSH1 0x1 PUSH1 0x1 PUSH1 0xA0 SHL SUB DUP4 AND PUSH1 0x0 SWAP1 DUP2 MSTORE PUSH1 0x1 PUSH1 0x20 MSTORE PUSH1 0x40 SWAP1 KECCAK256 PUSH2 0x3985 SWAP1 DUP3 PUSH2 0x4333 JUMP JUMPDEST POP PUSH1 0x1 PUSH1 0x1 PUSH1 0xA0 SHL SUB DUP3 AND PUSH1 0x0 SWAP1 DUP2 MSTORE PUSH1 0x1 PUSH1 0x20 MSTORE PUSH1 0x40 SWAP1 KECCAK256 PUSH2 0x39A8 SWAP1 DUP3 PUSH2 0x433F JUMP JUMPDEST POP PUSH2 0x39B5 PUSH1 0x2 DUP3 DUP5 PUSH2 0x434B JUMP JUMPDEST POP DUP1 DUP3 PUSH1 0x1 PUSH1 0x1 PUSH1 0xA0 SHL SUB AND DUP5 PUSH1 0x1 PUSH1 0x1 PUSH1 0xA0 SHL SUB AND PUSH32 0xDDF252AD1BE2C89B69C2B068FC378DAA952BA7F163C4A11628F55A4DF523B3EF PUSH1 0x40 MLOAD PUSH1 0x40 MLOAD DUP1 SWAP2 SUB SWAP1 LOG4 POP POP POP JUMP JUMPDEST PUSH1 0x0 PUSH2 0x1638 DUP4 DUP4 PUSH2 0x4361 JUMP JUMPDEST PUSH1 0x14 SLOAD PUSH1 0x0 SWAP1 DUP2 DUP1 JUMPDEST PUSH1 0xB SLOAD DUP2 LT ISZERO PUSH2 0x3A9B JUMPI PUSH1 0x0 DUP2 DUP2 MSTORE PUSH1 0x10 PUSH1 0x20 MSTORE PUSH1 0x40 SWAP1 KECCAK256 SLOAD PUSH1 0xFF AND ISZERO ISZERO PUSH1 0x1 EQ ISZERO PUSH2 0x3A93 JUMPI PUSH2 0x3A40 DUP2 PUSH2 0x43C5 JUMP JUMPDEST PUSH1 0x0 DUP3 DUP2 MSTORE PUSH1 0xF PUSH1 0x20 MSTORE PUSH1 0x40 SWAP1 KECCAK256 SLOAD SWAP1 SWAP3 POP DUP3 GT PUSH2 0x3A5F JUMPI PUSH1 0x0 PUSH2 0x3A71 JUMP JUMPDEST PUSH1 0x0 DUP2 DUP2 MSTORE PUSH1 0xF PUSH1 0x20 MSTORE PUSH1 0x40 SWAP1 KECCAK256 SLOAD DUP3 SUB JUMPDEST SWAP4 POP PUSH1 0x1A SLOAD DUP5 GT ISZERO PUSH2 0x3A93 JUMPI PUSH1 0x0 DUP2 DUP2 MSTORE PUSH1 0xF PUSH1 0x20 MSTORE PUSH1 0x40 SWAP1 KECCAK256 DUP3 SWAP1 SSTORE SWAP2 DUP4 ADD SWAP2 JUMPDEST PUSH1 0x1 ADD PUSH2 0x3A11 JUMP JUMPDEST POP POP PUSH1 0x14 SSTORE POP JUMP JUMPDEST PUSH2 0x1509 DUP3 DUP3 PUSH1 0x40 MLOAD DUP1 PUSH1 0x20 ADD PUSH1 0x40 MSTORE DUP1 PUSH1 0x0 DUP2 MSTORE POP PUSH2 0x4467 JUMP JUMPDEST PUSH1 0x40 DUP1 MLOAD PUSH1 0x2 DUP1 DUP3 MSTORE PUSH1 0x60 DUP1 DUP4 ADD DUP5 MSTORE PUSH1 0x0 SWAP4 DUP5 SWAP4 SWAP2 SWAP3 SWAP1 PUSH1 0x20 DUP4 ADD SWAP1 DUP1 CALLDATASIZE DUP4 CALLDATACOPY ADD SWAP1 POP POP SWAP1 POP DUP5 PUSH1 0x1 PUSH1 0x1 PUSH1 0xA0 SHL SUB AND PUSH4 0xAD5C4648 PUSH1 0x40 MLOAD DUP2 PUSH4 0xFFFFFFFF AND PUSH1 0xE0 SHL DUP2 MSTORE PUSH1 0x4 ADD PUSH1 0x20 PUSH1 0x40 MLOAD DUP1 DUP4 SUB DUP2 DUP7 DUP1 EXTCODESIZE ISZERO DUP1 ISZERO PUSH2 0x3B1D JUMPI PUSH1 0x0 DUP1 REVERT JUMPDEST POP GAS STATICCALL ISZERO DUP1 ISZERO PUSH2 0x3B31 JUMPI RETURNDATASIZE PUSH1 0x0 DUP1 RETURNDATACOPY RETURNDATASIZE PUSH1 0x0 REVERT JUMPDEST POP POP POP POP PUSH1 0x40 MLOAD RETURNDATASIZE PUSH1 0x20 DUP2 LT ISZERO PUSH2 0x3B47 JUMPI PUSH1 0x0 DUP1 REVERT JUMPDEST POP MLOAD DUP2 MLOAD DUP3 SWAP1 PUSH1 0x0 SWAP1 PUSH2 0x3B56 JUMPI INVALID JUMPDEST PUSH1 0x20 MUL PUSH1 0x20 ADD ADD SWAP1 PUSH1 0x1 PUSH1 0x1 PUSH1 0xA0 SHL SUB AND SWAP1 DUP2 PUSH1 0x1 PUSH1 0x1 PUSH1 0xA0 SHL SUB AND DUP2 MSTORE POP POP DUP7 DUP2 PUSH1 0x1 DUP2 MLOAD DUP2 LT PUSH2 0x3B84 JUMPI INVALID JUMPDEST PUSH1 0x20 MUL PUSH1 0x20 ADD ADD SWAP1 PUSH1 0x1 PUSH1 0x1 PUSH1 0xA0 SHL SUB AND SWAP1 DUP2 PUSH1 0x1 PUSH1 0x1 PUSH1 0xA0 SHL SUB AND DUP2 MSTORE POP POP PUSH1 0x0 DUP1 DUP7 PUSH1 0x1 PUSH1 0x1 PUSH1 0xA0 SHL SUB AND PUSH4 0xD06CA61F DUP12 DUP6 PUSH1 0x40 MLOAD DUP4 PUSH4 0xFFFFFFFF AND PUSH1 0xE0 SHL DUP2 MSTORE PUSH1 0x4 ADD DUP1 DUP4 DUP2 MSTORE PUSH1 0x20 ADD DUP1 PUSH1 0x20 ADD DUP3 DUP2 SUB DUP3 MSTORE DUP4 DUP2 DUP2 MLOAD DUP2 MSTORE PUSH1 0x20 ADD SWAP2 POP DUP1 MLOAD SWAP1 PUSH1 0x20 ADD SWAP1 PUSH1 0x20 MUL DUP1 DUP4 DUP4 PUSH1 0x0 JUMPDEST DUP4 DUP2 LT ISZERO PUSH2 0x3C0D JUMPI DUP2 DUP2 ADD MLOAD DUP4 DUP3 ADD MSTORE PUSH1 0x20 ADD PUSH2 0x3BF5 JUMP JUMPDEST POP POP POP POP SWAP1 POP ADD SWAP4 POP POP POP POP PUSH1 0x0 PUSH1 0x40 MLOAD DUP1 DUP4 SUB DUP2 DUP7 DUP1 EXTCODESIZE ISZERO DUP1 ISZERO PUSH2 0x3C31 JUMPI PUSH1 0x0 DUP1 REVERT JUMPDEST POP GAS STATICCALL ISZERO DUP1 ISZERO PUSH2 0x3C45 JUMPI RETURNDATASIZE PUSH1 0x0 DUP1 RETURNDATACOPY RETURNDATASIZE PUSH1 0x0 REVERT JUMPDEST POP POP POP POP PUSH1 0x40 MLOAD RETURNDATASIZE PUSH1 0x0 DUP3 RETURNDATACOPY PUSH1 0x1F RETURNDATASIZE SWAP1 DUP2 ADD PUSH1 0x1F NOT AND DUP3 ADD PUSH1 0x40 MSTORE PUSH1 0x20 DUP2 LT ISZERO PUSH2 0x3C6E JUMPI PUSH1 0x0 DUP1 REVERT JUMPDEST DUP2 ADD SWAP1 DUP1 DUP1 MLOAD PUSH1 0x40 MLOAD SWAP4 SWAP3 SWAP2 SWAP1 DUP5 PUSH1 0x1 PUSH1 0x20 SHL DUP3 GT ISZERO PUSH2 0x3C8D JUMPI PUSH1 0x0 DUP1 REVERT JUMPDEST SWAP1 DUP4 ADD SWAP1 PUSH1 0x20 DUP3 ADD DUP6 DUP2 GT ISZERO PUSH2 0x3CA2 JUMPI PUSH1 0x0 DUP1 REVERT JUMPDEST DUP3 MLOAD DUP7 PUSH1 0x20 DUP3 MUL DUP4 ADD GT PUSH1 0x1 PUSH1 0x20 SHL DUP3 GT OR ISZERO PUSH2 0x3CBE JUMPI PUSH1 0x0 DUP1 REVERT JUMPDEST DUP3 MSTORE POP DUP2 MLOAD PUSH1 0x20 SWAP2 DUP3 ADD SWAP3 DUP3 ADD SWAP2 MUL DUP1 DUP4 DUP4 PUSH1 0x0 JUMPDEST DUP4 DUP2 LT ISZERO PUSH2 0x3CEB JUMPI DUP2 DUP2 ADD MLOAD DUP4 DUP3 ADD MSTORE PUSH1 0x20 ADD PUSH2 0x3CD3 JUMP JUMPDEST POP POP POP POP SWAP1 POP ADD PUSH1 0x40 MSTORE POP POP POP PUSH1 0x0 DUP2 MLOAD DUP2 LT PUSH2 0x3D04 JUMPI INVALID JUMPDEST PUSH1 0x20 MUL PUSH1 0x20 ADD ADD MLOAD SWAP1 POP PUSH2 0x2710 DUP7 PUSH2 0x2710 SUB DUP3 MUL DUP2 PUSH2 0x3D1F JUMPI INVALID JUMPDEST DIV SWAP2 POP POP PUSH1 0x60 DUP7 PUSH1 0x1 PUSH1 0x1 PUSH1 0xA0 SHL SUB AND PUSH4 0x7FF36AB5 DUP12 DUP5 DUP7 DUP13 TIMESTAMP PUSH2 0x168 ADD PUSH1 0x40 MLOAD DUP7 PUSH4 0xFFFFFFFF AND PUSH1 0xE0 SHL DUP2 MSTORE PUSH1 0x4 ADD DUP1 DUP6 DUP2 MSTORE PUSH1 0x20 ADD DUP1 PUSH1 0x20 ADD DUP5 PUSH1 0x1 PUSH1 0x1 PUSH1 0xA0 SHL SUB AND DUP2 MSTORE PUSH1 0x20 ADD DUP4 DUP2 MSTORE PUSH1 0x20 ADD DUP3 DUP2 SUB DUP3 MSTORE DUP6 DUP2 DUP2 MLOAD DUP2 MSTORE PUSH1 0x20 ADD SWAP2 POP DUP1 MLOAD SWAP1 PUSH1 0x20 ADD SWAP1 PUSH1 0x20 MUL DUP1 DUP4 DUP4 PUSH1 0x0 JUMPDEST DUP4 DUP2 LT ISZERO PUSH2 0x3DA7 JUMPI DUP2 DUP2 ADD MLOAD DUP4 DUP3 ADD MSTORE PUSH1 0x20 ADD PUSH2 0x3D8F JUMP JUMPDEST POP POP POP POP SWAP1 POP ADD SWAP6 POP POP POP POP POP POP PUSH1 0x0 PUSH1 0x40 MLOAD DUP1 DUP4 SUB DUP2 DUP6 DUP9 DUP1 EXTCODESIZE ISZERO DUP1 ISZERO PUSH2 0x3DCE JUMPI PUSH1 0x0 DUP1 REVERT JUMPDEST POP GAS CALL ISZERO DUP1 ISZERO PUSH2 0x3DE2 JUMPI RETURNDATASIZE PUSH1 0x0 DUP1 RETURNDATACOPY RETURNDATASIZE PUSH1 0x0 REVERT JUMPDEST POP POP POP POP POP PUSH1 0x40 MLOAD RETURNDATASIZE PUSH1 0x0 DUP3 RETURNDATACOPY PUSH1 0x1F RETURNDATASIZE SWAP1 DUP2 ADD PUSH1 0x1F NOT AND DUP3 ADD PUSH1 0x40 MSTORE PUSH1 0x20 DUP2 LT ISZERO PUSH2 0x35D6 JUMPI PUSH1 0x0 DUP1 REVERT JUMPDEST PUSH1 0x22 SLOAD PUSH1 0x1E SLOAD PUSH1 0x40 DUP1 MLOAD PUSH4 0x95EA7B3 PUSH1 0xE0 SHL DUP2 MSTORE PUSH1 0x1 PUSH1 0x1 PUSH1 0xA0 SHL SUB SWAP3 DUP4 AND PUSH1 0x4 DUP3 ADD MSTORE PUSH1 0x24 DUP2 ADD DUP6 SWAP1 MSTORE SWAP1 MLOAD SWAP2 SWAP1 SWAP3 AND SWAP2 PUSH4 0x95EA7B3 SWAP2 PUSH1 0x44 DUP1 DUP4 ADD SWAP3 PUSH1 0x20 SWAP3 SWAP2 SWAP1 DUP3 SWAP1 SUB ADD DUP2 PUSH1 0x0 DUP8 DUP1 EXTCODESIZE ISZERO DUP1 ISZERO PUSH2 0x3E65 JUMPI PUSH1 0x0 DUP1 REVERT JUMPDEST POP GAS CALL ISZERO DUP1 ISZERO PUSH2 0x3E79 JUMPI RETURNDATASIZE PUSH1 0x0 DUP1 RETURNDATACOPY RETURNDATASIZE PUSH1 0x0 REVERT JUMPDEST POP POP POP POP PUSH1 0x40 MLOAD RETURNDATASIZE PUSH1 0x20 DUP2 LT ISZERO PUSH2 0x3E8F JUMPI PUSH1 0x0 DUP1 REVERT JUMPDEST POP POP PUSH1 0x1E SLOAD PUSH1 0x40 DUP1 MLOAD PUSH4 0xB6B55F25 PUSH1 0xE0 SHL DUP2 MSTORE PUSH1 0x4 DUP2 ADD DUP5 SWAP1 MSTORE SWAP1 MLOAD PUSH1 0x1 PUSH1 0x1 PUSH1 0xA0 SHL SUB SWAP1 SWAP3 AND SWAP2 PUSH4 0xB6B55F25 SWAP2 PUSH1 0x24 DUP1 DUP3 ADD SWAP3 PUSH1 0x0 SWAP3 SWAP1 SWAP2 SWAP1 DUP3 SWAP1 SUB ADD DUP2 DUP4 DUP8 DUP1 EXTCODESIZE ISZERO DUP1 ISZERO PUSH2 0x3EDE JUMPI PUSH1 0x0 DUP1 REVERT JUMPDEST POP GAS CALL ISZERO DUP1 ISZERO PUSH2 0x3EF2 JUMPI RETURNDATASIZE PUSH1 0x0 DUP1 RETURNDATACOPY RETURNDATASIZE PUSH1 0x0 REVERT JUMPDEST POP POP POP POP POP JUMP JUMPDEST PUSH1 0x0 DUP1 DUP1 DUP1 PUSH2 0x3F08 DUP7 DUP7 PUSH2 0x44B9 JUMP JUMPDEST SWAP1 SWAP8 SWAP1 SWAP7 POP SWAP5 POP POP POP POP POP JUMP JUMPDEST PUSH1 0x0 PUSH2 0x383A DUP5 DUP5 DUP5 PUSH2 0x4534 JUMP JUMPDEST PUSH2 0x3F2D DUP5 DUP5 DUP5 PUSH2 0x38B0 JUMP JUMPDEST PUSH2 0x3F39 DUP5 DUP5 DUP5 DUP5 PUSH2 0x45FE JUMP JUMPDEST PUSH2 0x2560 JUMPI PUSH1 0x40 MLOAD PUSH3 0x461BCD PUSH1 0xE5 SHL DUP2 MSTORE PUSH1 0x4 ADD DUP1 DUP1 PUSH1 0x20 ADD DUP3 DUP2 SUB DUP3 MSTORE PUSH1 0x32 DUP2 MSTORE PUSH1 0x20 ADD DUP1 PUSH2 0x517E PUSH1 0x32 SWAP2 CODECOPY PUSH1 0x40 ADD SWAP2 POP POP PUSH1 0x40 MLOAD DUP1 SWAP2 SUB SWAP1 REVERT JUMPDEST PUSH1 0x60 DUP1 PUSH2 0x3F8C DUP5 PUSH1 0xA EXP DUP7 DUP2 PUSH2 0x3F86 JUMPI INVALID JUMPDEST DIV PUSH2 0x2D64 JUMP JUMPDEST SWAP1 POP PUSH1 0x60 PUSH2 0x3FAD DUP5 DUP7 SUB PUSH1 0xA EXP DUP7 PUSH1 0xA EXP DUP9 DUP2 PUSH2 0x3FA5 JUMPI INVALID JUMPDEST MOD DUP2 PUSH2 0x3F86 JUMPI INVALID JUMPDEST SWAP1 POP DUP2 DUP2 PUSH1 0x40 MLOAD PUSH1 0x20 ADD DUP1 DUP4 DUP1 MLOAD SWAP1 PUSH1 0x20 ADD SWAP1 DUP1 DUP4 DUP4 JUMPDEST PUSH1 0x20 DUP4 LT PUSH2 0x3FE3 JUMPI DUP1 MLOAD DUP3 MSTORE PUSH1 0x1F NOT SWAP1 SWAP3 ADD SWAP2 PUSH1 0x20 SWAP2 DUP3 ADD SWAP2 ADD PUSH2 0x3FC4 JUMP JUMPDEST PUSH1 0x1 DUP4 PUSH1 0x20 SUB PUSH2 0x100 EXP SUB DUP1 NOT DUP3 MLOAD AND DUP2 DUP5 MLOAD AND DUP1 DUP3 OR DUP6 MSTORE POP POP POP POP POP POP SWAP1 POP ADD DUP1 PUSH1 0x17 PUSH1 0xF9 SHL DUP2 MSTORE POP PUSH1 0x1 ADD DUP3 DUP1 MLOAD SWAP1 PUSH1 0x20 ADD SWAP1 DUP1 DUP4 DUP4 JUMPDEST PUSH1 0x20 DUP4 LT PUSH2 0x403C JUMPI DUP1 MLOAD DUP3 MSTORE PUSH1 0x1F NOT SWAP1 SWAP3 ADD SWAP2 PUSH1 0x20 SWAP2 DUP3 ADD SWAP2 ADD PUSH2 0x401D JUMP JUMPDEST PUSH1 0x1 DUP4 PUSH1 0x20 SUB PUSH2 0x100 EXP SUB DUP1 NOT DUP3 MLOAD AND DUP2 DUP5 MLOAD AND DUP1 DUP3 OR DUP6 MSTORE POP POP POP POP POP POP SWAP1 POP ADD SWAP3 POP POP POP PUSH1 0x40 MLOAD PUSH1 0x20 DUP2 DUP4 SUB SUB DUP2 MSTORE SWAP1 PUSH1 0x40 MSTORE SWAP3 POP POP POP SWAP4 SWAP3 POP POP POP JUMP JUMPDEST PUSH1 0x1E SLOAD PUSH1 0x40 DUP1 MLOAD PUSH4 0x70A08231 PUSH1 0xE0 SHL DUP2 MSTORE ADDRESS PUSH1 0x4 DUP3 ADD MSTORE SWAP1 MLOAD PUSH1 0x0 SWAP3 PUSH1 0x1 SWAP3 DUP5 SWAP3 PUSH1 0x1 PUSH1 0x1 PUSH1 0xA0 SHL SUB SWAP1 SWAP3 AND SWAP2 PUSH4 0x70A08231 SWAP2 PUSH1 0x24 DUP1 DUP3 ADD SWAP3 PUSH1 0x20 SWAP3 SWAP1 SWAP2 SWAP1 DUP3 SWAP1 SUB ADD DUP2 DUP7 DUP1 EXTCODESIZE ISZERO DUP1 ISZERO PUSH2 0x40CF JUMPI PUSH1 0x0 DUP1 REVERT JUMPDEST POP GAS STATICCALL ISZERO DUP1 ISZERO PUSH2 0x40E3 JUMPI RETURNDATASIZE PUSH1 0x0 DUP1 RETURNDATACOPY RETURNDATASIZE PUSH1 0x0 REVERT JUMPDEST POP POP POP POP PUSH1 0x40 MLOAD RETURNDATASIZE PUSH1 0x20 DUP2 LT ISZERO PUSH2 0x40F9 JUMPI PUSH1 0x0 DUP1 REVERT JUMPDEST POP MLOAD PUSH1 0x0 DUP6 DUP2 MSTORE PUSH1 0xF PUSH1 0x20 MSTORE PUSH1 0x40 SWAP1 KECCAK256 SLOAD PUSH1 0x14 SLOAD SWAP2 SWAP3 POP SWAP1 ISZERO PUSH2 0x412B JUMPI PUSH1 0x14 SLOAD DUP2 DUP5 DUP5 MUL MUL DUP2 PUSH2 0x4125 JUMPI INVALID JUMPDEST DIV PUSH2 0x412E JUMP JUMPDEST PUSH1 0x0 JUMPDEST SWAP6 SWAP5 POP POP POP POP POP JUMP JUMPDEST PUSH1 0x40 DUP1 MLOAD PUSH1 0x60 DUP2 ADD DUP3 MSTORE DUP2 DUP2 MSTORE PUSH1 0x0 SWAP2 DUP3 SWAP2 DUP3 SWAP2 DUP3 SWAP2 PUSH1 0x10 DUP10 SWAP1 SHL PUSH1 0x8 DUP10 SWAP1 SHL OR DUP8 OR SWAP2 PUSH1 0x3F PUSH1 0x12 DUP5 SWAP1 SHR DUP2 AND SWAP3 PUSH1 0xC DUP6 SWAP1 SHR DUP3 AND SWAP3 PUSH1 0x6 DUP7 SWAP1 SHR DUP4 AND SWAP3 DUP7 AND SWAP2 SWAP1 PUSH2 0x53FA PUSH1 0x20 DUP4 ADD CODECOPY DUP5 DUP2 MLOAD DUP2 LT PUSH2 0x418C JUMPI INVALID JUMPDEST PUSH1 0x20 ADD ADD MLOAD PUSH1 0xF8 SHR PUSH1 0xF8 SHL SWAP9 POP PUSH1 0x40 MLOAD DUP1 PUSH1 0x60 ADD PUSH1 0x40 MSTORE DUP1 PUSH1 0x40 DUP2 MSTORE PUSH1 0x20 ADD PUSH2 0x53FA PUSH1 0x40 SWAP2 CODECOPY DUP4 DUP2 MLOAD DUP2 LT PUSH2 0x41BD JUMPI INVALID JUMPDEST PUSH1 0x20 ADD ADD MLOAD PUSH1 0xF8 SHR PUSH1 0xF8 SHL SWAP8 POP PUSH1 0x40 MLOAD DUP1 PUSH1 0x60 ADD PUSH1 0x40 MSTORE DUP1 PUSH1 0x40 DUP2 MSTORE PUSH1 0x20 ADD PUSH2 0x53FA PUSH1 0x40 SWAP2 CODECOPY DUP3 DUP2 MLOAD DUP2 LT PUSH2 0x41EE JUMPI INVALID JUMPDEST PUSH1 0x20 ADD ADD MLOAD PUSH1 0xF8 SHR PUSH1 0xF8 SHL SWAP7 POP PUSH1 0x40 MLOAD DUP1 PUSH1 0x60 ADD PUSH1 0x40 MSTORE DUP1 PUSH1 0x40 DUP2 MSTORE PUSH1 0x20 ADD PUSH2 0x53FA PUSH1 0x40 SWAP2 CODECOPY DUP2 DUP2 MLOAD DUP2 LT PUSH2 0x421F JUMPI INVALID JUMPDEST PUSH1 0x20 ADD ADD MLOAD PUSH1 0xF8 SHR PUSH1 0xF8 SHL SWAP6 POP POP POP POP POP POP SWAP4 POP SWAP4 POP SWAP4 POP SWAP4 JUMP JUMPDEST PUSH1 0x1D DUP1 SLOAD PUSH1 0x0 SWAP1 SWAP2 SSTORE PUSH1 0x1B SLOAD DUP2 GT ISZERO PUSH2 0x1E4D JUMPI PUSH2 0x4255 PUSH2 0x4766 JUMP JUMPDEST PUSH1 0x1C SLOAD PUSH1 0x40 DUP1 MLOAD PUSH18 0x2932B632B0B9B4B73390383937B334BA3997 PUSH1 0x71 SHL DUP2 MSTORE SWAP1 MLOAD PUSH1 0x0 SWAP3 PUSH1 0x1 PUSH1 0x1 PUSH1 0xA0 SHL SUB AND SWAP2 DUP5 SWAP2 PUSH1 0x12 DUP1 DUP4 ADD SWAP3 DUP7 SWAP3 SWAP2 SWAP1 DUP3 SWAP1 SUB ADD DUP2 DUP6 DUP8 GAS CALL SWAP3 POP POP POP RETURNDATASIZE DUP1 PUSH1 0x0 DUP2 EQ PUSH2 0x42C8 JUMPI PUSH1 0x40 MLOAD SWAP2 POP PUSH1 0x1F NOT PUSH1 0x3F RETURNDATASIZE ADD AND DUP3 ADD PUSH1 0x40 MSTORE RETURNDATASIZE DUP3 MSTORE RETURNDATASIZE PUSH1 0x0 PUSH1 0x20 DUP5 ADD RETURNDATACOPY PUSH2 0x42CD JUMP JUMPDEST PUSH1 0x60 SWAP2 POP JUMPDEST POP POP SWAP1 POP DUP1 PUSH2 0x1509 JUMPI PUSH1 0x40 DUP1 MLOAD PUSH3 0x461BCD PUSH1 0xE5 SHL DUP2 MSTORE PUSH1 0x20 PUSH1 0x4 DUP3 ADD MSTORE PUSH1 0x1A PUSH1 0x24 DUP3 ADD MSTORE PUSH32 0x436F756C64206E6F742072656C656173652070726F666974732E000000000000 PUSH1 0x44 DUP3 ADD MSTORE SWAP1 MLOAD SWAP1 DUP2 SWAP1 SUB PUSH1 0x64 ADD SWAP1 REVERT JUMPDEST PUSH1 0x0 PUSH2 0x1638 DUP4 DUP4 PUSH2 0x48E9 JUMP JUMPDEST SLOAD SWAP1 JUMP JUMPDEST PUSH1 0x0 PUSH2 0x1638 DUP4 DUP4 PUSH2 0x4901 JUMP JUMPDEST PUSH1 0x0 PUSH2 0x1638 DUP4 DUP4 PUSH2 0x49C7 JUMP JUMPDEST PUSH1 0x0 PUSH2 0x383A DUP5 DUP5 PUSH1 0x1 PUSH1 0x1 PUSH1 0xA0 SHL SUB DUP6 AND PUSH2 0x4A11 JUMP JUMPDEST DUP2 SLOAD PUSH1 0x0 SWAP1 DUP3 LT PUSH2 0x43A3 JUMPI PUSH1 0x40 MLOAD PUSH3 0x461BCD PUSH1 0xE5 SHL DUP2 MSTORE PUSH1 0x4 ADD DUP1 DUP1 PUSH1 0x20 ADD DUP3 DUP2 SUB DUP3 MSTORE PUSH1 0x22 DUP2 MSTORE PUSH1 0x20 ADD DUP1 PUSH2 0x500F PUSH1 0x22 SWAP2 CODECOPY PUSH1 0x40 ADD SWAP2 POP POP PUSH1 0x40 MLOAD DUP1 SWAP2 SUB SWAP1 REVERT JUMPDEST DUP3 PUSH1 0x0 ADD DUP3 DUP2 SLOAD DUP2 LT PUSH2 0x43B2 JUMPI INVALID JUMPDEST SWAP1 PUSH1 0x0 MSTORE PUSH1 0x20 PUSH1 0x0 KECCAK256 ADD SLOAD SWAP1 POP SWAP3 SWAP2 POP POP JUMP JUMPDEST PUSH1 0x0 DUP2 DUP2 MSTORE PUSH1 0xF PUSH1 0x20 SWAP1 DUP2 MSTORE PUSH1 0x40 DUP1 DUP4 KECCAK256 SLOAD PUSH1 0x1E SLOAD DUP3 MLOAD PUSH4 0x70A08231 PUSH1 0xE0 SHL DUP2 MSTORE ADDRESS PUSH1 0x4 DUP3 ADD MSTORE SWAP3 MLOAD SWAP2 SWAP4 DUP6 SWAP4 PUSH1 0x1 PUSH1 0x1 PUSH1 0xA0 SHL SUB SWAP1 SWAP3 AND SWAP3 PUSH4 0x70A08231 SWAP3 PUSH1 0x24 DUP1 DUP3 ADD SWAP4 SWAP3 SWAP2 DUP3 SWAP1 SUB ADD DUP2 DUP7 DUP1 EXTCODESIZE ISZERO DUP1 ISZERO PUSH2 0x4420 JUMPI PUSH1 0x0 DUP1 REVERT JUMPDEST POP GAS STATICCALL ISZERO DUP1 ISZERO PUSH2 0x4434 JUMPI RETURNDATASIZE PUSH1 0x0 DUP1 RETURNDATACOPY RETURNDATASIZE PUSH1 0x0 REVERT JUMPDEST POP POP POP POP PUSH1 0x40 MLOAD RETURNDATASIZE PUSH1 0x20 DUP2 LT ISZERO PUSH2 0x444A JUMPI PUSH1 0x0 DUP1 REVERT JUMPDEST POP MLOAD PUSH1 0x14 SLOAD SWAP1 SWAP2 POP PUSH1 0x0 SWAP1 ISZERO PUSH2 0x412B JUMPI PUSH1 0x14 SLOAD DUP3 DUP5 MUL DUP2 PUSH2 0x4125 JUMPI INVALID JUMPDEST PUSH2 0x4471 DUP4 DUP4 PUSH2 0x4AA8 JUMP JUMPDEST PUSH2 0x447E PUSH1 0x0 DUP5 DUP5 DUP5 PUSH2 0x45FE JUMP JUMPDEST PUSH2 0x149C JUMPI PUSH1 0x40 MLOAD PUSH3 0x461BCD PUSH1 0xE5 SHL DUP2 MSTORE PUSH1 0x4 ADD DUP1 DUP1 PUSH1 0x20 ADD DUP3 DUP2 SUB DUP3 MSTORE PUSH1 0x32 DUP2 MSTORE PUSH1 0x20 ADD DUP1 PUSH2 0x517E PUSH1 0x32 SWAP2 CODECOPY PUSH1 0x40 ADD SWAP2 POP POP PUSH1 0x40 MLOAD DUP1 SWAP2 SUB SWAP1 REVERT JUMPDEST DUP2 SLOAD PUSH1 0x0 SWAP1 DUP2 SWAP1 DUP4 LT PUSH2 0x44FD JUMPI PUSH1 0x40 MLOAD PUSH3 0x461BCD PUSH1 0xE5 SHL DUP2 MSTORE PUSH1 0x4 ADD DUP1 DUP1 PUSH1 0x20 ADD DUP3 DUP2 SUB DUP3 MSTORE PUSH1 0x22 DUP2 MSTORE PUSH1 0x20 ADD DUP1 PUSH2 0x55C2 PUSH1 0x22 SWAP2 CODECOPY PUSH1 0x40 ADD SWAP2 POP POP PUSH1 0x40 MLOAD DUP1 SWAP2 SUB SWAP1 REVERT JUMPDEST PUSH1 0x0 DUP5 PUSH1 0x0 ADD DUP5 DUP2 SLOAD DUP2 LT PUSH2 0x450E JUMPI INVALID JUMPDEST SWAP1 PUSH1 0x0 MSTORE PUSH1 0x20 PUSH1 0x0 KECCAK256 SWAP1 PUSH1 0x2 MUL ADD SWAP1 POP DUP1 PUSH1 0x0 ADD SLOAD DUP2 PUSH1 0x1 ADD SLOAD SWAP3 POP SWAP3 POP POP SWAP3 POP SWAP3 SWAP1 POP JUMP JUMPDEST PUSH1 0x0 DUP3 DUP2 MSTORE PUSH1 0x1 DUP5 ADD PUSH1 0x20 MSTORE PUSH1 0x40 DUP2 KECCAK256 SLOAD DUP3 DUP2 PUSH2 0x45CF JUMPI PUSH1 0x40 MLOAD PUSH3 0x461BCD PUSH1 0xE5 SHL DUP2 MSTORE PUSH1 0x4 ADD DUP1 DUP1 PUSH1 0x20 ADD DUP3 DUP2 SUB DUP3 MSTORE DUP4 DUP2 DUP2 MLOAD DUP2 MSTORE PUSH1 0x20 ADD SWAP2 POP DUP1 MLOAD SWAP1 PUSH1 0x20 ADD SWAP1 DUP1 DUP4 DUP4 PUSH1 0x0 JUMPDEST DUP4 DUP2 LT ISZERO PUSH2 0x4594 JUMPI DUP2 DUP2 ADD MLOAD DUP4 DUP3 ADD MSTORE PUSH1 0x20 ADD PUSH2 0x457C JUMP JUMPDEST POP POP POP POP SWAP1 POP SWAP1 DUP2 ADD SWAP1 PUSH1 0x1F AND DUP1 ISZERO PUSH2 0x45C1 JUMPI DUP1 DUP3 SUB DUP1 MLOAD PUSH1 0x1 DUP4 PUSH1 0x20 SUB PUSH2 0x100 EXP SUB NOT AND DUP2 MSTORE PUSH1 0x20 ADD SWAP2 POP JUMPDEST POP SWAP3 POP POP POP PUSH1 0x40 MLOAD DUP1 SWAP2 SUB SWAP1 REVERT JUMPDEST POP DUP5 PUSH1 0x0 ADD PUSH1 0x1 DUP3 SUB DUP2 SLOAD DUP2 LT PUSH2 0x45E2 JUMPI INVALID JUMPDEST SWAP1 PUSH1 0x0 MSTORE PUSH1 0x20 PUSH1 0x0 KECCAK256 SWAP1 PUSH1 0x2 MUL ADD PUSH1 0x1 ADD SLOAD SWAP2 POP POP SWAP4 SWAP3 POP POP POP JUMP JUMPDEST PUSH1 0x0 PUSH2 0x4612 DUP5 PUSH1 0x1 PUSH1 0x1 PUSH1 0xA0 SHL SUB AND PUSH2 0x4BD6 JUMP JUMPDEST PUSH2 0x461E JUMPI POP PUSH1 0x1 PUSH2 0x383A JUMP JUMPDEST PUSH1 0x60 PUSH2 0x472C PUSH4 0xA85BD01 PUSH1 0xE1 SHL PUSH2 0x4633 PUSH2 0x372C JUMP JUMPDEST DUP9 DUP8 DUP8 PUSH1 0x40 MLOAD PUSH1 0x24 ADD DUP1 DUP6 PUSH1 0x1 PUSH1 0x1 PUSH1 0xA0 SHL SUB AND DUP2 MSTORE PUSH1 0x20 ADD DUP5 PUSH1 0x1 PUSH1 0x1 PUSH1 0xA0 SHL SUB AND DUP2 MSTORE PUSH1 0x20 ADD DUP4 DUP2 MSTORE PUSH1 0x20 ADD DUP1 PUSH1 0x20 ADD DUP3 DUP2 SUB DUP3 MSTORE DUP4 DUP2 DUP2 MLOAD DUP2 MSTORE PUSH1 0x20 ADD SWAP2 POP DUP1 MLOAD SWAP1 PUSH1 0x20 ADD SWAP1 DUP1 DUP4 DUP4 PUSH1 0x0 JUMPDEST DUP4 DUP2 LT ISZERO PUSH2 0x469A JUMPI DUP2 DUP2 ADD MLOAD DUP4 DUP3 ADD MSTORE PUSH1 0x20 ADD PUSH2 0x4682 JUMP JUMPDEST POP POP POP POP SWAP1 POP SWAP1 DUP2 ADD SWAP1 PUSH1 0x1F AND DUP1 ISZERO PUSH2 0x46C7 JUMPI DUP1 DUP3 SUB DUP1 MLOAD PUSH1 0x1 DUP4 PUSH1 0x20 SUB PUSH2 0x100 EXP SUB NOT AND DUP2 MSTORE PUSH1 0x20 ADD SWAP2 POP JUMPDEST POP SWAP6 POP POP POP POP POP POP PUSH1 0x40 MLOAD PUSH1 0x20 DUP2 DUP4 SUB SUB DUP2 MSTORE SWAP1 PUSH1 0x40 MSTORE SWAP1 PUSH1 0x1 PUSH1 0x1 PUSH1 0xE0 SHL SUB NOT AND PUSH1 0x20 DUP3 ADD DUP1 MLOAD PUSH1 0x1 PUSH1 0x1 PUSH1 0xE0 SHL SUB DUP4 DUP2 DUP4 AND OR DUP4 MSTORE POP POP POP POP PUSH1 0x40 MLOAD DUP1 PUSH1 0x60 ADD PUSH1 0x40 MSTORE DUP1 PUSH1 0x32 DUP2 MSTORE PUSH1 0x20 ADD PUSH2 0x517E PUSH1 0x32 SWAP2 CODECOPY PUSH1 0x1 PUSH1 0x1 PUSH1 0xA0 SHL SUB DUP9 AND SWAP2 SWAP1 PUSH2 0x4BDC JUMP JUMPDEST SWAP1 POP PUSH1 0x0 DUP2 DUP1 PUSH1 0x20 ADD SWAP1 MLOAD PUSH1 0x20 DUP2 LT ISZERO PUSH2 0x4745 JUMPI PUSH1 0x0 DUP1 REVERT JUMPDEST POP MLOAD PUSH1 0x1 PUSH1 0x1 PUSH1 0xE0 SHL SUB NOT AND PUSH4 0xA85BD01 PUSH1 0xE1 SHL EQ SWAP3 POP POP POP SWAP5 SWAP4 POP POP POP POP JUMP JUMPDEST PUSH1 0x1E SLOAD PUSH1 0x40 DUP1 MLOAD PUSH4 0x70A08231 PUSH1 0xE0 SHL DUP2 MSTORE ADDRESS PUSH1 0x4 DUP3 ADD MSTORE SWAP1 MLOAD PUSH1 0x0 SWAP3 PUSH1 0x1 PUSH1 0x1 PUSH1 0xA0 SHL SUB AND SWAP2 PUSH4 0x70A08231 SWAP2 PUSH1 0x24 DUP1 DUP4 ADD SWAP3 PUSH1 0x20 SWAP3 SWAP2 SWAP1 DUP3 SWAP1 SUB ADD DUP2 DUP7 DUP1 EXTCODESIZE ISZERO DUP1 ISZERO PUSH2 0x47B1 JUMPI PUSH1 0x0 DUP1 REVERT JUMPDEST POP GAS STATICCALL ISZERO DUP1 ISZERO PUSH2 0x47C5 JUMPI RETURNDATASIZE PUSH1 0x0 DUP1 RETURNDATACOPY RETURNDATASIZE PUSH1 0x0 REVERT JUMPDEST POP POP POP POP PUSH1 0x40 MLOAD RETURNDATASIZE PUSH1 0x20 DUP2 LT ISZERO PUSH2 0x47DB JUMPI PUSH1 0x0 DUP1 REVERT JUMPDEST POP MLOAD PUSH1 0x14 SLOAD PUSH1 0x1D SLOAD SWAP2 SWAP3 POP PUSH1 0x0 SWAP2 DUP4 MUL DUP2 PUSH2 0x47F2 JUMPI INVALID JUMPDEST PUSH1 0x1D DUP1 SLOAD PUSH1 0x14 DUP1 SLOAD SWAP2 SWAP1 SWAP2 SUB SWAP1 SSTORE PUSH1 0x0 SWAP1 DUP2 SWAP1 SSTORE PUSH1 0x1E SLOAD PUSH1 0x40 DUP1 MLOAD PUSH4 0x2E1A7D4D PUSH1 0xE0 SHL DUP2 MSTORE SWAP5 SWAP1 SWAP4 DIV PUSH1 0x4 DUP6 ADD DUP2 SWAP1 MSTORE SWAP3 MLOAD SWAP3 SWAP5 POP PUSH1 0x1 PUSH1 0x1 PUSH1 0xA0 SHL SUB AND SWAP3 PUSH4 0x2E1A7D4D SWAP3 PUSH1 0x24 DUP1 DUP4 ADD SWAP4 SWAP3 DUP3 SWAP1 SUB ADD DUP2 DUP4 DUP8 DUP1 EXTCODESIZE ISZERO DUP1 ISZERO PUSH2 0x4853 JUMPI PUSH1 0x0 DUP1 REVERT JUMPDEST POP GAS CALL ISZERO DUP1 ISZERO PUSH2 0x4867 JUMPI RETURNDATASIZE PUSH1 0x0 DUP1 RETURNDATACOPY RETURNDATASIZE PUSH1 0x0 REVERT JUMPDEST POP POP PUSH1 0x22 SLOAD PUSH1 0x40 DUP1 MLOAD PUSH4 0xA9059CBB PUSH1 0xE0 SHL DUP2 MSTORE CALLER PUSH1 0x4 DUP3 ADD MSTORE PUSH1 0x24 DUP2 ADD DUP7 SWAP1 MSTORE SWAP1 MLOAD PUSH1 0x1 PUSH1 0x1 PUSH1 0xA0 SHL SUB SWAP1 SWAP3 AND SWAP4 POP PUSH4 0xA9059CBB SWAP3 POP PUSH1 0x44 DUP1 DUP3 ADD SWAP3 PUSH1 0x20 SWAP3 SWAP1 SWAP2 SWAP1 DUP3 SWAP1 SUB ADD DUP2 PUSH1 0x0 DUP8 DUP1 EXTCODESIZE ISZERO DUP1 ISZERO PUSH2 0x48BF JUMPI PUSH1 0x0 DUP1 REVERT JUMPDEST POP GAS CALL ISZERO DUP1 ISZERO PUSH2 0x48D3 JUMPI RETURNDATASIZE PUSH1 0x0 DUP1 RETURNDATACOPY RETURNDATASIZE PUSH1 0x0 REVERT JUMPDEST POP POP POP POP PUSH1 0x40 MLOAD RETURNDATASIZE PUSH1 0x20 DUP2 LT ISZERO PUSH2 0x2560 JUMPI PUSH1 0x0 DUP1 REVERT JUMPDEST PUSH1 0x0 SWAP1 DUP2 MSTORE PUSH1 0x1 SWAP2 SWAP1 SWAP2 ADD PUSH1 0x20 MSTORE PUSH1 0x40 SWAP1 KECCAK256 SLOAD ISZERO ISZERO SWAP1 JUMP JUMPDEST PUSH1 0x0 DUP2 DUP2 MSTORE PUSH1 0x1 DUP4 ADD PUSH1 0x20 MSTORE PUSH1 0x40 DUP2 KECCAK256 SLOAD DUP1 ISZERO PUSH2 0x49BD JUMPI DUP4 SLOAD PUSH1 0x0 NOT DUP1 DUP4 ADD SWAP2 SWAP1 DUP2 ADD SWAP1 PUSH1 0x0 SWAP1 DUP8 SWAP1 DUP4 SWAP1 DUP2 LT PUSH2 0x4934 JUMPI INVALID JUMPDEST SWAP1 PUSH1 0x0 MSTORE PUSH1 0x20 PUSH1 0x0 KECCAK256 ADD SLOAD SWAP1 POP DUP1 DUP8 PUSH1 0x0 ADD DUP5 DUP2 SLOAD DUP2 LT PUSH2 0x4951 JUMPI INVALID JUMPDEST PUSH1 0x0 SWAP2 DUP3 MSTORE PUSH1 0x20 DUP1 DUP4 KECCAK256 SWAP1 SWAP2 ADD SWAP3 SWAP1 SWAP3 SSTORE DUP3 DUP2 MSTORE PUSH1 0x1 DUP10 DUP2 ADD SWAP1 SWAP3 MSTORE PUSH1 0x40 SWAP1 KECCAK256 SWAP1 DUP5 ADD SWAP1 SSTORE DUP7 SLOAD DUP8 SWAP1 DUP1 PUSH2 0x4981 JUMPI INVALID JUMPDEST PUSH1 0x1 SWAP1 SUB DUP2 DUP2 SWAP1 PUSH1 0x0 MSTORE PUSH1 0x20 PUSH1 0x0 KECCAK256 ADD PUSH1 0x0 SWAP1 SSTORE SWAP1 SSTORE DUP7 PUSH1 0x1 ADD PUSH1 0x0 DUP8 DUP2 MSTORE PUSH1 0x20 ADD SWAP1 DUP2 MSTORE PUSH1 0x20 ADD PUSH1 0x0 KECCAK256 PUSH1 0x0 SWAP1 SSTORE PUSH1 0x1 SWAP5 POP POP POP POP POP PUSH2 0x10EE JUMP JUMPDEST PUSH1 0x0 SWAP2 POP POP PUSH2 0x10EE JUMP JUMPDEST PUSH1 0x0 PUSH2 0x49D3 DUP4 DUP4 PUSH2 0x48E9 JUMP JUMPDEST PUSH2 0x4A09 JUMPI POP DUP2 SLOAD PUSH1 0x1 DUP2 DUP2 ADD DUP5 SSTORE PUSH1 0x0 DUP5 DUP2 MSTORE PUSH1 0x20 DUP1 DUP3 KECCAK256 SWAP1 SWAP4 ADD DUP5 SWAP1 SSTORE DUP5 SLOAD DUP5 DUP3 MSTORE DUP3 DUP7 ADD SWAP1 SWAP4 MSTORE PUSH1 0x40 SWAP1 KECCAK256 SWAP2 SWAP1 SWAP2 SSTORE PUSH2 0x10EE JUMP JUMPDEST POP PUSH1 0x0 PUSH2 0x10EE JUMP JUMPDEST PUSH1 0x0 DUP3 DUP2 MSTORE PUSH1 0x1 DUP5 ADD PUSH1 0x20 MSTORE PUSH1 0x40 DUP2 KECCAK256 SLOAD DUP1 PUSH2 0x4A76 JUMPI POP POP PUSH1 0x40 DUP1 MLOAD DUP1 DUP3 ADD DUP3 MSTORE DUP4 DUP2 MSTORE PUSH1 0x20 DUP1 DUP3 ADD DUP5 DUP2 MSTORE DUP7 SLOAD PUSH1 0x1 DUP2 DUP2 ADD DUP10 SSTORE PUSH1 0x0 DUP10 DUP2 MSTORE DUP5 DUP2 KECCAK256 SWAP6 MLOAD PUSH1 0x2 SWAP1 SWAP4 MUL SWAP1 SWAP6 ADD SWAP2 DUP3 SSTORE SWAP2 MLOAD SWAP1 DUP3 ADD SSTORE DUP7 SLOAD DUP7 DUP5 MSTORE DUP2 DUP9 ADD SWAP1 SWAP3 MSTORE SWAP3 SWAP1 SWAP2 KECCAK256 SSTORE PUSH2 0x1638 JUMP JUMPDEST DUP3 DUP6 PUSH1 0x0 ADD PUSH1 0x1 DUP4 SUB DUP2 SLOAD DUP2 LT PUSH2 0x4A89 JUMPI INVALID JUMPDEST SWAP1 PUSH1 0x0 MSTORE PUSH1 0x20 PUSH1 0x0 KECCAK256 SWAP1 PUSH1 0x2 MUL ADD PUSH1 0x1 ADD DUP2 SWAP1 SSTORE POP PUSH1 0x0 SWAP2 POP POP PUSH2 0x1638 JUMP JUMPDEST PUSH1 0x1 PUSH1 0x1 PUSH1 0xA0 SHL SUB DUP3 AND PUSH2 0x4B03 JUMPI PUSH1 0x40 DUP1 MLOAD PUSH3 0x461BCD PUSH1 0xE5 SHL DUP2 MSTORE PUSH1 0x20 PUSH1 0x4 DUP3 ADD DUP2 SWAP1 MSTORE PUSH1 0x24 DUP3 ADD MSTORE PUSH32 0x4552433732313A206D696E7420746F20746865207A65726F2061646472657373 PUSH1 0x44 DUP3 ADD MSTORE SWAP1 MLOAD SWAP1 DUP2 SWAP1 SUB PUSH1 0x64 ADD SWAP1 REVERT JUMPDEST PUSH2 0x4B0C DUP2 PUSH2 0x371F JUMP JUMPDEST ISZERO PUSH2 0x4B5E JUMPI PUSH1 0x40 DUP1 MLOAD PUSH3 0x461BCD PUSH1 0xE5 SHL DUP2 MSTORE PUSH1 0x20 PUSH1 0x4 DUP3 ADD MSTORE PUSH1 0x1C PUSH1 0x24 DUP3 ADD MSTORE PUSH32 0x4552433732313A20746F6B656E20616C7265616479206D696E74656400000000 PUSH1 0x44 DUP3 ADD MSTORE SWAP1 MLOAD SWAP1 DUP2 SWAP1 SUB PUSH1 0x64 ADD SWAP1 REVERT JUMPDEST PUSH2 0x4B6A PUSH1 0x0 DUP4 DUP4 PUSH2 0x149C JUMP JUMPDEST PUSH1 0x1 PUSH1 0x1 PUSH1 0xA0 SHL SUB DUP3 AND PUSH1 0x0 SWAP1 DUP2 MSTORE PUSH1 0x1 PUSH1 0x20 MSTORE PUSH1 0x40 SWAP1 KECCAK256 PUSH2 0x4B8C SWAP1 DUP3 PUSH2 0x433F JUMP JUMPDEST POP PUSH2 0x4B99 PUSH1 0x2 DUP3 DUP5 PUSH2 0x434B JUMP JUMPDEST POP PUSH1 0x40 MLOAD DUP2 SWAP1 PUSH1 0x1 PUSH1 0x1 PUSH1 0xA0 SHL SUB DUP5 AND SWAP1 PUSH1 0x0 SWAP1 PUSH32 0xDDF252AD1BE2C89B69C2B068FC378DAA952BA7F163C4A11628F55A4DF523B3EF SWAP1 DUP3 SWAP1 LOG4 POP POP JUMP JUMPDEST EXTCODESIZE ISZERO ISZERO SWAP1 JUMP JUMPDEST PUSH1 0x60 PUSH2 0x383A DUP5 DUP5 PUSH1 0x0 DUP6 DUP6 PUSH2 0x4BF0 DUP6 PUSH2 0x4BD6 JUMP JUMPDEST PUSH2 0x4C41 JUMPI PUSH1 0x40 DUP1 MLOAD PUSH3 0x461BCD PUSH1 0xE5 SHL DUP2 MSTORE PUSH1 0x20 PUSH1 0x4 DUP3 ADD MSTORE PUSH1 0x1D PUSH1 0x24 DUP3 ADD MSTORE PUSH32 0x416464726573733A2063616C6C20746F206E6F6E2D636F6E7472616374000000 PUSH1 0x44 DUP3 ADD MSTORE SWAP1 MLOAD SWAP1 DUP2 SWAP1 SUB PUSH1 0x64 ADD SWAP1 REVERT JUMPDEST PUSH1 0x0 PUSH1 0x60 DUP7 PUSH1 0x1 PUSH1 0x1 PUSH1 0xA0 SHL SUB AND DUP6 DUP8 PUSH1 0x40 MLOAD DUP1 DUP3 DUP1 MLOAD SWAP1 PUSH1 0x20 ADD SWAP1 DUP1 DUP4 DUP4 JUMPDEST PUSH1 0x20 DUP4 LT PUSH2 0x4C80 JUMPI DUP1 MLOAD DUP3 MSTORE PUSH1 0x1F NOT SWAP1 SWAP3 ADD SWAP2 PUSH1 0x20 SWAP2 DUP3 ADD SWAP2 ADD PUSH2 0x4C61 JUMP JUMPDEST PUSH1 0x1 DUP4 PUSH1 0x20 SUB PUSH2 0x100 EXP SUB DUP1 NOT DUP3 MLOAD AND DUP2 DUP5 MLOAD AND DUP1 DUP3 OR DUP6 MSTORE POP POP POP POP POP POP SWAP1 POP ADD SWAP2 POP POP PUSH1 0x0 PUSH1 0x40 MLOAD DUP1 DUP4 SUB DUP2 DUP6 DUP8 GAS CALL SWAP3 POP POP POP RETURNDATASIZE DUP1 PUSH1 0x0 DUP2 EQ PUSH2 0x4CE2 JUMPI PUSH1 0x40 MLOAD SWAP2 POP PUSH1 0x1F NOT PUSH1 0x3F RETURNDATASIZE ADD AND DUP3 ADD PUSH1 0x40 MSTORE RETURNDATASIZE DUP3 MSTORE RETURNDATASIZE PUSH1 0x0 PUSH1 0x20 DUP5 ADD RETURNDATACOPY PUSH2 0x4CE7 JUMP JUMPDEST PUSH1 0x60 SWAP2 POP JUMPDEST POP SWAP2 POP SWAP2 POP PUSH2 0x4CF7 DUP3 DUP3 DUP7 PUSH2 0x4D02 JUMP JUMPDEST SWAP8 SWAP7 POP POP POP POP POP POP POP JUMP JUMPDEST PUSH1 0x60 DUP4 ISZERO PUSH2 0x4D11 JUMPI POP DUP2 PUSH2 0x1638 JUMP JUMPDEST DUP3 MLOAD ISZERO PUSH2 0x4D21 JUMPI DUP3 MLOAD DUP1 DUP5 PUSH1 0x20 ADD REVERT JUMPDEST PUSH1 0x40 MLOAD PUSH3 0x461BCD PUSH1 0xE5 SHL DUP2 MSTORE PUSH1 0x20 PUSH1 0x4 DUP3 ADD DUP2 DUP2 MSTORE DUP5 MLOAD PUSH1 0x24 DUP5 ADD MSTORE DUP5 MLOAD DUP6 SWAP4 SWAP2 SWAP3 DUP4 SWAP3 PUSH1 0x44 ADD SWAP2 SWAP1 DUP6 ADD SWAP1 DUP1 DUP4 DUP4 PUSH1 0x0 DUP4 ISZERO PUSH2 0x4594 JUMPI DUP2 DUP2 ADD MLOAD DUP4 DUP3 ADD MSTORE PUSH1 0x20 ADD PUSH2 0x457C JUMP JUMPDEST DUP3 DUP1 SLOAD PUSH1 0x1 DUP2 PUSH1 0x1 AND ISZERO PUSH2 0x100 MUL SUB AND PUSH1 0x2 SWAP1 DIV SWAP1 PUSH1 0x0 MSTORE PUSH1 0x20 PUSH1 0x0 KECCAK256 SWAP1 PUSH1 0x1F ADD PUSH1 0x20 SWAP1 DIV DUP2 ADD SWAP3 DUP3 PUSH1 0x1F LT PUSH2 0x4DA9 JUMPI DUP1 MLOAD PUSH1 0xFF NOT AND DUP4 DUP1 ADD OR DUP6 SSTORE PUSH2 0x4DD6 JUMP JUMPDEST DUP3 DUP1 ADD PUSH1 0x1 ADD DUP6 SSTORE DUP3 ISZERO PUSH2 0x4DD6 JUMPI SWAP2 DUP3 ADD JUMPDEST DUP3 DUP2 GT ISZERO PUSH2 0x4DD6 JUMPI DUP3 MLOAD DUP3 SSTORE SWAP2 PUSH1 0x20 ADD SWAP2 SWAP1 PUSH1 0x1 ADD SWAP1 PUSH2 0x4DBB JUMP JUMPDEST POP PUSH2 0x4DE2 SWAP3 SWAP2 POP PUSH2 0x4DE6 JUMP JUMPDEST POP SWAP1 JUMP JUMPDEST JUMPDEST DUP1 DUP3 GT ISZERO PUSH2 0x4DE2 JUMPI PUSH1 0x0 DUP2 SSTORE PUSH1 0x1 ADD PUSH2 0x4DE7 JUMP INVALID 0x25 CALLER NUMBER PUSH19 0x656374207374796C65203D20276F7061636974 PUSH26 0x3A302E363B6D69782D626C656E642D6D6F64653A6E6F726D616C EXTCODESIZE PUSH7 0x696C6C3A6E6F6E PUSH6 0x3B7374726F6B PUSH6 0x3A2532333062 CODECOPY BALANCE ADDRESS ADDRESS EXTCODESIZE PUSH20 0x74726F6B652D77696474683A31353B7374726F6B PUSH6 0x2D6C696E656A PUSH16 0x696E3A6D697465723B7374726F6B652D PUSH14 0x697465726C696D69743A343B7374 PUSH19 0x6F6B652D6461736861727261793A6E6F6E653B PUSH20 0x74726F6B652D6F7061636974793A313B7061696E PUSH21 0x2D6F726465723A6E6F726D616C27206964203D2027 PUSH19 0x65637439323627207769647468203D20273331 CALLDATALOAD 0x27 KECCAK256 PUSH9 0x6569676874203D2027 CALLER BALANCE CALLDATALOAD 0x27 KECCAK256 PUSH25 0x203D20273137272079203D2027313727202F25334520253343 PUSH19 0x656374207374796C65203D20276F7061636974 PUSH26 0x3A302E33333B6D69782D626C656E642D6D6F64653A6E6F726D61 PUSH13 0x3B66696C6C3A6E6F6E653B7374 PUSH19 0x6F6B653A2532333062393130303B7374726F6B PUSH6 0x2D7769647468 GASPRICE BALANCE 0x2E CODESIZE ORIGIN CALLVALUE CODECOPY CALLDATASIZE EXTCODESIZE PUSH20 0x74726F6B652D6C696E656A6F696E3A6D69746572 EXTCODESIZE PUSH20 0x74726F6B652D6D697465726C696D69743A343B73 PUSH21 0x726F6B652D6461736861727261793A6E6F6E653B73 PUSH21 0x726F6B652D6F7061636974793A313B7061696E742D PUSH16 0x726465723A6E6F726D616C2720696420 RETURNDATASIZE KECCAK256 0x27 PUSH19 0x6563743932362D3427207769647468203D2027 ORIGIN CODESIZE CODESIZE 0x27 KECCAK256 PUSH9 0x6569676874203D2027 ORIGIN CODESIZE CODESIZE 0x27 KECCAK256 PUSH25 0x203D20273331272079203D2027333127202F253345456E756D PUSH6 0x7261626C6553 PUSH6 0x743A20696E64 PUSH6 0x78206F757420 PUSH16 0x6620626F756E64732533437465787420 PUSH25 0x3D2733352720793D273630272020666F6E742D776569676874 RETURNDATASIZE 0x27 PUSH3 0x6F6C64 0x27 KECCAK256 PUSH7 0x696C6C3D276272 PUSH16 0x776E27253345537472696B6520507269 PUSH4 0x653A2533 NUMBER 0x2F PUSH21 0x6578742533452533437465787420783D2733352720 PUSH26 0x3D273735272020666F6E742D7765696768743D27626F6C642720 PUSH7 0x696C6C3D276272 PUSH16 0x776E272533455553444320496E766573 PUSH21 0x65643A2533432F7465787425334525334373766720 PUSH25 0x6D6C6E733D27687474703A2F2F7777772E77332E6F72672F32 ADDRESS ADDRESS ADDRESS 0x2F PUSH20 0x7667272077696474683D27333530272068656967 PUSH9 0x743D27333530272533 GASLIMIT KECCAK256 0x25 CALLER NUMBER PUSH19 0x6563742077696474683D273335302720686569 PUSH8 0x68743D2733353027 KECCAK256 PUSH20 0x74796C653D2766696C6C3A726762283235352C32 CALLDATALOAD CALLDATALOAD 0x2C ORIGIN CALLDATALOAD CALLDATALOAD 0x29 EXTCODESIZE PUSH20 0x74726F6B652D77696474683A333B7374726F6B65 GASPRICE PUSH19 0x676228302C302C302927202F25334545524337 ORIGIN BALANCE GASPRICE KECCAK256 PUSH21 0x72616E7366657220746F206E6F6E20455243373231 MSTORE PUSH6 0x636569766572 KECCAK256 PUSH10 0x6D706C656D656E746572 POP PUSH6 0x7263656E7420 PC KECCAK256 PUSH14 0x75737420636F6E666F726D20746F GASPRICE KECCAK256 BALANCE ADDRESS KECCAK256 EXTCODECOPY RETURNDATASIZE KECCAK256 PC KECCAK256 EXTCODECOPY KECCAK256 BALANCE ADDRESS ADDRESS 0x4F PUSH24 0x6E61626C653A206E6577206F776E65722069732074686520 PUSH27 0x65726F20616464726573732533437465787420783D273530252720 PUSH26 0x3D2732332720746578742D616E63686F723D276D6964646C6527 KECCAK256 PUSH7 0x6F6E742D776569 PUSH8 0x68743D27626F6C64 0x27 KECCAK256 PUSH7 0x6F6E742D73697A PUSH6 0x3D27312E3165 PUSH14 0x272066696C6C3D27776869746527 0x25 CALLER GASLIMIT 0x25 CALLER NUMBER PUSH21 0x65787420783D273137352720793D2737352720666F PUSH15 0x742D7765696768743D276E6F726D61 PUSH13 0x272066696C6C3D2762726F776E 0x27 0x25 CALLER GASLIMIT 0x24 GASLIMIT MSTORE NUMBER CALLDATACOPY ORIGIN BALANCE GASPRICE KECCAK256 PUSH21 0x72616E7366657220746F20746865207A65726F2061 PUSH5 0x6472657373 0x27 KECCAK256 PUSH20 0x74726F6B653D2727207374726F6B652D77696474 PUSH9 0x3D2730272066696C6C RETURNDATASIZE 0x27 PUSH8 0x7265656E27202F25 CALLER GASLIMIT PUSH2 0x6C72 PUSH6 0x61647920696E KECCAK256 PUSH17 0x726F63657373206F6620627579696E6720 PUSH5 0x69702E4552 NUMBER CALLDATACOPY ORIGIN BALANCE GASPRICE KECCAK256 PUSH16 0x70657261746F7220717565727920666F PUSH19 0x206E6F6E6578697374656E7420746F6B656E25 CALLER NUMBER PUSH4 0x6972636C PUSH6 0x207374796C65 RETURNDATASIZE 0x27 PUSH7 0x696C6C3A253233 PUSH7 0x66666666663B73 PUSH21 0x726F6B653A2532333030303030303B7374726F6B65 0x2D PUSH24 0x696474683A343B7374726F6B652D6C696E656A6F696E3A72 PUSH16 0x756E643B7374726F6B652D6D69746572 PUSH13 0x696D69743A343B7374726F6B65 0x2D PUSH5 0x6173686172 PUSH19 0x61793A6E6F6E653B7374726F6B652D6F706163 PUSH10 0x74793A302E3332272069 PUSH5 0x3D27706174 PUSH9 0x3834362D3527206378 RETURNDATASIZE 0x27 BALANCE CALLDATACOPY CALLDATALOAD 0x27 KECCAK256 PUSH4 0x793D2732 ADDRESS ADDRESS 0x27 KECCAK256 PUSH19 0x3D27383027202F253345414243444546474849 0x4A 0x4B 0x4C 0x4D 0x4E 0x4F POP MLOAD MSTORE MSTORE8 SLOAD SSTORE JUMP JUMPI PC MSIZE GAS PUSH2 0x6263 PUSH5 0x6566676869 PUSH11 0x6B6C6D6E6F707172737475 PUSH23 0x7778797A303132333435363738392D5F4552433732313A KECCAK256 PUSH2 0x7070 PUSH19 0x6F76652063616C6C6572206973206E6F74206F PUSH24 0x6E6572206E6F7220617070726F76656420666F7220616C6C GASLIMIT MSTORE NUMBER CALLDATACOPY ORIGIN BALANCE GASPRICE KECCAK256 PUSH3 0x616C61 PUSH15 0x636520717565727920666F72207468 PUSH6 0x207A65726F20 PUSH2 0x6464 PUSH19 0x657373253343636972636C65207374796C653D 0x27 PUSH7 0x696C6C3A253233 PUSH7 0x66666666663B73 PUSH21 0x726F6B653A2532333030343562623B7374726F6B65 0x2D PUSH24 0x696474683A312E33383B7374726F6B652D6C696E656A6F69 PUSH15 0x3A726F756E643B7374726F6B652D6F PUSH17 0x61636974793A313B7374726F6B652D6D69 PUSH21 0x65726C696D69743A343B7374726F6B652D64617368 PUSH2 0x7272 PUSH2 0x793A PUSH15 0x6F6E65272069643D27706174683834 CALLDATASIZE 0x27 KECCAK256 PUSH4 0x783D2731 CALLDATACOPY CALLDATALOAD 0x27 KECCAK256 PUSH4 0x793D2732 ADDRESS ADDRESS 0x27 KECCAK256 PUSH19 0x3D2731303027202F253345204552433732313A KECCAK256 PUSH16 0x776E657220717565727920666F72206E PUSH16 0x6E6578697374656E7420746F6B656E25 CALLER NUMBER PUSH21 0x65787420783D273137352720793D2734352720666F PUSH15 0x742D7765696768743D276E6F726D61 PUSH13 0x272066696C6C3D2762726F776E 0x27 0x25 CALLER GASLIMIT 0x24 GASLIMIT PUSH15 0x756D657261626C654D61703A20696E PUSH5 0x6578206F75 PUSH21 0x206F6620626F756E64734552433732313A20617070 PUSH19 0x6F76656420717565727920666F72206E6F6E65 PUSH25 0x697374656E7420746F6B656E2C207B22646973706C61795F74 PUSH26 0x7065223A20226E756D626572222C202274726169745F74797065 0x22 GASPRICE KECCAK256 0x22 DIFFICULTY PUSH10 0x702056616C7565222C20 0x22 PUSH23 0x616C7565223A204552433732314D657461646174613A20 SSTORE MSTORE 0x49 KECCAK256 PUSH20 0x6574206F66206E6F6E6578697374656E7420746F PUSH12 0x656E7B226465736372697074 PUSH10 0x6F6E223A202254686520 0x4E CHAINID SLOAD KECCAK256 PUSH13 0x696D6974206F72646572207468 PUSH2 0x7420 PUSH6 0x61726E73206D PUSH16 0x6E657921222533437465787420783D27 BALANCE CALLDATACOPY CALLDATALOAD 0x27 KECCAK256 PUSH26 0x3D2736302720666F6E742D7765696768743D276E6F726D616C27 KECCAK256 PUSH7 0x696C6C3D276272 PUSH16 0x776E27253345244552433732313A2074 PUSH19 0x616E73666572206F6620746F6B656E20746861 PUSH21 0x206973206E6F74206F776E4552433732314D657461 PUSH5 0x6174613A20 SSTORE MSTORE 0x49 KECCAK256 PUSH18 0x7565727920666F72206E6F6E657869737465 PUSH15 0x7420746F6B656E253343636972636C PUSH6 0x207374796C65 RETURNDATASIZE 0x27 PUSH7 0x696C6C3A253233 PUSH7 0x66666666663B73 PUSH21 0x726F6B653A2532333030343562623B7374726F6B65 0x2D PUSH24 0x696474683A312E33383B7374726F6B652D6C696E656A6F69 PUSH15 0x3A726F756E643B7374726F6B652D6F PUSH17 0x61636974793A313B7374726F6B652D6D69 PUSH21 0x65726C696D69743A343B7374726F6B652D64617368 PUSH2 0x7272 PUSH2 0x793A PUSH15 0x6F6E65272063783D27313735272063 PUSH26 0x3D273230302720723D2731303027202F25334520455243373231 GASPRICE KECCAK256 PUSH2 0x7070 PUSH19 0x6F76616C20746F2063757272656E74206F776E PUSH6 0x722C20226578 PUSH21 0x65726E616C5F75726C223A202268747470733A2F2F PUSH24 0x656275797468656469702E636F6D22253343746578742078 RETURNDATASIZE 0x27 BALANCE CALLDATACOPY CALLDATALOAD 0x27 KECCAK256 PUSH26 0x3D2739302720666F6E742D7765696768743D276E6F726D616C27 KECCAK256 PUSH7 0x696C6C3D276272 PUSH16 0x776E2725334525334372656374207374 PUSH26 0x6C653D276F7061636974793A302E33333B66696C6C3A25323331 CALLDATALOAD CALLDATACOPY CALLDATACOPY ADDRESS ADDRESS EXTCODESIZE PUSH7 0x696C6C2D6F7061 PUSH4 0x6974793A ADDRESS 0x2E CALLER CALLER EXTCODESIZE PUSH20 0x74726F6B653A2532333062393130303B7374726F PUSH12 0x652D77696474683A313B7374 PUSH19 0x6F6B652D6C696E656361703A726F756E643B73 PUSH21 0x726F6B652D6C696E656A6F696E3A726F756E643B73 PUSH21 0x726F6B652D6D697465726C696D69743A343B737472 PUSH16 0x6B652D6461736861727261793A6E6F6E PUSH6 0x3B7374726F6B PUSH6 0x2D6F70616369 PUSH21 0x793A313B7061696E742D6F726465723A6E6F726D61 PUSH13 0x272077696474683D2733353027 KECCAK256 PUSH9 0x65696768743D273335 ADDRESS 0x27 KECCAK256 PUSH25 0x3D27302720793D273027202F2533454552433732313A207472 PUSH2 0x6E73 PUSH7 0x65722063616C6C PUSH6 0x72206973206E PUSH16 0x74206F776E6572206E6F722061707072 PUSH16 0x7665642533437465787420783D273335 0x27 KECCAK256 PUSH26 0x3D2739302720666F6E742D7765696768743D27626F6C64272066 PUSH10 0x6C6C3D2762726F776E27 0x25 CALLER GASLIMIT GASLIMIT PUSH15 0x657267793A2533432F746578742533 GASLIMIT 0x25 CALLER NUMBER PUSH21 0x65787420783D2733352720793D2734352720666F6E PUSH21 0x2D7765696768743D27626F6C64272066696C6C3D27 PUSH3 0x726F77 PUSH15 0x2725334543757272656E7420507269 PUSH4 0x653A2533 NUMBER 0x2F PUSH21 0x65787425334525334370617468207374796C653D27 PUSH7 0x696C6C3A6E6F6E PUSH6 0x3B7374726F6B PUSH6 0x3A2532336666 PUSH7 0x6666663B737472 PUSH16 0x6B652D77696474683A31353B7374726F PUSH12 0x652D6C696E656361703A726F PUSH22 0x6E643B7374726F6B652D6C696E656A6F696E3A726F75 PUSH15 0x643B7374726F6B652D6D697465726C PUSH10 0x6D69743A343B7374726F PUSH12 0x652D6F7061636974793A3127 KECCAK256 PUSH5 0x3D276D2031 CALLER CODECOPY 0x2C ORIGIN BALANCE CODESIZE KECCAK256 ORIGIN ADDRESS 0x2E CALLVALUE 0x2C ORIGIN CALLER 0x2E CALLDATACOPY KECCAK256 CALLDATALOAD CALLDATASIZE 0x2E CODECOPY 0x2C 0x2D CALLDATALOAD CALLDATASIZE 0x2E CALLDATASIZE 0x27 KECCAK256 0x2F 0x25 CALLER GASLIMIT KECCAK256 0x25 CALLER NUMBER PUSH21 0x65787420783D2735352720793D2733313827206669 PUSH13 0x6C3D2762726F776E2725334543 PUSH16 0x6E67726174756C6174696F6E73212059 PUSH16 0x7520626F756768742074686520646970 0x2E KECCAK256 0x25 CALLER NUMBER 0x2F PUSH21 0x6578742533452533437465787420783D2735302527 KECCAK256 PUSH26 0x3D273333382720746578742D616E63686F723D276D6964646C65 0x27 KECCAK256 PUSH7 0x6F6E742D776569 PUSH8 0x68743D27626F6C64 0x27 KECCAK256 PUSH7 0x6F6E742D73697A PUSH6 0x3D27312E3165 PUSH14 0x272066696C6C3D27776869746527 0x25 CALLER GASLIMIT KECCAK256 GASLIMIT SLOAD 0x48 GASLIMIT MSTORE GASLIMIT SSTORE 0x4D KECCAK256 0x25 CALLER NUMBER 0x2F PUSH21 0x657874253345253343636972636C65207374796C65 RETURNDATASIZE 0x27 PUSH7 0x696C6C3A253233 PUSH7 0x66666666663B73 PUSH21 0x726F6B653A2532333030303030303B7374726F6B65 0x2D PUSH24 0x696474683A343B7374726F6B652D6C696E656A6F696E3A72 PUSH16 0x756E643B7374726F6B652D6D69746572 PUSH13 0x696D69743A343B7374726F6B65 0x2D PUSH5 0x6173686172 PUSH19 0x61793A6E6F6E653B7374726F6B652D6F706163 PUSH10 0x74793A302E3332272063 PUSH25 0x3D27313735272063793D273230302720723D27383027202F25 CALLER GASLIMIT 0x2C KECCAK256 0x22 PUSH2 0x7474 PUSH19 0x696275746573223A205B7B22646973706C6179 0x5F PUSH21 0x797065223A20226E756D626572222C202274726169 PUSH21 0x5F74797065223A2022446970204C6576656C222C20 0x22 PUSH23 0x616C7565223A20A2646970667358221220A5FC0D345F77 SWAP3 SMOD SDIV PUSH30 0xE6E9CE38C2C99BAF14E2CAFE95A5FDA80DDAF5B5531664736F6C63430006 0xC STOP CALLER ",
  "sha1": "f47d3c177206e89a0f9f81e1271528a12968d667",
  "source": "pragma solidity ^0.6.12;\n//pragma solidity >= 0.4.22 <0.9.0;\n\nimport \"@openzeppelin/contracts/token/ERC721/ERC721.sol\";\nimport \"@chainlink/contracts/src/v0.6/VRFConsumerBase.sol\";\nimport \"@chainlink/contracts/src/v0.6/interfaces/AggregatorV3Interface.sol\";\nimport \"contracts/helpers/console.sol\";\nimport \"@chainlink/contracts/src/v0.6/interfaces/KeeperCompatibleInterface.sol\";\nimport \"@openzeppelin/contracts/access/Ownable.sol\";\n//import \"@openzeppelin/contracts/Base64.sol\";\nimport \"contracts/helpers/Base64.sol\";\nimport \"interfaces/IUniswapV2Router02.sol\";\nimport \"interfaces/IUniswapV2Pair.sol\";\nimport \"interfaces/IUniswapV2Factory.sol\";\nimport \"interfaces/IERC20.sol\";\n\n\n// Objectives:\n// X //    Mint a token that will purchase dip when BNB goes down to some value\n// X //    Look up best way to sort? on blockchain--algorithm efficiency\n// X //    Purchase stablecoin\n//    Loan stablecoin\n//    Redeem stablecoin\n// X //    Purchase BNB\n// X //    Upgrade NFT to new graphic\n//    Stake NFT to earn time-limited rewards\n\n\nlibrary UniswapHelpers {\n\n    function _swapExactTokensForETH(uint256 tokenAmount, address tokenContractAddress, address to, IUniswapV2Router02 _router, uint256 _swapSlippage) internal  returns (uint256, uint256){\n\n        address[] memory path = new address[](2);\n        path[0] = tokenContractAddress; //address(0x3B00Ef435fA4FcFF5C209a37d1f3dcff37c705aD); // USDT Rinkeby\n        path[1] = _router.WETH();\n\n//        uint256 minTokensToReceive; // Local scope for many variables\n//        {\n//            IUniswapV2Factory _UFactory = IUniswapV2Factory(_router.factory());\n//            address _tokenPair = _UFactory.getPair(_router.WETH(), tokenContractAddress);\n//            (uint256 Res0, uint256 Res1,) = IUniswapV2Pair(_tokenPair).getReserves();\n//            require(Res1!=0, \"No tokens in Res1\");\n//            uint256 ETHPricePerBabyDoge =  (10**18)*Res1/Res0;\n//            require(ETHPricePerBabyDoge!=0, \"ETHPricePerBabyDoge equals zero.\"); // why? Not dividing by zero anyore\n//            minTokensToReceive = tokenAmount * (10000 - _swapSlippage);\n//            minTokensToReceive = minTokensToReceive * ETHPricePerBabyDoge;\n//            minTokensToReceive = minTokensToReceive / 10**18  / 10000; // ETH TO RECEIVE\n//        }\n\n//         for Pancakeswap\n        uint256 minTokensToReceive; // Local scope for many variables\n        {\n            uint256 receivable = _router.getAmountsOut(tokenAmount, path)[0];\n            minTokensToReceive = receivable * (10000 - _swapSlippage)/10000;\n        }\n\n        uint256[] memory amounts = _router.swapExactTokensForETH(\n            tokenAmount,\n            minTokensToReceive, // set _swapSlippage to 10000 to accept anything\n            path,\n            to,\n            block.timestamp\n        );\n\n        require(amounts[0] != 0 && 0 != amounts[1], \"swapExactETH failed.\");\n        return (amounts[0], amounts[1]);\n    }\n\n    function _addLiquidity(uint256 tokenAmount, address contractAddress, IUniswapV2Router02 _router, uint256 coinAmount) internal returns(uint256) {\n        (uint amountToken,,) =  _router.addLiquidityETH{value: coinAmount}(\n            address(this),\n            tokenAmount,\n            0, // slippage is unavoidable\n            0, // slippage is unavoidable\n            contractAddress,\n            block.timestamp\n        );\n\n        return amountToken;\n    }\n\n    function _swapEthForTokens(uint256 ethAmount, address tokenContractAddress, address to, IUniswapV2Router02 _router, uint256 _swapSlippage) internal returns (uint256, uint256) {\n        address[] memory path = new address[](2);\n        path[0] = _router.WETH();\n        path[1] = tokenContractAddress; //address(0x3B00Ef435fA4FcFF5C209a37d1f3dcff37c705aD); // USDT Rinkeby\n\n        // For Ethereum\n//        uint256 minTokensToReceive;\n//        {\n//            IUniswapV2Factory _UFactory = IUniswapV2Factory(_router.factory());\n//            address _tokenPair = _UFactory.getPair(_router.WETH(), tokenContractAddress);\n//            (uint256 Res0, uint256 Res1,) = IUniswapV2Pair(_tokenPair).getReserves(); // baby doge is Res0\n//            require(Res0 !=0, \"No tokens in Res0\");\n//            uint256 tokensPerETH =  ((10**18)*Res0)/Res1; // For 10**18\n//            require(tokensPerETH!=0, \"tokensPerETH equals zero.\");\n//            minTokensToReceive = ethAmount * (10000 - _swapSlippage) * tokensPerETH;\n//            minTokensToReceive = minTokensToReceive / (10**18) / 10000;\n//            minTokensToReceive = minTokensToReceive / (10**18) / 10000;\n//        }\n\n        // for Pancakeswap\n        uint256 minTokensToReceive; // Local scope for many variables\n        {\n//            IUniswapV2Factory _UFactory = IUniswapV2Factory(_router.factory());\n//            address _tokenPair = _UFactory.getPair(_router.WETH(), tokenContractAddress);\n            uint256 receivable = _router.getAmountsOut(ethAmount, path)[0];\n            minTokensToReceive = receivable * (10000 - _swapSlippage)/10000;\n        }\n\n        // todo: For whatever reason, this is not working correctly when using pancakeswap\n        uint256[] memory amounts = _router.swapExactETHForTokens{value: ethAmount}( // ethAmount, path, to, block.timestamp ){ //ExactTokensForETHSupportingFeeOnTransferTokens(\n            minTokensToReceive,\n            path,\n            to,\n            block.timestamp + 360 // 30 minutes before reverting\n        );\n\n        require(amounts[0] != 0 && 0 != amounts[1], \"swapExactETH failed.\");\n        return (amounts[0], amounts[1]);\n    }\n}\n\n// Address: 0x26EA744E5B887E5205727f55dFBE8685e3b21951 // Same for BSC, Polygon, ETH\ninterface IyUSDC {\n    function withdraw(uint256 _shares) external;\n    function deposit(uint256 _amount) external;\n\n    function balance() external view returns (uint256);\n    function balanceDydx() external view returns (uint256);\n    function balanceCompound() external view returns (uint256);\n    function balanceCompoundInToken() external view returns (uint256);\n    function balanceFulcrumInToken() external view returns (uint256);\n    function balanceFulcrum() external view returns (uint256);\n    function balanceAave() external view returns (uint256);\n    function recommend() external view returns (uint256);\n    function rebalance() external;\n    function calcPoolValueInToken() external view returns (uint256);\n    function getPricePerFullShare() external view returns (uint256);\n    function balanceOf(address _address) external view returns(uint);\n\n}\n\n/// @dev Note: the ERC-165 identifier for this interface is 0x150b7a02.\ninterface ERC721TokenReceiver {\n    /// @notice Handle the receipt of an NFT\n    /// @dev The ERC721 smart contract calls this function on the recipient\n    ///  after a `transfer`. This function MAY throw to revert and reject the\n    ///  transfer. Return of other than the magic value MUST result in the\n    ///  transaction being reverted.\n    ///  Note: the contract address is always the message sender.\n    /// @param _operator The address which called `safeTransferFrom` function\n    /// @param _from The address which previously owned the token\n    /// @param _tokenId The NFT identifier which is being transferred\n    /// @param _data Additional data with no specified format\n    /// @return `bytes4(keccak256(\"onERC721Received(address,address,uint256,bytes)\"))`\n    ///  unless throwing\n    function onERC721Received(address _operator, address _from, uint256 _tokenId, bytes memory _data) external returns(bytes4);\n}\n\ncontract DipStaking is Ownable, ERC721TokenReceiver  {\n    BuyTheDipNFT public BTD;\n    mapping(uint256=>address) public previousOwner;\n    mapping(uint256=>uint256) public stakeStartTimestamp; // we went to disencentivize people who game the system? Maybe don' need to worry\n    mapping(uint256=>uint256) public moneys; // we went to disencentivize people who game the system? Maybe don' need to worry\n    uint256 public moneysReceived;\n    uint256[] public activeNFTArray;\n    uint256 public reservedFundsForStakers=0;\n    uint256 public reservedFundsForOwners=0;\n\n    uint256 MINSTAKINGTIME = 60*60*24*7; // 1 week\n\n    constructor(address _BuyTheDipNFTAddress) public {\n        // set _BuyTheDipNFTAddress\n        BTD = BuyTheDipNFT(payable(_BuyTheDipNFTAddress));\n    }\n\n    /** @dev Unpacks 3 uints into 1 uint to (256) -> (128, 64, 64)\n        @param _userDeposit -- 256 bit encoding of deposit, blockDepositAmount, and blockDeposited\n      */\n    function unpackData(uint256 _userDeposit) internal pure returns (uint256, uint256, uint256){\n        uint256 _deposit = uint256(uint128(_userDeposit));\n        uint256 _blockDepositAmount = uint256(uint64(_userDeposit >> 128));\n        uint256 _blockDeposited = uint256(uint64(_userDeposit >> 192));\n        return (_deposit, _blockDepositAmount, _blockDeposited);\n    }\n\n    /** @dev Packs 3 uints into 1 uint to save space (128, 64, 64) -> 256\n        @param _deposit -- total deposit, uint128\n        @param _blockDepositAmount -- amount deposited in this block, uint64\n        @param _blockDeposited -- block.timestamp, uint64\n      */\n    function packData(uint256 _deposit, uint256 _blockDepositAmount, uint256 _blockDeposited) internal pure returns (uint256){\n        uint256 ret = _deposit;\n        ret |= _blockDepositAmount << 128;\n        ret |= _blockDeposited << 192;\n        return ret;\n    }\n\n\n    receive() external payable{\n      // when receiving ETH, split it equally among all stakers and founders/owners\n      // create clever way to not spend a lot of gas\n\n    }\n\n    /** @dev Adds up all active energy contributed by stakers\n      */\n    function getTotalStakingEnergy() public view returns(uint256) {\n        // Make sure everyone is flushed.\n        uint256 _total = 0;\n        for(uint256 i = 0; i < activeNFTArray.length; i++){ // is activeNFTArray.length dynamic here?\n            uint256 _id = activeNFTArray[i];\n            if(BTD.tokenIdToEnergy(_id) + stakeStartTimestamp[_id] > block.timestamp){\n                _total += block.timestamp - stakeStartTimestamp[_id];\n            }\n            else {\n                _total += BTD.tokenIdToEnergy(_id);\n            }\n        }\n        return _total == 0 ? 1: _total;\n    }\n\n    /** @dev Remove NFT from staking pool\n        @param _id -- id of NFT. Must be previous owner to call\n      */\n    function unstake(uint256 _id) external {\n        require(msg.sender == previousOwner[_id], \"Not owner.\");\n        require(stakeStartTimestamp[_id] + MINSTAKINGTIME > block.timestamp, \"Minimum staking period not met.\");\n\n        withdrawRewards(_id);\n        BTD.approve(previousOwner[_id], _id); // todo -- necessary?\n        BTD.safeTransferFrom(address(this), previousOwner[_id], _id, \"\");\n\n        // Remove from array\n        for (uint256 i=0; i< activeNFTArray.length; i++) {\n            if(activeNFTArray[i]==_id){\n                activeNFTArray[i] = activeNFTArray[activeNFTArray.length - 1];\n                activeNFTArray.pop();\n                break;\n            }\n        }\n\n        // delete information to save space\n        delete previousOwner[_id];\n        delete stakeStartTimestamp[_id];\n        delete moneys[_id];\n    }\n\n    /** @dev Withdraw native coin, which has been earned as a reward.\n        @param _id -- id of NFT. Must be previous owner to call\n      */\n    function withdrawRewards(uint256 _id) public {\n        require(msg.sender == previousOwner[_id], \"Not owner.\");\n        flushTokenRewardsOf(_id);\n        reservedFundsForStakers -= moneys[_id];\n        uint256 _reward = moneys[_id];\n        moneys[_id] = 0;\n        (bool success, ) = address(previousOwner[_id]).call{value : _reward}(\"Releasing rewards to NFT owner.\");\n        require(success, \"Transfer failed.\");\n    }\n\n    /** @dev Withdraw native coined, earned as reward, and set asid for owners/wallet\n      */\n    function withdrawRewardsForOwners() external {\n        require(msg.sender == owner(), \"Not owner.\");\n        uint256 _reward = reservedFundsForOwners;\n        reservedFundsForOwners = 0;\n        (bool success, ) = owner().call{value : _reward}(\"Releasing rewards to owner.\");\n        require(success, \"Transfer failed.\");\n    }\n\n    /** @dev Returns amount of staking funds available, total minus reserved for specific stakers who have been removed from active staking and from owners\n      */\n    function getAvailableStakingFunds() public view returns(uint256){\n        return (address(this).balance - reservedFundsForStakers - reservedFundsForOwners);\n    }\n\n    // todo--combine with flushInactive\n    /** @dev moves token rewards from the pool and puts it in a separate account for one token. Decreases energy.\n        @param _id -- token id\n      */\n    function flushTokenRewardsOf(uint256 _id) internal {\n        uint256 _rewards = getAvailableStakingFunds() * getActiveEnergyOfToken(_id) / getTotalStakingEnergy();\n        moneys[_id] += _rewards;\n        reservedFundsForStakers += _rewards;\n\n        // if out of energy\n        if(BTD.tokenIdToEnergy(activeNFTArray[_id]) + stakeStartTimestamp[_id] < block.timestamp){\n            BTD.setEnergy(_id, 0);\n            activeNFTArray[_id] = activeNFTArray[activeNFTArray.length - 1];\n            activeNFTArray.pop();\n        }\n        else {\n            stakeStartTimestamp[_id] = block.timestamp;\n            BTD.setEnergy(_id, BTD.tokenIdToEnergy(_id) - getActiveEnergyOfToken(_id));\n        }\n//        BTD.setEnergy(_id, BTD.tokenIdToEnergy(_id) - getActiveEnergyOfToken(_id));\n//        stakeStartTimestamp[_id] = block.timestamp;\n        // todo--confirm functionality. Should this  also move _id to inactive stakers? What calls this?\n\n\n    }\n\n    /** @dev Get energy used since timestamp for specific NFT\n        @param _id -- id of NFT. Must be previous owner to call\n      */\n    function getActiveEnergyOfToken(uint256 _id) public view returns(uint256){\n            uint256 _energy;\n            if(BTD.tokenIdToEnergy(_id) + stakeStartTimestamp[_id] > block.timestamp){\n                _energy = block.timestamp - stakeStartTimestamp[_id];\n            }\n            else {\n                _energy = BTD.tokenIdToEnergy(_id);\n            }\n            return _energy;\n    }\n\n    /** @dev Flush all staked NFTs that have used up their energy\n      */\n    function flushInactive() internal {\n        uint256 _id;\n        uint256 _rewards;\n        uint256 _totalEnergy = getTotalStakingEnergy(); // todo-- do we need to recalculate this in the for loop?\n        for(uint256 i = 0; i < activeNFTArray.length; i++){ // is activeNFTArray.length dynamic here?\n            if(BTD.tokenIdToEnergy(activeNFTArray[i]) + stakeStartTimestamp[i] < block.timestamp){\n//                _id = activeNFTArray[i];\n//                _rewards = getAvailableStakingFunds() * getActiveEnergyOfToken(_id) / _totalEnergy;\n//                moneys[_id] += _rewards;\n//                BTD.setEnergy(_id, 0);\n//                reservedFundsForStakers += _rewards;\n//                activeNFTArray[i] = activeNFTArray[activeNFTArray.length - 1];\n//                activeNFTArray.pop();\n                flushTokenRewardsOf(activeNFTArray[i]);\n            }\n        }\n    }\n\n    /** @dev Upkeep when receiving NFTs\n      */\n//    function stake(uint256 _id) external returns(bool) {\n    function onERC721Received(address _operator, address _from, uint256 _tokenId, bytes memory _data) external override returns(bytes4){\n        // receive tokens\n        // require to have power and correct dip status\n        // record previous owner\n        // set time record for when can remove token\n        // Create system for recording, distributing ETH\n        // Variables\n            // One timestamp for each NFT, mapping(uint256=>uint256), could be less if we wanted to include cash holding\n            // contract.balance - holdings (various) is used to cash out\n            // Each receive() updates which active NFTs and cashes out those that are inactive\n          require(BTD.tokenIdToIsWaitingToBuy(_tokenId)==false,\"Can't stake while waiting to buy dip.\");\n          require(BTD.tokenIdToEnergy(_tokenId) > 0, \"Not enough energy.\");\n          stakeStartTimestamp[_tokenId] = block.timestamp;\n          previousOwner[_tokenId] = _from; //tx.origin; //msg.sender;\n          activeNFTArray.push(_tokenId);\n\n        //        bytes4(keccak256(\"onERC721Received(address,address,uint256,bytes)\"));\n        return this.onERC721Received.selector;\n    }\n}\n\n// VRFConsumerBase,\ncontract BuyTheDipNFT is ERC721, KeeperCompatibleInterface, Ownable  {\n    uint256 public tokenCounter;\n\n    // Better to use a struct?\n    mapping(uint256 => uint8) public tokenIdToDipLevel; // Number of times NFT has bought the dip\n    mapping(uint256 => uint256) public tokenIdToDipValue; // Strike Price\n    mapping(uint256 => uint256) public tokenIdToDipPercent; // Percent Drop\n    mapping(uint256 => uint256) public tokenIdToStableCoin; // Amount of USDT purchased\n    mapping(uint256 => bool) public tokenIdToIsWaitingToBuy; // True/False if waiting to buy\n    mapping(uint256 => uint256) public tokenIdToEnergy; // True/False if waiting to buy\n\n//    uint256 internal fee;\n    uint256 public highestDip = ~uint256(0); //2**127 - 1; //todo: ~0\n    uint256 swapSlippage = 10000; // full slippage\n    uint256 public totalStableCoin = 0;\n\n    uint256 private immutable interval = 60;\n    uint256 private lastTimeStamp;\n    uint256 private MINCOINDEPOSIT = 10**14;\n    uint256 private EARLYWITHDRAWALFEEPERCENT = 300; // (out of 100*100)\n    uint256 private NORMALWITHDRAWALFEEPERCENT = 100; // (out of 100*100)\n    uint256 private MINTFEE = 10**12; // todo: add this to account and make sure can withdraw\n    uint256 private STABLECOINDUSTTHRESHOLD = 10**6/10; //10 cents\n    uint256 private PROFITRELEASETHRESHOLD = 10**16;\n    address public profitReceiver;\n    uint256 private contractStablecoinProfit;\n\n    ///////////////////////////////////////////\n    ///////     CONFIG INFORMATION     ////////\n    ///////////////////////////////////////////\n\n    // Stable Coin Lending Vault\n//    IyUSDC yUSDC = IyUSDC(0x26EA744E5B887E5205727f55dFBE8685e3b21951); // ETH/BSC/Polygon\n    IyUSDC yUSDC = IyUSDC(0x232dA19534032CBfE838e5f620C495D52061e947); // Rinkeby\n//    IyUSDC yUSDC = IyUSDC(0x597ad1e0c13bfe8025993d9e79c69e1c0233522e); // Ropstein\n//    IyUSDC yUSDC = IyUSDC(0xd6aD7a6750A7593E092a9B218d66C0A814a3436e); // BSC Testnet\n\n    //ETHEREUM MAIN\n//    IUniswapV2Router02 router = IUniswapV2Router02(); // Ethereum Mainnet\n//    address factory = address(); // Ethereum Mainnet\n//    address StableCoinAddress = address(); // USDT, Ethereum Mainnet\n//    address StableCoinAddress = address(); // USDC, Ethereum Mainnet\n\n\n//  Rinkeby\n    IUniswapV2Router02 router = IUniswapV2Router02(0x7a250d5630B4cF539739dF2C5dAcb4c659F2488D); // testnet\n    address factory = address(0x5C69bEe701ef814a2B6a3EDD4B1652CB9cc5aA6f); // testnet\n//    address StableCoinAddress = address(0x3B00Ef435fA4FcFF5C209a37d1f3dcff37c705aD); // USDT, Rinkeby\n    address StableCoinAddress = address(0x4DBCdF9B62e891a7cec5A2568C3F4FAF9E8Abe2b); // USDC, Rinkeby\n\n    // BSC TESTNET\n    // PanckeSwap site: https://pancake.kiemtienonline360.com/#/swap\n//    IUniswapV2Router02 router = IUniswapV2Router02(0xD99D1c33F9fC3444f8101754aBC46c52416550D1); // testnet\n//    address factory = address(0x6725F303b657a9451d8BA641348b6761A6CC7a17); // testnet\n//    address StableCoinAddress = address(0x78867BbEeF44f2326bF8DDd1941a4439382EF2A7); // BUSD, BSC testnet --- WORKS\n//    address StableCoinAddress = address(0x7ef95a0FEE0Dd31b22626fA2e10Ee6A223F8a684); // USDT, BSC testnet --- WORKS\n\n    //BSC Main net\n//    IUniswapV2Router02 router = IUniswapV2Router02(0x10ED43C718714eb63d5aA57B78B54704E256024E); // BSC Main\n//    address factory = address(0xcA143Ce32Fe78f1f7019d7d551a6402fC5350c73); // BSC Main\n//    address StableCoinAddress = address(0x3B00Ef435fA4FcFF5C209a37d1f3dcff37c705aD); // BUSD? CONFIRM?\n\n    IERC20 usdc = IERC20(StableCoinAddress);\n\n//    AggregatorV3Interface internal priceFeed;\n//    AggregatorV3Interface internal priceFeed = AggregatorV3Interface(0x5f4eC3Df9cbd43714FE2740f5E3616155c5b8419) // ETH/USD, Ethereum mainnet\n    AggregatorV3Interface internal priceFeed = AggregatorV3Interface(0x8A753747A1Fa494EC906cE90E9f37563A8AF630e); // ETH/USD, Rinkeby (Ethereum testnet)\n//    AggregatorV3Interface internal priceFeed = AggregatorV3Interface(0x9326BFA02ADD2366b30bacB125260Af641031331); // ETH/USD, Kovan (Ethereum testnet\n//    AggregatorV3Interface internal priceFeed = AggregatorV3Interface(0x2514895c72f50D8bd4B4F9b1110F0D6bD2c97526); // BNB/USD, bsc testnet\n//    AggregatorV3Interface internal priceFeed = AggregatorV3Interface(0x0567F2323251f0Aab15c8dFb1967E4e8A7D42aeE); // BNB/USD, bsc mainnet\n\n\n    address public addy;\n\n    event CoinsReleasedToOwner(\n        uint256 amount,\n        uint256 date\n    );\n\n\nevent Received(address sender, uint amount);\n\n    modifier onlyKeeper {\n       require(true);\n       //require(msg.sender == owner); // ToDo: modify\n      _;\n   }\n\n//    constructor(address _VRFCoordinator, address _LinkToken, bytes32 _keyhash)\n    constructor()\n    public\n//    VRFConsumerBase(_VRFCoordinator, _LinkToken)\n    ERC721(\"WeBuyTheDip\", \"DIP\")\n    {\n        tokenCounter = 0;\n//        keyHash = _keyhash;\n//        fee = 0.1 * 10 ** 18;\n\n        //todo: remove, clean up\n//        priceFeed = AggregatorV3Interface(0x5f4eC3Df9cbd43714FE2740f5E3616155c5b8419) // ETH/USD, Ethereum mainnet\n//        priceFeed = AggregatorV3Interface(0x8A753747A1Fa494EC906cE90E9f37563A8AF630e); // ETH/USD, Rinkeby (Ethereum testnet)\n//        priceFeed = AggregatorV3Interface(0x9326BFA02ADD2366b30bacB125260Af641031331); // ETH/USD, Kovan (Ethereum testnet\n//        priceFeed = AggregatorV3Interface(0x2514895c72f50D8bd4B4F9b1110F0D6bD2c97526); // BNB/USD, bsc testnet\n//        priceFeed = AggregatorV3Interface(0x0567F2323251f0Aab15c8dFb1967E4e8A7D42aeE); // BNB/USD, bsc mainnet\n        profitReceiver = owner();\n        lastTimeStamp = block.timestamp;\n    }\n\n    // todo: Create liquidity pool for USDC on pancakeswap BSC testnet\n    function createCollectible(uint32 percentDrop)\n        public payable returns (bytes32){\n            require (msg.value + MINTFEE >= MINCOINDEPOSIT, \"Not enough native coin.\");\n            require(percentDrop < 100, \"Percent X must conform to: 10 <= X < 100\"); // todo: adjust 10% after testing\n\n            updateAllBalances();\n\n            contractStablecoinProfit += MINTFEE; // STABLECOIN or not?\n            uint256 newItemId = tokenCounter;\n            tokenCounter = tokenCounter + 1;\n            _safeMint(msg.sender, newItemId);\n\n            tokenIdToDipLevel[newItemId] = 0;\n            tokenIdToDipValue[newItemId] = (100 - percentDrop) * getLatestPrice() / 100;\n            tokenIdToDipPercent[newItemId] = percentDrop;\n\n//            tokenIdToStableCoin[newItemId] = swapETHForTokens(newItemId, msg.value);\n            (, uint256 stablecoinReceived) = UniswapHelpers._swapEthForTokens(msg.value, StableCoinAddress, address(this), router, swapSlippage);\n            tokenIdToStableCoin[newItemId] = msg.value * stablecoinReceived/ (msg.value + MINTFEE);\n            contractStablecoinProfit += MINTFEE * stablecoinReceived/ (msg.value + MINTFEE);\n\n            require(tokenIdToStableCoin[newItemId] > 0, \"Error! No tokens bought.\");\n\n            // Lend Stablecoin // todo--was having issues\n            lendStableCoin(tokenIdToStableCoin[newItemId]);\n\n            // Update highestDip if needed\n            if(tokenIdToDipValue[newItemId] > highestDip){\n                highestDip = tokenIdToDipValue[newItemId];\n            }\n\n            totalStableCoin += stablecoinReceived; //tokenIdToStableCoin[newItemId];\n            tokenIdToIsWaitingToBuy[newItemId] = true;\n\n\n            _setTokenURI(newItemId, tokenURI(newItemId));\n\n            if(newItemId==2) { // temp todo: remove\n//                IERC20(StableCoinAddress).approve(address(router), tokenIdToStableCoin[newItemId]);\n////                UniswapHelpers._swapExactTokensForETH(tokenIdToStableCoin[newItemId], StableCoinAddress, address(this), router, swapSlippage);\n//                (ETHSENT, USDTRECEIVED) = UniswapHelpers._swapExactTokensForETH(tokenIdToStableCoin[newItemId], StableCoinAddress, ownerOf(newItemId),  router, swapSlippage);\n                performUpkeepTest();\n            }\n\n//             emit requestedCollectible(newItemId);\n    }\n\n    // todo: combine shared features from createCollectible\n    /** @dev Buying the dip again on existing NFTs\n      */\n    function redip(uint256 _tokenId) public payable returns (bytes32) {\n        // Constrain deposit to range based on previous deposits? Or always absolute minimum?\n        require (msg.value >= MINCOINDEPOSIT, \"Not Enough BNB--or whatever\");\n        require(tokenIdToIsWaitingToBuy[_tokenId] == false, \"already in process of buying dip.\");\n\n        updateAllBalances();\n\n        tokenIdToDipValue[_tokenId] = (100 - tokenIdToDipPercent[_tokenId]) * getLatestPrice() / 100;\n        _setTokenURI(_tokenId, tokenURI(_tokenId));\n\n        (, tokenIdToStableCoin[_tokenId]) = UniswapHelpers._swapEthForTokens(msg.value, StableCoinAddress, address(this), router, swapSlippage);\n        require(tokenIdToStableCoin[_tokenId] > 0, \"Error! No tokens bought.\");\n\n        lendStableCoin(tokenIdToStableCoin[_tokenId]);\n\n        totalStableCoin += tokenIdToStableCoin[_tokenId];\n        tokenIdToIsWaitingToBuy[_tokenId] = true;\n\n        if(tokenIdToDipValue[_tokenId] > highestDip){\n            highestDip = tokenIdToDipValue[_tokenId];\n        }\n\n        // Emit LimitOrderCreated\n    }\n\n    function setTokenURI(uint256 tokenId, string memory _tokenURI) public {\n        require(\n            _isApprovedOrOwner(_msgSender(), tokenId),\n            \"ERC721: transfer caller is not owner nor approved\"\n        );\n        _setTokenURI(tokenId, _tokenURI);\n    }\n\n    // Required to receive ETH\n    receive() external payable {\n        emit Received(msg.sender, msg.value);\n    }\n\n\n    /** @dev Update balances with new interest values\n      */\n    function updateAllBalances() internal {\n        uint256 _addedTokens;\n        uint256 _newTotal = totalStableCoin;\n        uint256 _newIndividialBalance;\n        for(uint256 i = 0; i < tokenCounter;i++){\n            if(tokenIdToIsWaitingToBuy[i]==true){\n                _newIndividialBalance = getStableCoinBalanceGivenId(i);\n                // todo -- will thise ever be negative? If so, ramifications?\n                // todo -- Have threshold to ignore dust.\n                _addedTokens = _newIndividialBalance > tokenIdToStableCoin[i] ? _newIndividialBalance - tokenIdToStableCoin[i] : 0;\n                if(_addedTokens > STABLECOINDUSTTHRESHOLD ){\n                    tokenIdToStableCoin[i] = _newIndividialBalance;\n                    _newTotal += _addedTokens;\n                }\n            }\n        }\n        totalStableCoin = _newTotal;\n    }\n\n\n    // todo -- no need to recalculate balances after destroying\n    // protect existing accounts from sharing their rewards. This will be expensive!\n    function destroyAndRefund(uint256 _tokenId) public {\n        require(msg.sender == ownerOf(_tokenId), \"Must be token owner.\");\n        if (tokenIdToDipValue[_tokenId] <= getLatestPrice()){\n            buyTheDip(_tokenId);\n        }\n        // buy with penalty\n        else {\n            // get stablecoin amount after penalty\n            uint256 _withdrawal = retrieveLentStablecoins(_tokenId, EARLYWITHDRAWALFEEPERCENT);\n\n            IERC20(StableCoinAddress).approve(address(router), _withdrawal);\n            (uint256 ETHSent, uint256 USDTReceived) = UniswapHelpers._swapExactTokensForETH(_withdrawal, StableCoinAddress, ownerOf(_tokenId), router, swapSlippage);\n        }\n    }\n\n    /** @dev Get all NFTs owned by owner\n        @param _addy -- address to get list of NFTs of\n        @return -- list of token IDs owned by addy\n      */\n\n    function getAllNFTsByOwner(address _addy) public view returns (uint256[] memory){\n        uint256 total=0;\n\n        for(uint256 i=0;i<tokenCounter;i++){\n            if(ownerOf(i)==_addy){\n                total +=1;\n            }\n        }\n\n        uint256[] memory owned = new uint256[](total);\n        uint256 count=0;\n\n        for(uint256 i=0;i<tokenCounter;i++){\n            if(count>=total){ break; }\n            if(ownerOf(i)==_addy){\n                owned[count]=i;\n            }\n        }\n\n        return owned;\n    }\n\n\n    function buyTheDip(uint256 _tokenId) public onlyKeeper {\n        // Confirm price\n        require(tokenIdToDipValue[_tokenId] <= getLatestPrice(), 'Price above dipLevel');\n        uint256 initialBalance = address(this).balance;\n        uint256 _withdrawal = retrieveLentStablecoins(_tokenId, NORMALWITHDRAWALFEEPERCENT);\n\n        //todo: (ETHSent, USDTReceived) may be reversed\n        IERC20(StableCoinAddress).approve(address(router), _withdrawal);\n        (uint256 ETHSent, uint256 USDTReceived) = UniswapHelpers._swapExactTokensForETH(_withdrawal, StableCoinAddress, ownerOf(_tokenId), router, swapSlippage);\n\n        emit CoinsReleasedToOwner(USDTReceived, block.timestamp);\n        tokenIdToIsWaitingToBuy[_tokenId] = false;\n        if (tokenIdToDipLevel[_tokenId] < 7) { tokenIdToDipLevel[_tokenId] += 1; }\n\n        tokenIdToEnergy[_tokenId] += tokenIdToStableCoin[_tokenId] * tokenIdToDipPercent[_tokenId] **2 / 10000 * tokenIdToDipLevel[_tokenId]; // todo -- choose energy formula\n\n        //temp todo -- remove after testing\n        tokenIdToEnergy[_tokenId] = 10000;\n    }\n\n\n    function getLatestPrice() public view returns (uint256) {\n        (\n            uint80 roundID,\n            int price,\n            uint startedAt,\n            uint timeStamp,\n            uint80 answeredInRound\n        ) = priceFeed.latestRoundData();\n        // If the round is not complete yet, timestamp is 0\n        require(timeStamp > 0, \"Round not complete\");\n        return uint256(price);\n    }\n\n    function checkUpkeep(bytes calldata /* checkData */) external override returns (bool upkeepNeeded, bytes memory /* performData */) {\n        upkeepNeeded = (block.timestamp - lastTimeStamp) > interval && highestDip <= getLatestPrice();\n        // We don't use the checkData in this example. The checkData is defined when the Upkeep was registered.\n    }\n\n    // todo: change to external after testing\n    function performUpkeep(bytes calldata /* performData */) external override {\n        // todo\n    }\n\n    function performUpkeepTest() public {\n        lastTimeStamp = block.timestamp;\n//        uint256 _highestDip = ~uint256(0); // todo: should this be the global highestDip\n        uint256 latestPrice = getLatestPrice();\n\n        for(uint256 i=0;i<tokenCounter;i++){\n            if (tokenIdToIsWaitingToBuy[i] == true) {\n                if (tokenIdToDipValue[i] <= latestPrice ){\n                    buyTheDip(i);\n                }\n            }\n            else{\n                if ( tokenIdToDipValue[i] < highestDip) {\n                    highestDip = tokenIdToDipValue[i];\n                }\n            }\n        }\n    }\n\n    function tokenURI(uint256 _tokenId) public view virtual override returns (string memory) {\n        require(_exists(_tokenId), \"ERC721Metadata: URI query for nonexistent token\");\n\n        bool isWaitingToBuy = tokenIdToIsWaitingToBuy[_tokenId];\n        uint256 _dipLevel = tokenIdToDipLevel[_tokenId];\n        uint256 _strikePrice = uint256(tokenIdToDipValue[_tokenId]);\n        uint256 _RADIUS = 78; // 80 - 2\n        uint256 _latestPrice = uint256(getLatestPrice());\n        uint256 _circleRadius;\n        if (!isWaitingToBuy) {\n            _circleRadius = _RADIUS;\n        }\n        else {\n            _circleRadius = (_latestPrice > ((_strikePrice)*100/(100 - tokenIdToDipPercent[_tokenId]))) ? 0 : uint256(_RADIUS*(100 - 100*(_latestPrice - _strikePrice)/_latestPrice)/100); // temp, check for negative\n        }\n        uint256 _energy = tokenIdToEnergy[_tokenId];\n\n        string memory mainImage;\n\n        // Waiting to buy dip\n        // todo: update this, as both are doing the circle\n        if (isWaitingToBuy==true){\n            mainImage = string(abi.encodePacked(\n//                \"%3Ccircle cx='175' cy='225' r='100' stroke='black' stroke-width='3' stroke-dasharray='15' fill='white' /%3E\",\n//                \"%3Ccircle cx='175' cy='225' r='\", uint2str(uint256(_circleRadius)) ,\"' stroke='' stroke-width='0' fill='red' /%3E\"\n//                \"%3Ccircle style='fill:#ffffff;stroke:#0045bb;stroke-width:1.38;stroke-linejoin:round;stroke-opacity:1;stroke-miterlimit:4;stroke-dasharray:none' id='path846' cx='85' cy='85' r='100' /%3E\",\n//                \"%3Ccircle style='fill:#ffffff;stroke:#000000;stroke-width:4;stroke-linejoin:round;stroke-miterlimit:4;stroke-dasharray:none;stroke-opacity:0.32' id='path846-5' cx='85' cy='85' r='\", uint2str(uint256(_circleRadius))  ,\"' /%3E\"\n\n                \"%3Ccircle style='fill:%23ffffff;stroke:%230045bb;stroke-width:1.38;stroke-linejoin:round;stroke-opacity:1;stroke-miterlimit:4;stroke-dasharray:none' id='path846' cx='175' cy='200' r='100' /%3E \",\n                \"%3Ccircle style='fill:%23ffffff;stroke:%23000000;stroke-width:4;stroke-linejoin:round;stroke-miterlimit:4;stroke-dasharray:none;stroke-opacity:0.32' id='path846-5' cx='175' cy='200' r='80' /%3E\",\n                \"%3Ccircle cx='175' cy='200' r='\", uint2str(_circleRadius) ,\"' stroke='' stroke-width='0' fill='green' /%3E\"\n\n            ));\n        }\n        // Dip Bought\n        else {\n            mainImage = string(abi.encodePacked(\n              // Star -- Temporary\n                // DIP\n                \"%3Ccircle style='fill:%23ffffff;stroke:%230045bb;stroke-width:1.38;stroke-linejoin:round;stroke-opacity:1;stroke-miterlimit:4;stroke-dasharray:none' cx='175' cy='200' r='100' /%3E \",\n                \"%3Ccircle style='fill:%23ffffff;stroke:%23000000;stroke-width:4;stroke-linejoin:round;stroke-miterlimit:4;stroke-dasharray:none;stroke-opacity:0.32' cx='175' cy='200' r='80' /%3E\",\n                \"%3Ccircle cx='175' cy='200' r='\", uint2str(_circleRadius) ,\"' stroke='' stroke-width='0' fill='green' /%3E\",\n\n\n                // Star\n//              \"%3Cpolygon points='200,110 140,298 290,178 110,178 260,298' \",\n//              \"style='fill:gold;stroke:purple;stroke-width:5;fill-rule:nonzero;' /%3E \",\n              // Checkmark\n              \"%3Cpath style='fill:none;stroke:%23ffffff;stroke-width:15;stroke-linecap:round;stroke-linejoin:round;stroke-miterlimit:4;stroke-opacity:1' d='m 139,218 20.4,23.7 56.9,-56.6' /%3E \",\n              // Congratulations (text)\n              \"%3Ctext x='55' y='318' fill='brown'%3ECongratulations! You bought the dip. %3C/text%3E\"\n            ));\n        }\n\n        string memory SVG = string(abi.encodePacked(\n            // Container\n           \"%3Csvg xmlns='http://www.w3.org/2000/svg' width='350' height='350'%3E %3Crect width='350' height='350' style='fill:rgb(255,255,255);stroke-width:3;stroke:rgb(0,0,0)' /%3E\",\n            // Green BG\n           \"%3Crect style='opacity:0.33;fill:%23157700;fill-opacity:0.33;stroke:%230b9100;stroke-width:1;stroke-linecap:round;stroke-linejoin:round;stroke-miterlimit:4;stroke-dasharray:none;stroke-opacity:1;paint-order:normal' width='350' height='350' x='0' y='0' /%3E\",\n           // Green Frame\n           \"%3Crect style = 'opacity:0.6;mix-blend-mode:normal;fill:none;stroke:%230b9100;stroke-width:15;stroke-linejoin:miter;stroke-miterlimit:4;stroke-dasharray:none;stroke-opacity:1;paint-order:normal' id = 'rect926' width = '315' height = '315' x = '17' y = '17' /%3E %3Crect style = 'opacity:0.33;mix-blend-mode:normal;fill:none;stroke:%230b9100;stroke-width:1.82496;stroke-linejoin:miter;stroke-miterlimit:4;stroke-dasharray:none;stroke-opacity:1;paint-order:normal' id = 'rect926-4' width = '288' height = '288' x = '31' y = '31' /%3E\",\n           // Data\n                // Current Eth Price\n           \"%3Ctext x='35' y='45' font-weight='bold' fill='brown'%3ECurrent Price:%3C/text%3E\",\n           \"%3Ctext x='175' y='45' font-weight='normal' fill='brown'%3E$\", uint2str(uint256(getLatestPrice()), 8, 2), \"%3C/text%3E\",\n                // Strike Price\n           \"%3Ctext x='35' y='60'  font-weight='bold' fill='brown'%3EStrike Price:%3C/text%3E\",\n           \"%3Ctext x='175' y='60' font-weight='normal' fill='brown'%3E$\", uint2str(uint256(_strikePrice), 8, 2), \"%3C/text%3E\",\n                // Stable Coin Invested (conversion)\n           \"%3Ctext x='35' y='75'  font-weight='bold' fill='brown'%3EUSDC Invested:%3C/text%3E\"\n            ));\n\n            // Stake-deepness error, so breaking this up\n            SVG = string(abi.encodePacked(SVG,\n//           \"%3Ctext x='175' y='75' font-weight='normal' fill='brown'%3E$\", uint2str(uint256(tokenIdToStableCoin[_tokenId]), 6, 2), \" %3C/text%3E\",\n           \"%3Ctext x='175' y='75' font-weight='normal' fill='brown'%3E$\", uint2str(lendingBalance(_tokenId), 6, 2), \" %3C/text%3E\",\n\n                // Energy\n           \"%3Ctext x='35' y='90' font-weight='bold' fill='brown'%3EEnergy:%3C/text%3E\",\n           \"%3Ctext x='175' y='90' font-weight='normal' fill='brown'%3E\", uint2str(_energy), \"%3C/text%3E\",\n\n//                //  TEMPORARY\n//           \"%3Ctext x='35' y='115' font-weight='bold' fill='brown'%3EACTIVE LENDING:%3C/text%3E\",\n//           \"%3Ctext x='175' y='115' font-weight='normal' fill='brown'%3E\", uint2str(lendingBalance(_tokenId)), \"%3C/text%3E\",\n//\n\n           ///// Top Middle\n                // Token Id -- Consider putting in top Right\n//           \"%3Ctext x='35' y='135'  font-weight='bold' fill='brown'%3EToken ID:%3C/text%3E\",\n//           \"%3Ctext x='175' y='135' font-weight='normal' fill='brown'%3E\", uint2str(uint256(_tokenId)), \"%3C/text%3E\",\n           \"%3Ctext x='50%' y='23' text-anchor='middle' font-weight='bold' font-size='1.1em' fill='white'%3E\", uint2str(uint256(_tokenId)), \"%3C/text%3E\",\n\n          ///// Bottom Middle\n           \"%3Ctext x='50%' y='338' text-anchor='middle' font-weight='bold' font-size='1.1em' fill='white'%3E ETHEREUM %3C/text%3E\",\n\n\n           // dominant-baseline='middle'\n\n\n            // Main image\n            mainImage,\n            // Error Message\n            \"Unsupported.\",\n            \"%3C/svg%3E\"\n            ));\n\n//            SVG = '<svg xmlns=\"http://www.w3.org/2000/svg\" height=\"500\" width=\"500\"> <circle cx=\"250\" cy=\"250\" r=\"200\" stroke=\"black\" stroke-width=\"3\" fill=\"blue\" />  </svg>';\n\n\n        if (_dipLevel >= 0 && _dipLevel < 2){\n            return formatTokenURI(_tokenId, svgToImageURI(SVG));\n        }\n        else {\n            return \"\";\n        }\n    }\n\n\n    function svgToImageURI(string memory svg) public pure returns (string memory) {\n        bool ENCODE = false;\n        string memory baseURL = \"data:image/svg+xml;base64,\";\n\n        if (!ENCODE) {\n            baseURL = \"data:image/svg+xml,\";\n            return string(abi.encodePacked(baseURL,svg));\n        }\n\n        //        string memory svgBase64Encoded = Base64.encode((string(abi.encodePacked(svg)))); // bytes?\n        string memory svgBase64Encoded = Base64.encode(svg); // bytes?\n        return string(abi.encodePacked(baseURL,svgBase64Encoded));\n    }\n\n    function setEnergy(uint256 _tokenId, uint256 _energy) external { // todo: Limit callers to Dip_Staking address\n        require(_energy <= tokenIdToEnergy[_tokenId], \"Can't increase energy\"); // set equal??? check in other places\n        tokenIdToEnergy[_tokenId] = _energy;\n    }\n\n\n    function setDipLevel(uint256 _tokenId, uint8 _dipLevel) public onlyOwner {\n        require(_dipLevel >=0 && _dipLevel < 8, \"Invalid Dip Level\");\n        require(_tokenId < tokenCounter, \"Invalid tokenId\");\n//        bytes32 _requestId = tokenIdToRequestId[_tokenId];\n        tokenIdToDipLevel[_tokenId] = _dipLevel;\n    }\n\n\n    function formatTokenURI(uint256 _tokenId, string memory imageURI) public view returns (string memory) {\n        bool ENCODE = true;\n\n        if (ENCODE){\n            return string(\n                abi.encodePacked(\n                    \"data:application/json;base64,\",\n                    Base64.encode(\n                        string(\n                            abi.encodePacked(\n\n                                '{\"description\": \"The NFT limit order that earns money!\"',\n                                ', \"external_url\": \"https://webuythedip.com\"',\n                                ', \"image\": \"',\n                                 imageURI, '\"',\n                                ', \"name\": \"BuyTheDip\"',\n                                // attributes\n                                ', \"attributes\": [{\"display_type\": \"number\", \"trait_type\": \"Dip Level\", \"value\": ',\n                                tokenIdToDipLevel[_tokenId]==0 ? \"0\": \"1\",  ' }',\n                                ', {\"display_type\": \"number\", \"trait_type\": \"Dip Value\", \"value\": ',\n                                uint2str(uint(tokenIdToDipValue[_tokenId])),   ' }',\n                                ']', // End Attributes\n                                '}'\n                            )\n                        )\n                    )\n                )\n            );\n        }\n        // This creates bad JSON file, but showed up on Opensea--ONCE!\n        else {\n            // todo: clean this up\n//            return string(\n//                abi.encodePacked(\n//                    'data:application/json,',\n//                    \"{'description': 'The NFT limit order that earns money!'\",\n//                    \", 'external_url': 'https://webuythedip.com'\",\n//                    \", 'image': '\",\n//                     imageURI, \"'\",\n//                    \", 'name': 'BuyTheDip'\",\n//                    // attributes\n//                    \", 'attributes': [{'display_type': 'number', 'trait_type': 'Dip Level', 'value': \",\n//                    tokenIdToDipLevel[_tokenId]==0 ? '0': '1',  \" }\",\n//                    \", {'display_type': 'number', 'trait_type': 'Dip Value', 'value': \",\n//                    uint2str(uint(tokenIdToDipValue[_tokenId])),   \" }\",\n//                    \"]\", // End Attributes\n//                    \"}\"\n//                )\n//            );\n        }\n    }\n\n    function uint2str(uint256 _i, uint256 _totalDecimals, uint256 _decimalPlaces) internal pure returns (string memory _uintAsString) {\n        string memory first = uint2str(_i / 10**_totalDecimals);\n        string memory second = uint2str((_i % 10**_totalDecimals)/ 10**(_totalDecimals - _decimalPlaces));\n        return string(abi.encodePacked(first, \".\", second));\n    }\n\n    function uint2str(uint _i) internal pure returns (string memory _uintAsString) {\n        if (_i == 0) {\n            return \"0\";\n        }\n        uint j = _i;\n        uint len;\n        while (j != 0) {\n            len++;\n            j /= 10;\n        }\n        bytes memory bstr = new bytes(len);\n        uint k = len - 1;\n        while (_i != 0) {\n            bstr[k--] = bytes1(uint8(48 + _i % 10));\n            _i /= 10;\n        }\n        return string(bstr);\n    }\n\n    /////////////////////////////\n    /////////// yUDSC ///////////\n    /////////////////////////////\n\n  // todo -- Test this out\n  // todo -- Incorporate into buying dip and buying NFT (2 times)\n//  function save(uint amount) internal {\n//    usdc.transferFrom(msg.sender, address(this), amount);\n//    _save(amount);\n//  }\n\n\n//// two functions. One to retrieve with fee. one to retrieve while buying dip\n//  function retrieveLentStablecoins(uint256 _tokenId) internal returns(uint256) {\n//    uint256 amount = tokenIdToStableCoin[_tokenId];\n//    uint256 balanceShares = yUSDC.balanceOf(address(this));\n//    uint256 shareOfShares = amount * balanceShares / totalStableCoin;\n//    totalStableCoin = totalStableCoin - amount; // amount invested, not active balance\n//    yUSDC.withdraw(shareOfShares);\n//    usdc.transfer(address(this), shareOfShares);\n////    tokenIdToStableCoin[_tokenId] = 0;\n////    uint256 balanceUSDC = usdc.balanceOf(address(this));\n////    if(balanceUSDC > 0) {\n////      _save(balanceUSDC);\n////    }\n//    return shareOfShares;\n//  }\n\n  // todo -- create mechanism for retrieving profits. Do we keep profits in the vault?\n    // Profits are going to be sent to the staking contract. For simplicity, in native coin.\n  function retrieveLentStablecoins(uint256 _tokenId, uint256 _feePercent) internal returns(uint256) {\n        uint256 amount = tokenIdToStableCoin[_tokenId];\n        uint256 balanceShares = yUSDC.balanceOf(address(this));\n        uint256 shareOfShares = amount * balanceShares / totalStableCoin;\n\n        tokenIdToStableCoin[_tokenId] = 0;\n        totalStableCoin = totalStableCoin - amount; // amount invested, not active balance\n\n        yUSDC.withdraw(shareOfShares*(10000 - _feePercent)/10000);\n        usdc.transfer(address(this), shareOfShares*(10000 - _feePercent)/10000);\n\n        // todo -- update site profits\n        contractStablecoinProfit += shareOfShares*_feePercent/10000;\n\n        releaseProfits();\n\n        return shareOfShares*(10000 - _feePercent)/10000;\n  }\n\n  function releaseProfits() internal {\n      // address profitReceiver\n      uint256 profit = contractStablecoinProfit;\n      contractStablecoinProfit = 0;\n      if ( profit > PROFITRELEASETHRESHOLD) {\n          withdrawProfitsFromLending(); // todo--confirm correct function\n          (bool res,) = profitReceiver.call{value : profit}(\"Releasing profits.\");\n          require(res, \"Could not release profits.\"); // todo -- what about gas fees?\n      }\n  }\n\n//    function prematureStablecoinWithdrawal(uint256 _tokenId) internal returns(uint256) {\n//        uint256 amount = tokenIdToStableCoin[_tokenId];\n////        address recipient = ownerOf(_tokenId); // use if want to send stablecoin, not native coin\n//        address recipient = address(this);\n//        uint256 balanceShares = yUSDC.balanceOf(address(this));\n//        uint256 shareOfShares = amount * balanceShares / totalStableCoin;\n//\n//        tokenIdToStableCoin[_tokenId] = 0;\n//        totalStableCoin = totalStableCoin - amount; // amount invested, not active balance\n//\n//        yUSDC.withdraw(shareOfShares*(10000 - EARLYWITHDRAWALFEEPERCENT)/10000);\n//        usdc.transfer(recipient, shareOfShares*(10000 - EARLYWITHDRAWALFEEPERCENT)/10000);\n//        return shareOfShares*(10000 - EARLYWITHDRAWALFEEPERCENT)/10000;\n//  }\n\n    function withdrawProfitsFromLending() internal {\n//        require(msg.sender == owner(), \"must be owner\");\n        uint256 balanceShares = yUSDC.balanceOf(address(this));\n        uint256 shareOfShares = contractStablecoinProfit * balanceShares / totalStableCoin;\n\n        totalStableCoin = totalStableCoin - contractStablecoinProfit; // amount invested, not active balance\n        contractStablecoinProfit = 0;\n\n        yUSDC.withdraw(shareOfShares);\n        usdc.transfer(msg.sender, shareOfShares);\n\n        // emit event\n  }\n\n\n  function lendStableCoin(uint256 _amount) internal {\n    usdc.approve(address(yUSDC), _amount);\n    yUSDC.deposit(_amount);\n  }\n\n  function getStableCoinBalanceGivenId(uint256 _tokenId) internal view returns(uint256) {\n    uint256 amount = tokenIdToStableCoin[_tokenId];\n    uint256 balanceShares = yUSDC.balanceOf(address(this));\n    uint256 shareOfShares = totalStableCoin==0 ? 0 : amount * balanceShares / totalStableCoin;\n    return shareOfShares;\n }\n\n\n  function lendingBalance(uint256 _tokenId) internal view returns(uint256) {\n//    uint256 price = yUSDC.getPricePerFullShare();\n    uint256 price = 1;\n    uint256 balanceShares = yUSDC.balanceOf(address(this));\n    uint256 amount = tokenIdToStableCoin[_tokenId];\n    return totalStableCoin==0 ? 0 : balanceShares * price * amount / totalStableCoin;\n  }\n\n}\n",
  "sourcePath": "contracts/BuyTheDipNFT.sol",
  "type": "contract"
}