{
  "abi": [
    {
      "inputs": [
        {
          "internalType": "address",
          "name": "_BuyTheDipNFTAddress",
          "type": "address"
        }
      ],
      "stateMutability": "nonpayable",
      "type": "constructor"
    },
    {
      "anonymous": false,
      "inputs": [
        {
          "indexed": true,
          "internalType": "address",
          "name": "previousOwner",
          "type": "address"
        },
        {
          "indexed": true,
          "internalType": "address",
          "name": "newOwner",
          "type": "address"
        }
      ],
      "name": "OwnershipTransferred",
      "type": "event"
    },
    {
      "inputs": [],
      "name": "BTD",
      "outputs": [
        {
          "internalType": "contract BuyTheDipNFT",
          "name": "",
          "type": "address"
        }
      ],
      "stateMutability": "view",
      "type": "function"
    },
    {
      "inputs": [
        {
          "internalType": "uint256",
          "name": "",
          "type": "uint256"
        }
      ],
      "name": "activeNFTArray",
      "outputs": [
        {
          "internalType": "uint256",
          "name": "",
          "type": "uint256"
        }
      ],
      "stateMutability": "view",
      "type": "function"
    },
    {
      "inputs": [
        {
          "internalType": "uint256",
          "name": "_id",
          "type": "uint256"
        }
      ],
      "name": "getActiveEnergyOfToken",
      "outputs": [
        {
          "internalType": "uint256",
          "name": "",
          "type": "uint256"
        }
      ],
      "stateMutability": "view",
      "type": "function"
    },
    {
      "inputs": [],
      "name": "getAvailableStakingFunds",
      "outputs": [
        {
          "internalType": "uint256",
          "name": "",
          "type": "uint256"
        }
      ],
      "stateMutability": "view",
      "type": "function"
    },
    {
      "inputs": [],
      "name": "getTotalStakingEnergy",
      "outputs": [
        {
          "internalType": "uint256",
          "name": "",
          "type": "uint256"
        }
      ],
      "stateMutability": "view",
      "type": "function"
    },
    {
      "inputs": [
        {
          "internalType": "uint256",
          "name": "",
          "type": "uint256"
        }
      ],
      "name": "moneys",
      "outputs": [
        {
          "internalType": "uint256",
          "name": "",
          "type": "uint256"
        }
      ],
      "stateMutability": "view",
      "type": "function"
    },
    {
      "inputs": [],
      "name": "moneysReceived",
      "outputs": [
        {
          "internalType": "uint256",
          "name": "",
          "type": "uint256"
        }
      ],
      "stateMutability": "view",
      "type": "function"
    },
    {
      "inputs": [
        {
          "internalType": "address",
          "name": "_operator",
          "type": "address"
        },
        {
          "internalType": "address",
          "name": "_from",
          "type": "address"
        },
        {
          "internalType": "uint256",
          "name": "_tokenId",
          "type": "uint256"
        },
        {
          "internalType": "bytes",
          "name": "_data",
          "type": "bytes"
        }
      ],
      "name": "onERC721Received",
      "outputs": [
        {
          "internalType": "bytes4",
          "name": "",
          "type": "bytes4"
        }
      ],
      "stateMutability": "nonpayable",
      "type": "function"
    },
    {
      "inputs": [],
      "name": "owner",
      "outputs": [
        {
          "internalType": "address",
          "name": "",
          "type": "address"
        }
      ],
      "stateMutability": "view",
      "type": "function"
    },
    {
      "inputs": [
        {
          "internalType": "uint256",
          "name": "",
          "type": "uint256"
        }
      ],
      "name": "previousOwner",
      "outputs": [
        {
          "internalType": "address",
          "name": "",
          "type": "address"
        }
      ],
      "stateMutability": "view",
      "type": "function"
    },
    {
      "inputs": [],
      "name": "renounceOwnership",
      "outputs": [],
      "stateMutability": "nonpayable",
      "type": "function"
    },
    {
      "inputs": [],
      "name": "reservedFundsForOwners",
      "outputs": [
        {
          "internalType": "uint256",
          "name": "",
          "type": "uint256"
        }
      ],
      "stateMutability": "view",
      "type": "function"
    },
    {
      "inputs": [],
      "name": "reservedFundsForStakers",
      "outputs": [
        {
          "internalType": "uint256",
          "name": "",
          "type": "uint256"
        }
      ],
      "stateMutability": "view",
      "type": "function"
    },
    {
      "inputs": [
        {
          "internalType": "uint256",
          "name": "",
          "type": "uint256"
        }
      ],
      "name": "stakeStartTimestamp",
      "outputs": [
        {
          "internalType": "uint256",
          "name": "",
          "type": "uint256"
        }
      ],
      "stateMutability": "view",
      "type": "function"
    },
    {
      "inputs": [
        {
          "internalType": "address",
          "name": "newOwner",
          "type": "address"
        }
      ],
      "name": "transferOwnership",
      "outputs": [],
      "stateMutability": "nonpayable",
      "type": "function"
    },
    {
      "inputs": [
        {
          "internalType": "uint256",
          "name": "_id",
          "type": "uint256"
        }
      ],
      "name": "unstake",
      "outputs": [],
      "stateMutability": "nonpayable",
      "type": "function"
    },
    {
      "inputs": [
        {
          "internalType": "uint256",
          "name": "_id",
          "type": "uint256"
        }
      ],
      "name": "withdrawRewards",
      "outputs": [],
      "stateMutability": "nonpayable",
      "type": "function"
    },
    {
      "inputs": [],
      "name": "withdrawRewardsForOwners",
      "outputs": [],
      "stateMutability": "nonpayable",
      "type": "function"
    },
    {
      "stateMutability": "payable",
      "type": "receive"
    }
  ],
  "bytecode": "60806040526000600755600060085562093a8060095534801561002157600080fd5b506040516114673803806114678339818101604052602081101561004457600080fd5b505160006100506100bf565b600080546001600160a01b0319166001600160a01b0383169081178255604051929350917f8be0079c531659141344cd1fd0a4f28419497f9722a3daafe3b4186f6b6457e0908290a350600180546001600160a01b0319166001600160a01b03929092169190911790556100c3565b3390565b611395806100d26000396000f3fe60806040526004361061010d5760003560e01c80638da5cb5b11610095578063dbf6ebc311610064578063dbf6ebc3146103b3578063e12a87cc146103c8578063e2616827146103f2578063eeb34d5314610407578063f2fde38b1461041c57610114565b80638da5cb5b146103355780639342c8f41461034a5780639843bdd314610374578063a85158241461038957610114565b806345740477116100dc578063457404771461029b5780634712af92146102cc57806351fc43e7146102f6578063715018a61461030b57806387498b5f1461032057610114565b8063032b94d1146101195780630dac11d414610155578063150b7a021461017f5780632e17de781461026f57610114565b3661011457005b600080fd5b34801561012557600080fd5b506101436004803603602081101561013c57600080fd5b503561044f565b60408051918252519081900360200190f35b34801561016157600080fd5b506101436004803603602081101561017857600080fd5b503561046d565b34801561018b57600080fd5b50610252600480360360808110156101a257600080fd5b6001600160a01b038235811692602081013590911691604082013591908101906080810160608201356401000000008111156101dd57600080fd5b8201836020820111156101ef57600080fd5b8035906020019184600183028401116401000000008311171561021157600080fd5b91908080601f016020809104026020016040519081016040528093929190818152602001838380828437600092019190915250929550610593945050505050565b604080516001600160e01b03199092168252519081900360200190f35b34801561027b57600080fd5b506102996004803603602081101561029257600080fd5b503561077e565b005b3480156102a757600080fd5b506102b0610a0a565b604080516001600160a01b039092168252519081900360200190f35b3480156102d857600080fd5b50610143600480360360208110156102ef57600080fd5b5035610a19565b34801561030257600080fd5b50610143610a2b565b34801561031757600080fd5b50610299610a37565b34801561032c57600080fd5b50610143610af5565b34801561034157600080fd5b506102b0610afb565b34801561035657600080fd5b506102996004803603602081101561036d57600080fd5b5035610b0a565b34801561038057600080fd5b50610299610c65565b34801561039557600080fd5b506102b0600480360360208110156103ac57600080fd5b5035610d99565b3480156103bf57600080fd5b50610143610db4565b3480156103d457600080fd5b50610143600480360360208110156103eb57600080fd5b5035610f26565b3480156103fe57600080fd5b50610143610f38565b34801561041357600080fd5b50610143610f3e565b34801561042857600080fd5b506102996004803603602081101561043f57600080fd5b50356001600160a01b0316610f44565b6006818154811061045c57fe5b600091825260209091200154905081565b6000818152600360209081526040808320546001548251632223c5f160e01b8152600481018790529251859442946001600160a01b0390931692632223c5f19260248083019392829003018186803b1580156104c857600080fd5b505afa1580156104dc573d6000803e3d6000fd5b505050506040513d60208110156104f257600080fd5b50510111156105125750600082815260036020526040902054420361058d565b60015460408051632223c5f160e01b81526004810186905290516001600160a01b0390921691632223c5f191602480820192602092909190829003018186803b15801561055e57600080fd5b505afa158015610572573d6000803e3d6000fd5b505050506040513d602081101561058857600080fd5b505190505b92915050565b6001546040805163fb1b0f2960e01b81526004810185905290516000926001600160a01b03169163fb1b0f29916024808301926020929190829003018186803b1580156105df57600080fd5b505afa1580156105f3573d6000803e3d6000fd5b505050506040513d602081101561060957600080fd5b5051156106475760405162461bcd60e51b815260040180806020018281038252602581526020018061133b6025913960400191505060405180910390fd5b60015460408051632223c5f160e01b81526004810186905290516000926001600160a01b031691632223c5f1916024808301926020929190829003018186803b15801561069357600080fd5b505afa1580156106a7573d6000803e3d6000fd5b505050506040513d60208110156106bd57600080fd5b505111610706576040805162461bcd60e51b81526020600482015260126024820152712737ba1032b737bab3b41032b732b933bc9760711b604482015290519081900360640190fd5b5060008281526003602090815260408083204290556002909152812080546001600160a01b0386166001600160a01b03199091161790556006805460018101825591527ff652222313e28459528d920b65115c16c04f3efc82aaedc97be59f3f377c0d3f01829055630a85bd0160e11b949350505050565b6000818152600260205260409020546001600160a01b031633146107d6576040805162461bcd60e51b815260206004820152600a6024820152692737ba1037bbb732b91760b11b604482015290519081900360640190fd5b6009546000828152600360205260409020544291011161083d576040805162461bcd60e51b815260206004820152601f60248201527f4d696e696d756d207374616b696e6720706572696f64206e6f74206d65742e00604482015290519081900360640190fd5b61084681610b0a565b60015460008281526002602052604080822054815163095ea7b360e01b81526001600160a01b03918216600482015260248101869052915193169263095ea7b39260448084019391929182900301818387803b1580156108a557600080fd5b505af11580156108b9573d6000803e3d6000fd5b5050600154600084815260026020526040808220548151635c46a7ef60e11b81523060048201526001600160a01b03918216602482015260448101889052608060648201526084810184905291519316945063b88d4fde935060c4808201939182900301818387803b15801561092e57600080fd5b505af1158015610942573d6000803e3d6000fd5b5050505060005b6006548110156109d657816006828154811061096157fe5b906000526020600020015414156109ce5760068054600019810190811061098457fe5b90600052602060002001546006828154811061099c57fe5b60009182526020909120015560068054806109b357fe5b600190038181906000526020600020016000905590556109d6565b600101610949565b50600090815260026020908152604080832080546001600160a01b0319169055600382528083208390556004909152812055565b6001546001600160a01b031681565b60036020526000908152604090205481565b60085460075447030390565b610a3f611058565b6001600160a01b0316610a50610afb565b6001600160a01b031614610aab576040805162461bcd60e51b815260206004820181905260248201527f4f776e61626c653a2063616c6c6572206973206e6f7420746865206f776e6572604482015290519081900360640190fd5b600080546040516001600160a01b03909116907f8be0079c531659141344cd1fd0a4f28419497f9722a3daafe3b4186f6b6457e0908390a3600080546001600160a01b0319169055565b60085481565b6000546001600160a01b031690565b6000818152600260205260409020546001600160a01b03163314610b62576040805162461bcd60e51b815260206004820152600a6024820152692737ba1037bbb732b91760b11b604482015290519081900360640190fd5b610b6b8161105c565b600081815260046020908152604080832080546007805491909103905580549084905560029092528083205481517f52656c656173696e67207265776172647320746f204e4654206f776e65722e00815291519293926001600160a01b03909116918491601f8083019286929190829003018185875af1925050503d8060008114610c12576040519150601f19603f3d011682016040523d82523d6000602084013e610c17565b606091505b5050905080610c60576040805162461bcd60e51b815260206004820152601060248201526f2a3930b739b332b9103330b4b632b21760811b604482015290519081900360640190fd5b505050565b610c6d610afb565b6001600160a01b0316336001600160a01b031614610cbf576040805162461bcd60e51b815260206004820152600a6024820152692737ba1037bbb732b91760b11b604482015290519081900360640190fd5b6008805460009182905590610cd2610afb565b6001600160a01b03168260405180807f52656c656173696e67207265776172647320746f206f776e65722e0000000000815250601b01905060006040518083038185875af1925050503d8060008114610d47576040519150601f19603f3d011682016040523d82523d6000602084013e610d4c565b606091505b5050905080610d95576040805162461bcd60e51b815260206004820152601060248201526f2a3930b739b332b9103330b4b632b21760811b604482015290519081900360640190fd5b5050565b6002602052600090815260409020546001600160a01b031681565b600080805b600654811015610f1057600060068281548110610dd257fe5b600091825260208083209091015480835260038252604092839020546001548451632223c5f160e01b8152600481018490529451929550429491936001600160a01b0390911692632223c5f1926024808201939291829003018186803b158015610e3b57600080fd5b505afa158015610e4f573d6000803e3d6000fd5b505050506040513d6020811015610e6557600080fd5b5051011115610e895760008181526003602052604090205442039290920191610f07565b60015460408051632223c5f160e01b81526004810184905290516001600160a01b0390921691632223c5f191602480820192602092909190829003018186803b158015610ed557600080fd5b505afa158015610ee9573d6000803e3d6000fd5b505050506040513d6020811015610eff57600080fd5b505192909201915b50600101610db9565b508015610f1d5780610f20565b60015b91505090565b60046020526000908152604090205481565b60055481565b60075481565b610f4c611058565b6001600160a01b0316610f5d610afb565b6001600160a01b031614610fb8576040805162461bcd60e51b815260206004820181905260248201527f4f776e61626c653a2063616c6c6572206973206e6f7420746865206f776e6572604482015290519081900360640190fd5b6001600160a01b038116610ffd5760405162461bcd60e51b81526004018080602001828103825260268152602001806113156026913960400191505060405180910390fd5b600080546040516001600160a01b03808516939216917f8be0079c531659141344cd1fd0a4f28419497f9722a3daafe3b4186f6b6457e091a3600080546001600160a01b0319166001600160a01b0392909216919091179055565b3390565b6000611066610db4565b61106f8361046d565b611077610a2b565b028161107f57fe5b600084815260046020908152604080832080549590940494850190935560078054850190556003905220546001546006805493945042936001600160a01b0390921691632223c5f19190879081106110d357fe5b90600052602060002001546040518263ffffffff1660e01b81526004018082815260200191505060206040518083038186803b15801561111257600080fd5b505afa158015611126573d6000803e3d6000fd5b505050506040513d602081101561113c57600080fd5b505101101561120e576001546040805163570a9f1f60e11b81526004810185905260006024820181905291516001600160a01b039093169263ae153e3e9260448084019391929182900301818387803b15801561119857600080fd5b505af11580156111ac573d6000803e3d6000fd5b5050600680549092506000198101915081106111c457fe5b9060005260206000200154600683815481106111dc57fe5b60009182526020909120015560068054806111f357fe5b60019003818190600052602060002001600090559055610d95565b60008281526003602052604090204290556001546001600160a01b031663ae153e3e8361123a8161046d565b60015460408051632223c5f160e01b81526004810189905290516001600160a01b0390921691632223c5f191602480820192602092909190829003018186803b15801561128657600080fd5b505afa15801561129a573d6000803e3d6000fd5b505050506040513d60208110156112b057600080fd5b5051604080516001600160e01b031960e087901b1681526004810194909452919003602483015251604480830192600092919082900301818387803b1580156112f857600080fd5b505af115801561130c573d6000803e3d6000fd5b50505050505056fe4f776e61626c653a206e6577206f776e657220697320746865207a65726f206164647265737343616e2774207374616b65207768696c652077616974696e6720746f20627579206469702ea26469706673582212205f02bafab1324bb965a7d65c8e73526e5e61c16f18e0124da43d3e06eb3d008764736f6c634300060c0033",
  "bytecodeSha1": "90a18ffa780325071794f41372f44ef3e4f15e53",
  "compiler": {
    "evm_version": "istanbul",
    "optimizer": {
      "enabled": true,
      "runs": 200
    },
    "version": "0.6.12+commit.27d51765"
  },
  "contractName": "DipStaking",
  "language": "Solidity",
  "natspec": {
    "kind": "dev",
    "methods": {
      "getActiveEnergyOfToken(uint256)": {
        "details": "Get energy used since timestamp for specific NFT",
        "params": {
          "_id": "-- id of NFT. Must be previous owner to call"
        }
      },
      "getAvailableStakingFunds()": {
        "details": "Returns amount of staking funds available, total minus reserved for specific stakers who have been removed from active staking and from owners"
      },
      "getTotalStakingEnergy()": {
        "details": "Adds up all active energy contributed by stakers"
      },
      "onERC721Received(address,address,uint256,bytes)": {
        "details": "Upkeep when receiving NFTs"
      },
      "owner()": {
        "details": "Returns the address of the current owner."
      },
      "renounceOwnership()": {
        "details": "Leaves the contract without owner. It will not be possible to call `onlyOwner` functions anymore. Can only be called by the current owner. NOTE: Renouncing ownership will leave the contract without an owner, thereby removing any functionality that is only available to the owner."
      },
      "transferOwnership(address)": {
        "details": "Transfers ownership of the contract to a new account (`newOwner`). Can only be called by the current owner."
      },
      "unstake(uint256)": {
        "details": "Remove NFT from staking pool",
        "params": {
          "_id": "-- id of NFT. Must be previous owner to call"
        }
      },
      "withdrawRewards(uint256)": {
        "details": "Withdraw native coin, which has been earned as a reward.",
        "params": {
          "_id": "-- id of NFT. Must be previous owner to call"
        }
      },
      "withdrawRewardsForOwners()": {
        "details": "Withdraw native coined, earned as reward, and set asid for owners/wallet"
      }
    },
    "version": 1
  },
  "opcodes": "PUSH1 0x80 PUSH1 0x40 MSTORE PUSH1 0x4 CALLDATASIZE LT PUSH2 0x10D JUMPI PUSH1 0x0 CALLDATALOAD PUSH1 0xE0 SHR DUP1 PUSH4 0x8DA5CB5B GT PUSH2 0x95 JUMPI DUP1 PUSH4 0xDBF6EBC3 GT PUSH2 0x64 JUMPI DUP1 PUSH4 0xDBF6EBC3 EQ PUSH2 0x3B3 JUMPI DUP1 PUSH4 0xE12A87CC EQ PUSH2 0x3C8 JUMPI DUP1 PUSH4 0xE2616827 EQ PUSH2 0x3F2 JUMPI DUP1 PUSH4 0xEEB34D53 EQ PUSH2 0x407 JUMPI DUP1 PUSH4 0xF2FDE38B EQ PUSH2 0x41C JUMPI PUSH2 0x114 JUMP JUMPDEST DUP1 PUSH4 0x8DA5CB5B EQ PUSH2 0x335 JUMPI DUP1 PUSH4 0x9342C8F4 EQ PUSH2 0x34A JUMPI DUP1 PUSH4 0x9843BDD3 EQ PUSH2 0x374 JUMPI DUP1 PUSH4 0xA8515824 EQ PUSH2 0x389 JUMPI PUSH2 0x114 JUMP JUMPDEST DUP1 PUSH4 0x45740477 GT PUSH2 0xDC JUMPI DUP1 PUSH4 0x45740477 EQ PUSH2 0x29B JUMPI DUP1 PUSH4 0x4712AF92 EQ PUSH2 0x2CC JUMPI DUP1 PUSH4 0x51FC43E7 EQ PUSH2 0x2F6 JUMPI DUP1 PUSH4 0x715018A6 EQ PUSH2 0x30B JUMPI DUP1 PUSH4 0x87498B5F EQ PUSH2 0x320 JUMPI PUSH2 0x114 JUMP JUMPDEST DUP1 PUSH4 0x32B94D1 EQ PUSH2 0x119 JUMPI DUP1 PUSH4 0xDAC11D4 EQ PUSH2 0x155 JUMPI DUP1 PUSH4 0x150B7A02 EQ PUSH2 0x17F JUMPI DUP1 PUSH4 0x2E17DE78 EQ PUSH2 0x26F JUMPI PUSH2 0x114 JUMP JUMPDEST CALLDATASIZE PUSH2 0x114 JUMPI STOP JUMPDEST PUSH1 0x0 DUP1 REVERT JUMPDEST CALLVALUE DUP1 ISZERO PUSH2 0x125 JUMPI PUSH1 0x0 DUP1 REVERT JUMPDEST POP PUSH2 0x143 PUSH1 0x4 DUP1 CALLDATASIZE SUB PUSH1 0x20 DUP2 LT ISZERO PUSH2 0x13C JUMPI PUSH1 0x0 DUP1 REVERT JUMPDEST POP CALLDATALOAD PUSH2 0x44F JUMP JUMPDEST PUSH1 0x40 DUP1 MLOAD SWAP2 DUP3 MSTORE MLOAD SWAP1 DUP2 SWAP1 SUB PUSH1 0x20 ADD SWAP1 RETURN JUMPDEST CALLVALUE DUP1 ISZERO PUSH2 0x161 JUMPI PUSH1 0x0 DUP1 REVERT JUMPDEST POP PUSH2 0x143 PUSH1 0x4 DUP1 CALLDATASIZE SUB PUSH1 0x20 DUP2 LT ISZERO PUSH2 0x178 JUMPI PUSH1 0x0 DUP1 REVERT JUMPDEST POP CALLDATALOAD PUSH2 0x46D JUMP JUMPDEST CALLVALUE DUP1 ISZERO PUSH2 0x18B JUMPI PUSH1 0x0 DUP1 REVERT JUMPDEST POP PUSH2 0x252 PUSH1 0x4 DUP1 CALLDATASIZE SUB PUSH1 0x80 DUP2 LT ISZERO PUSH2 0x1A2 JUMPI PUSH1 0x0 DUP1 REVERT JUMPDEST PUSH1 0x1 PUSH1 0x1 PUSH1 0xA0 SHL SUB DUP3 CALLDATALOAD DUP2 AND SWAP3 PUSH1 0x20 DUP2 ADD CALLDATALOAD SWAP1 SWAP2 AND SWAP2 PUSH1 0x40 DUP3 ADD CALLDATALOAD SWAP2 SWAP1 DUP2 ADD SWAP1 PUSH1 0x80 DUP2 ADD PUSH1 0x60 DUP3 ADD CALLDATALOAD PUSH5 0x100000000 DUP2 GT ISZERO PUSH2 0x1DD JUMPI PUSH1 0x0 DUP1 REVERT JUMPDEST DUP3 ADD DUP4 PUSH1 0x20 DUP3 ADD GT ISZERO PUSH2 0x1EF JUMPI PUSH1 0x0 DUP1 REVERT JUMPDEST DUP1 CALLDATALOAD SWAP1 PUSH1 0x20 ADD SWAP2 DUP5 PUSH1 0x1 DUP4 MUL DUP5 ADD GT PUSH5 0x100000000 DUP4 GT OR ISZERO PUSH2 0x211 JUMPI PUSH1 0x0 DUP1 REVERT JUMPDEST SWAP2 SWAP1 DUP1 DUP1 PUSH1 0x1F ADD PUSH1 0x20 DUP1 SWAP2 DIV MUL PUSH1 0x20 ADD PUSH1 0x40 MLOAD SWAP1 DUP2 ADD PUSH1 0x40 MSTORE DUP1 SWAP4 SWAP3 SWAP2 SWAP1 DUP2 DUP2 MSTORE PUSH1 0x20 ADD DUP4 DUP4 DUP1 DUP3 DUP5 CALLDATACOPY PUSH1 0x0 SWAP3 ADD SWAP2 SWAP1 SWAP2 MSTORE POP SWAP3 SWAP6 POP PUSH2 0x593 SWAP5 POP POP POP POP POP JUMP JUMPDEST PUSH1 0x40 DUP1 MLOAD PUSH1 0x1 PUSH1 0x1 PUSH1 0xE0 SHL SUB NOT SWAP1 SWAP3 AND DUP3 MSTORE MLOAD SWAP1 DUP2 SWAP1 SUB PUSH1 0x20 ADD SWAP1 RETURN JUMPDEST CALLVALUE DUP1 ISZERO PUSH2 0x27B JUMPI PUSH1 0x0 DUP1 REVERT JUMPDEST POP PUSH2 0x299 PUSH1 0x4 DUP1 CALLDATASIZE SUB PUSH1 0x20 DUP2 LT ISZERO PUSH2 0x292 JUMPI PUSH1 0x0 DUP1 REVERT JUMPDEST POP CALLDATALOAD PUSH2 0x77E JUMP JUMPDEST STOP JUMPDEST CALLVALUE DUP1 ISZERO PUSH2 0x2A7 JUMPI PUSH1 0x0 DUP1 REVERT JUMPDEST POP PUSH2 0x2B0 PUSH2 0xA0A JUMP JUMPDEST PUSH1 0x40 DUP1 MLOAD PUSH1 0x1 PUSH1 0x1 PUSH1 0xA0 SHL SUB SWAP1 SWAP3 AND DUP3 MSTORE MLOAD SWAP1 DUP2 SWAP1 SUB PUSH1 0x20 ADD SWAP1 RETURN JUMPDEST CALLVALUE DUP1 ISZERO PUSH2 0x2D8 JUMPI PUSH1 0x0 DUP1 REVERT JUMPDEST POP PUSH2 0x143 PUSH1 0x4 DUP1 CALLDATASIZE SUB PUSH1 0x20 DUP2 LT ISZERO PUSH2 0x2EF JUMPI PUSH1 0x0 DUP1 REVERT JUMPDEST POP CALLDATALOAD PUSH2 0xA19 JUMP JUMPDEST CALLVALUE DUP1 ISZERO PUSH2 0x302 JUMPI PUSH1 0x0 DUP1 REVERT JUMPDEST POP PUSH2 0x143 PUSH2 0xA2B JUMP JUMPDEST CALLVALUE DUP1 ISZERO PUSH2 0x317 JUMPI PUSH1 0x0 DUP1 REVERT JUMPDEST POP PUSH2 0x299 PUSH2 0xA37 JUMP JUMPDEST CALLVALUE DUP1 ISZERO PUSH2 0x32C JUMPI PUSH1 0x0 DUP1 REVERT JUMPDEST POP PUSH2 0x143 PUSH2 0xAF5 JUMP JUMPDEST CALLVALUE DUP1 ISZERO PUSH2 0x341 JUMPI PUSH1 0x0 DUP1 REVERT JUMPDEST POP PUSH2 0x2B0 PUSH2 0xAFB JUMP JUMPDEST CALLVALUE DUP1 ISZERO PUSH2 0x356 JUMPI PUSH1 0x0 DUP1 REVERT JUMPDEST POP PUSH2 0x299 PUSH1 0x4 DUP1 CALLDATASIZE SUB PUSH1 0x20 DUP2 LT ISZERO PUSH2 0x36D JUMPI PUSH1 0x0 DUP1 REVERT JUMPDEST POP CALLDATALOAD PUSH2 0xB0A JUMP JUMPDEST CALLVALUE DUP1 ISZERO PUSH2 0x380 JUMPI PUSH1 0x0 DUP1 REVERT JUMPDEST POP PUSH2 0x299 PUSH2 0xC65 JUMP JUMPDEST CALLVALUE DUP1 ISZERO PUSH2 0x395 JUMPI PUSH1 0x0 DUP1 REVERT JUMPDEST POP PUSH2 0x2B0 PUSH1 0x4 DUP1 CALLDATASIZE SUB PUSH1 0x20 DUP2 LT ISZERO PUSH2 0x3AC JUMPI PUSH1 0x0 DUP1 REVERT JUMPDEST POP CALLDATALOAD PUSH2 0xD99 JUMP JUMPDEST CALLVALUE DUP1 ISZERO PUSH2 0x3BF JUMPI PUSH1 0x0 DUP1 REVERT JUMPDEST POP PUSH2 0x143 PUSH2 0xDB4 JUMP JUMPDEST CALLVALUE DUP1 ISZERO PUSH2 0x3D4 JUMPI PUSH1 0x0 DUP1 REVERT JUMPDEST POP PUSH2 0x143 PUSH1 0x4 DUP1 CALLDATASIZE SUB PUSH1 0x20 DUP2 LT ISZERO PUSH2 0x3EB JUMPI PUSH1 0x0 DUP1 REVERT JUMPDEST POP CALLDATALOAD PUSH2 0xF26 JUMP JUMPDEST CALLVALUE DUP1 ISZERO PUSH2 0x3FE JUMPI PUSH1 0x0 DUP1 REVERT JUMPDEST POP PUSH2 0x143 PUSH2 0xF38 JUMP JUMPDEST CALLVALUE DUP1 ISZERO PUSH2 0x413 JUMPI PUSH1 0x0 DUP1 REVERT JUMPDEST POP PUSH2 0x143 PUSH2 0xF3E JUMP JUMPDEST CALLVALUE DUP1 ISZERO PUSH2 0x428 JUMPI PUSH1 0x0 DUP1 REVERT JUMPDEST POP PUSH2 0x299 PUSH1 0x4 DUP1 CALLDATASIZE SUB PUSH1 0x20 DUP2 LT ISZERO PUSH2 0x43F JUMPI PUSH1 0x0 DUP1 REVERT JUMPDEST POP CALLDATALOAD PUSH1 0x1 PUSH1 0x1 PUSH1 0xA0 SHL SUB AND PUSH2 0xF44 JUMP JUMPDEST PUSH1 0x6 DUP2 DUP2 SLOAD DUP2 LT PUSH2 0x45C JUMPI INVALID JUMPDEST PUSH1 0x0 SWAP2 DUP3 MSTORE PUSH1 0x20 SWAP1 SWAP2 KECCAK256 ADD SLOAD SWAP1 POP DUP2 JUMP JUMPDEST PUSH1 0x0 DUP2 DUP2 MSTORE PUSH1 0x3 PUSH1 0x20 SWAP1 DUP2 MSTORE PUSH1 0x40 DUP1 DUP4 KECCAK256 SLOAD PUSH1 0x1 SLOAD DUP3 MLOAD PUSH4 0x2223C5F1 PUSH1 0xE0 SHL DUP2 MSTORE PUSH1 0x4 DUP2 ADD DUP8 SWAP1 MSTORE SWAP3 MLOAD DUP6 SWAP5 TIMESTAMP SWAP5 PUSH1 0x1 PUSH1 0x1 PUSH1 0xA0 SHL SUB SWAP1 SWAP4 AND SWAP3 PUSH4 0x2223C5F1 SWAP3 PUSH1 0x24 DUP1 DUP4 ADD SWAP4 SWAP3 DUP3 SWAP1 SUB ADD DUP2 DUP7 DUP1 EXTCODESIZE ISZERO DUP1 ISZERO PUSH2 0x4C8 JUMPI PUSH1 0x0 DUP1 REVERT JUMPDEST POP GAS STATICCALL ISZERO DUP1 ISZERO PUSH2 0x4DC JUMPI RETURNDATASIZE PUSH1 0x0 DUP1 RETURNDATACOPY RETURNDATASIZE PUSH1 0x0 REVERT JUMPDEST POP POP POP POP PUSH1 0x40 MLOAD RETURNDATASIZE PUSH1 0x20 DUP2 LT ISZERO PUSH2 0x4F2 JUMPI PUSH1 0x0 DUP1 REVERT JUMPDEST POP MLOAD ADD GT ISZERO PUSH2 0x512 JUMPI POP PUSH1 0x0 DUP3 DUP2 MSTORE PUSH1 0x3 PUSH1 0x20 MSTORE PUSH1 0x40 SWAP1 KECCAK256 SLOAD TIMESTAMP SUB PUSH2 0x58D JUMP JUMPDEST PUSH1 0x1 SLOAD PUSH1 0x40 DUP1 MLOAD PUSH4 0x2223C5F1 PUSH1 0xE0 SHL DUP2 MSTORE PUSH1 0x4 DUP2 ADD DUP7 SWAP1 MSTORE SWAP1 MLOAD PUSH1 0x1 PUSH1 0x1 PUSH1 0xA0 SHL SUB SWAP1 SWAP3 AND SWAP2 PUSH4 0x2223C5F1 SWAP2 PUSH1 0x24 DUP1 DUP3 ADD SWAP3 PUSH1 0x20 SWAP3 SWAP1 SWAP2 SWAP1 DUP3 SWAP1 SUB ADD DUP2 DUP7 DUP1 EXTCODESIZE ISZERO DUP1 ISZERO PUSH2 0x55E JUMPI PUSH1 0x0 DUP1 REVERT JUMPDEST POP GAS STATICCALL ISZERO DUP1 ISZERO PUSH2 0x572 JUMPI RETURNDATASIZE PUSH1 0x0 DUP1 RETURNDATACOPY RETURNDATASIZE PUSH1 0x0 REVERT JUMPDEST POP POP POP POP PUSH1 0x40 MLOAD RETURNDATASIZE PUSH1 0x20 DUP2 LT ISZERO PUSH2 0x588 JUMPI PUSH1 0x0 DUP1 REVERT JUMPDEST POP MLOAD SWAP1 POP JUMPDEST SWAP3 SWAP2 POP POP JUMP JUMPDEST PUSH1 0x1 SLOAD PUSH1 0x40 DUP1 MLOAD PUSH4 0xFB1B0F29 PUSH1 0xE0 SHL DUP2 MSTORE PUSH1 0x4 DUP2 ADD DUP6 SWAP1 MSTORE SWAP1 MLOAD PUSH1 0x0 SWAP3 PUSH1 0x1 PUSH1 0x1 PUSH1 0xA0 SHL SUB AND SWAP2 PUSH4 0xFB1B0F29 SWAP2 PUSH1 0x24 DUP1 DUP4 ADD SWAP3 PUSH1 0x20 SWAP3 SWAP2 SWAP1 DUP3 SWAP1 SUB ADD DUP2 DUP7 DUP1 EXTCODESIZE ISZERO DUP1 ISZERO PUSH2 0x5DF JUMPI PUSH1 0x0 DUP1 REVERT JUMPDEST POP GAS STATICCALL ISZERO DUP1 ISZERO PUSH2 0x5F3 JUMPI RETURNDATASIZE PUSH1 0x0 DUP1 RETURNDATACOPY RETURNDATASIZE PUSH1 0x0 REVERT JUMPDEST POP POP POP POP PUSH1 0x40 MLOAD RETURNDATASIZE PUSH1 0x20 DUP2 LT ISZERO PUSH2 0x609 JUMPI PUSH1 0x0 DUP1 REVERT JUMPDEST POP MLOAD ISZERO PUSH2 0x647 JUMPI PUSH1 0x40 MLOAD PUSH3 0x461BCD PUSH1 0xE5 SHL DUP2 MSTORE PUSH1 0x4 ADD DUP1 DUP1 PUSH1 0x20 ADD DUP3 DUP2 SUB DUP3 MSTORE PUSH1 0x25 DUP2 MSTORE PUSH1 0x20 ADD DUP1 PUSH2 0x133B PUSH1 0x25 SWAP2 CODECOPY PUSH1 0x40 ADD SWAP2 POP POP PUSH1 0x40 MLOAD DUP1 SWAP2 SUB SWAP1 REVERT JUMPDEST PUSH1 0x1 SLOAD PUSH1 0x40 DUP1 MLOAD PUSH4 0x2223C5F1 PUSH1 0xE0 SHL DUP2 MSTORE PUSH1 0x4 DUP2 ADD DUP7 SWAP1 MSTORE SWAP1 MLOAD PUSH1 0x0 SWAP3 PUSH1 0x1 PUSH1 0x1 PUSH1 0xA0 SHL SUB AND SWAP2 PUSH4 0x2223C5F1 SWAP2 PUSH1 0x24 DUP1 DUP4 ADD SWAP3 PUSH1 0x20 SWAP3 SWAP2 SWAP1 DUP3 SWAP1 SUB ADD DUP2 DUP7 DUP1 EXTCODESIZE ISZERO DUP1 ISZERO PUSH2 0x693 JUMPI PUSH1 0x0 DUP1 REVERT JUMPDEST POP GAS STATICCALL ISZERO DUP1 ISZERO PUSH2 0x6A7 JUMPI RETURNDATASIZE PUSH1 0x0 DUP1 RETURNDATACOPY RETURNDATASIZE PUSH1 0x0 REVERT JUMPDEST POP POP POP POP PUSH1 0x40 MLOAD RETURNDATASIZE PUSH1 0x20 DUP2 LT ISZERO PUSH2 0x6BD JUMPI PUSH1 0x0 DUP1 REVERT JUMPDEST POP MLOAD GT PUSH2 0x706 JUMPI PUSH1 0x40 DUP1 MLOAD PUSH3 0x461BCD PUSH1 0xE5 SHL DUP2 MSTORE PUSH1 0x20 PUSH1 0x4 DUP3 ADD MSTORE PUSH1 0x12 PUSH1 0x24 DUP3 ADD MSTORE PUSH18 0x2737BA1032B737BAB3B41032B732B933BC97 PUSH1 0x71 SHL PUSH1 0x44 DUP3 ADD MSTORE SWAP1 MLOAD SWAP1 DUP2 SWAP1 SUB PUSH1 0x64 ADD SWAP1 REVERT JUMPDEST POP PUSH1 0x0 DUP3 DUP2 MSTORE PUSH1 0x3 PUSH1 0x20 SWAP1 DUP2 MSTORE PUSH1 0x40 DUP1 DUP4 KECCAK256 TIMESTAMP SWAP1 SSTORE PUSH1 0x2 SWAP1 SWAP2 MSTORE DUP2 KECCAK256 DUP1 SLOAD PUSH1 0x1 PUSH1 0x1 PUSH1 0xA0 SHL SUB DUP7 AND PUSH1 0x1 PUSH1 0x1 PUSH1 0xA0 SHL SUB NOT SWAP1 SWAP2 AND OR SWAP1 SSTORE PUSH1 0x6 DUP1 SLOAD PUSH1 0x1 DUP2 ADD DUP3 SSTORE SWAP2 MSTORE PUSH32 0xF652222313E28459528D920B65115C16C04F3EFC82AAEDC97BE59F3F377C0D3F ADD DUP3 SWAP1 SSTORE PUSH4 0xA85BD01 PUSH1 0xE1 SHL SWAP5 SWAP4 POP POP POP POP JUMP JUMPDEST PUSH1 0x0 DUP2 DUP2 MSTORE PUSH1 0x2 PUSH1 0x20 MSTORE PUSH1 0x40 SWAP1 KECCAK256 SLOAD PUSH1 0x1 PUSH1 0x1 PUSH1 0xA0 SHL SUB AND CALLER EQ PUSH2 0x7D6 JUMPI PUSH1 0x40 DUP1 MLOAD PUSH3 0x461BCD PUSH1 0xE5 SHL DUP2 MSTORE PUSH1 0x20 PUSH1 0x4 DUP3 ADD MSTORE PUSH1 0xA PUSH1 0x24 DUP3 ADD MSTORE PUSH10 0x2737BA1037BBB732B917 PUSH1 0xB1 SHL PUSH1 0x44 DUP3 ADD MSTORE SWAP1 MLOAD SWAP1 DUP2 SWAP1 SUB PUSH1 0x64 ADD SWAP1 REVERT JUMPDEST PUSH1 0x9 SLOAD PUSH1 0x0 DUP3 DUP2 MSTORE PUSH1 0x3 PUSH1 0x20 MSTORE PUSH1 0x40 SWAP1 KECCAK256 SLOAD TIMESTAMP SWAP2 ADD GT PUSH2 0x83D JUMPI PUSH1 0x40 DUP1 MLOAD PUSH3 0x461BCD PUSH1 0xE5 SHL DUP2 MSTORE PUSH1 0x20 PUSH1 0x4 DUP3 ADD MSTORE PUSH1 0x1F PUSH1 0x24 DUP3 ADD MSTORE PUSH32 0x4D696E696D756D207374616B696E6720706572696F64206E6F74206D65742E00 PUSH1 0x44 DUP3 ADD MSTORE SWAP1 MLOAD SWAP1 DUP2 SWAP1 SUB PUSH1 0x64 ADD SWAP1 REVERT JUMPDEST PUSH2 0x846 DUP2 PUSH2 0xB0A JUMP JUMPDEST PUSH1 0x1 SLOAD PUSH1 0x0 DUP3 DUP2 MSTORE PUSH1 0x2 PUSH1 0x20 MSTORE PUSH1 0x40 DUP1 DUP3 KECCAK256 SLOAD DUP2 MLOAD PUSH4 0x95EA7B3 PUSH1 0xE0 SHL DUP2 MSTORE PUSH1 0x1 PUSH1 0x1 PUSH1 0xA0 SHL SUB SWAP2 DUP3 AND PUSH1 0x4 DUP3 ADD MSTORE PUSH1 0x24 DUP2 ADD DUP7 SWAP1 MSTORE SWAP2 MLOAD SWAP4 AND SWAP3 PUSH4 0x95EA7B3 SWAP3 PUSH1 0x44 DUP1 DUP5 ADD SWAP4 SWAP2 SWAP3 SWAP2 DUP3 SWAP1 SUB ADD DUP2 DUP4 DUP8 DUP1 EXTCODESIZE ISZERO DUP1 ISZERO PUSH2 0x8A5 JUMPI PUSH1 0x0 DUP1 REVERT JUMPDEST POP GAS CALL ISZERO DUP1 ISZERO PUSH2 0x8B9 JUMPI RETURNDATASIZE PUSH1 0x0 DUP1 RETURNDATACOPY RETURNDATASIZE PUSH1 0x0 REVERT JUMPDEST POP POP PUSH1 0x1 SLOAD PUSH1 0x0 DUP5 DUP2 MSTORE PUSH1 0x2 PUSH1 0x20 MSTORE PUSH1 0x40 DUP1 DUP3 KECCAK256 SLOAD DUP2 MLOAD PUSH4 0x5C46A7EF PUSH1 0xE1 SHL DUP2 MSTORE ADDRESS PUSH1 0x4 DUP3 ADD MSTORE PUSH1 0x1 PUSH1 0x1 PUSH1 0xA0 SHL SUB SWAP2 DUP3 AND PUSH1 0x24 DUP3 ADD MSTORE PUSH1 0x44 DUP2 ADD DUP9 SWAP1 MSTORE PUSH1 0x80 PUSH1 0x64 DUP3 ADD MSTORE PUSH1 0x84 DUP2 ADD DUP5 SWAP1 MSTORE SWAP2 MLOAD SWAP4 AND SWAP5 POP PUSH4 0xB88D4FDE SWAP4 POP PUSH1 0xC4 DUP1 DUP3 ADD SWAP4 SWAP2 DUP3 SWAP1 SUB ADD DUP2 DUP4 DUP8 DUP1 EXTCODESIZE ISZERO DUP1 ISZERO PUSH2 0x92E JUMPI PUSH1 0x0 DUP1 REVERT JUMPDEST POP GAS CALL ISZERO DUP1 ISZERO PUSH2 0x942 JUMPI RETURNDATASIZE PUSH1 0x0 DUP1 RETURNDATACOPY RETURNDATASIZE PUSH1 0x0 REVERT JUMPDEST POP POP POP POP PUSH1 0x0 JUMPDEST PUSH1 0x6 SLOAD DUP2 LT ISZERO PUSH2 0x9D6 JUMPI DUP2 PUSH1 0x6 DUP3 DUP2 SLOAD DUP2 LT PUSH2 0x961 JUMPI INVALID JUMPDEST SWAP1 PUSH1 0x0 MSTORE PUSH1 0x20 PUSH1 0x0 KECCAK256 ADD SLOAD EQ ISZERO PUSH2 0x9CE JUMPI PUSH1 0x6 DUP1 SLOAD PUSH1 0x0 NOT DUP2 ADD SWAP1 DUP2 LT PUSH2 0x984 JUMPI INVALID JUMPDEST SWAP1 PUSH1 0x0 MSTORE PUSH1 0x20 PUSH1 0x0 KECCAK256 ADD SLOAD PUSH1 0x6 DUP3 DUP2 SLOAD DUP2 LT PUSH2 0x99C JUMPI INVALID JUMPDEST PUSH1 0x0 SWAP2 DUP3 MSTORE PUSH1 0x20 SWAP1 SWAP2 KECCAK256 ADD SSTORE PUSH1 0x6 DUP1 SLOAD DUP1 PUSH2 0x9B3 JUMPI INVALID JUMPDEST PUSH1 0x1 SWAP1 SUB DUP2 DUP2 SWAP1 PUSH1 0x0 MSTORE PUSH1 0x20 PUSH1 0x0 KECCAK256 ADD PUSH1 0x0 SWAP1 SSTORE SWAP1 SSTORE PUSH2 0x9D6 JUMP JUMPDEST PUSH1 0x1 ADD PUSH2 0x949 JUMP JUMPDEST POP PUSH1 0x0 SWAP1 DUP2 MSTORE PUSH1 0x2 PUSH1 0x20 SWAP1 DUP2 MSTORE PUSH1 0x40 DUP1 DUP4 KECCAK256 DUP1 SLOAD PUSH1 0x1 PUSH1 0x1 PUSH1 0xA0 SHL SUB NOT AND SWAP1 SSTORE PUSH1 0x3 DUP3 MSTORE DUP1 DUP4 KECCAK256 DUP4 SWAP1 SSTORE PUSH1 0x4 SWAP1 SWAP2 MSTORE DUP2 KECCAK256 SSTORE JUMP JUMPDEST PUSH1 0x1 SLOAD PUSH1 0x1 PUSH1 0x1 PUSH1 0xA0 SHL SUB AND DUP2 JUMP JUMPDEST PUSH1 0x3 PUSH1 0x20 MSTORE PUSH1 0x0 SWAP1 DUP2 MSTORE PUSH1 0x40 SWAP1 KECCAK256 SLOAD DUP2 JUMP JUMPDEST PUSH1 0x8 SLOAD PUSH1 0x7 SLOAD SELFBALANCE SUB SUB SWAP1 JUMP JUMPDEST PUSH2 0xA3F PUSH2 0x1058 JUMP JUMPDEST PUSH1 0x1 PUSH1 0x1 PUSH1 0xA0 SHL SUB AND PUSH2 0xA50 PUSH2 0xAFB JUMP JUMPDEST PUSH1 0x1 PUSH1 0x1 PUSH1 0xA0 SHL SUB AND EQ PUSH2 0xAAB JUMPI PUSH1 0x40 DUP1 MLOAD PUSH3 0x461BCD PUSH1 0xE5 SHL DUP2 MSTORE PUSH1 0x20 PUSH1 0x4 DUP3 ADD DUP2 SWAP1 MSTORE PUSH1 0x24 DUP3 ADD MSTORE PUSH32 0x4F776E61626C653A2063616C6C6572206973206E6F7420746865206F776E6572 PUSH1 0x44 DUP3 ADD MSTORE SWAP1 MLOAD SWAP1 DUP2 SWAP1 SUB PUSH1 0x64 ADD SWAP1 REVERT JUMPDEST PUSH1 0x0 DUP1 SLOAD PUSH1 0x40 MLOAD PUSH1 0x1 PUSH1 0x1 PUSH1 0xA0 SHL SUB SWAP1 SWAP2 AND SWAP1 PUSH32 0x8BE0079C531659141344CD1FD0A4F28419497F9722A3DAAFE3B4186F6B6457E0 SWAP1 DUP4 SWAP1 LOG3 PUSH1 0x0 DUP1 SLOAD PUSH1 0x1 PUSH1 0x1 PUSH1 0xA0 SHL SUB NOT AND SWAP1 SSTORE JUMP JUMPDEST PUSH1 0x8 SLOAD DUP2 JUMP JUMPDEST PUSH1 0x0 SLOAD PUSH1 0x1 PUSH1 0x1 PUSH1 0xA0 SHL SUB AND SWAP1 JUMP JUMPDEST PUSH1 0x0 DUP2 DUP2 MSTORE PUSH1 0x2 PUSH1 0x20 MSTORE PUSH1 0x40 SWAP1 KECCAK256 SLOAD PUSH1 0x1 PUSH1 0x1 PUSH1 0xA0 SHL SUB AND CALLER EQ PUSH2 0xB62 JUMPI PUSH1 0x40 DUP1 MLOAD PUSH3 0x461BCD PUSH1 0xE5 SHL DUP2 MSTORE PUSH1 0x20 PUSH1 0x4 DUP3 ADD MSTORE PUSH1 0xA PUSH1 0x24 DUP3 ADD MSTORE PUSH10 0x2737BA1037BBB732B917 PUSH1 0xB1 SHL PUSH1 0x44 DUP3 ADD MSTORE SWAP1 MLOAD SWAP1 DUP2 SWAP1 SUB PUSH1 0x64 ADD SWAP1 REVERT JUMPDEST PUSH2 0xB6B DUP2 PUSH2 0x105C JUMP JUMPDEST PUSH1 0x0 DUP2 DUP2 MSTORE PUSH1 0x4 PUSH1 0x20 SWAP1 DUP2 MSTORE PUSH1 0x40 DUP1 DUP4 KECCAK256 DUP1 SLOAD PUSH1 0x7 DUP1 SLOAD SWAP2 SWAP1 SWAP2 SUB SWAP1 SSTORE DUP1 SLOAD SWAP1 DUP5 SWAP1 SSTORE PUSH1 0x2 SWAP1 SWAP3 MSTORE DUP1 DUP4 KECCAK256 SLOAD DUP2 MLOAD PUSH32 0x52656C656173696E67207265776172647320746F204E4654206F776E65722E00 DUP2 MSTORE SWAP2 MLOAD SWAP3 SWAP4 SWAP3 PUSH1 0x1 PUSH1 0x1 PUSH1 0xA0 SHL SUB SWAP1 SWAP2 AND SWAP2 DUP5 SWAP2 PUSH1 0x1F DUP1 DUP4 ADD SWAP3 DUP7 SWAP3 SWAP2 SWAP1 DUP3 SWAP1 SUB ADD DUP2 DUP6 DUP8 GAS CALL SWAP3 POP POP POP RETURNDATASIZE DUP1 PUSH1 0x0 DUP2 EQ PUSH2 0xC12 JUMPI PUSH1 0x40 MLOAD SWAP2 POP PUSH1 0x1F NOT PUSH1 0x3F RETURNDATASIZE ADD AND DUP3 ADD PUSH1 0x40 MSTORE RETURNDATASIZE DUP3 MSTORE RETURNDATASIZE PUSH1 0x0 PUSH1 0x20 DUP5 ADD RETURNDATACOPY PUSH2 0xC17 JUMP JUMPDEST PUSH1 0x60 SWAP2 POP JUMPDEST POP POP SWAP1 POP DUP1 PUSH2 0xC60 JUMPI PUSH1 0x40 DUP1 MLOAD PUSH3 0x461BCD PUSH1 0xE5 SHL DUP2 MSTORE PUSH1 0x20 PUSH1 0x4 DUP3 ADD MSTORE PUSH1 0x10 PUSH1 0x24 DUP3 ADD MSTORE PUSH16 0x2A3930B739B332B9103330B4B632B217 PUSH1 0x81 SHL PUSH1 0x44 DUP3 ADD MSTORE SWAP1 MLOAD SWAP1 DUP2 SWAP1 SUB PUSH1 0x64 ADD SWAP1 REVERT JUMPDEST POP POP POP JUMP JUMPDEST PUSH2 0xC6D PUSH2 0xAFB JUMP JUMPDEST PUSH1 0x1 PUSH1 0x1 PUSH1 0xA0 SHL SUB AND CALLER PUSH1 0x1 PUSH1 0x1 PUSH1 0xA0 SHL SUB AND EQ PUSH2 0xCBF JUMPI PUSH1 0x40 DUP1 MLOAD PUSH3 0x461BCD PUSH1 0xE5 SHL DUP2 MSTORE PUSH1 0x20 PUSH1 0x4 DUP3 ADD MSTORE PUSH1 0xA PUSH1 0x24 DUP3 ADD MSTORE PUSH10 0x2737BA1037BBB732B917 PUSH1 0xB1 SHL PUSH1 0x44 DUP3 ADD MSTORE SWAP1 MLOAD SWAP1 DUP2 SWAP1 SUB PUSH1 0x64 ADD SWAP1 REVERT JUMPDEST PUSH1 0x8 DUP1 SLOAD PUSH1 0x0 SWAP2 DUP3 SWAP1 SSTORE SWAP1 PUSH2 0xCD2 PUSH2 0xAFB JUMP JUMPDEST PUSH1 0x1 PUSH1 0x1 PUSH1 0xA0 SHL SUB AND DUP3 PUSH1 0x40 MLOAD DUP1 DUP1 PUSH32 0x52656C656173696E67207265776172647320746F206F776E65722E0000000000 DUP2 MSTORE POP PUSH1 0x1B ADD SWAP1 POP PUSH1 0x0 PUSH1 0x40 MLOAD DUP1 DUP4 SUB DUP2 DUP6 DUP8 GAS CALL SWAP3 POP POP POP RETURNDATASIZE DUP1 PUSH1 0x0 DUP2 EQ PUSH2 0xD47 JUMPI PUSH1 0x40 MLOAD SWAP2 POP PUSH1 0x1F NOT PUSH1 0x3F RETURNDATASIZE ADD AND DUP3 ADD PUSH1 0x40 MSTORE RETURNDATASIZE DUP3 MSTORE RETURNDATASIZE PUSH1 0x0 PUSH1 0x20 DUP5 ADD RETURNDATACOPY PUSH2 0xD4C JUMP JUMPDEST PUSH1 0x60 SWAP2 POP JUMPDEST POP POP SWAP1 POP DUP1 PUSH2 0xD95 JUMPI PUSH1 0x40 DUP1 MLOAD PUSH3 0x461BCD PUSH1 0xE5 SHL DUP2 MSTORE PUSH1 0x20 PUSH1 0x4 DUP3 ADD MSTORE PUSH1 0x10 PUSH1 0x24 DUP3 ADD MSTORE PUSH16 0x2A3930B739B332B9103330B4B632B217 PUSH1 0x81 SHL PUSH1 0x44 DUP3 ADD MSTORE SWAP1 MLOAD SWAP1 DUP2 SWAP1 SUB PUSH1 0x64 ADD SWAP1 REVERT JUMPDEST POP POP JUMP JUMPDEST PUSH1 0x2 PUSH1 0x20 MSTORE PUSH1 0x0 SWAP1 DUP2 MSTORE PUSH1 0x40 SWAP1 KECCAK256 SLOAD PUSH1 0x1 PUSH1 0x1 PUSH1 0xA0 SHL SUB AND DUP2 JUMP JUMPDEST PUSH1 0x0 DUP1 DUP1 JUMPDEST PUSH1 0x6 SLOAD DUP2 LT ISZERO PUSH2 0xF10 JUMPI PUSH1 0x0 PUSH1 0x6 DUP3 DUP2 SLOAD DUP2 LT PUSH2 0xDD2 JUMPI INVALID JUMPDEST PUSH1 0x0 SWAP2 DUP3 MSTORE PUSH1 0x20 DUP1 DUP4 KECCAK256 SWAP1 SWAP2 ADD SLOAD DUP1 DUP4 MSTORE PUSH1 0x3 DUP3 MSTORE PUSH1 0x40 SWAP3 DUP4 SWAP1 KECCAK256 SLOAD PUSH1 0x1 SLOAD DUP5 MLOAD PUSH4 0x2223C5F1 PUSH1 0xE0 SHL DUP2 MSTORE PUSH1 0x4 DUP2 ADD DUP5 SWAP1 MSTORE SWAP5 MLOAD SWAP3 SWAP6 POP TIMESTAMP SWAP5 SWAP2 SWAP4 PUSH1 0x1 PUSH1 0x1 PUSH1 0xA0 SHL SUB SWAP1 SWAP2 AND SWAP3 PUSH4 0x2223C5F1 SWAP3 PUSH1 0x24 DUP1 DUP3 ADD SWAP4 SWAP3 SWAP2 DUP3 SWAP1 SUB ADD DUP2 DUP7 DUP1 EXTCODESIZE ISZERO DUP1 ISZERO PUSH2 0xE3B JUMPI PUSH1 0x0 DUP1 REVERT JUMPDEST POP GAS STATICCALL ISZERO DUP1 ISZERO PUSH2 0xE4F JUMPI RETURNDATASIZE PUSH1 0x0 DUP1 RETURNDATACOPY RETURNDATASIZE PUSH1 0x0 REVERT JUMPDEST POP POP POP POP PUSH1 0x40 MLOAD RETURNDATASIZE PUSH1 0x20 DUP2 LT ISZERO PUSH2 0xE65 JUMPI PUSH1 0x0 DUP1 REVERT JUMPDEST POP MLOAD ADD GT ISZERO PUSH2 0xE89 JUMPI PUSH1 0x0 DUP2 DUP2 MSTORE PUSH1 0x3 PUSH1 0x20 MSTORE PUSH1 0x40 SWAP1 KECCAK256 SLOAD TIMESTAMP SUB SWAP3 SWAP1 SWAP3 ADD SWAP2 PUSH2 0xF07 JUMP JUMPDEST PUSH1 0x1 SLOAD PUSH1 0x40 DUP1 MLOAD PUSH4 0x2223C5F1 PUSH1 0xE0 SHL DUP2 MSTORE PUSH1 0x4 DUP2 ADD DUP5 SWAP1 MSTORE SWAP1 MLOAD PUSH1 0x1 PUSH1 0x1 PUSH1 0xA0 SHL SUB SWAP1 SWAP3 AND SWAP2 PUSH4 0x2223C5F1 SWAP2 PUSH1 0x24 DUP1 DUP3 ADD SWAP3 PUSH1 0x20 SWAP3 SWAP1 SWAP2 SWAP1 DUP3 SWAP1 SUB ADD DUP2 DUP7 DUP1 EXTCODESIZE ISZERO DUP1 ISZERO PUSH2 0xED5 JUMPI PUSH1 0x0 DUP1 REVERT JUMPDEST POP GAS STATICCALL ISZERO DUP1 ISZERO PUSH2 0xEE9 JUMPI RETURNDATASIZE PUSH1 0x0 DUP1 RETURNDATACOPY RETURNDATASIZE PUSH1 0x0 REVERT JUMPDEST POP POP POP POP PUSH1 0x40 MLOAD RETURNDATASIZE PUSH1 0x20 DUP2 LT ISZERO PUSH2 0xEFF JUMPI PUSH1 0x0 DUP1 REVERT JUMPDEST POP MLOAD SWAP3 SWAP1 SWAP3 ADD SWAP2 JUMPDEST POP PUSH1 0x1 ADD PUSH2 0xDB9 JUMP JUMPDEST POP DUP1 ISZERO PUSH2 0xF1D JUMPI DUP1 PUSH2 0xF20 JUMP JUMPDEST PUSH1 0x1 JUMPDEST SWAP2 POP POP SWAP1 JUMP JUMPDEST PUSH1 0x4 PUSH1 0x20 MSTORE PUSH1 0x0 SWAP1 DUP2 MSTORE PUSH1 0x40 SWAP1 KECCAK256 SLOAD DUP2 JUMP JUMPDEST PUSH1 0x5 SLOAD DUP2 JUMP JUMPDEST PUSH1 0x7 SLOAD DUP2 JUMP JUMPDEST PUSH2 0xF4C PUSH2 0x1058 JUMP JUMPDEST PUSH1 0x1 PUSH1 0x1 PUSH1 0xA0 SHL SUB AND PUSH2 0xF5D PUSH2 0xAFB JUMP JUMPDEST PUSH1 0x1 PUSH1 0x1 PUSH1 0xA0 SHL SUB AND EQ PUSH2 0xFB8 JUMPI PUSH1 0x40 DUP1 MLOAD PUSH3 0x461BCD PUSH1 0xE5 SHL DUP2 MSTORE PUSH1 0x20 PUSH1 0x4 DUP3 ADD DUP2 SWAP1 MSTORE PUSH1 0x24 DUP3 ADD MSTORE PUSH32 0x4F776E61626C653A2063616C6C6572206973206E6F7420746865206F776E6572 PUSH1 0x44 DUP3 ADD MSTORE SWAP1 MLOAD SWAP1 DUP2 SWAP1 SUB PUSH1 0x64 ADD SWAP1 REVERT JUMPDEST PUSH1 0x1 PUSH1 0x1 PUSH1 0xA0 SHL SUB DUP2 AND PUSH2 0xFFD JUMPI PUSH1 0x40 MLOAD PUSH3 0x461BCD PUSH1 0xE5 SHL DUP2 MSTORE PUSH1 0x4 ADD DUP1 DUP1 PUSH1 0x20 ADD DUP3 DUP2 SUB DUP3 MSTORE PUSH1 0x26 DUP2 MSTORE PUSH1 0x20 ADD DUP1 PUSH2 0x1315 PUSH1 0x26 SWAP2 CODECOPY PUSH1 0x40 ADD SWAP2 POP POP PUSH1 0x40 MLOAD DUP1 SWAP2 SUB SWAP1 REVERT JUMPDEST PUSH1 0x0 DUP1 SLOAD PUSH1 0x40 MLOAD PUSH1 0x1 PUSH1 0x1 PUSH1 0xA0 SHL SUB DUP1 DUP6 AND SWAP4 SWAP3 AND SWAP2 PUSH32 0x8BE0079C531659141344CD1FD0A4F28419497F9722A3DAAFE3B4186F6B6457E0 SWAP2 LOG3 PUSH1 0x0 DUP1 SLOAD PUSH1 0x1 PUSH1 0x1 PUSH1 0xA0 SHL SUB NOT AND PUSH1 0x1 PUSH1 0x1 PUSH1 0xA0 SHL SUB SWAP3 SWAP1 SWAP3 AND SWAP2 SWAP1 SWAP2 OR SWAP1 SSTORE JUMP JUMPDEST CALLER SWAP1 JUMP JUMPDEST PUSH1 0x0 PUSH2 0x1066 PUSH2 0xDB4 JUMP JUMPDEST PUSH2 0x106F DUP4 PUSH2 0x46D JUMP JUMPDEST PUSH2 0x1077 PUSH2 0xA2B JUMP JUMPDEST MUL DUP2 PUSH2 0x107F JUMPI INVALID JUMPDEST PUSH1 0x0 DUP5 DUP2 MSTORE PUSH1 0x4 PUSH1 0x20 SWAP1 DUP2 MSTORE PUSH1 0x40 DUP1 DUP4 KECCAK256 DUP1 SLOAD SWAP6 SWAP1 SWAP5 DIV SWAP5 DUP6 ADD SWAP1 SWAP4 SSTORE PUSH1 0x7 DUP1 SLOAD DUP6 ADD SWAP1 SSTORE PUSH1 0x3 SWAP1 MSTORE KECCAK256 SLOAD PUSH1 0x1 SLOAD PUSH1 0x6 DUP1 SLOAD SWAP4 SWAP5 POP TIMESTAMP SWAP4 PUSH1 0x1 PUSH1 0x1 PUSH1 0xA0 SHL SUB SWAP1 SWAP3 AND SWAP2 PUSH4 0x2223C5F1 SWAP2 SWAP1 DUP8 SWAP1 DUP2 LT PUSH2 0x10D3 JUMPI INVALID JUMPDEST SWAP1 PUSH1 0x0 MSTORE PUSH1 0x20 PUSH1 0x0 KECCAK256 ADD SLOAD PUSH1 0x40 MLOAD DUP3 PUSH4 0xFFFFFFFF AND PUSH1 0xE0 SHL DUP2 MSTORE PUSH1 0x4 ADD DUP1 DUP3 DUP2 MSTORE PUSH1 0x20 ADD SWAP2 POP POP PUSH1 0x20 PUSH1 0x40 MLOAD DUP1 DUP4 SUB DUP2 DUP7 DUP1 EXTCODESIZE ISZERO DUP1 ISZERO PUSH2 0x1112 JUMPI PUSH1 0x0 DUP1 REVERT JUMPDEST POP GAS STATICCALL ISZERO DUP1 ISZERO PUSH2 0x1126 JUMPI RETURNDATASIZE PUSH1 0x0 DUP1 RETURNDATACOPY RETURNDATASIZE PUSH1 0x0 REVERT JUMPDEST POP POP POP POP PUSH1 0x40 MLOAD RETURNDATASIZE PUSH1 0x20 DUP2 LT ISZERO PUSH2 0x113C JUMPI PUSH1 0x0 DUP1 REVERT JUMPDEST POP MLOAD ADD LT ISZERO PUSH2 0x120E JUMPI PUSH1 0x1 SLOAD PUSH1 0x40 DUP1 MLOAD PUSH4 0x570A9F1F PUSH1 0xE1 SHL DUP2 MSTORE PUSH1 0x4 DUP2 ADD DUP6 SWAP1 MSTORE PUSH1 0x0 PUSH1 0x24 DUP3 ADD DUP2 SWAP1 MSTORE SWAP2 MLOAD PUSH1 0x1 PUSH1 0x1 PUSH1 0xA0 SHL SUB SWAP1 SWAP4 AND SWAP3 PUSH4 0xAE153E3E SWAP3 PUSH1 0x44 DUP1 DUP5 ADD SWAP4 SWAP2 SWAP3 SWAP2 DUP3 SWAP1 SUB ADD DUP2 DUP4 DUP8 DUP1 EXTCODESIZE ISZERO DUP1 ISZERO PUSH2 0x1198 JUMPI PUSH1 0x0 DUP1 REVERT JUMPDEST POP GAS CALL ISZERO DUP1 ISZERO PUSH2 0x11AC JUMPI RETURNDATASIZE PUSH1 0x0 DUP1 RETURNDATACOPY RETURNDATASIZE PUSH1 0x0 REVERT JUMPDEST POP POP PUSH1 0x6 DUP1 SLOAD SWAP1 SWAP3 POP PUSH1 0x0 NOT DUP2 ADD SWAP2 POP DUP2 LT PUSH2 0x11C4 JUMPI INVALID JUMPDEST SWAP1 PUSH1 0x0 MSTORE PUSH1 0x20 PUSH1 0x0 KECCAK256 ADD SLOAD PUSH1 0x6 DUP4 DUP2 SLOAD DUP2 LT PUSH2 0x11DC JUMPI INVALID JUMPDEST PUSH1 0x0 SWAP2 DUP3 MSTORE PUSH1 0x20 SWAP1 SWAP2 KECCAK256 ADD SSTORE PUSH1 0x6 DUP1 SLOAD DUP1 PUSH2 0x11F3 JUMPI INVALID JUMPDEST PUSH1 0x1 SWAP1 SUB DUP2 DUP2 SWAP1 PUSH1 0x0 MSTORE PUSH1 0x20 PUSH1 0x0 KECCAK256 ADD PUSH1 0x0 SWAP1 SSTORE SWAP1 SSTORE PUSH2 0xD95 JUMP JUMPDEST PUSH1 0x0 DUP3 DUP2 MSTORE PUSH1 0x3 PUSH1 0x20 MSTORE PUSH1 0x40 SWAP1 KECCAK256 TIMESTAMP SWAP1 SSTORE PUSH1 0x1 SLOAD PUSH1 0x1 PUSH1 0x1 PUSH1 0xA0 SHL SUB AND PUSH4 0xAE153E3E DUP4 PUSH2 0x123A DUP2 PUSH2 0x46D JUMP JUMPDEST PUSH1 0x1 SLOAD PUSH1 0x40 DUP1 MLOAD PUSH4 0x2223C5F1 PUSH1 0xE0 SHL DUP2 MSTORE PUSH1 0x4 DUP2 ADD DUP10 SWAP1 MSTORE SWAP1 MLOAD PUSH1 0x1 PUSH1 0x1 PUSH1 0xA0 SHL SUB SWAP1 SWAP3 AND SWAP2 PUSH4 0x2223C5F1 SWAP2 PUSH1 0x24 DUP1 DUP3 ADD SWAP3 PUSH1 0x20 SWAP3 SWAP1 SWAP2 SWAP1 DUP3 SWAP1 SUB ADD DUP2 DUP7 DUP1 EXTCODESIZE ISZERO DUP1 ISZERO PUSH2 0x1286 JUMPI PUSH1 0x0 DUP1 REVERT JUMPDEST POP GAS STATICCALL ISZERO DUP1 ISZERO PUSH2 0x129A JUMPI RETURNDATASIZE PUSH1 0x0 DUP1 RETURNDATACOPY RETURNDATASIZE PUSH1 0x0 REVERT JUMPDEST POP POP POP POP PUSH1 0x40 MLOAD RETURNDATASIZE PUSH1 0x20 DUP2 LT ISZERO PUSH2 0x12B0 JUMPI PUSH1 0x0 DUP1 REVERT JUMPDEST POP MLOAD PUSH1 0x40 DUP1 MLOAD PUSH1 0x1 PUSH1 0x1 PUSH1 0xE0 SHL SUB NOT PUSH1 0xE0 DUP8 SWAP1 SHL AND DUP2 MSTORE PUSH1 0x4 DUP2 ADD SWAP5 SWAP1 SWAP5 MSTORE SWAP2 SWAP1 SUB PUSH1 0x24 DUP4 ADD MSTORE MLOAD PUSH1 0x44 DUP1 DUP4 ADD SWAP3 PUSH1 0x0 SWAP3 SWAP2 SWAP1 DUP3 SWAP1 SUB ADD DUP2 DUP4 DUP8 DUP1 EXTCODESIZE ISZERO DUP1 ISZERO PUSH2 0x12F8 JUMPI PUSH1 0x0 DUP1 REVERT JUMPDEST POP GAS CALL ISZERO DUP1 ISZERO PUSH2 0x130C JUMPI RETURNDATASIZE PUSH1 0x0 DUP1 RETURNDATACOPY RETURNDATASIZE PUSH1 0x0 REVERT JUMPDEST POP POP POP POP POP POP JUMP INVALID 0x4F PUSH24 0x6E61626C653A206E6577206F776E65722069732074686520 PUSH27 0x65726F206164647265737343616E2774207374616B65207768696C PUSH6 0x207761697469 PUSH15 0x6720746F20627579206469702EA264 PUSH10 0x706673582212205F02BA STATICCALL 0xB1 ORIGIN 0x4B 0xB9 PUSH6 0xA7D65C8E7352 PUSH15 0x5E61C16F18E0124DA43D3E06EB3D00 DUP8 PUSH5 0x736F6C6343 STOP MOD 0xC STOP CALLER ",
  "sha1": "f47d3c177206e89a0f9f81e1271528a12968d667",
  "source": "pragma solidity ^0.6.12;\n//pragma solidity >= 0.4.22 <0.9.0;\n\nimport \"@openzeppelin/contracts/token/ERC721/ERC721.sol\";\nimport \"@chainlink/contracts/src/v0.6/VRFConsumerBase.sol\";\nimport \"@chainlink/contracts/src/v0.6/interfaces/AggregatorV3Interface.sol\";\nimport \"contracts/helpers/console.sol\";\nimport \"@chainlink/contracts/src/v0.6/interfaces/KeeperCompatibleInterface.sol\";\nimport \"@openzeppelin/contracts/access/Ownable.sol\";\n//import \"@openzeppelin/contracts/Base64.sol\";\nimport \"contracts/helpers/Base64.sol\";\nimport \"interfaces/IUniswapV2Router02.sol\";\nimport \"interfaces/IUniswapV2Pair.sol\";\nimport \"interfaces/IUniswapV2Factory.sol\";\nimport \"interfaces/IERC20.sol\";\n\n\n// Objectives:\n// X //    Mint a token that will purchase dip when BNB goes down to some value\n// X //    Look up best way to sort? on blockchain--algorithm efficiency\n// X //    Purchase stablecoin\n//    Loan stablecoin\n//    Redeem stablecoin\n// X //    Purchase BNB\n// X //    Upgrade NFT to new graphic\n//    Stake NFT to earn time-limited rewards\n\n\nlibrary UniswapHelpers {\n\n    function _swapExactTokensForETH(uint256 tokenAmount, address tokenContractAddress, address to, IUniswapV2Router02 _router, uint256 _swapSlippage) internal  returns (uint256, uint256){\n\n        address[] memory path = new address[](2);\n        path[0] = tokenContractAddress; //address(0x3B00Ef435fA4FcFF5C209a37d1f3dcff37c705aD); // USDT Rinkeby\n        path[1] = _router.WETH();\n\n//        uint256 minTokensToReceive; // Local scope for many variables\n//        {\n//            IUniswapV2Factory _UFactory = IUniswapV2Factory(_router.factory());\n//            address _tokenPair = _UFactory.getPair(_router.WETH(), tokenContractAddress);\n//            (uint256 Res0, uint256 Res1,) = IUniswapV2Pair(_tokenPair).getReserves();\n//            require(Res1!=0, \"No tokens in Res1\");\n//            uint256 ETHPricePerBabyDoge =  (10**18)*Res1/Res0;\n//            require(ETHPricePerBabyDoge!=0, \"ETHPricePerBabyDoge equals zero.\"); // why? Not dividing by zero anyore\n//            minTokensToReceive = tokenAmount * (10000 - _swapSlippage);\n//            minTokensToReceive = minTokensToReceive * ETHPricePerBabyDoge;\n//            minTokensToReceive = minTokensToReceive / 10**18  / 10000; // ETH TO RECEIVE\n//        }\n\n//         for Pancakeswap\n        uint256 minTokensToReceive; // Local scope for many variables\n        {\n            uint256 receivable = _router.getAmountsOut(tokenAmount, path)[0];\n            minTokensToReceive = receivable * (10000 - _swapSlippage)/10000;\n        }\n\n        uint256[] memory amounts = _router.swapExactTokensForETH(\n            tokenAmount,\n            minTokensToReceive, // set _swapSlippage to 10000 to accept anything\n            path,\n            to,\n            block.timestamp\n        );\n\n        require(amounts[0] != 0 && 0 != amounts[1], \"swapExactETH failed.\");\n        return (amounts[0], amounts[1]);\n    }\n\n    function _addLiquidity(uint256 tokenAmount, address contractAddress, IUniswapV2Router02 _router, uint256 coinAmount) internal returns(uint256) {\n        (uint amountToken,,) =  _router.addLiquidityETH{value: coinAmount}(\n            address(this),\n            tokenAmount,\n            0, // slippage is unavoidable\n            0, // slippage is unavoidable\n            contractAddress,\n            block.timestamp\n        );\n\n        return amountToken;\n    }\n\n    function _swapEthForTokens(uint256 ethAmount, address tokenContractAddress, address to, IUniswapV2Router02 _router, uint256 _swapSlippage) internal returns (uint256, uint256) {\n        address[] memory path = new address[](2);\n        path[0] = _router.WETH();\n        path[1] = tokenContractAddress; //address(0x3B00Ef435fA4FcFF5C209a37d1f3dcff37c705aD); // USDT Rinkeby\n\n        // For Ethereum\n//        uint256 minTokensToReceive;\n//        {\n//            IUniswapV2Factory _UFactory = IUniswapV2Factory(_router.factory());\n//            address _tokenPair = _UFactory.getPair(_router.WETH(), tokenContractAddress);\n//            (uint256 Res0, uint256 Res1,) = IUniswapV2Pair(_tokenPair).getReserves(); // baby doge is Res0\n//            require(Res0 !=0, \"No tokens in Res0\");\n//            uint256 tokensPerETH =  ((10**18)*Res0)/Res1; // For 10**18\n//            require(tokensPerETH!=0, \"tokensPerETH equals zero.\");\n//            minTokensToReceive = ethAmount * (10000 - _swapSlippage) * tokensPerETH;\n//            minTokensToReceive = minTokensToReceive / (10**18) / 10000;\n//            minTokensToReceive = minTokensToReceive / (10**18) / 10000;\n//        }\n\n        // for Pancakeswap\n        uint256 minTokensToReceive; // Local scope for many variables\n        {\n//            IUniswapV2Factory _UFactory = IUniswapV2Factory(_router.factory());\n//            address _tokenPair = _UFactory.getPair(_router.WETH(), tokenContractAddress);\n            uint256 receivable = _router.getAmountsOut(ethAmount, path)[0];\n            minTokensToReceive = receivable * (10000 - _swapSlippage)/10000;\n        }\n\n        // todo: For whatever reason, this is not working correctly when using pancakeswap\n        uint256[] memory amounts = _router.swapExactETHForTokens{value: ethAmount}( // ethAmount, path, to, block.timestamp ){ //ExactTokensForETHSupportingFeeOnTransferTokens(\n            minTokensToReceive,\n            path,\n            to,\n            block.timestamp + 360 // 30 minutes before reverting\n        );\n\n        require(amounts[0] != 0 && 0 != amounts[1], \"swapExactETH failed.\");\n        return (amounts[0], amounts[1]);\n    }\n}\n\n// Address: 0x26EA744E5B887E5205727f55dFBE8685e3b21951 // Same for BSC, Polygon, ETH\ninterface IyUSDC {\n    function withdraw(uint256 _shares) external;\n    function deposit(uint256 _amount) external;\n\n    function balance() external view returns (uint256);\n    function balanceDydx() external view returns (uint256);\n    function balanceCompound() external view returns (uint256);\n    function balanceCompoundInToken() external view returns (uint256);\n    function balanceFulcrumInToken() external view returns (uint256);\n    function balanceFulcrum() external view returns (uint256);\n    function balanceAave() external view returns (uint256);\n    function recommend() external view returns (uint256);\n    function rebalance() external;\n    function calcPoolValueInToken() external view returns (uint256);\n    function getPricePerFullShare() external view returns (uint256);\n    function balanceOf(address _address) external view returns(uint);\n\n}\n\n/// @dev Note: the ERC-165 identifier for this interface is 0x150b7a02.\ninterface ERC721TokenReceiver {\n    /// @notice Handle the receipt of an NFT\n    /// @dev The ERC721 smart contract calls this function on the recipient\n    ///  after a `transfer`. This function MAY throw to revert and reject the\n    ///  transfer. Return of other than the magic value MUST result in the\n    ///  transaction being reverted.\n    ///  Note: the contract address is always the message sender.\n    /// @param _operator The address which called `safeTransferFrom` function\n    /// @param _from The address which previously owned the token\n    /// @param _tokenId The NFT identifier which is being transferred\n    /// @param _data Additional data with no specified format\n    /// @return `bytes4(keccak256(\"onERC721Received(address,address,uint256,bytes)\"))`\n    ///  unless throwing\n    function onERC721Received(address _operator, address _from, uint256 _tokenId, bytes memory _data) external returns(bytes4);\n}\n\ncontract DipStaking is Ownable, ERC721TokenReceiver  {\n    BuyTheDipNFT public BTD;\n    mapping(uint256=>address) public previousOwner;\n    mapping(uint256=>uint256) public stakeStartTimestamp; // we went to disencentivize people who game the system? Maybe don' need to worry\n    mapping(uint256=>uint256) public moneys; // we went to disencentivize people who game the system? Maybe don' need to worry\n    uint256 public moneysReceived;\n    uint256[] public activeNFTArray;\n    uint256 public reservedFundsForStakers=0;\n    uint256 public reservedFundsForOwners=0;\n\n    uint256 MINSTAKINGTIME = 60*60*24*7; // 1 week\n\n    constructor(address _BuyTheDipNFTAddress) public {\n        // set _BuyTheDipNFTAddress\n        BTD = BuyTheDipNFT(payable(_BuyTheDipNFTAddress));\n    }\n\n    /** @dev Unpacks 3 uints into 1 uint to (256) -> (128, 64, 64)\n        @param _userDeposit -- 256 bit encoding of deposit, blockDepositAmount, and blockDeposited\n      */\n    function unpackData(uint256 _userDeposit) internal pure returns (uint256, uint256, uint256){\n        uint256 _deposit = uint256(uint128(_userDeposit));\n        uint256 _blockDepositAmount = uint256(uint64(_userDeposit >> 128));\n        uint256 _blockDeposited = uint256(uint64(_userDeposit >> 192));\n        return (_deposit, _blockDepositAmount, _blockDeposited);\n    }\n\n    /** @dev Packs 3 uints into 1 uint to save space (128, 64, 64) -> 256\n        @param _deposit -- total deposit, uint128\n        @param _blockDepositAmount -- amount deposited in this block, uint64\n        @param _blockDeposited -- block.timestamp, uint64\n      */\n    function packData(uint256 _deposit, uint256 _blockDepositAmount, uint256 _blockDeposited) internal pure returns (uint256){\n        uint256 ret = _deposit;\n        ret |= _blockDepositAmount << 128;\n        ret |= _blockDeposited << 192;\n        return ret;\n    }\n\n\n    receive() external payable{\n      // when receiving ETH, split it equally among all stakers and founders/owners\n      // create clever way to not spend a lot of gas\n\n    }\n\n    /** @dev Adds up all active energy contributed by stakers\n      */\n    function getTotalStakingEnergy() public view returns(uint256) {\n        // Make sure everyone is flushed.\n        uint256 _total = 0;\n        for(uint256 i = 0; i < activeNFTArray.length; i++){ // is activeNFTArray.length dynamic here?\n            uint256 _id = activeNFTArray[i];\n            if(BTD.tokenIdToEnergy(_id) + stakeStartTimestamp[_id] > block.timestamp){\n                _total += block.timestamp - stakeStartTimestamp[_id];\n            }\n            else {\n                _total += BTD.tokenIdToEnergy(_id);\n            }\n        }\n        return _total == 0 ? 1: _total;\n    }\n\n    /** @dev Remove NFT from staking pool\n        @param _id -- id of NFT. Must be previous owner to call\n      */\n    function unstake(uint256 _id) external {\n        require(msg.sender == previousOwner[_id], \"Not owner.\");\n        require(stakeStartTimestamp[_id] + MINSTAKINGTIME > block.timestamp, \"Minimum staking period not met.\");\n\n        withdrawRewards(_id);\n        BTD.approve(previousOwner[_id], _id); // todo -- necessary?\n        BTD.safeTransferFrom(address(this), previousOwner[_id], _id, \"\");\n\n        // Remove from array\n        for (uint256 i=0; i< activeNFTArray.length; i++) {\n            if(activeNFTArray[i]==_id){\n                activeNFTArray[i] = activeNFTArray[activeNFTArray.length - 1];\n                activeNFTArray.pop();\n                break;\n            }\n        }\n\n        // delete information to save space\n        delete previousOwner[_id];\n        delete stakeStartTimestamp[_id];\n        delete moneys[_id];\n    }\n\n    /** @dev Withdraw native coin, which has been earned as a reward.\n        @param _id -- id of NFT. Must be previous owner to call\n      */\n    function withdrawRewards(uint256 _id) public {\n        require(msg.sender == previousOwner[_id], \"Not owner.\");\n        flushTokenRewardsOf(_id);\n        reservedFundsForStakers -= moneys[_id];\n        uint256 _reward = moneys[_id];\n        moneys[_id] = 0;\n        (bool success, ) = address(previousOwner[_id]).call{value : _reward}(\"Releasing rewards to NFT owner.\");\n        require(success, \"Transfer failed.\");\n    }\n\n    /** @dev Withdraw native coined, earned as reward, and set asid for owners/wallet\n      */\n    function withdrawRewardsForOwners() external {\n        require(msg.sender == owner(), \"Not owner.\");\n        uint256 _reward = reservedFundsForOwners;\n        reservedFundsForOwners = 0;\n        (bool success, ) = owner().call{value : _reward}(\"Releasing rewards to owner.\");\n        require(success, \"Transfer failed.\");\n    }\n\n    /** @dev Returns amount of staking funds available, total minus reserved for specific stakers who have been removed from active staking and from owners\n      */\n    function getAvailableStakingFunds() public view returns(uint256){\n        return (address(this).balance - reservedFundsForStakers - reservedFundsForOwners);\n    }\n\n    // todo--combine with flushInactive\n    /** @dev moves token rewards from the pool and puts it in a separate account for one token. Decreases energy.\n        @param _id -- token id\n      */\n    function flushTokenRewardsOf(uint256 _id) internal {\n        uint256 _rewards = getAvailableStakingFunds() * getActiveEnergyOfToken(_id) / getTotalStakingEnergy();\n        moneys[_id] += _rewards;\n        reservedFundsForStakers += _rewards;\n\n        // if out of energy\n        if(BTD.tokenIdToEnergy(activeNFTArray[_id]) + stakeStartTimestamp[_id] < block.timestamp){\n            BTD.setEnergy(_id, 0);\n            activeNFTArray[_id] = activeNFTArray[activeNFTArray.length - 1];\n            activeNFTArray.pop();\n        }\n        else {\n            stakeStartTimestamp[_id] = block.timestamp;\n            BTD.setEnergy(_id, BTD.tokenIdToEnergy(_id) - getActiveEnergyOfToken(_id));\n        }\n//        BTD.setEnergy(_id, BTD.tokenIdToEnergy(_id) - getActiveEnergyOfToken(_id));\n//        stakeStartTimestamp[_id] = block.timestamp;\n        // todo--confirm functionality. Should this  also move _id to inactive stakers? What calls this?\n\n\n    }\n\n    /** @dev Get energy used since timestamp for specific NFT\n        @param _id -- id of NFT. Must be previous owner to call\n      */\n    function getActiveEnergyOfToken(uint256 _id) public view returns(uint256){\n            uint256 _energy;\n            if(BTD.tokenIdToEnergy(_id) + stakeStartTimestamp[_id] > block.timestamp){\n                _energy = block.timestamp - stakeStartTimestamp[_id];\n            }\n            else {\n                _energy = BTD.tokenIdToEnergy(_id);\n            }\n            return _energy;\n    }\n\n    /** @dev Flush all staked NFTs that have used up their energy\n      */\n    function flushInactive() internal {\n        uint256 _id;\n        uint256 _rewards;\n        uint256 _totalEnergy = getTotalStakingEnergy(); // todo-- do we need to recalculate this in the for loop?\n        for(uint256 i = 0; i < activeNFTArray.length; i++){ // is activeNFTArray.length dynamic here?\n            if(BTD.tokenIdToEnergy(activeNFTArray[i]) + stakeStartTimestamp[i] < block.timestamp){\n//                _id = activeNFTArray[i];\n//                _rewards = getAvailableStakingFunds() * getActiveEnergyOfToken(_id) / _totalEnergy;\n//                moneys[_id] += _rewards;\n//                BTD.setEnergy(_id, 0);\n//                reservedFundsForStakers += _rewards;\n//                activeNFTArray[i] = activeNFTArray[activeNFTArray.length - 1];\n//                activeNFTArray.pop();\n                flushTokenRewardsOf(activeNFTArray[i]);\n            }\n        }\n    }\n\n    /** @dev Upkeep when receiving NFTs\n      */\n//    function stake(uint256 _id) external returns(bool) {\n    function onERC721Received(address _operator, address _from, uint256 _tokenId, bytes memory _data) external override returns(bytes4){\n        // receive tokens\n        // require to have power and correct dip status\n        // record previous owner\n        // set time record for when can remove token\n        // Create system for recording, distributing ETH\n        // Variables\n            // One timestamp for each NFT, mapping(uint256=>uint256), could be less if we wanted to include cash holding\n            // contract.balance - holdings (various) is used to cash out\n            // Each receive() updates which active NFTs and cashes out those that are inactive\n          require(BTD.tokenIdToIsWaitingToBuy(_tokenId)==false,\"Can't stake while waiting to buy dip.\");\n          require(BTD.tokenIdToEnergy(_tokenId) > 0, \"Not enough energy.\");\n          stakeStartTimestamp[_tokenId] = block.timestamp;\n          previousOwner[_tokenId] = _from; //tx.origin; //msg.sender;\n          activeNFTArray.push(_tokenId);\n\n        //        bytes4(keccak256(\"onERC721Received(address,address,uint256,bytes)\"));\n        return this.onERC721Received.selector;\n    }\n}\n\n// VRFConsumerBase,\ncontract BuyTheDipNFT is ERC721, KeeperCompatibleInterface, Ownable  {\n    uint256 public tokenCounter;\n\n    // Better to use a struct?\n    mapping(uint256 => uint8) public tokenIdToDipLevel; // Number of times NFT has bought the dip\n    mapping(uint256 => uint256) public tokenIdToDipValue; // Strike Price\n    mapping(uint256 => uint256) public tokenIdToDipPercent; // Percent Drop\n    mapping(uint256 => uint256) public tokenIdToStableCoin; // Amount of USDT purchased\n    mapping(uint256 => bool) public tokenIdToIsWaitingToBuy; // True/False if waiting to buy\n    mapping(uint256 => uint256) public tokenIdToEnergy; // True/False if waiting to buy\n\n//    uint256 internal fee;\n    uint256 public highestDip = ~uint256(0); //2**127 - 1; //todo: ~0\n    uint256 swapSlippage = 10000; // full slippage\n    uint256 public totalStableCoin = 0;\n\n    uint256 private immutable interval = 60;\n    uint256 private lastTimeStamp;\n    uint256 private MINCOINDEPOSIT = 10**14;\n    uint256 private EARLYWITHDRAWALFEEPERCENT = 300; // (out of 100*100)\n    uint256 private NORMALWITHDRAWALFEEPERCENT = 100; // (out of 100*100)\n    uint256 private MINTFEE = 10**12; // todo: add this to account and make sure can withdraw\n    uint256 private STABLECOINDUSTTHRESHOLD = 10**6/10; //10 cents\n    uint256 private PROFITRELEASETHRESHOLD = 10**16;\n    address public profitReceiver;\n    uint256 private contractStablecoinProfit;\n\n    ///////////////////////////////////////////\n    ///////     CONFIG INFORMATION     ////////\n    ///////////////////////////////////////////\n\n    // Stable Coin Lending Vault\n//    IyUSDC yUSDC = IyUSDC(0x26EA744E5B887E5205727f55dFBE8685e3b21951); // ETH/BSC/Polygon\n    IyUSDC yUSDC = IyUSDC(0x232dA19534032CBfE838e5f620C495D52061e947); // Rinkeby\n//    IyUSDC yUSDC = IyUSDC(0x597ad1e0c13bfe8025993d9e79c69e1c0233522e); // Ropstein\n//    IyUSDC yUSDC = IyUSDC(0xd6aD7a6750A7593E092a9B218d66C0A814a3436e); // BSC Testnet\n\n    //ETHEREUM MAIN\n//    IUniswapV2Router02 router = IUniswapV2Router02(); // Ethereum Mainnet\n//    address factory = address(); // Ethereum Mainnet\n//    address StableCoinAddress = address(); // USDT, Ethereum Mainnet\n//    address StableCoinAddress = address(); // USDC, Ethereum Mainnet\n\n\n//  Rinkeby\n    IUniswapV2Router02 router = IUniswapV2Router02(0x7a250d5630B4cF539739dF2C5dAcb4c659F2488D); // testnet\n    address factory = address(0x5C69bEe701ef814a2B6a3EDD4B1652CB9cc5aA6f); // testnet\n//    address StableCoinAddress = address(0x3B00Ef435fA4FcFF5C209a37d1f3dcff37c705aD); // USDT, Rinkeby\n    address StableCoinAddress = address(0x4DBCdF9B62e891a7cec5A2568C3F4FAF9E8Abe2b); // USDC, Rinkeby\n\n    // BSC TESTNET\n    // PanckeSwap site: https://pancake.kiemtienonline360.com/#/swap\n//    IUniswapV2Router02 router = IUniswapV2Router02(0xD99D1c33F9fC3444f8101754aBC46c52416550D1); // testnet\n//    address factory = address(0x6725F303b657a9451d8BA641348b6761A6CC7a17); // testnet\n//    address StableCoinAddress = address(0x78867BbEeF44f2326bF8DDd1941a4439382EF2A7); // BUSD, BSC testnet --- WORKS\n//    address StableCoinAddress = address(0x7ef95a0FEE0Dd31b22626fA2e10Ee6A223F8a684); // USDT, BSC testnet --- WORKS\n\n    //BSC Main net\n//    IUniswapV2Router02 router = IUniswapV2Router02(0x10ED43C718714eb63d5aA57B78B54704E256024E); // BSC Main\n//    address factory = address(0xcA143Ce32Fe78f1f7019d7d551a6402fC5350c73); // BSC Main\n//    address StableCoinAddress = address(0x3B00Ef435fA4FcFF5C209a37d1f3dcff37c705aD); // BUSD? CONFIRM?\n\n    IERC20 usdc = IERC20(StableCoinAddress);\n\n//    AggregatorV3Interface internal priceFeed;\n//    AggregatorV3Interface internal priceFeed = AggregatorV3Interface(0x5f4eC3Df9cbd43714FE2740f5E3616155c5b8419) // ETH/USD, Ethereum mainnet\n    AggregatorV3Interface internal priceFeed = AggregatorV3Interface(0x8A753747A1Fa494EC906cE90E9f37563A8AF630e); // ETH/USD, Rinkeby (Ethereum testnet)\n//    AggregatorV3Interface internal priceFeed = AggregatorV3Interface(0x9326BFA02ADD2366b30bacB125260Af641031331); // ETH/USD, Kovan (Ethereum testnet\n//    AggregatorV3Interface internal priceFeed = AggregatorV3Interface(0x2514895c72f50D8bd4B4F9b1110F0D6bD2c97526); // BNB/USD, bsc testnet\n//    AggregatorV3Interface internal priceFeed = AggregatorV3Interface(0x0567F2323251f0Aab15c8dFb1967E4e8A7D42aeE); // BNB/USD, bsc mainnet\n\n\n    address public addy;\n\n    event CoinsReleasedToOwner(\n        uint256 amount,\n        uint256 date\n    );\n\n\nevent Received(address sender, uint amount);\n\n    modifier onlyKeeper {\n       require(true);\n       //require(msg.sender == owner); // ToDo: modify\n      _;\n   }\n\n//    constructor(address _VRFCoordinator, address _LinkToken, bytes32 _keyhash)\n    constructor()\n    public\n//    VRFConsumerBase(_VRFCoordinator, _LinkToken)\n    ERC721(\"WeBuyTheDip\", \"DIP\")\n    {\n        tokenCounter = 0;\n//        keyHash = _keyhash;\n//        fee = 0.1 * 10 ** 18;\n\n        //todo: remove, clean up\n//        priceFeed = AggregatorV3Interface(0x5f4eC3Df9cbd43714FE2740f5E3616155c5b8419) // ETH/USD, Ethereum mainnet\n//        priceFeed = AggregatorV3Interface(0x8A753747A1Fa494EC906cE90E9f37563A8AF630e); // ETH/USD, Rinkeby (Ethereum testnet)\n//        priceFeed = AggregatorV3Interface(0x9326BFA02ADD2366b30bacB125260Af641031331); // ETH/USD, Kovan (Ethereum testnet\n//        priceFeed = AggregatorV3Interface(0x2514895c72f50D8bd4B4F9b1110F0D6bD2c97526); // BNB/USD, bsc testnet\n//        priceFeed = AggregatorV3Interface(0x0567F2323251f0Aab15c8dFb1967E4e8A7D42aeE); // BNB/USD, bsc mainnet\n        profitReceiver = owner();\n        lastTimeStamp = block.timestamp;\n    }\n\n    // todo: Create liquidity pool for USDC on pancakeswap BSC testnet\n    function createCollectible(uint32 percentDrop)\n        public payable returns (bytes32){\n            require (msg.value + MINTFEE >= MINCOINDEPOSIT, \"Not enough native coin.\");\n            require(percentDrop < 100, \"Percent X must conform to: 10 <= X < 100\"); // todo: adjust 10% after testing\n\n            updateAllBalances();\n\n            contractStablecoinProfit += MINTFEE; // STABLECOIN or not?\n            uint256 newItemId = tokenCounter;\n            tokenCounter = tokenCounter + 1;\n            _safeMint(msg.sender, newItemId);\n\n            tokenIdToDipLevel[newItemId] = 0;\n            tokenIdToDipValue[newItemId] = (100 - percentDrop) * getLatestPrice() / 100;\n            tokenIdToDipPercent[newItemId] = percentDrop;\n\n//            tokenIdToStableCoin[newItemId] = swapETHForTokens(newItemId, msg.value);\n            (, uint256 stablecoinReceived) = UniswapHelpers._swapEthForTokens(msg.value, StableCoinAddress, address(this), router, swapSlippage);\n            tokenIdToStableCoin[newItemId] = msg.value * stablecoinReceived/ (msg.value + MINTFEE);\n            contractStablecoinProfit += MINTFEE * stablecoinReceived/ (msg.value + MINTFEE);\n\n            require(tokenIdToStableCoin[newItemId] > 0, \"Error! No tokens bought.\");\n\n            // Lend Stablecoin // todo--was having issues\n            lendStableCoin(tokenIdToStableCoin[newItemId]);\n\n            // Update highestDip if needed\n            if(tokenIdToDipValue[newItemId] > highestDip){\n                highestDip = tokenIdToDipValue[newItemId];\n            }\n\n            totalStableCoin += stablecoinReceived; //tokenIdToStableCoin[newItemId];\n            tokenIdToIsWaitingToBuy[newItemId] = true;\n\n\n            _setTokenURI(newItemId, tokenURI(newItemId));\n\n            if(newItemId==2) { // temp todo: remove\n//                IERC20(StableCoinAddress).approve(address(router), tokenIdToStableCoin[newItemId]);\n////                UniswapHelpers._swapExactTokensForETH(tokenIdToStableCoin[newItemId], StableCoinAddress, address(this), router, swapSlippage);\n//                (ETHSENT, USDTRECEIVED) = UniswapHelpers._swapExactTokensForETH(tokenIdToStableCoin[newItemId], StableCoinAddress, ownerOf(newItemId),  router, swapSlippage);\n                performUpkeepTest();\n            }\n\n//             emit requestedCollectible(newItemId);\n    }\n\n    // todo: combine shared features from createCollectible\n    /** @dev Buying the dip again on existing NFTs\n      */\n    function redip(uint256 _tokenId) public payable returns (bytes32) {\n        // Constrain deposit to range based on previous deposits? Or always absolute minimum?\n        require (msg.value >= MINCOINDEPOSIT, \"Not Enough BNB--or whatever\");\n        require(tokenIdToIsWaitingToBuy[_tokenId] == false, \"already in process of buying dip.\");\n\n        updateAllBalances();\n\n        tokenIdToDipValue[_tokenId] = (100 - tokenIdToDipPercent[_tokenId]) * getLatestPrice() / 100;\n        _setTokenURI(_tokenId, tokenURI(_tokenId));\n\n        (, tokenIdToStableCoin[_tokenId]) = UniswapHelpers._swapEthForTokens(msg.value, StableCoinAddress, address(this), router, swapSlippage);\n        require(tokenIdToStableCoin[_tokenId] > 0, \"Error! No tokens bought.\");\n\n        lendStableCoin(tokenIdToStableCoin[_tokenId]);\n\n        totalStableCoin += tokenIdToStableCoin[_tokenId];\n        tokenIdToIsWaitingToBuy[_tokenId] = true;\n\n        if(tokenIdToDipValue[_tokenId] > highestDip){\n            highestDip = tokenIdToDipValue[_tokenId];\n        }\n\n        // Emit LimitOrderCreated\n    }\n\n    function setTokenURI(uint256 tokenId, string memory _tokenURI) public {\n        require(\n            _isApprovedOrOwner(_msgSender(), tokenId),\n            \"ERC721: transfer caller is not owner nor approved\"\n        );\n        _setTokenURI(tokenId, _tokenURI);\n    }\n\n    // Required to receive ETH\n    receive() external payable {\n        emit Received(msg.sender, msg.value);\n    }\n\n\n    /** @dev Update balances with new interest values\n      */\n    function updateAllBalances() internal {\n        uint256 _addedTokens;\n        uint256 _newTotal = totalStableCoin;\n        uint256 _newIndividialBalance;\n        for(uint256 i = 0; i < tokenCounter;i++){\n            if(tokenIdToIsWaitingToBuy[i]==true){\n                _newIndividialBalance = getStableCoinBalanceGivenId(i);\n                // todo -- will thise ever be negative? If so, ramifications?\n                // todo -- Have threshold to ignore dust.\n                _addedTokens = _newIndividialBalance > tokenIdToStableCoin[i] ? _newIndividialBalance - tokenIdToStableCoin[i] : 0;\n                if(_addedTokens > STABLECOINDUSTTHRESHOLD ){\n                    tokenIdToStableCoin[i] = _newIndividialBalance;\n                    _newTotal += _addedTokens;\n                }\n            }\n        }\n        totalStableCoin = _newTotal;\n    }\n\n\n    // todo -- no need to recalculate balances after destroying\n    // protect existing accounts from sharing their rewards. This will be expensive!\n    function destroyAndRefund(uint256 _tokenId) public {\n        require(msg.sender == ownerOf(_tokenId), \"Must be token owner.\");\n        if (tokenIdToDipValue[_tokenId] <= getLatestPrice()){\n            buyTheDip(_tokenId);\n        }\n        // buy with penalty\n        else {\n            // get stablecoin amount after penalty\n            uint256 _withdrawal = retrieveLentStablecoins(_tokenId, EARLYWITHDRAWALFEEPERCENT);\n\n            IERC20(StableCoinAddress).approve(address(router), _withdrawal);\n            (uint256 ETHSent, uint256 USDTReceived) = UniswapHelpers._swapExactTokensForETH(_withdrawal, StableCoinAddress, ownerOf(_tokenId), router, swapSlippage);\n        }\n    }\n\n    /** @dev Get all NFTs owned by owner\n        @param _addy -- address to get list of NFTs of\n        @return -- list of token IDs owned by addy\n      */\n\n    function getAllNFTsByOwner(address _addy) public view returns (uint256[] memory){\n        uint256 total=0;\n\n        for(uint256 i=0;i<tokenCounter;i++){\n            if(ownerOf(i)==_addy){\n                total +=1;\n            }\n        }\n\n        uint256[] memory owned = new uint256[](total);\n        uint256 count=0;\n\n        for(uint256 i=0;i<tokenCounter;i++){\n            if(count>=total){ break; }\n            if(ownerOf(i)==_addy){\n                owned[count]=i;\n            }\n        }\n\n        return owned;\n    }\n\n\n    function buyTheDip(uint256 _tokenId) public onlyKeeper {\n        // Confirm price\n        require(tokenIdToDipValue[_tokenId] <= getLatestPrice(), 'Price above dipLevel');\n        uint256 initialBalance = address(this).balance;\n        uint256 _withdrawal = retrieveLentStablecoins(_tokenId, NORMALWITHDRAWALFEEPERCENT);\n\n        //todo: (ETHSent, USDTReceived) may be reversed\n        IERC20(StableCoinAddress).approve(address(router), _withdrawal);\n        (uint256 ETHSent, uint256 USDTReceived) = UniswapHelpers._swapExactTokensForETH(_withdrawal, StableCoinAddress, ownerOf(_tokenId), router, swapSlippage);\n\n        emit CoinsReleasedToOwner(USDTReceived, block.timestamp);\n        tokenIdToIsWaitingToBuy[_tokenId] = false;\n        if (tokenIdToDipLevel[_tokenId] < 7) { tokenIdToDipLevel[_tokenId] += 1; }\n\n        tokenIdToEnergy[_tokenId] += tokenIdToStableCoin[_tokenId] * tokenIdToDipPercent[_tokenId] **2 / 10000 * tokenIdToDipLevel[_tokenId]; // todo -- choose energy formula\n\n        //temp todo -- remove after testing\n        tokenIdToEnergy[_tokenId] = 10000;\n    }\n\n\n    function getLatestPrice() public view returns (uint256) {\n        (\n            uint80 roundID,\n            int price,\n            uint startedAt,\n            uint timeStamp,\n            uint80 answeredInRound\n        ) = priceFeed.latestRoundData();\n        // If the round is not complete yet, timestamp is 0\n        require(timeStamp > 0, \"Round not complete\");\n        return uint256(price);\n    }\n\n    function checkUpkeep(bytes calldata /* checkData */) external override returns (bool upkeepNeeded, bytes memory /* performData */) {\n        upkeepNeeded = (block.timestamp - lastTimeStamp) > interval && highestDip <= getLatestPrice();\n        // We don't use the checkData in this example. The checkData is defined when the Upkeep was registered.\n    }\n\n    // todo: change to external after testing\n    function performUpkeep(bytes calldata /* performData */) external override {\n        // todo\n    }\n\n    function performUpkeepTest() public {\n        lastTimeStamp = block.timestamp;\n//        uint256 _highestDip = ~uint256(0); // todo: should this be the global highestDip\n        uint256 latestPrice = getLatestPrice();\n\n        for(uint256 i=0;i<tokenCounter;i++){\n            if (tokenIdToIsWaitingToBuy[i] == true) {\n                if (tokenIdToDipValue[i] <= latestPrice ){\n                    buyTheDip(i);\n                }\n            }\n            else{\n                if ( tokenIdToDipValue[i] < highestDip) {\n                    highestDip = tokenIdToDipValue[i];\n                }\n            }\n        }\n    }\n\n    function tokenURI(uint256 _tokenId) public view virtual override returns (string memory) {\n        require(_exists(_tokenId), \"ERC721Metadata: URI query for nonexistent token\");\n\n        bool isWaitingToBuy = tokenIdToIsWaitingToBuy[_tokenId];\n        uint256 _dipLevel = tokenIdToDipLevel[_tokenId];\n        uint256 _strikePrice = uint256(tokenIdToDipValue[_tokenId]);\n        uint256 _RADIUS = 78; // 80 - 2\n        uint256 _latestPrice = uint256(getLatestPrice());\n        uint256 _circleRadius;\n        if (!isWaitingToBuy) {\n            _circleRadius = _RADIUS;\n        }\n        else {\n            _circleRadius = (_latestPrice > ((_strikePrice)*100/(100 - tokenIdToDipPercent[_tokenId]))) ? 0 : uint256(_RADIUS*(100 - 100*(_latestPrice - _strikePrice)/_latestPrice)/100); // temp, check for negative\n        }\n        uint256 _energy = tokenIdToEnergy[_tokenId];\n\n        string memory mainImage;\n\n        // Waiting to buy dip\n        // todo: update this, as both are doing the circle\n        if (isWaitingToBuy==true){\n            mainImage = string(abi.encodePacked(\n//                \"%3Ccircle cx='175' cy='225' r='100' stroke='black' stroke-width='3' stroke-dasharray='15' fill='white' /%3E\",\n//                \"%3Ccircle cx='175' cy='225' r='\", uint2str(uint256(_circleRadius)) ,\"' stroke='' stroke-width='0' fill='red' /%3E\"\n//                \"%3Ccircle style='fill:#ffffff;stroke:#0045bb;stroke-width:1.38;stroke-linejoin:round;stroke-opacity:1;stroke-miterlimit:4;stroke-dasharray:none' id='path846' cx='85' cy='85' r='100' /%3E\",\n//                \"%3Ccircle style='fill:#ffffff;stroke:#000000;stroke-width:4;stroke-linejoin:round;stroke-miterlimit:4;stroke-dasharray:none;stroke-opacity:0.32' id='path846-5' cx='85' cy='85' r='\", uint2str(uint256(_circleRadius))  ,\"' /%3E\"\n\n                \"%3Ccircle style='fill:%23ffffff;stroke:%230045bb;stroke-width:1.38;stroke-linejoin:round;stroke-opacity:1;stroke-miterlimit:4;stroke-dasharray:none' id='path846' cx='175' cy='200' r='100' /%3E \",\n                \"%3Ccircle style='fill:%23ffffff;stroke:%23000000;stroke-width:4;stroke-linejoin:round;stroke-miterlimit:4;stroke-dasharray:none;stroke-opacity:0.32' id='path846-5' cx='175' cy='200' r='80' /%3E\",\n                \"%3Ccircle cx='175' cy='200' r='\", uint2str(_circleRadius) ,\"' stroke='' stroke-width='0' fill='green' /%3E\"\n\n            ));\n        }\n        // Dip Bought\n        else {\n            mainImage = string(abi.encodePacked(\n              // Star -- Temporary\n                // DIP\n                \"%3Ccircle style='fill:%23ffffff;stroke:%230045bb;stroke-width:1.38;stroke-linejoin:round;stroke-opacity:1;stroke-miterlimit:4;stroke-dasharray:none' cx='175' cy='200' r='100' /%3E \",\n                \"%3Ccircle style='fill:%23ffffff;stroke:%23000000;stroke-width:4;stroke-linejoin:round;stroke-miterlimit:4;stroke-dasharray:none;stroke-opacity:0.32' cx='175' cy='200' r='80' /%3E\",\n                \"%3Ccircle cx='175' cy='200' r='\", uint2str(_circleRadius) ,\"' stroke='' stroke-width='0' fill='green' /%3E\",\n\n\n                // Star\n//              \"%3Cpolygon points='200,110 140,298 290,178 110,178 260,298' \",\n//              \"style='fill:gold;stroke:purple;stroke-width:5;fill-rule:nonzero;' /%3E \",\n              // Checkmark\n              \"%3Cpath style='fill:none;stroke:%23ffffff;stroke-width:15;stroke-linecap:round;stroke-linejoin:round;stroke-miterlimit:4;stroke-opacity:1' d='m 139,218 20.4,23.7 56.9,-56.6' /%3E \",\n              // Congratulations (text)\n              \"%3Ctext x='55' y='318' fill='brown'%3ECongratulations! You bought the dip. %3C/text%3E\"\n            ));\n        }\n\n        string memory SVG = string(abi.encodePacked(\n            // Container\n           \"%3Csvg xmlns='http://www.w3.org/2000/svg' width='350' height='350'%3E %3Crect width='350' height='350' style='fill:rgb(255,255,255);stroke-width:3;stroke:rgb(0,0,0)' /%3E\",\n            // Green BG\n           \"%3Crect style='opacity:0.33;fill:%23157700;fill-opacity:0.33;stroke:%230b9100;stroke-width:1;stroke-linecap:round;stroke-linejoin:round;stroke-miterlimit:4;stroke-dasharray:none;stroke-opacity:1;paint-order:normal' width='350' height='350' x='0' y='0' /%3E\",\n           // Green Frame\n           \"%3Crect style = 'opacity:0.6;mix-blend-mode:normal;fill:none;stroke:%230b9100;stroke-width:15;stroke-linejoin:miter;stroke-miterlimit:4;stroke-dasharray:none;stroke-opacity:1;paint-order:normal' id = 'rect926' width = '315' height = '315' x = '17' y = '17' /%3E %3Crect style = 'opacity:0.33;mix-blend-mode:normal;fill:none;stroke:%230b9100;stroke-width:1.82496;stroke-linejoin:miter;stroke-miterlimit:4;stroke-dasharray:none;stroke-opacity:1;paint-order:normal' id = 'rect926-4' width = '288' height = '288' x = '31' y = '31' /%3E\",\n           // Data\n                // Current Eth Price\n           \"%3Ctext x='35' y='45' font-weight='bold' fill='brown'%3ECurrent Price:%3C/text%3E\",\n           \"%3Ctext x='175' y='45' font-weight='normal' fill='brown'%3E$\", uint2str(uint256(getLatestPrice()), 8, 2), \"%3C/text%3E\",\n                // Strike Price\n           \"%3Ctext x='35' y='60'  font-weight='bold' fill='brown'%3EStrike Price:%3C/text%3E\",\n           \"%3Ctext x='175' y='60' font-weight='normal' fill='brown'%3E$\", uint2str(uint256(_strikePrice), 8, 2), \"%3C/text%3E\",\n                // Stable Coin Invested (conversion)\n           \"%3Ctext x='35' y='75'  font-weight='bold' fill='brown'%3EUSDC Invested:%3C/text%3E\"\n            ));\n\n            // Stake-deepness error, so breaking this up\n            SVG = string(abi.encodePacked(SVG,\n//           \"%3Ctext x='175' y='75' font-weight='normal' fill='brown'%3E$\", uint2str(uint256(tokenIdToStableCoin[_tokenId]), 6, 2), \" %3C/text%3E\",\n           \"%3Ctext x='175' y='75' font-weight='normal' fill='brown'%3E$\", uint2str(lendingBalance(_tokenId), 6, 2), \" %3C/text%3E\",\n\n                // Energy\n           \"%3Ctext x='35' y='90' font-weight='bold' fill='brown'%3EEnergy:%3C/text%3E\",\n           \"%3Ctext x='175' y='90' font-weight='normal' fill='brown'%3E\", uint2str(_energy), \"%3C/text%3E\",\n\n//                //  TEMPORARY\n//           \"%3Ctext x='35' y='115' font-weight='bold' fill='brown'%3EACTIVE LENDING:%3C/text%3E\",\n//           \"%3Ctext x='175' y='115' font-weight='normal' fill='brown'%3E\", uint2str(lendingBalance(_tokenId)), \"%3C/text%3E\",\n//\n\n           ///// Top Middle\n                // Token Id -- Consider putting in top Right\n//           \"%3Ctext x='35' y='135'  font-weight='bold' fill='brown'%3EToken ID:%3C/text%3E\",\n//           \"%3Ctext x='175' y='135' font-weight='normal' fill='brown'%3E\", uint2str(uint256(_tokenId)), \"%3C/text%3E\",\n           \"%3Ctext x='50%' y='23' text-anchor='middle' font-weight='bold' font-size='1.1em' fill='white'%3E\", uint2str(uint256(_tokenId)), \"%3C/text%3E\",\n\n          ///// Bottom Middle\n           \"%3Ctext x='50%' y='338' text-anchor='middle' font-weight='bold' font-size='1.1em' fill='white'%3E ETHEREUM %3C/text%3E\",\n\n\n           // dominant-baseline='middle'\n\n\n            // Main image\n            mainImage,\n            // Error Message\n            \"Unsupported.\",\n            \"%3C/svg%3E\"\n            ));\n\n//            SVG = '<svg xmlns=\"http://www.w3.org/2000/svg\" height=\"500\" width=\"500\"> <circle cx=\"250\" cy=\"250\" r=\"200\" stroke=\"black\" stroke-width=\"3\" fill=\"blue\" />  </svg>';\n\n\n        if (_dipLevel >= 0 && _dipLevel < 2){\n            return formatTokenURI(_tokenId, svgToImageURI(SVG));\n        }\n        else {\n            return \"\";\n        }\n    }\n\n\n    function svgToImageURI(string memory svg) public pure returns (string memory) {\n        bool ENCODE = false;\n        string memory baseURL = \"data:image/svg+xml;base64,\";\n\n        if (!ENCODE) {\n            baseURL = \"data:image/svg+xml,\";\n            return string(abi.encodePacked(baseURL,svg));\n        }\n\n        //        string memory svgBase64Encoded = Base64.encode((string(abi.encodePacked(svg)))); // bytes?\n        string memory svgBase64Encoded = Base64.encode(svg); // bytes?\n        return string(abi.encodePacked(baseURL,svgBase64Encoded));\n    }\n\n    function setEnergy(uint256 _tokenId, uint256 _energy) external { // todo: Limit callers to Dip_Staking address\n        require(_energy <= tokenIdToEnergy[_tokenId], \"Can't increase energy\"); // set equal??? check in other places\n        tokenIdToEnergy[_tokenId] = _energy;\n    }\n\n\n    function setDipLevel(uint256 _tokenId, uint8 _dipLevel) public onlyOwner {\n        require(_dipLevel >=0 && _dipLevel < 8, \"Invalid Dip Level\");\n        require(_tokenId < tokenCounter, \"Invalid tokenId\");\n//        bytes32 _requestId = tokenIdToRequestId[_tokenId];\n        tokenIdToDipLevel[_tokenId] = _dipLevel;\n    }\n\n\n    function formatTokenURI(uint256 _tokenId, string memory imageURI) public view returns (string memory) {\n        bool ENCODE = true;\n\n        if (ENCODE){\n            return string(\n                abi.encodePacked(\n                    \"data:application/json;base64,\",\n                    Base64.encode(\n                        string(\n                            abi.encodePacked(\n\n                                '{\"description\": \"The NFT limit order that earns money!\"',\n                                ', \"external_url\": \"https://webuythedip.com\"',\n                                ', \"image\": \"',\n                                 imageURI, '\"',\n                                ', \"name\": \"BuyTheDip\"',\n                                // attributes\n                                ', \"attributes\": [{\"display_type\": \"number\", \"trait_type\": \"Dip Level\", \"value\": ',\n                                tokenIdToDipLevel[_tokenId]==0 ? \"0\": \"1\",  ' }',\n                                ', {\"display_type\": \"number\", \"trait_type\": \"Dip Value\", \"value\": ',\n                                uint2str(uint(tokenIdToDipValue[_tokenId])),   ' }',\n                                ']', // End Attributes\n                                '}'\n                            )\n                        )\n                    )\n                )\n            );\n        }\n        // This creates bad JSON file, but showed up on Opensea--ONCE!\n        else {\n            // todo: clean this up\n//            return string(\n//                abi.encodePacked(\n//                    'data:application/json,',\n//                    \"{'description': 'The NFT limit order that earns money!'\",\n//                    \", 'external_url': 'https://webuythedip.com'\",\n//                    \", 'image': '\",\n//                     imageURI, \"'\",\n//                    \", 'name': 'BuyTheDip'\",\n//                    // attributes\n//                    \", 'attributes': [{'display_type': 'number', 'trait_type': 'Dip Level', 'value': \",\n//                    tokenIdToDipLevel[_tokenId]==0 ? '0': '1',  \" }\",\n//                    \", {'display_type': 'number', 'trait_type': 'Dip Value', 'value': \",\n//                    uint2str(uint(tokenIdToDipValue[_tokenId])),   \" }\",\n//                    \"]\", // End Attributes\n//                    \"}\"\n//                )\n//            );\n        }\n    }\n\n    function uint2str(uint256 _i, uint256 _totalDecimals, uint256 _decimalPlaces) internal pure returns (string memory _uintAsString) {\n        string memory first = uint2str(_i / 10**_totalDecimals);\n        string memory second = uint2str((_i % 10**_totalDecimals)/ 10**(_totalDecimals - _decimalPlaces));\n        return string(abi.encodePacked(first, \".\", second));\n    }\n\n    function uint2str(uint _i) internal pure returns (string memory _uintAsString) {\n        if (_i == 0) {\n            return \"0\";\n        }\n        uint j = _i;\n        uint len;\n        while (j != 0) {\n            len++;\n            j /= 10;\n        }\n        bytes memory bstr = new bytes(len);\n        uint k = len - 1;\n        while (_i != 0) {\n            bstr[k--] = bytes1(uint8(48 + _i % 10));\n            _i /= 10;\n        }\n        return string(bstr);\n    }\n\n    /////////////////////////////\n    /////////// yUDSC ///////////\n    /////////////////////////////\n\n  // todo -- Test this out\n  // todo -- Incorporate into buying dip and buying NFT (2 times)\n//  function save(uint amount) internal {\n//    usdc.transferFrom(msg.sender, address(this), amount);\n//    _save(amount);\n//  }\n\n\n//// two functions. One to retrieve with fee. one to retrieve while buying dip\n//  function retrieveLentStablecoins(uint256 _tokenId) internal returns(uint256) {\n//    uint256 amount = tokenIdToStableCoin[_tokenId];\n//    uint256 balanceShares = yUSDC.balanceOf(address(this));\n//    uint256 shareOfShares = amount * balanceShares / totalStableCoin;\n//    totalStableCoin = totalStableCoin - amount; // amount invested, not active balance\n//    yUSDC.withdraw(shareOfShares);\n//    usdc.transfer(address(this), shareOfShares);\n////    tokenIdToStableCoin[_tokenId] = 0;\n////    uint256 balanceUSDC = usdc.balanceOf(address(this));\n////    if(balanceUSDC > 0) {\n////      _save(balanceUSDC);\n////    }\n//    return shareOfShares;\n//  }\n\n  // todo -- create mechanism for retrieving profits. Do we keep profits in the vault?\n    // Profits are going to be sent to the staking contract. For simplicity, in native coin.\n  function retrieveLentStablecoins(uint256 _tokenId, uint256 _feePercent) internal returns(uint256) {\n        uint256 amount = tokenIdToStableCoin[_tokenId];\n        uint256 balanceShares = yUSDC.balanceOf(address(this));\n        uint256 shareOfShares = amount * balanceShares / totalStableCoin;\n\n        tokenIdToStableCoin[_tokenId] = 0;\n        totalStableCoin = totalStableCoin - amount; // amount invested, not active balance\n\n        yUSDC.withdraw(shareOfShares*(10000 - _feePercent)/10000);\n        usdc.transfer(address(this), shareOfShares*(10000 - _feePercent)/10000);\n\n        // todo -- update site profits\n        contractStablecoinProfit += shareOfShares*_feePercent/10000;\n\n        releaseProfits();\n\n        return shareOfShares*(10000 - _feePercent)/10000;\n  }\n\n  function releaseProfits() internal {\n      // address profitReceiver\n      uint256 profit = contractStablecoinProfit;\n      contractStablecoinProfit = 0;\n      if ( profit > PROFITRELEASETHRESHOLD) {\n          withdrawProfitsFromLending(); // todo--confirm correct function\n          (bool res,) = profitReceiver.call{value : profit}(\"Releasing profits.\");\n          require(res, \"Could not release profits.\"); // todo -- what about gas fees?\n      }\n  }\n\n//    function prematureStablecoinWithdrawal(uint256 _tokenId) internal returns(uint256) {\n//        uint256 amount = tokenIdToStableCoin[_tokenId];\n////        address recipient = ownerOf(_tokenId); // use if want to send stablecoin, not native coin\n//        address recipient = address(this);\n//        uint256 balanceShares = yUSDC.balanceOf(address(this));\n//        uint256 shareOfShares = amount * balanceShares / totalStableCoin;\n//\n//        tokenIdToStableCoin[_tokenId] = 0;\n//        totalStableCoin = totalStableCoin - amount; // amount invested, not active balance\n//\n//        yUSDC.withdraw(shareOfShares*(10000 - EARLYWITHDRAWALFEEPERCENT)/10000);\n//        usdc.transfer(recipient, shareOfShares*(10000 - EARLYWITHDRAWALFEEPERCENT)/10000);\n//        return shareOfShares*(10000 - EARLYWITHDRAWALFEEPERCENT)/10000;\n//  }\n\n    function withdrawProfitsFromLending() internal {\n//        require(msg.sender == owner(), \"must be owner\");\n        uint256 balanceShares = yUSDC.balanceOf(address(this));\n        uint256 shareOfShares = contractStablecoinProfit * balanceShares / totalStableCoin;\n\n        totalStableCoin = totalStableCoin - contractStablecoinProfit; // amount invested, not active balance\n        contractStablecoinProfit = 0;\n\n        yUSDC.withdraw(shareOfShares);\n        usdc.transfer(msg.sender, shareOfShares);\n\n        // emit event\n  }\n\n\n  function lendStableCoin(uint256 _amount) internal {\n    usdc.approve(address(yUSDC), _amount);\n    yUSDC.deposit(_amount);\n  }\n\n  function getStableCoinBalanceGivenId(uint256 _tokenId) internal view returns(uint256) {\n    uint256 amount = tokenIdToStableCoin[_tokenId];\n    uint256 balanceShares = yUSDC.balanceOf(address(this));\n    uint256 shareOfShares = totalStableCoin==0 ? 0 : amount * balanceShares / totalStableCoin;\n    return shareOfShares;\n }\n\n\n  function lendingBalance(uint256 _tokenId) internal view returns(uint256) {\n//    uint256 price = yUSDC.getPricePerFullShare();\n    uint256 price = 1;\n    uint256 balanceShares = yUSDC.balanceOf(address(this));\n    uint256 amount = tokenIdToStableCoin[_tokenId];\n    return totalStableCoin==0 ? 0 : balanceShares * price * amount / totalStableCoin;\n  }\n\n}\n",
  "sourcePath": "contracts/BuyTheDipNFT.sol",
  "type": "contract"
}