{
  "abi": [
    {
      "inputs": [
        {
          "internalType": "address",
          "name": "_BuyTheDipNFTAddress",
          "type": "address"
        }
      ],
      "stateMutability": "nonpayable",
      "type": "constructor"
    },
    {
      "anonymous": false,
      "inputs": [
        {
          "indexed": false,
          "internalType": "uint256",
          "name": "amount",
          "type": "uint256"
        },
        {
          "indexed": true,
          "internalType": "address",
          "name": "to",
          "type": "address"
        },
        {
          "indexed": false,
          "internalType": "uint256",
          "name": "timestamp",
          "type": "uint256"
        }
      ],
      "name": "FundsWithdrawnToNFTStaker",
      "type": "event"
    },
    {
      "anonymous": false,
      "inputs": [
        {
          "indexed": false,
          "internalType": "uint256",
          "name": "amount",
          "type": "uint256"
        },
        {
          "indexed": true,
          "internalType": "address",
          "name": "to",
          "type": "address"
        },
        {
          "indexed": false,
          "internalType": "uint256",
          "name": "timestamp",
          "type": "uint256"
        }
      ],
      "name": "FundsWithdrawnToPrimraryProfitReceiver",
      "type": "event"
    },
    {
      "anonymous": false,
      "inputs": [
        {
          "indexed": true,
          "internalType": "address",
          "name": "previousOwner",
          "type": "address"
        },
        {
          "indexed": true,
          "internalType": "address",
          "name": "newOwner",
          "type": "address"
        }
      ],
      "name": "OwnershipTransferred",
      "type": "event"
    },
    {
      "anonymous": false,
      "inputs": [
        {
          "indexed": false,
          "internalType": "uint256",
          "name": "token",
          "type": "uint256"
        },
        {
          "indexed": false,
          "internalType": "address",
          "name": "to",
          "type": "address"
        },
        {
          "indexed": false,
          "internalType": "uint256",
          "name": "timestamp",
          "type": "uint256"
        }
      ],
      "name": "Unstaked",
      "type": "event"
    },
    {
      "inputs": [],
      "name": "BTD",
      "outputs": [
        {
          "internalType": "contract BuyTheDipNFT",
          "name": "",
          "type": "address"
        }
      ],
      "stateMutability": "view",
      "type": "function"
    },
    {
      "inputs": [],
      "name": "MinStakingTime",
      "outputs": [
        {
          "internalType": "uint256",
          "name": "",
          "type": "uint256"
        }
      ],
      "stateMutability": "view",
      "type": "function"
    },
    {
      "inputs": [
        {
          "internalType": "uint256",
          "name": "",
          "type": "uint256"
        }
      ],
      "name": "activeNFTArray",
      "outputs": [
        {
          "internalType": "uint256",
          "name": "",
          "type": "uint256"
        }
      ],
      "stateMutability": "view",
      "type": "function"
    },
    {
      "inputs": [
        {
          "internalType": "uint256",
          "name": "_id",
          "type": "uint256"
        }
      ],
      "name": "getActiveEnergyOfToken",
      "outputs": [
        {
          "internalType": "uint256",
          "name": "",
          "type": "uint256"
        }
      ],
      "stateMutability": "view",
      "type": "function"
    },
    {
      "inputs": [
        {
          "internalType": "address",
          "name": "_addy",
          "type": "address"
        }
      ],
      "name": "getAllNFTsByPreviousOwner",
      "outputs": [
        {
          "internalType": "uint256[]",
          "name": "",
          "type": "uint256[]"
        }
      ],
      "stateMutability": "view",
      "type": "function"
    },
    {
      "inputs": [],
      "name": "getAvailableStakingFunds",
      "outputs": [
        {
          "internalType": "uint256",
          "name": "",
          "type": "uint256"
        }
      ],
      "stateMutability": "view",
      "type": "function"
    },
    {
      "inputs": [],
      "name": "getTotalStakingEnergy",
      "outputs": [
        {
          "internalType": "uint256",
          "name": "",
          "type": "uint256"
        }
      ],
      "stateMutability": "view",
      "type": "function"
    },
    {
      "inputs": [
        {
          "internalType": "address",
          "name": "_operator",
          "type": "address"
        },
        {
          "internalType": "address",
          "name": "_from",
          "type": "address"
        },
        {
          "internalType": "uint256",
          "name": "_tokenId",
          "type": "uint256"
        },
        {
          "internalType": "bytes",
          "name": "_data",
          "type": "bytes"
        }
      ],
      "name": "onERC721Received",
      "outputs": [
        {
          "internalType": "bytes4",
          "name": "",
          "type": "bytes4"
        }
      ],
      "stateMutability": "nonpayable",
      "type": "function"
    },
    {
      "inputs": [],
      "name": "owner",
      "outputs": [
        {
          "internalType": "address",
          "name": "",
          "type": "address"
        }
      ],
      "stateMutability": "view",
      "type": "function"
    },
    {
      "inputs": [],
      "name": "ownersCutPercentage",
      "outputs": [
        {
          "internalType": "uint256",
          "name": "",
          "type": "uint256"
        }
      ],
      "stateMutability": "view",
      "type": "function"
    },
    {
      "inputs": [],
      "name": "primaryProfitReceiver",
      "outputs": [
        {
          "internalType": "address",
          "name": "",
          "type": "address"
        }
      ],
      "stateMutability": "view",
      "type": "function"
    },
    {
      "inputs": [],
      "name": "renounceOwnership",
      "outputs": [],
      "stateMutability": "nonpayable",
      "type": "function"
    },
    {
      "inputs": [],
      "name": "reservedFundsForInactiveStakers",
      "outputs": [
        {
          "internalType": "uint256",
          "name": "",
          "type": "uint256"
        }
      ],
      "stateMutability": "view",
      "type": "function"
    },
    {
      "inputs": [],
      "name": "reservedFundsForOwners",
      "outputs": [
        {
          "internalType": "uint256",
          "name": "",
          "type": "uint256"
        }
      ],
      "stateMutability": "view",
      "type": "function"
    },
    {
      "inputs": [
        {
          "internalType": "address",
          "name": "_addy",
          "type": "address"
        }
      ],
      "name": "setBTDAdress",
      "outputs": [],
      "stateMutability": "nonpayable",
      "type": "function"
    },
    {
      "inputs": [
        {
          "internalType": "uint256",
          "name": "_newCut",
          "type": "uint256"
        }
      ],
      "name": "setOwnersCutPercentage",
      "outputs": [],
      "stateMutability": "nonpayable",
      "type": "function"
    },
    {
      "inputs": [
        {
          "internalType": "address",
          "name": "_addy",
          "type": "address"
        }
      ],
      "name": "setPrimaryProfitReceiverAddress",
      "outputs": [],
      "stateMutability": "nonpayable",
      "type": "function"
    },
    {
      "inputs": [
        {
          "internalType": "uint256",
          "name": "",
          "type": "uint256"
        }
      ],
      "name": "stakers",
      "outputs": [
        {
          "internalType": "address",
          "name": "previousOwner",
          "type": "address"
        },
        {
          "internalType": "uint64",
          "name": "stakeStartTimestamp",
          "type": "uint64"
        },
        {
          "internalType": "uint192",
          "name": "moneys",
          "type": "uint192"
        }
      ],
      "stateMutability": "view",
      "type": "function"
    },
    {
      "inputs": [
        {
          "internalType": "address",
          "name": "newOwner",
          "type": "address"
        }
      ],
      "name": "transferOwnership",
      "outputs": [],
      "stateMutability": "nonpayable",
      "type": "function"
    },
    {
      "inputs": [
        {
          "internalType": "uint256",
          "name": "_id",
          "type": "uint256"
        }
      ],
      "name": "unstake",
      "outputs": [],
      "stateMutability": "nonpayable",
      "type": "function"
    },
    {
      "inputs": [
        {
          "internalType": "uint256",
          "name": "_id",
          "type": "uint256"
        }
      ],
      "name": "withdrawRewards",
      "outputs": [],
      "stateMutability": "nonpayable",
      "type": "function"
    },
    {
      "inputs": [],
      "name": "withdrawRewardsForPrimaryProfitReceiver",
      "outputs": [],
      "stateMutability": "nonpayable",
      "type": "function"
    },
    {
      "stateMutability": "payable",
      "type": "receive"
    }
  ],
  "bytecode": "6080604052600060045560006005556109c4600655600060075534801561002557600080fd5b5060405162001b5638038062001b56833981016040819052610046916100cc565b60006100506100c8565b600080546001600160a01b0319166001600160a01b0383169081178255604051929350917f8be0079c531659141344cd1fd0a4f28419497f9722a3daafe3b4186f6b6457e0908290a350600180546001600160a01b039092166001600160a01b031992831617905560088054909116331790556100fa565b3390565b6000602082840312156100dd578081fd5b81516001600160a01b03811681146100f3578182fd5b9392505050565b611a4c806200010a6000396000f3fe6080604052600436106101395760003560e01c8063a9db5b27116100ab578063dc9abdd31161006f578063dc9abdd314610348578063ed3597e714610368578063f2fde38b1461037d578063f988125c1461039d578063fb658f35146103b2578063fd5e6dd1146103c75761015c565b8063a9db5b27146102bc578063b44aaf7e146102d1578063bf739fd5146102f1578063cd34cbae14610306578063dbf6ebc3146103335761015c565b806351fc43e7116100fd57806351fc43e714610228578063715018a61461023d57806387498b5f146102525780638da5cb5b146102675780639342c8f41461027c578063a3e9661d1461029c5761015c565b8063032b94d1146101615780630dac11d414610197578063150b7a02146101b75780632e17de78146101e457806345740477146102065761015c565b3661015c5761271034600654028161014d57fe5b60058054929091049091019055005b600080fd5b34801561016d57600080fd5b5061018161017c366004611606565b6103f6565b60405161018e91906119e0565b60405180910390f35b3480156101a357600080fd5b506101816101b2366004611606565b610414565b3480156101c357600080fd5b506101d76101d2366004611520565b610576565b60405161018e9190611778565b3480156101f057600080fd5b506102046101ff366004611606565b6106fe565b005b34801561021257600080fd5b5061021b61090f565b60405161018e91906116b9565b34801561023457600080fd5b5061018161091e565b34801561024957600080fd5b5061020461092a565b34801561025e57600080fd5b506101816109b3565b34801561027357600080fd5b5061021b6109b9565b34801561028857600080fd5b50610204610297366004611606565b6109c8565b3480156102a857600080fd5b506102046102b73660046114fe565b610b1a565b3480156102c857600080fd5b50610181610b85565b3480156102dd57600080fd5b506102046102ec3660046114fe565b610b8b565b3480156102fd57600080fd5b50610181610bf6565b34801561031257600080fd5b506103266103213660046114fe565b610bfc565b60405161018e9190611734565b34801561033f57600080fd5b50610181610d79565b34801561035457600080fd5b50610204610363366004611606565b610f18565b34801561037457600080fd5b50610204610f68565b34801561038957600080fd5b506102046103983660046114fe565b61108f565b3480156103a957600080fd5b5061018161114f565b3480156103be57600080fd5b5061021b611155565b3480156103d357600080fd5b506103e76103e2366004611606565b611164565b60405161018e93929190611700565b6003818154811061040357fe5b600091825260209091200154905081565b60008181526002602081905260408083205460015491516350f385a160e01b815284934293600160a01b90930467ffffffffffffffff16926001600160a01b0316916350f385a19161046b91899190600401611a08565b60206040518083038186803b15801561048357600080fd5b505afa158015610497573d6000803e3d6000fd5b505050506040513d601f19601f820116820180604052508101906104bb919061161e565b0111156104ea5750600082815260026020526040902054600160a01b900467ffffffffffffffff164203610570565b6001546040516350f385a160e01b81526001600160a01b03909116906350f385a19061051d908690600290600401611a08565b60206040518083038186803b15801561053557600080fd5b505afa158015610549573d6000803e3d6000fd5b505050506040513d601f19601f8201168201806040525081019061056d919061161e565b90505b92915050565b6001546040516000916001600160a01b0316339081149161059a9190602001611636565b604051602081830303815290604052906105d05760405162461bcd60e51b81526004016105c7919061178d565b60405180910390fd5b50600154604051630ff4585960e01b81526001600160a01b0390911690630ff45859906106019086906004016119e0565b60206040518083038186803b15801561061957600080fd5b505afa15801561062d573d6000803e3d6000fd5b505050506040513d601f19601f8201168201806040525081019061065191906115e6565b15156001146106725760405162461bcd60e51b81526004016105c790611823565b50506000818152600260205260408120805467ffffffffffffffff60a01b1916600160a01b4267ffffffffffffffff1602176001600160a01b0319166001600160a01b0394909416939093179092556003805460018101825592527fc2575a0e9e593c00f959f8c92f12db2869c3395a3b0502d05e2516446f71f85b9091015550630a85bd0160e11b90565b6000818152600260205260409020546001600160a01b031633146107345760405162461bcd60e51b81526004016105c79061195b565b60075460008281526002602052604090205442600160a01b90910467ffffffffffffffff16909101111561077a5760405162461bcd60e51b81526004016105c7906118a0565b610783816109c8565b60015460008281526002602052604090819020549051635c46a7ef60e11b81526001600160a01b039283169263b88d4fde926107c99230929091169086906004016116cd565b600060405180830381600087803b1580156107e357600080fd5b505af11580156107f7573d6000803e3d6000fd5b5050505060005b60035481101561088b57816003828154811061081657fe5b906000526020600020015414156108835760038054600019810190811061083957fe5b90600052602060002001546003828154811061085157fe5b600091825260209091200155600380548061086857fe5b6001900381819060005260206000200160009055905561088b565b6001016107fe565b50600081815260026020526040908190205490517f37375b03d8924bd8f076f11f8411b9962aa5c02fb489021507bc6bb6f850e365916108d89184916001600160a01b03169042906119e9565b60405180910390a1600090815260026020526040902080546001600160e01b031916815560010180546001600160c01b0319169055565b6001546001600160a01b031681565b60055460045447030390565b6109326111a3565b6001600160a01b03166109436109b9565b6001600160a01b0316146109695760405162461bcd60e51b81526004016105c790611926565b600080546040516001600160a01b03909116907f8be0079c531659141344cd1fd0a4f28419497f9722a3daafe3b4186f6b6457e0908390a3600080546001600160a01b0319169055565b60055481565b6000546001600160a01b031690565b6000818152600260205260409020546001600160a01b031633146109fe5760405162461bcd60e51b81526004016105c79061195b565b610a07816111a7565b5060008181526002602052604090819020600181018054600480546001600160c01b039283169003905581546001600160c01b03198116909255915492519116916001600160a01b0316907f246a5065a86b0171b2c7688055fd2b05eac14b7749e3b9d3460d7783f5fe4b6590610a819084904290611a08565b60405180910390a26000828152600260205260408082205490516001600160a01b03909116908390610ab290611690565b60006040518083038185875af1925050503d8060008114610aef576040519150601f19603f3d011682016040523d82523d6000602084013e610af4565b606091505b5050905080610b155760405162461bcd60e51b81526004016105c79061197f565b505050565b33610b236109b9565b6001600160a01b0316148015610b4757506001546001600160a01b03828116911614155b610b635760405162461bcd60e51b81526004016105c7906117e0565b600180546001600160a01b0319166001600160a01b0392909216919091179055565b60065481565b33610b946109b9565b6001600160a01b0316148015610bb857506008546001600160a01b03828116911614155b610bd45760405162461bcd60e51b81526004016105c7906117e0565b600880546001600160a01b0319166001600160a01b0392909216919091179055565b60045481565b6060600080600160009054906101000a90046001600160a01b03166001600160a01b031663d082e3816040518163ffffffff1660e01b815260040160206040518083038186803b158015610c4f57600080fd5b505afa158015610c63573d6000803e3d6000fd5b505050506040513d601f19601f82011682018060405250810190610c87919061161e565b905060005b81811015610cc5576000818152600260205260409020546001600160a01b0386811691161415610cbd576001830192505b600101610c8c565b5060608267ffffffffffffffff81118015610cdf57600080fd5b50604051908082528060200260200182016040528015610d09578160200160208202803683370190505b5090506000805b83811015610d6e57848210610d2457610d6e565b6000818152600260205260409020546001600160a01b0388811691161415610d665780838381518110610d5357fe5b6020026020010181815250506001820191505b600101610d10565b509095945050505050565b600080805b600354811015610f1257600060038281548110610d9757fe5b6000918252602080832091909101548083526002918290526040928390205460015493516350f385a160e01b81529194504293600160a01b90910467ffffffffffffffff16926001600160a01b03909116916350f385a191610dfe91879190600401611a08565b60206040518083038186803b158015610e1657600080fd5b505afa158015610e2a573d6000803e3d6000fd5b505050506040513d601f19601f82011682018060405250810190610e4e919061161e565b011115610e8157600081815260026020526040902054600160a01b900467ffffffffffffffff1642039290920191610f09565b6001546040516350f385a160e01b81526001600160a01b03909116906350f385a190610eb4908490600290600401611a08565b60206040518083038186803b158015610ecc57600080fd5b505afa158015610ee0573d6000803e3d6000fd5b505050506040513d601f19601f82011682018060405250810190610f04919061161e565b830192505b50600101610d7e565b50905090565b33610f216109b9565b6001600160a01b0316148015610f3957506006548114155b8015610f4757506127108111155b610f635760405162461bcd60e51b81526004016105c7906118d7565b600655565b610f706109b9565b6001600160a01b0316336001600160a01b03161480610f9957506008546001600160a01b031633145b610fb55760405162461bcd60e51b81526004016105c7906119a9565b600580546000918290556008546040519192916001600160a01b03909116908390610fdf90611653565b60006040518083038185875af1925050503d806000811461101c576040519150601f19603f3d011682016040523d82523d6000602084013e611021565b606091505b50509050806110425760405162461bcd60e51b81526004016105c79061197f565b6008546040516001600160a01b03909116907f2da815fefc8e41d093cccd95f24f615deea2db0c5ec95b58f3bf09bf6cca7219906110839085904290611a08565b60405180910390a25050565b6110976111a3565b6001600160a01b03166110a86109b9565b6001600160a01b0316146110ce5760405162461bcd60e51b81526004016105c790611926565b6001600160a01b0381166110f45760405162461bcd60e51b81526004016105c79061185a565b600080546040516001600160a01b03808516939216917f8be0079c531659141344cd1fd0a4f28419497f9722a3daafe3b4186f6b6457e091a3600080546001600160a01b0319166001600160a01b0392909216919091179055565b60075481565b6008546001600160a01b031681565b600260205260009081526040902080546001909101546001600160a01b03821691600160a01b900467ffffffffffffffff16906001600160c01b031683565b3390565b6000806111b2610d79565b9050600081156111dc57816111c685610414565b6111ce61091e565b02816111d657fe5b046111df565b60005b6000858152600260208190526040808320600180820180546001600160c01b031981166001600160c01b03918216890190911617905560048054870181559154905492516350f385a160e01b8152959650939485944294600160a01b90910467ffffffffffffffff16936001600160a01b0316926350f385a192611267928d92909101611a08565b60206040518083038186803b15801561127f57600080fd5b505afa158015611293573d6000803e3d6000fd5b505050506040513d601f19601f820116820180604052508101906112b7919061161e565b0110156113bd5760015460405163570a9f1f60e11b81526001600160a01b039091169063ae153e3e906112f1908990600090600401611a08565b600060405180830381600087803b15801561130b57600080fd5b505af115801561131f573d6000803e3d6000fd5b5050505060005b6003548110156113b757866003828154811061133e57fe5b906000526020600020015414156113af5760038054600019810190811061136157fe5b90600052602060002001546003828154811061137957fe5b600091825260209091200155600380548061139057fe5b60019003818190600052602060002001600090559055600192506113b7565b600101611326565b506114de565b6000868152600260205260409020805467ffffffffffffffff60a01b1916600160a01b4267ffffffffffffffff16021790556001546001600160a01b031663ae153e3e8761140a81610414565b6001546040516350f385a160e01b81526001600160a01b03909116906350f385a19061143d908d90600290600401611a08565b60206040518083038186803b15801561145557600080fd5b505afa158015611469573d6000803e3d6000fd5b505050506040513d601f19601f8201168201806040525081019061148d919061161e565b036040518363ffffffff1660e01b81526004016114ab929190611a08565b600060405180830381600087803b1580156114c557600080fd5b505af11580156114d9573d6000803e3d6000fd5b505050505b50949350505050565b80356001600160a01b038116811461057057600080fd5b60006020828403121561150f578081fd5b61151983836114e7565b9392505050565b60008060008060808587031215611535578283fd5b61153f86866114e7565b9350602061154f878288016114e7565b935060408601359250606086013567ffffffffffffffff80821115611572578384fd5b818801915088601f830112611585578384fd5b813581811115611593578485fd5b604051601f8201601f19168101850183811182821017156115b2578687fd5b60405281815283820185018b10156115c8578586fd5b81858501868301379081019093019390935250939692955090935050565b6000602082840312156115f7578081fd5b81518015158114611519578182fd5b600060208284031215611617578081fd5b5035919050565b60006020828403121561162f578081fd5b5051919050565b60609190911b6bffffffffffffffffffffffff1916815260140190565b7f52656c656173696e67207265776172647320746f207072696d61727950726f6681526a34ba2932b1b2b4bb32b91760a91b6020820152602b0190565b7f52656c656173696e67207265776172647320746f204e4654206f776e65722e008152601f0190565b6001600160a01b0391909116815260200190565b6001600160a01b039384168152919092166020820152604081019190915260806060820181905260009082015260a00190565b6001600160a01b0393909316835267ffffffffffffffff9190911660208301526001600160c01b0316604082015260600190565b6020808252825182820181905260009190848201906040850190845b8181101561176c57835183529284019291840191600101611750565b50909695505050505050565b6001600160e01b031991909116815260200190565b6000602080835283518082850152825b818110156117b95785810183015185820160400152820161179d565b818111156117ca5783604083870101525b50601f01601f1916929092016040019392505050565b60208082526023908201527f6d757374206265206f776e657220262061646472657373206d757374206368616040820152626e676560e81b606082015260800190565b60208082526019908201527f4e6f74207175616c696669656420666f72207374616b696e6700000000000000604082015260600190565b60208082526026908201527f4f776e61626c653a206e6577206f776e657220697320746865207a65726f206160408201526564647265737360d01b606082015260800190565b6020808252601d908201527f4d696e696d756d207374616b696e672074696d65206e6f74206d65742e000000604082015260600190565b6020808252602f908201527f6d757374206265206f776e65722c2076616c7565203c3d2031303030302c207660408201526e185b1d59480f4f8818da185b99d959608a1b606082015260800190565b6020808252818101527f4f776e61626c653a2063616c6c6572206973206e6f7420746865206f776e6572604082015260600190565b6020808252600a90820152692737ba1037bbb732b91760b11b604082015260600190565b60208082526010908201526f2a3930b739b332b9103330b4b632b21760811b604082015260600190565b6020808252601d908201527f4e6f74206f776e6572206f722070726f6669742072656365697665722e000000604082015260600190565b90815260200190565b9283526001600160a01b03919091166020830152604082015260600190565b91825260208201526040019056fea2646970667358221220cdabb33547e5a6a8552328b1d993b473ce1aa737d410578f35a2c96621cf3f2864736f6c634300060c0033",
  "bytecodeSha1": "b67eed5c78aabae88721fff57032724b3b6a79fc",
  "compiler": {
    "evm_version": "istanbul",
    "optimizer": {
      "enabled": true,
      "runs": 200
    },
    "version": "0.6.12+commit.27d51765"
  },
  "contractName": "DipStaking",
  "language": "Solidity",
  "natspec": {
    "kind": "dev",
    "methods": {
      "getActiveEnergyOfToken(uint256)": {
        "details": "Get energy used since timestamp for specific NFT",
        "params": {
          "_id": "-- id of NFT. Must be previous owner to call"
        }
      },
      "getAllNFTsByPreviousOwner(address)": {
        "details": "Get all NFTs owned by owner.",
        "params": {
          "_addy": "-- address to get list of NFTs of"
        },
        "returns": {
          "_0": "-- list of token IDs owned by addy"
        }
      },
      "getAvailableStakingFunds()": {
        "details": "Returns amount of staking funds available, total minus reserved for specific stakers who have been removed from active staking and from owners"
      },
      "getTotalStakingEnergy()": {
        "details": "Adds up all active energy contributed by stakers"
      },
      "onERC721Received(address,address,uint256,bytes)": {
        "details": "Upkeep when receiving NFTs"
      },
      "owner()": {
        "details": "Returns the address of the current owner."
      },
      "renounceOwnership()": {
        "details": "Leaves the contract without owner. It will not be possible to call `onlyOwner` functions anymore. Can only be called by the current owner. NOTE: Renouncing ownership will leave the contract without an owner, thereby removing any functionality that is only available to the owner."
      },
      "setBTDAdress(address)": {
        "details": "Adds up all active energy contributed by stakers",
        "params": {
          "_addy": "-- new address for btd"
        }
      },
      "setOwnersCutPercentage(uint256)": {
        "details": "changes ownersCutPercentage",
        "params": {
          "_newCut": "-- percentage out of 10000"
        }
      },
      "setPrimaryProfitReceiverAddress(address)": {
        "details": "Adds up all active energy contributed by stakers",
        "params": {
          "_addy": "-- new address for btd"
        }
      },
      "transferOwnership(address)": {
        "details": "Transfers ownership of the contract to a new account (`newOwner`). Can only be called by the current owner."
      },
      "unstake(uint256)": {
        "details": "Remove NFT from staking pool, send all profits to owner",
        "params": {
          "_id": "-- id of NFT. Must be previous owner to call"
        }
      },
      "withdrawRewards(uint256)": {
        "details": "Withdraw native coin, which has been earned as a reward.",
        "params": {
          "_id": "-- id of NFT. Must be previous owner to call"
        }
      },
      "withdrawRewardsForPrimaryProfitReceiver()": {
        "details": "Withdraw native coined, earned as reward, and set asid for owners/wallet"
      }
    },
    "version": 1
  },
  "opcodes": "PUSH1 0x80 PUSH1 0x40 MSTORE PUSH1 0x4 CALLDATASIZE LT PUSH2 0x139 JUMPI PUSH1 0x0 CALLDATALOAD PUSH1 0xE0 SHR DUP1 PUSH4 0xA9DB5B27 GT PUSH2 0xAB JUMPI DUP1 PUSH4 0xDC9ABDD3 GT PUSH2 0x6F JUMPI DUP1 PUSH4 0xDC9ABDD3 EQ PUSH2 0x348 JUMPI DUP1 PUSH4 0xED3597E7 EQ PUSH2 0x368 JUMPI DUP1 PUSH4 0xF2FDE38B EQ PUSH2 0x37D JUMPI DUP1 PUSH4 0xF988125C EQ PUSH2 0x39D JUMPI DUP1 PUSH4 0xFB658F35 EQ PUSH2 0x3B2 JUMPI DUP1 PUSH4 0xFD5E6DD1 EQ PUSH2 0x3C7 JUMPI PUSH2 0x15C JUMP JUMPDEST DUP1 PUSH4 0xA9DB5B27 EQ PUSH2 0x2BC JUMPI DUP1 PUSH4 0xB44AAF7E EQ PUSH2 0x2D1 JUMPI DUP1 PUSH4 0xBF739FD5 EQ PUSH2 0x2F1 JUMPI DUP1 PUSH4 0xCD34CBAE EQ PUSH2 0x306 JUMPI DUP1 PUSH4 0xDBF6EBC3 EQ PUSH2 0x333 JUMPI PUSH2 0x15C JUMP JUMPDEST DUP1 PUSH4 0x51FC43E7 GT PUSH2 0xFD JUMPI DUP1 PUSH4 0x51FC43E7 EQ PUSH2 0x228 JUMPI DUP1 PUSH4 0x715018A6 EQ PUSH2 0x23D JUMPI DUP1 PUSH4 0x87498B5F EQ PUSH2 0x252 JUMPI DUP1 PUSH4 0x8DA5CB5B EQ PUSH2 0x267 JUMPI DUP1 PUSH4 0x9342C8F4 EQ PUSH2 0x27C JUMPI DUP1 PUSH4 0xA3E9661D EQ PUSH2 0x29C JUMPI PUSH2 0x15C JUMP JUMPDEST DUP1 PUSH4 0x32B94D1 EQ PUSH2 0x161 JUMPI DUP1 PUSH4 0xDAC11D4 EQ PUSH2 0x197 JUMPI DUP1 PUSH4 0x150B7A02 EQ PUSH2 0x1B7 JUMPI DUP1 PUSH4 0x2E17DE78 EQ PUSH2 0x1E4 JUMPI DUP1 PUSH4 0x45740477 EQ PUSH2 0x206 JUMPI PUSH2 0x15C JUMP JUMPDEST CALLDATASIZE PUSH2 0x15C JUMPI PUSH2 0x2710 CALLVALUE PUSH1 0x6 SLOAD MUL DUP2 PUSH2 0x14D JUMPI INVALID JUMPDEST PUSH1 0x5 DUP1 SLOAD SWAP3 SWAP1 SWAP2 DIV SWAP1 SWAP2 ADD SWAP1 SSTORE STOP JUMPDEST PUSH1 0x0 DUP1 REVERT JUMPDEST CALLVALUE DUP1 ISZERO PUSH2 0x16D JUMPI PUSH1 0x0 DUP1 REVERT JUMPDEST POP PUSH2 0x181 PUSH2 0x17C CALLDATASIZE PUSH1 0x4 PUSH2 0x1606 JUMP JUMPDEST PUSH2 0x3F6 JUMP JUMPDEST PUSH1 0x40 MLOAD PUSH2 0x18E SWAP2 SWAP1 PUSH2 0x19E0 JUMP JUMPDEST PUSH1 0x40 MLOAD DUP1 SWAP2 SUB SWAP1 RETURN JUMPDEST CALLVALUE DUP1 ISZERO PUSH2 0x1A3 JUMPI PUSH1 0x0 DUP1 REVERT JUMPDEST POP PUSH2 0x181 PUSH2 0x1B2 CALLDATASIZE PUSH1 0x4 PUSH2 0x1606 JUMP JUMPDEST PUSH2 0x414 JUMP JUMPDEST CALLVALUE DUP1 ISZERO PUSH2 0x1C3 JUMPI PUSH1 0x0 DUP1 REVERT JUMPDEST POP PUSH2 0x1D7 PUSH2 0x1D2 CALLDATASIZE PUSH1 0x4 PUSH2 0x1520 JUMP JUMPDEST PUSH2 0x576 JUMP JUMPDEST PUSH1 0x40 MLOAD PUSH2 0x18E SWAP2 SWAP1 PUSH2 0x1778 JUMP JUMPDEST CALLVALUE DUP1 ISZERO PUSH2 0x1F0 JUMPI PUSH1 0x0 DUP1 REVERT JUMPDEST POP PUSH2 0x204 PUSH2 0x1FF CALLDATASIZE PUSH1 0x4 PUSH2 0x1606 JUMP JUMPDEST PUSH2 0x6FE JUMP JUMPDEST STOP JUMPDEST CALLVALUE DUP1 ISZERO PUSH2 0x212 JUMPI PUSH1 0x0 DUP1 REVERT JUMPDEST POP PUSH2 0x21B PUSH2 0x90F JUMP JUMPDEST PUSH1 0x40 MLOAD PUSH2 0x18E SWAP2 SWAP1 PUSH2 0x16B9 JUMP JUMPDEST CALLVALUE DUP1 ISZERO PUSH2 0x234 JUMPI PUSH1 0x0 DUP1 REVERT JUMPDEST POP PUSH2 0x181 PUSH2 0x91E JUMP JUMPDEST CALLVALUE DUP1 ISZERO PUSH2 0x249 JUMPI PUSH1 0x0 DUP1 REVERT JUMPDEST POP PUSH2 0x204 PUSH2 0x92A JUMP JUMPDEST CALLVALUE DUP1 ISZERO PUSH2 0x25E JUMPI PUSH1 0x0 DUP1 REVERT JUMPDEST POP PUSH2 0x181 PUSH2 0x9B3 JUMP JUMPDEST CALLVALUE DUP1 ISZERO PUSH2 0x273 JUMPI PUSH1 0x0 DUP1 REVERT JUMPDEST POP PUSH2 0x21B PUSH2 0x9B9 JUMP JUMPDEST CALLVALUE DUP1 ISZERO PUSH2 0x288 JUMPI PUSH1 0x0 DUP1 REVERT JUMPDEST POP PUSH2 0x204 PUSH2 0x297 CALLDATASIZE PUSH1 0x4 PUSH2 0x1606 JUMP JUMPDEST PUSH2 0x9C8 JUMP JUMPDEST CALLVALUE DUP1 ISZERO PUSH2 0x2A8 JUMPI PUSH1 0x0 DUP1 REVERT JUMPDEST POP PUSH2 0x204 PUSH2 0x2B7 CALLDATASIZE PUSH1 0x4 PUSH2 0x14FE JUMP JUMPDEST PUSH2 0xB1A JUMP JUMPDEST CALLVALUE DUP1 ISZERO PUSH2 0x2C8 JUMPI PUSH1 0x0 DUP1 REVERT JUMPDEST POP PUSH2 0x181 PUSH2 0xB85 JUMP JUMPDEST CALLVALUE DUP1 ISZERO PUSH2 0x2DD JUMPI PUSH1 0x0 DUP1 REVERT JUMPDEST POP PUSH2 0x204 PUSH2 0x2EC CALLDATASIZE PUSH1 0x4 PUSH2 0x14FE JUMP JUMPDEST PUSH2 0xB8B JUMP JUMPDEST CALLVALUE DUP1 ISZERO PUSH2 0x2FD JUMPI PUSH1 0x0 DUP1 REVERT JUMPDEST POP PUSH2 0x181 PUSH2 0xBF6 JUMP JUMPDEST CALLVALUE DUP1 ISZERO PUSH2 0x312 JUMPI PUSH1 0x0 DUP1 REVERT JUMPDEST POP PUSH2 0x326 PUSH2 0x321 CALLDATASIZE PUSH1 0x4 PUSH2 0x14FE JUMP JUMPDEST PUSH2 0xBFC JUMP JUMPDEST PUSH1 0x40 MLOAD PUSH2 0x18E SWAP2 SWAP1 PUSH2 0x1734 JUMP JUMPDEST CALLVALUE DUP1 ISZERO PUSH2 0x33F JUMPI PUSH1 0x0 DUP1 REVERT JUMPDEST POP PUSH2 0x181 PUSH2 0xD79 JUMP JUMPDEST CALLVALUE DUP1 ISZERO PUSH2 0x354 JUMPI PUSH1 0x0 DUP1 REVERT JUMPDEST POP PUSH2 0x204 PUSH2 0x363 CALLDATASIZE PUSH1 0x4 PUSH2 0x1606 JUMP JUMPDEST PUSH2 0xF18 JUMP JUMPDEST CALLVALUE DUP1 ISZERO PUSH2 0x374 JUMPI PUSH1 0x0 DUP1 REVERT JUMPDEST POP PUSH2 0x204 PUSH2 0xF68 JUMP JUMPDEST CALLVALUE DUP1 ISZERO PUSH2 0x389 JUMPI PUSH1 0x0 DUP1 REVERT JUMPDEST POP PUSH2 0x204 PUSH2 0x398 CALLDATASIZE PUSH1 0x4 PUSH2 0x14FE JUMP JUMPDEST PUSH2 0x108F JUMP JUMPDEST CALLVALUE DUP1 ISZERO PUSH2 0x3A9 JUMPI PUSH1 0x0 DUP1 REVERT JUMPDEST POP PUSH2 0x181 PUSH2 0x114F JUMP JUMPDEST CALLVALUE DUP1 ISZERO PUSH2 0x3BE JUMPI PUSH1 0x0 DUP1 REVERT JUMPDEST POP PUSH2 0x21B PUSH2 0x1155 JUMP JUMPDEST CALLVALUE DUP1 ISZERO PUSH2 0x3D3 JUMPI PUSH1 0x0 DUP1 REVERT JUMPDEST POP PUSH2 0x3E7 PUSH2 0x3E2 CALLDATASIZE PUSH1 0x4 PUSH2 0x1606 JUMP JUMPDEST PUSH2 0x1164 JUMP JUMPDEST PUSH1 0x40 MLOAD PUSH2 0x18E SWAP4 SWAP3 SWAP2 SWAP1 PUSH2 0x1700 JUMP JUMPDEST PUSH1 0x3 DUP2 DUP2 SLOAD DUP2 LT PUSH2 0x403 JUMPI INVALID JUMPDEST PUSH1 0x0 SWAP2 DUP3 MSTORE PUSH1 0x20 SWAP1 SWAP2 KECCAK256 ADD SLOAD SWAP1 POP DUP2 JUMP JUMPDEST PUSH1 0x0 DUP2 DUP2 MSTORE PUSH1 0x2 PUSH1 0x20 DUP2 SWAP1 MSTORE PUSH1 0x40 DUP1 DUP4 KECCAK256 SLOAD PUSH1 0x1 SLOAD SWAP2 MLOAD PUSH4 0x50F385A1 PUSH1 0xE0 SHL DUP2 MSTORE DUP5 SWAP4 TIMESTAMP SWAP4 PUSH1 0x1 PUSH1 0xA0 SHL SWAP1 SWAP4 DIV PUSH8 0xFFFFFFFFFFFFFFFF AND SWAP3 PUSH1 0x1 PUSH1 0x1 PUSH1 0xA0 SHL SUB AND SWAP2 PUSH4 0x50F385A1 SWAP2 PUSH2 0x46B SWAP2 DUP10 SWAP2 SWAP1 PUSH1 0x4 ADD PUSH2 0x1A08 JUMP JUMPDEST PUSH1 0x20 PUSH1 0x40 MLOAD DUP1 DUP4 SUB DUP2 DUP7 DUP1 EXTCODESIZE ISZERO DUP1 ISZERO PUSH2 0x483 JUMPI PUSH1 0x0 DUP1 REVERT JUMPDEST POP GAS STATICCALL ISZERO DUP1 ISZERO PUSH2 0x497 JUMPI RETURNDATASIZE PUSH1 0x0 DUP1 RETURNDATACOPY RETURNDATASIZE PUSH1 0x0 REVERT JUMPDEST POP POP POP POP PUSH1 0x40 MLOAD RETURNDATASIZE PUSH1 0x1F NOT PUSH1 0x1F DUP3 ADD AND DUP3 ADD DUP1 PUSH1 0x40 MSTORE POP DUP2 ADD SWAP1 PUSH2 0x4BB SWAP2 SWAP1 PUSH2 0x161E JUMP JUMPDEST ADD GT ISZERO PUSH2 0x4EA JUMPI POP PUSH1 0x0 DUP3 DUP2 MSTORE PUSH1 0x2 PUSH1 0x20 MSTORE PUSH1 0x40 SWAP1 KECCAK256 SLOAD PUSH1 0x1 PUSH1 0xA0 SHL SWAP1 DIV PUSH8 0xFFFFFFFFFFFFFFFF AND TIMESTAMP SUB PUSH2 0x570 JUMP JUMPDEST PUSH1 0x1 SLOAD PUSH1 0x40 MLOAD PUSH4 0x50F385A1 PUSH1 0xE0 SHL DUP2 MSTORE PUSH1 0x1 PUSH1 0x1 PUSH1 0xA0 SHL SUB SWAP1 SWAP2 AND SWAP1 PUSH4 0x50F385A1 SWAP1 PUSH2 0x51D SWAP1 DUP7 SWAP1 PUSH1 0x2 SWAP1 PUSH1 0x4 ADD PUSH2 0x1A08 JUMP JUMPDEST PUSH1 0x20 PUSH1 0x40 MLOAD DUP1 DUP4 SUB DUP2 DUP7 DUP1 EXTCODESIZE ISZERO DUP1 ISZERO PUSH2 0x535 JUMPI PUSH1 0x0 DUP1 REVERT JUMPDEST POP GAS STATICCALL ISZERO DUP1 ISZERO PUSH2 0x549 JUMPI RETURNDATASIZE PUSH1 0x0 DUP1 RETURNDATACOPY RETURNDATASIZE PUSH1 0x0 REVERT JUMPDEST POP POP POP POP PUSH1 0x40 MLOAD RETURNDATASIZE PUSH1 0x1F NOT PUSH1 0x1F DUP3 ADD AND DUP3 ADD DUP1 PUSH1 0x40 MSTORE POP DUP2 ADD SWAP1 PUSH2 0x56D SWAP2 SWAP1 PUSH2 0x161E JUMP JUMPDEST SWAP1 POP JUMPDEST SWAP3 SWAP2 POP POP JUMP JUMPDEST PUSH1 0x1 SLOAD PUSH1 0x40 MLOAD PUSH1 0x0 SWAP2 PUSH1 0x1 PUSH1 0x1 PUSH1 0xA0 SHL SUB AND CALLER SWAP1 DUP2 EQ SWAP2 PUSH2 0x59A SWAP2 SWAP1 PUSH1 0x20 ADD PUSH2 0x1636 JUMP JUMPDEST PUSH1 0x40 MLOAD PUSH1 0x20 DUP2 DUP4 SUB SUB DUP2 MSTORE SWAP1 PUSH1 0x40 MSTORE SWAP1 PUSH2 0x5D0 JUMPI PUSH1 0x40 MLOAD PUSH3 0x461BCD PUSH1 0xE5 SHL DUP2 MSTORE PUSH1 0x4 ADD PUSH2 0x5C7 SWAP2 SWAP1 PUSH2 0x178D JUMP JUMPDEST PUSH1 0x40 MLOAD DUP1 SWAP2 SUB SWAP1 REVERT JUMPDEST POP PUSH1 0x1 SLOAD PUSH1 0x40 MLOAD PUSH4 0xFF45859 PUSH1 0xE0 SHL DUP2 MSTORE PUSH1 0x1 PUSH1 0x1 PUSH1 0xA0 SHL SUB SWAP1 SWAP2 AND SWAP1 PUSH4 0xFF45859 SWAP1 PUSH2 0x601 SWAP1 DUP7 SWAP1 PUSH1 0x4 ADD PUSH2 0x19E0 JUMP JUMPDEST PUSH1 0x20 PUSH1 0x40 MLOAD DUP1 DUP4 SUB DUP2 DUP7 DUP1 EXTCODESIZE ISZERO DUP1 ISZERO PUSH2 0x619 JUMPI PUSH1 0x0 DUP1 REVERT JUMPDEST POP GAS STATICCALL ISZERO DUP1 ISZERO PUSH2 0x62D JUMPI RETURNDATASIZE PUSH1 0x0 DUP1 RETURNDATACOPY RETURNDATASIZE PUSH1 0x0 REVERT JUMPDEST POP POP POP POP PUSH1 0x40 MLOAD RETURNDATASIZE PUSH1 0x1F NOT PUSH1 0x1F DUP3 ADD AND DUP3 ADD DUP1 PUSH1 0x40 MSTORE POP DUP2 ADD SWAP1 PUSH2 0x651 SWAP2 SWAP1 PUSH2 0x15E6 JUMP JUMPDEST ISZERO ISZERO PUSH1 0x1 EQ PUSH2 0x672 JUMPI PUSH1 0x40 MLOAD PUSH3 0x461BCD PUSH1 0xE5 SHL DUP2 MSTORE PUSH1 0x4 ADD PUSH2 0x5C7 SWAP1 PUSH2 0x1823 JUMP JUMPDEST POP POP PUSH1 0x0 DUP2 DUP2 MSTORE PUSH1 0x2 PUSH1 0x20 MSTORE PUSH1 0x40 DUP2 KECCAK256 DUP1 SLOAD PUSH8 0xFFFFFFFFFFFFFFFF PUSH1 0xA0 SHL NOT AND PUSH1 0x1 PUSH1 0xA0 SHL TIMESTAMP PUSH8 0xFFFFFFFFFFFFFFFF AND MUL OR PUSH1 0x1 PUSH1 0x1 PUSH1 0xA0 SHL SUB NOT AND PUSH1 0x1 PUSH1 0x1 PUSH1 0xA0 SHL SUB SWAP5 SWAP1 SWAP5 AND SWAP4 SWAP1 SWAP4 OR SWAP1 SWAP3 SSTORE PUSH1 0x3 DUP1 SLOAD PUSH1 0x1 DUP2 ADD DUP3 SSTORE SWAP3 MSTORE PUSH32 0xC2575A0E9E593C00F959F8C92F12DB2869C3395A3B0502D05E2516446F71F85B SWAP1 SWAP2 ADD SSTORE POP PUSH4 0xA85BD01 PUSH1 0xE1 SHL SWAP1 JUMP JUMPDEST PUSH1 0x0 DUP2 DUP2 MSTORE PUSH1 0x2 PUSH1 0x20 MSTORE PUSH1 0x40 SWAP1 KECCAK256 SLOAD PUSH1 0x1 PUSH1 0x1 PUSH1 0xA0 SHL SUB AND CALLER EQ PUSH2 0x734 JUMPI PUSH1 0x40 MLOAD PUSH3 0x461BCD PUSH1 0xE5 SHL DUP2 MSTORE PUSH1 0x4 ADD PUSH2 0x5C7 SWAP1 PUSH2 0x195B JUMP JUMPDEST PUSH1 0x7 SLOAD PUSH1 0x0 DUP3 DUP2 MSTORE PUSH1 0x2 PUSH1 0x20 MSTORE PUSH1 0x40 SWAP1 KECCAK256 SLOAD TIMESTAMP PUSH1 0x1 PUSH1 0xA0 SHL SWAP1 SWAP2 DIV PUSH8 0xFFFFFFFFFFFFFFFF AND SWAP1 SWAP2 ADD GT ISZERO PUSH2 0x77A JUMPI PUSH1 0x40 MLOAD PUSH3 0x461BCD PUSH1 0xE5 SHL DUP2 MSTORE PUSH1 0x4 ADD PUSH2 0x5C7 SWAP1 PUSH2 0x18A0 JUMP JUMPDEST PUSH2 0x783 DUP2 PUSH2 0x9C8 JUMP JUMPDEST PUSH1 0x1 SLOAD PUSH1 0x0 DUP3 DUP2 MSTORE PUSH1 0x2 PUSH1 0x20 MSTORE PUSH1 0x40 SWAP1 DUP2 SWAP1 KECCAK256 SLOAD SWAP1 MLOAD PUSH4 0x5C46A7EF PUSH1 0xE1 SHL DUP2 MSTORE PUSH1 0x1 PUSH1 0x1 PUSH1 0xA0 SHL SUB SWAP3 DUP4 AND SWAP3 PUSH4 0xB88D4FDE SWAP3 PUSH2 0x7C9 SWAP3 ADDRESS SWAP3 SWAP1 SWAP2 AND SWAP1 DUP7 SWAP1 PUSH1 0x4 ADD PUSH2 0x16CD JUMP JUMPDEST PUSH1 0x0 PUSH1 0x40 MLOAD DUP1 DUP4 SUB DUP2 PUSH1 0x0 DUP8 DUP1 EXTCODESIZE ISZERO DUP1 ISZERO PUSH2 0x7E3 JUMPI PUSH1 0x0 DUP1 REVERT JUMPDEST POP GAS CALL ISZERO DUP1 ISZERO PUSH2 0x7F7 JUMPI RETURNDATASIZE PUSH1 0x0 DUP1 RETURNDATACOPY RETURNDATASIZE PUSH1 0x0 REVERT JUMPDEST POP POP POP POP PUSH1 0x0 JUMPDEST PUSH1 0x3 SLOAD DUP2 LT ISZERO PUSH2 0x88B JUMPI DUP2 PUSH1 0x3 DUP3 DUP2 SLOAD DUP2 LT PUSH2 0x816 JUMPI INVALID JUMPDEST SWAP1 PUSH1 0x0 MSTORE PUSH1 0x20 PUSH1 0x0 KECCAK256 ADD SLOAD EQ ISZERO PUSH2 0x883 JUMPI PUSH1 0x3 DUP1 SLOAD PUSH1 0x0 NOT DUP2 ADD SWAP1 DUP2 LT PUSH2 0x839 JUMPI INVALID JUMPDEST SWAP1 PUSH1 0x0 MSTORE PUSH1 0x20 PUSH1 0x0 KECCAK256 ADD SLOAD PUSH1 0x3 DUP3 DUP2 SLOAD DUP2 LT PUSH2 0x851 JUMPI INVALID JUMPDEST PUSH1 0x0 SWAP2 DUP3 MSTORE PUSH1 0x20 SWAP1 SWAP2 KECCAK256 ADD SSTORE PUSH1 0x3 DUP1 SLOAD DUP1 PUSH2 0x868 JUMPI INVALID JUMPDEST PUSH1 0x1 SWAP1 SUB DUP2 DUP2 SWAP1 PUSH1 0x0 MSTORE PUSH1 0x20 PUSH1 0x0 KECCAK256 ADD PUSH1 0x0 SWAP1 SSTORE SWAP1 SSTORE PUSH2 0x88B JUMP JUMPDEST PUSH1 0x1 ADD PUSH2 0x7FE JUMP JUMPDEST POP PUSH1 0x0 DUP2 DUP2 MSTORE PUSH1 0x2 PUSH1 0x20 MSTORE PUSH1 0x40 SWAP1 DUP2 SWAP1 KECCAK256 SLOAD SWAP1 MLOAD PUSH32 0x37375B03D8924BD8F076F11F8411B9962AA5C02FB489021507BC6BB6F850E365 SWAP2 PUSH2 0x8D8 SWAP2 DUP5 SWAP2 PUSH1 0x1 PUSH1 0x1 PUSH1 0xA0 SHL SUB AND SWAP1 TIMESTAMP SWAP1 PUSH2 0x19E9 JUMP JUMPDEST PUSH1 0x40 MLOAD DUP1 SWAP2 SUB SWAP1 LOG1 PUSH1 0x0 SWAP1 DUP2 MSTORE PUSH1 0x2 PUSH1 0x20 MSTORE PUSH1 0x40 SWAP1 KECCAK256 DUP1 SLOAD PUSH1 0x1 PUSH1 0x1 PUSH1 0xE0 SHL SUB NOT AND DUP2 SSTORE PUSH1 0x1 ADD DUP1 SLOAD PUSH1 0x1 PUSH1 0x1 PUSH1 0xC0 SHL SUB NOT AND SWAP1 SSTORE JUMP JUMPDEST PUSH1 0x1 SLOAD PUSH1 0x1 PUSH1 0x1 PUSH1 0xA0 SHL SUB AND DUP2 JUMP JUMPDEST PUSH1 0x5 SLOAD PUSH1 0x4 SLOAD SELFBALANCE SUB SUB SWAP1 JUMP JUMPDEST PUSH2 0x932 PUSH2 0x11A3 JUMP JUMPDEST PUSH1 0x1 PUSH1 0x1 PUSH1 0xA0 SHL SUB AND PUSH2 0x943 PUSH2 0x9B9 JUMP JUMPDEST PUSH1 0x1 PUSH1 0x1 PUSH1 0xA0 SHL SUB AND EQ PUSH2 0x969 JUMPI PUSH1 0x40 MLOAD PUSH3 0x461BCD PUSH1 0xE5 SHL DUP2 MSTORE PUSH1 0x4 ADD PUSH2 0x5C7 SWAP1 PUSH2 0x1926 JUMP JUMPDEST PUSH1 0x0 DUP1 SLOAD PUSH1 0x40 MLOAD PUSH1 0x1 PUSH1 0x1 PUSH1 0xA0 SHL SUB SWAP1 SWAP2 AND SWAP1 PUSH32 0x8BE0079C531659141344CD1FD0A4F28419497F9722A3DAAFE3B4186F6B6457E0 SWAP1 DUP4 SWAP1 LOG3 PUSH1 0x0 DUP1 SLOAD PUSH1 0x1 PUSH1 0x1 PUSH1 0xA0 SHL SUB NOT AND SWAP1 SSTORE JUMP JUMPDEST PUSH1 0x5 SLOAD DUP2 JUMP JUMPDEST PUSH1 0x0 SLOAD PUSH1 0x1 PUSH1 0x1 PUSH1 0xA0 SHL SUB AND SWAP1 JUMP JUMPDEST PUSH1 0x0 DUP2 DUP2 MSTORE PUSH1 0x2 PUSH1 0x20 MSTORE PUSH1 0x40 SWAP1 KECCAK256 SLOAD PUSH1 0x1 PUSH1 0x1 PUSH1 0xA0 SHL SUB AND CALLER EQ PUSH2 0x9FE JUMPI PUSH1 0x40 MLOAD PUSH3 0x461BCD PUSH1 0xE5 SHL DUP2 MSTORE PUSH1 0x4 ADD PUSH2 0x5C7 SWAP1 PUSH2 0x195B JUMP JUMPDEST PUSH2 0xA07 DUP2 PUSH2 0x11A7 JUMP JUMPDEST POP PUSH1 0x0 DUP2 DUP2 MSTORE PUSH1 0x2 PUSH1 0x20 MSTORE PUSH1 0x40 SWAP1 DUP2 SWAP1 KECCAK256 PUSH1 0x1 DUP2 ADD DUP1 SLOAD PUSH1 0x4 DUP1 SLOAD PUSH1 0x1 PUSH1 0x1 PUSH1 0xC0 SHL SUB SWAP3 DUP4 AND SWAP1 SUB SWAP1 SSTORE DUP2 SLOAD PUSH1 0x1 PUSH1 0x1 PUSH1 0xC0 SHL SUB NOT DUP2 AND SWAP1 SWAP3 SSTORE SWAP2 SLOAD SWAP3 MLOAD SWAP2 AND SWAP2 PUSH1 0x1 PUSH1 0x1 PUSH1 0xA0 SHL SUB AND SWAP1 PUSH32 0x246A5065A86B0171B2C7688055FD2B05EAC14B7749E3B9D3460D7783F5FE4B65 SWAP1 PUSH2 0xA81 SWAP1 DUP5 SWAP1 TIMESTAMP SWAP1 PUSH2 0x1A08 JUMP JUMPDEST PUSH1 0x40 MLOAD DUP1 SWAP2 SUB SWAP1 LOG2 PUSH1 0x0 DUP3 DUP2 MSTORE PUSH1 0x2 PUSH1 0x20 MSTORE PUSH1 0x40 DUP1 DUP3 KECCAK256 SLOAD SWAP1 MLOAD PUSH1 0x1 PUSH1 0x1 PUSH1 0xA0 SHL SUB SWAP1 SWAP2 AND SWAP1 DUP4 SWAP1 PUSH2 0xAB2 SWAP1 PUSH2 0x1690 JUMP JUMPDEST PUSH1 0x0 PUSH1 0x40 MLOAD DUP1 DUP4 SUB DUP2 DUP6 DUP8 GAS CALL SWAP3 POP POP POP RETURNDATASIZE DUP1 PUSH1 0x0 DUP2 EQ PUSH2 0xAEF JUMPI PUSH1 0x40 MLOAD SWAP2 POP PUSH1 0x1F NOT PUSH1 0x3F RETURNDATASIZE ADD AND DUP3 ADD PUSH1 0x40 MSTORE RETURNDATASIZE DUP3 MSTORE RETURNDATASIZE PUSH1 0x0 PUSH1 0x20 DUP5 ADD RETURNDATACOPY PUSH2 0xAF4 JUMP JUMPDEST PUSH1 0x60 SWAP2 POP JUMPDEST POP POP SWAP1 POP DUP1 PUSH2 0xB15 JUMPI PUSH1 0x40 MLOAD PUSH3 0x461BCD PUSH1 0xE5 SHL DUP2 MSTORE PUSH1 0x4 ADD PUSH2 0x5C7 SWAP1 PUSH2 0x197F JUMP JUMPDEST POP POP POP JUMP JUMPDEST CALLER PUSH2 0xB23 PUSH2 0x9B9 JUMP JUMPDEST PUSH1 0x1 PUSH1 0x1 PUSH1 0xA0 SHL SUB AND EQ DUP1 ISZERO PUSH2 0xB47 JUMPI POP PUSH1 0x1 SLOAD PUSH1 0x1 PUSH1 0x1 PUSH1 0xA0 SHL SUB DUP3 DUP2 AND SWAP2 AND EQ ISZERO JUMPDEST PUSH2 0xB63 JUMPI PUSH1 0x40 MLOAD PUSH3 0x461BCD PUSH1 0xE5 SHL DUP2 MSTORE PUSH1 0x4 ADD PUSH2 0x5C7 SWAP1 PUSH2 0x17E0 JUMP JUMPDEST PUSH1 0x1 DUP1 SLOAD PUSH1 0x1 PUSH1 0x1 PUSH1 0xA0 SHL SUB NOT AND PUSH1 0x1 PUSH1 0x1 PUSH1 0xA0 SHL SUB SWAP3 SWAP1 SWAP3 AND SWAP2 SWAP1 SWAP2 OR SWAP1 SSTORE JUMP JUMPDEST PUSH1 0x6 SLOAD DUP2 JUMP JUMPDEST CALLER PUSH2 0xB94 PUSH2 0x9B9 JUMP JUMPDEST PUSH1 0x1 PUSH1 0x1 PUSH1 0xA0 SHL SUB AND EQ DUP1 ISZERO PUSH2 0xBB8 JUMPI POP PUSH1 0x8 SLOAD PUSH1 0x1 PUSH1 0x1 PUSH1 0xA0 SHL SUB DUP3 DUP2 AND SWAP2 AND EQ ISZERO JUMPDEST PUSH2 0xBD4 JUMPI PUSH1 0x40 MLOAD PUSH3 0x461BCD PUSH1 0xE5 SHL DUP2 MSTORE PUSH1 0x4 ADD PUSH2 0x5C7 SWAP1 PUSH2 0x17E0 JUMP JUMPDEST PUSH1 0x8 DUP1 SLOAD PUSH1 0x1 PUSH1 0x1 PUSH1 0xA0 SHL SUB NOT AND PUSH1 0x1 PUSH1 0x1 PUSH1 0xA0 SHL SUB SWAP3 SWAP1 SWAP3 AND SWAP2 SWAP1 SWAP2 OR SWAP1 SSTORE JUMP JUMPDEST PUSH1 0x4 SLOAD DUP2 JUMP JUMPDEST PUSH1 0x60 PUSH1 0x0 DUP1 PUSH1 0x1 PUSH1 0x0 SWAP1 SLOAD SWAP1 PUSH2 0x100 EXP SWAP1 DIV PUSH1 0x1 PUSH1 0x1 PUSH1 0xA0 SHL SUB AND PUSH1 0x1 PUSH1 0x1 PUSH1 0xA0 SHL SUB AND PUSH4 0xD082E381 PUSH1 0x40 MLOAD DUP2 PUSH4 0xFFFFFFFF AND PUSH1 0xE0 SHL DUP2 MSTORE PUSH1 0x4 ADD PUSH1 0x20 PUSH1 0x40 MLOAD DUP1 DUP4 SUB DUP2 DUP7 DUP1 EXTCODESIZE ISZERO DUP1 ISZERO PUSH2 0xC4F JUMPI PUSH1 0x0 DUP1 REVERT JUMPDEST POP GAS STATICCALL ISZERO DUP1 ISZERO PUSH2 0xC63 JUMPI RETURNDATASIZE PUSH1 0x0 DUP1 RETURNDATACOPY RETURNDATASIZE PUSH1 0x0 REVERT JUMPDEST POP POP POP POP PUSH1 0x40 MLOAD RETURNDATASIZE PUSH1 0x1F NOT PUSH1 0x1F DUP3 ADD AND DUP3 ADD DUP1 PUSH1 0x40 MSTORE POP DUP2 ADD SWAP1 PUSH2 0xC87 SWAP2 SWAP1 PUSH2 0x161E JUMP JUMPDEST SWAP1 POP PUSH1 0x0 JUMPDEST DUP2 DUP2 LT ISZERO PUSH2 0xCC5 JUMPI PUSH1 0x0 DUP2 DUP2 MSTORE PUSH1 0x2 PUSH1 0x20 MSTORE PUSH1 0x40 SWAP1 KECCAK256 SLOAD PUSH1 0x1 PUSH1 0x1 PUSH1 0xA0 SHL SUB DUP7 DUP2 AND SWAP2 AND EQ ISZERO PUSH2 0xCBD JUMPI PUSH1 0x1 DUP4 ADD SWAP3 POP JUMPDEST PUSH1 0x1 ADD PUSH2 0xC8C JUMP JUMPDEST POP PUSH1 0x60 DUP3 PUSH8 0xFFFFFFFFFFFFFFFF DUP2 GT DUP1 ISZERO PUSH2 0xCDF JUMPI PUSH1 0x0 DUP1 REVERT JUMPDEST POP PUSH1 0x40 MLOAD SWAP1 DUP1 DUP3 MSTORE DUP1 PUSH1 0x20 MUL PUSH1 0x20 ADD DUP3 ADD PUSH1 0x40 MSTORE DUP1 ISZERO PUSH2 0xD09 JUMPI DUP2 PUSH1 0x20 ADD PUSH1 0x20 DUP3 MUL DUP1 CALLDATASIZE DUP4 CALLDATACOPY ADD SWAP1 POP JUMPDEST POP SWAP1 POP PUSH1 0x0 DUP1 JUMPDEST DUP4 DUP2 LT ISZERO PUSH2 0xD6E JUMPI DUP5 DUP3 LT PUSH2 0xD24 JUMPI PUSH2 0xD6E JUMP JUMPDEST PUSH1 0x0 DUP2 DUP2 MSTORE PUSH1 0x2 PUSH1 0x20 MSTORE PUSH1 0x40 SWAP1 KECCAK256 SLOAD PUSH1 0x1 PUSH1 0x1 PUSH1 0xA0 SHL SUB DUP9 DUP2 AND SWAP2 AND EQ ISZERO PUSH2 0xD66 JUMPI DUP1 DUP4 DUP4 DUP2 MLOAD DUP2 LT PUSH2 0xD53 JUMPI INVALID JUMPDEST PUSH1 0x20 MUL PUSH1 0x20 ADD ADD DUP2 DUP2 MSTORE POP POP PUSH1 0x1 DUP3 ADD SWAP2 POP JUMPDEST PUSH1 0x1 ADD PUSH2 0xD10 JUMP JUMPDEST POP SWAP1 SWAP6 SWAP5 POP POP POP POP POP JUMP JUMPDEST PUSH1 0x0 DUP1 DUP1 JUMPDEST PUSH1 0x3 SLOAD DUP2 LT ISZERO PUSH2 0xF12 JUMPI PUSH1 0x0 PUSH1 0x3 DUP3 DUP2 SLOAD DUP2 LT PUSH2 0xD97 JUMPI INVALID JUMPDEST PUSH1 0x0 SWAP2 DUP3 MSTORE PUSH1 0x20 DUP1 DUP4 KECCAK256 SWAP2 SWAP1 SWAP2 ADD SLOAD DUP1 DUP4 MSTORE PUSH1 0x2 SWAP2 DUP3 SWAP1 MSTORE PUSH1 0x40 SWAP3 DUP4 SWAP1 KECCAK256 SLOAD PUSH1 0x1 SLOAD SWAP4 MLOAD PUSH4 0x50F385A1 PUSH1 0xE0 SHL DUP2 MSTORE SWAP2 SWAP5 POP TIMESTAMP SWAP4 PUSH1 0x1 PUSH1 0xA0 SHL SWAP1 SWAP2 DIV PUSH8 0xFFFFFFFFFFFFFFFF AND SWAP3 PUSH1 0x1 PUSH1 0x1 PUSH1 0xA0 SHL SUB SWAP1 SWAP2 AND SWAP2 PUSH4 0x50F385A1 SWAP2 PUSH2 0xDFE SWAP2 DUP8 SWAP2 SWAP1 PUSH1 0x4 ADD PUSH2 0x1A08 JUMP JUMPDEST PUSH1 0x20 PUSH1 0x40 MLOAD DUP1 DUP4 SUB DUP2 DUP7 DUP1 EXTCODESIZE ISZERO DUP1 ISZERO PUSH2 0xE16 JUMPI PUSH1 0x0 DUP1 REVERT JUMPDEST POP GAS STATICCALL ISZERO DUP1 ISZERO PUSH2 0xE2A JUMPI RETURNDATASIZE PUSH1 0x0 DUP1 RETURNDATACOPY RETURNDATASIZE PUSH1 0x0 REVERT JUMPDEST POP POP POP POP PUSH1 0x40 MLOAD RETURNDATASIZE PUSH1 0x1F NOT PUSH1 0x1F DUP3 ADD AND DUP3 ADD DUP1 PUSH1 0x40 MSTORE POP DUP2 ADD SWAP1 PUSH2 0xE4E SWAP2 SWAP1 PUSH2 0x161E JUMP JUMPDEST ADD GT ISZERO PUSH2 0xE81 JUMPI PUSH1 0x0 DUP2 DUP2 MSTORE PUSH1 0x2 PUSH1 0x20 MSTORE PUSH1 0x40 SWAP1 KECCAK256 SLOAD PUSH1 0x1 PUSH1 0xA0 SHL SWAP1 DIV PUSH8 0xFFFFFFFFFFFFFFFF AND TIMESTAMP SUB SWAP3 SWAP1 SWAP3 ADD SWAP2 PUSH2 0xF09 JUMP JUMPDEST PUSH1 0x1 SLOAD PUSH1 0x40 MLOAD PUSH4 0x50F385A1 PUSH1 0xE0 SHL DUP2 MSTORE PUSH1 0x1 PUSH1 0x1 PUSH1 0xA0 SHL SUB SWAP1 SWAP2 AND SWAP1 PUSH4 0x50F385A1 SWAP1 PUSH2 0xEB4 SWAP1 DUP5 SWAP1 PUSH1 0x2 SWAP1 PUSH1 0x4 ADD PUSH2 0x1A08 JUMP JUMPDEST PUSH1 0x20 PUSH1 0x40 MLOAD DUP1 DUP4 SUB DUP2 DUP7 DUP1 EXTCODESIZE ISZERO DUP1 ISZERO PUSH2 0xECC JUMPI PUSH1 0x0 DUP1 REVERT JUMPDEST POP GAS STATICCALL ISZERO DUP1 ISZERO PUSH2 0xEE0 JUMPI RETURNDATASIZE PUSH1 0x0 DUP1 RETURNDATACOPY RETURNDATASIZE PUSH1 0x0 REVERT JUMPDEST POP POP POP POP PUSH1 0x40 MLOAD RETURNDATASIZE PUSH1 0x1F NOT PUSH1 0x1F DUP3 ADD AND DUP3 ADD DUP1 PUSH1 0x40 MSTORE POP DUP2 ADD SWAP1 PUSH2 0xF04 SWAP2 SWAP1 PUSH2 0x161E JUMP JUMPDEST DUP4 ADD SWAP3 POP JUMPDEST POP PUSH1 0x1 ADD PUSH2 0xD7E JUMP JUMPDEST POP SWAP1 POP SWAP1 JUMP JUMPDEST CALLER PUSH2 0xF21 PUSH2 0x9B9 JUMP JUMPDEST PUSH1 0x1 PUSH1 0x1 PUSH1 0xA0 SHL SUB AND EQ DUP1 ISZERO PUSH2 0xF39 JUMPI POP PUSH1 0x6 SLOAD DUP2 EQ ISZERO JUMPDEST DUP1 ISZERO PUSH2 0xF47 JUMPI POP PUSH2 0x2710 DUP2 GT ISZERO JUMPDEST PUSH2 0xF63 JUMPI PUSH1 0x40 MLOAD PUSH3 0x461BCD PUSH1 0xE5 SHL DUP2 MSTORE PUSH1 0x4 ADD PUSH2 0x5C7 SWAP1 PUSH2 0x18D7 JUMP JUMPDEST PUSH1 0x6 SSTORE JUMP JUMPDEST PUSH2 0xF70 PUSH2 0x9B9 JUMP JUMPDEST PUSH1 0x1 PUSH1 0x1 PUSH1 0xA0 SHL SUB AND CALLER PUSH1 0x1 PUSH1 0x1 PUSH1 0xA0 SHL SUB AND EQ DUP1 PUSH2 0xF99 JUMPI POP PUSH1 0x8 SLOAD PUSH1 0x1 PUSH1 0x1 PUSH1 0xA0 SHL SUB AND CALLER EQ JUMPDEST PUSH2 0xFB5 JUMPI PUSH1 0x40 MLOAD PUSH3 0x461BCD PUSH1 0xE5 SHL DUP2 MSTORE PUSH1 0x4 ADD PUSH2 0x5C7 SWAP1 PUSH2 0x19A9 JUMP JUMPDEST PUSH1 0x5 DUP1 SLOAD PUSH1 0x0 SWAP2 DUP3 SWAP1 SSTORE PUSH1 0x8 SLOAD PUSH1 0x40 MLOAD SWAP2 SWAP3 SWAP2 PUSH1 0x1 PUSH1 0x1 PUSH1 0xA0 SHL SUB SWAP1 SWAP2 AND SWAP1 DUP4 SWAP1 PUSH2 0xFDF SWAP1 PUSH2 0x1653 JUMP JUMPDEST PUSH1 0x0 PUSH1 0x40 MLOAD DUP1 DUP4 SUB DUP2 DUP6 DUP8 GAS CALL SWAP3 POP POP POP RETURNDATASIZE DUP1 PUSH1 0x0 DUP2 EQ PUSH2 0x101C JUMPI PUSH1 0x40 MLOAD SWAP2 POP PUSH1 0x1F NOT PUSH1 0x3F RETURNDATASIZE ADD AND DUP3 ADD PUSH1 0x40 MSTORE RETURNDATASIZE DUP3 MSTORE RETURNDATASIZE PUSH1 0x0 PUSH1 0x20 DUP5 ADD RETURNDATACOPY PUSH2 0x1021 JUMP JUMPDEST PUSH1 0x60 SWAP2 POP JUMPDEST POP POP SWAP1 POP DUP1 PUSH2 0x1042 JUMPI PUSH1 0x40 MLOAD PUSH3 0x461BCD PUSH1 0xE5 SHL DUP2 MSTORE PUSH1 0x4 ADD PUSH2 0x5C7 SWAP1 PUSH2 0x197F JUMP JUMPDEST PUSH1 0x8 SLOAD PUSH1 0x40 MLOAD PUSH1 0x1 PUSH1 0x1 PUSH1 0xA0 SHL SUB SWAP1 SWAP2 AND SWAP1 PUSH32 0x2DA815FEFC8E41D093CCCD95F24F615DEEA2DB0C5EC95B58F3BF09BF6CCA7219 SWAP1 PUSH2 0x1083 SWAP1 DUP6 SWAP1 TIMESTAMP SWAP1 PUSH2 0x1A08 JUMP JUMPDEST PUSH1 0x40 MLOAD DUP1 SWAP2 SUB SWAP1 LOG2 POP POP JUMP JUMPDEST PUSH2 0x1097 PUSH2 0x11A3 JUMP JUMPDEST PUSH1 0x1 PUSH1 0x1 PUSH1 0xA0 SHL SUB AND PUSH2 0x10A8 PUSH2 0x9B9 JUMP JUMPDEST PUSH1 0x1 PUSH1 0x1 PUSH1 0xA0 SHL SUB AND EQ PUSH2 0x10CE JUMPI PUSH1 0x40 MLOAD PUSH3 0x461BCD PUSH1 0xE5 SHL DUP2 MSTORE PUSH1 0x4 ADD PUSH2 0x5C7 SWAP1 PUSH2 0x1926 JUMP JUMPDEST PUSH1 0x1 PUSH1 0x1 PUSH1 0xA0 SHL SUB DUP2 AND PUSH2 0x10F4 JUMPI PUSH1 0x40 MLOAD PUSH3 0x461BCD PUSH1 0xE5 SHL DUP2 MSTORE PUSH1 0x4 ADD PUSH2 0x5C7 SWAP1 PUSH2 0x185A JUMP JUMPDEST PUSH1 0x0 DUP1 SLOAD PUSH1 0x40 MLOAD PUSH1 0x1 PUSH1 0x1 PUSH1 0xA0 SHL SUB DUP1 DUP6 AND SWAP4 SWAP3 AND SWAP2 PUSH32 0x8BE0079C531659141344CD1FD0A4F28419497F9722A3DAAFE3B4186F6B6457E0 SWAP2 LOG3 PUSH1 0x0 DUP1 SLOAD PUSH1 0x1 PUSH1 0x1 PUSH1 0xA0 SHL SUB NOT AND PUSH1 0x1 PUSH1 0x1 PUSH1 0xA0 SHL SUB SWAP3 SWAP1 SWAP3 AND SWAP2 SWAP1 SWAP2 OR SWAP1 SSTORE JUMP JUMPDEST PUSH1 0x7 SLOAD DUP2 JUMP JUMPDEST PUSH1 0x8 SLOAD PUSH1 0x1 PUSH1 0x1 PUSH1 0xA0 SHL SUB AND DUP2 JUMP JUMPDEST PUSH1 0x2 PUSH1 0x20 MSTORE PUSH1 0x0 SWAP1 DUP2 MSTORE PUSH1 0x40 SWAP1 KECCAK256 DUP1 SLOAD PUSH1 0x1 SWAP1 SWAP2 ADD SLOAD PUSH1 0x1 PUSH1 0x1 PUSH1 0xA0 SHL SUB DUP3 AND SWAP2 PUSH1 0x1 PUSH1 0xA0 SHL SWAP1 DIV PUSH8 0xFFFFFFFFFFFFFFFF AND SWAP1 PUSH1 0x1 PUSH1 0x1 PUSH1 0xC0 SHL SUB AND DUP4 JUMP JUMPDEST CALLER SWAP1 JUMP JUMPDEST PUSH1 0x0 DUP1 PUSH2 0x11B2 PUSH2 0xD79 JUMP JUMPDEST SWAP1 POP PUSH1 0x0 DUP2 ISZERO PUSH2 0x11DC JUMPI DUP2 PUSH2 0x11C6 DUP6 PUSH2 0x414 JUMP JUMPDEST PUSH2 0x11CE PUSH2 0x91E JUMP JUMPDEST MUL DUP2 PUSH2 0x11D6 JUMPI INVALID JUMPDEST DIV PUSH2 0x11DF JUMP JUMPDEST PUSH1 0x0 JUMPDEST PUSH1 0x0 DUP6 DUP2 MSTORE PUSH1 0x2 PUSH1 0x20 DUP2 SWAP1 MSTORE PUSH1 0x40 DUP1 DUP4 KECCAK256 PUSH1 0x1 DUP1 DUP3 ADD DUP1 SLOAD PUSH1 0x1 PUSH1 0x1 PUSH1 0xC0 SHL SUB NOT DUP2 AND PUSH1 0x1 PUSH1 0x1 PUSH1 0xC0 SHL SUB SWAP2 DUP3 AND DUP10 ADD SWAP1 SWAP2 AND OR SWAP1 SSTORE PUSH1 0x4 DUP1 SLOAD DUP8 ADD DUP2 SSTORE SWAP2 SLOAD SWAP1 SLOAD SWAP3 MLOAD PUSH4 0x50F385A1 PUSH1 0xE0 SHL DUP2 MSTORE SWAP6 SWAP7 POP SWAP4 SWAP5 DUP6 SWAP5 TIMESTAMP SWAP5 PUSH1 0x1 PUSH1 0xA0 SHL SWAP1 SWAP2 DIV PUSH8 0xFFFFFFFFFFFFFFFF AND SWAP4 PUSH1 0x1 PUSH1 0x1 PUSH1 0xA0 SHL SUB AND SWAP3 PUSH4 0x50F385A1 SWAP3 PUSH2 0x1267 SWAP3 DUP14 SWAP3 SWAP1 SWAP2 ADD PUSH2 0x1A08 JUMP JUMPDEST PUSH1 0x20 PUSH1 0x40 MLOAD DUP1 DUP4 SUB DUP2 DUP7 DUP1 EXTCODESIZE ISZERO DUP1 ISZERO PUSH2 0x127F JUMPI PUSH1 0x0 DUP1 REVERT JUMPDEST POP GAS STATICCALL ISZERO DUP1 ISZERO PUSH2 0x1293 JUMPI RETURNDATASIZE PUSH1 0x0 DUP1 RETURNDATACOPY RETURNDATASIZE PUSH1 0x0 REVERT JUMPDEST POP POP POP POP PUSH1 0x40 MLOAD RETURNDATASIZE PUSH1 0x1F NOT PUSH1 0x1F DUP3 ADD AND DUP3 ADD DUP1 PUSH1 0x40 MSTORE POP DUP2 ADD SWAP1 PUSH2 0x12B7 SWAP2 SWAP1 PUSH2 0x161E JUMP JUMPDEST ADD LT ISZERO PUSH2 0x13BD JUMPI PUSH1 0x1 SLOAD PUSH1 0x40 MLOAD PUSH4 0x570A9F1F PUSH1 0xE1 SHL DUP2 MSTORE PUSH1 0x1 PUSH1 0x1 PUSH1 0xA0 SHL SUB SWAP1 SWAP2 AND SWAP1 PUSH4 0xAE153E3E SWAP1 PUSH2 0x12F1 SWAP1 DUP10 SWAP1 PUSH1 0x0 SWAP1 PUSH1 0x4 ADD PUSH2 0x1A08 JUMP JUMPDEST PUSH1 0x0 PUSH1 0x40 MLOAD DUP1 DUP4 SUB DUP2 PUSH1 0x0 DUP8 DUP1 EXTCODESIZE ISZERO DUP1 ISZERO PUSH2 0x130B JUMPI PUSH1 0x0 DUP1 REVERT JUMPDEST POP GAS CALL ISZERO DUP1 ISZERO PUSH2 0x131F JUMPI RETURNDATASIZE PUSH1 0x0 DUP1 RETURNDATACOPY RETURNDATASIZE PUSH1 0x0 REVERT JUMPDEST POP POP POP POP PUSH1 0x0 JUMPDEST PUSH1 0x3 SLOAD DUP2 LT ISZERO PUSH2 0x13B7 JUMPI DUP7 PUSH1 0x3 DUP3 DUP2 SLOAD DUP2 LT PUSH2 0x133E JUMPI INVALID JUMPDEST SWAP1 PUSH1 0x0 MSTORE PUSH1 0x20 PUSH1 0x0 KECCAK256 ADD SLOAD EQ ISZERO PUSH2 0x13AF JUMPI PUSH1 0x3 DUP1 SLOAD PUSH1 0x0 NOT DUP2 ADD SWAP1 DUP2 LT PUSH2 0x1361 JUMPI INVALID JUMPDEST SWAP1 PUSH1 0x0 MSTORE PUSH1 0x20 PUSH1 0x0 KECCAK256 ADD SLOAD PUSH1 0x3 DUP3 DUP2 SLOAD DUP2 LT PUSH2 0x1379 JUMPI INVALID JUMPDEST PUSH1 0x0 SWAP2 DUP3 MSTORE PUSH1 0x20 SWAP1 SWAP2 KECCAK256 ADD SSTORE PUSH1 0x3 DUP1 SLOAD DUP1 PUSH2 0x1390 JUMPI INVALID JUMPDEST PUSH1 0x1 SWAP1 SUB DUP2 DUP2 SWAP1 PUSH1 0x0 MSTORE PUSH1 0x20 PUSH1 0x0 KECCAK256 ADD PUSH1 0x0 SWAP1 SSTORE SWAP1 SSTORE PUSH1 0x1 SWAP3 POP PUSH2 0x13B7 JUMP JUMPDEST PUSH1 0x1 ADD PUSH2 0x1326 JUMP JUMPDEST POP PUSH2 0x14DE JUMP JUMPDEST PUSH1 0x0 DUP7 DUP2 MSTORE PUSH1 0x2 PUSH1 0x20 MSTORE PUSH1 0x40 SWAP1 KECCAK256 DUP1 SLOAD PUSH8 0xFFFFFFFFFFFFFFFF PUSH1 0xA0 SHL NOT AND PUSH1 0x1 PUSH1 0xA0 SHL TIMESTAMP PUSH8 0xFFFFFFFFFFFFFFFF AND MUL OR SWAP1 SSTORE PUSH1 0x1 SLOAD PUSH1 0x1 PUSH1 0x1 PUSH1 0xA0 SHL SUB AND PUSH4 0xAE153E3E DUP8 PUSH2 0x140A DUP2 PUSH2 0x414 JUMP JUMPDEST PUSH1 0x1 SLOAD PUSH1 0x40 MLOAD PUSH4 0x50F385A1 PUSH1 0xE0 SHL DUP2 MSTORE PUSH1 0x1 PUSH1 0x1 PUSH1 0xA0 SHL SUB SWAP1 SWAP2 AND SWAP1 PUSH4 0x50F385A1 SWAP1 PUSH2 0x143D SWAP1 DUP14 SWAP1 PUSH1 0x2 SWAP1 PUSH1 0x4 ADD PUSH2 0x1A08 JUMP JUMPDEST PUSH1 0x20 PUSH1 0x40 MLOAD DUP1 DUP4 SUB DUP2 DUP7 DUP1 EXTCODESIZE ISZERO DUP1 ISZERO PUSH2 0x1455 JUMPI PUSH1 0x0 DUP1 REVERT JUMPDEST POP GAS STATICCALL ISZERO DUP1 ISZERO PUSH2 0x1469 JUMPI RETURNDATASIZE PUSH1 0x0 DUP1 RETURNDATACOPY RETURNDATASIZE PUSH1 0x0 REVERT JUMPDEST POP POP POP POP PUSH1 0x40 MLOAD RETURNDATASIZE PUSH1 0x1F NOT PUSH1 0x1F DUP3 ADD AND DUP3 ADD DUP1 PUSH1 0x40 MSTORE POP DUP2 ADD SWAP1 PUSH2 0x148D SWAP2 SWAP1 PUSH2 0x161E JUMP JUMPDEST SUB PUSH1 0x40 MLOAD DUP4 PUSH4 0xFFFFFFFF AND PUSH1 0xE0 SHL DUP2 MSTORE PUSH1 0x4 ADD PUSH2 0x14AB SWAP3 SWAP2 SWAP1 PUSH2 0x1A08 JUMP JUMPDEST PUSH1 0x0 PUSH1 0x40 MLOAD DUP1 DUP4 SUB DUP2 PUSH1 0x0 DUP8 DUP1 EXTCODESIZE ISZERO DUP1 ISZERO PUSH2 0x14C5 JUMPI PUSH1 0x0 DUP1 REVERT JUMPDEST POP GAS CALL ISZERO DUP1 ISZERO PUSH2 0x14D9 JUMPI RETURNDATASIZE PUSH1 0x0 DUP1 RETURNDATACOPY RETURNDATASIZE PUSH1 0x0 REVERT JUMPDEST POP POP POP POP JUMPDEST POP SWAP5 SWAP4 POP POP POP POP JUMP JUMPDEST DUP1 CALLDATALOAD PUSH1 0x1 PUSH1 0x1 PUSH1 0xA0 SHL SUB DUP2 AND DUP2 EQ PUSH2 0x570 JUMPI PUSH1 0x0 DUP1 REVERT JUMPDEST PUSH1 0x0 PUSH1 0x20 DUP3 DUP5 SUB SLT ISZERO PUSH2 0x150F JUMPI DUP1 DUP2 REVERT JUMPDEST PUSH2 0x1519 DUP4 DUP4 PUSH2 0x14E7 JUMP JUMPDEST SWAP4 SWAP3 POP POP POP JUMP JUMPDEST PUSH1 0x0 DUP1 PUSH1 0x0 DUP1 PUSH1 0x80 DUP6 DUP8 SUB SLT ISZERO PUSH2 0x1535 JUMPI DUP3 DUP4 REVERT JUMPDEST PUSH2 0x153F DUP7 DUP7 PUSH2 0x14E7 JUMP JUMPDEST SWAP4 POP PUSH1 0x20 PUSH2 0x154F DUP8 DUP3 DUP9 ADD PUSH2 0x14E7 JUMP JUMPDEST SWAP4 POP PUSH1 0x40 DUP7 ADD CALLDATALOAD SWAP3 POP PUSH1 0x60 DUP7 ADD CALLDATALOAD PUSH8 0xFFFFFFFFFFFFFFFF DUP1 DUP3 GT ISZERO PUSH2 0x1572 JUMPI DUP4 DUP5 REVERT JUMPDEST DUP2 DUP9 ADD SWAP2 POP DUP9 PUSH1 0x1F DUP4 ADD SLT PUSH2 0x1585 JUMPI DUP4 DUP5 REVERT JUMPDEST DUP2 CALLDATALOAD DUP2 DUP2 GT ISZERO PUSH2 0x1593 JUMPI DUP5 DUP6 REVERT JUMPDEST PUSH1 0x40 MLOAD PUSH1 0x1F DUP3 ADD PUSH1 0x1F NOT AND DUP2 ADD DUP6 ADD DUP4 DUP2 GT DUP3 DUP3 LT OR ISZERO PUSH2 0x15B2 JUMPI DUP7 DUP8 REVERT JUMPDEST PUSH1 0x40 MSTORE DUP2 DUP2 MSTORE DUP4 DUP3 ADD DUP6 ADD DUP12 LT ISZERO PUSH2 0x15C8 JUMPI DUP6 DUP7 REVERT JUMPDEST DUP2 DUP6 DUP6 ADD DUP7 DUP4 ADD CALLDATACOPY SWAP1 DUP2 ADD SWAP1 SWAP4 ADD SWAP4 SWAP1 SWAP4 MSTORE POP SWAP4 SWAP7 SWAP3 SWAP6 POP SWAP1 SWAP4 POP POP JUMP JUMPDEST PUSH1 0x0 PUSH1 0x20 DUP3 DUP5 SUB SLT ISZERO PUSH2 0x15F7 JUMPI DUP1 DUP2 REVERT JUMPDEST DUP2 MLOAD DUP1 ISZERO ISZERO DUP2 EQ PUSH2 0x1519 JUMPI DUP2 DUP3 REVERT JUMPDEST PUSH1 0x0 PUSH1 0x20 DUP3 DUP5 SUB SLT ISZERO PUSH2 0x1617 JUMPI DUP1 DUP2 REVERT JUMPDEST POP CALLDATALOAD SWAP2 SWAP1 POP JUMP JUMPDEST PUSH1 0x0 PUSH1 0x20 DUP3 DUP5 SUB SLT ISZERO PUSH2 0x162F JUMPI DUP1 DUP2 REVERT JUMPDEST POP MLOAD SWAP2 SWAP1 POP JUMP JUMPDEST PUSH1 0x60 SWAP2 SWAP1 SWAP2 SHL PUSH12 0xFFFFFFFFFFFFFFFFFFFFFFFF NOT AND DUP2 MSTORE PUSH1 0x14 ADD SWAP1 JUMP JUMPDEST PUSH32 0x52656C656173696E67207265776172647320746F207072696D61727950726F66 DUP2 MSTORE PUSH11 0x34BA2932B1B2B4BB32B917 PUSH1 0xA9 SHL PUSH1 0x20 DUP3 ADD MSTORE PUSH1 0x2B ADD SWAP1 JUMP JUMPDEST PUSH32 0x52656C656173696E67207265776172647320746F204E4654206F776E65722E00 DUP2 MSTORE PUSH1 0x1F ADD SWAP1 JUMP JUMPDEST PUSH1 0x1 PUSH1 0x1 PUSH1 0xA0 SHL SUB SWAP2 SWAP1 SWAP2 AND DUP2 MSTORE PUSH1 0x20 ADD SWAP1 JUMP JUMPDEST PUSH1 0x1 PUSH1 0x1 PUSH1 0xA0 SHL SUB SWAP4 DUP5 AND DUP2 MSTORE SWAP2 SWAP1 SWAP3 AND PUSH1 0x20 DUP3 ADD MSTORE PUSH1 0x40 DUP2 ADD SWAP2 SWAP1 SWAP2 MSTORE PUSH1 0x80 PUSH1 0x60 DUP3 ADD DUP2 SWAP1 MSTORE PUSH1 0x0 SWAP1 DUP3 ADD MSTORE PUSH1 0xA0 ADD SWAP1 JUMP JUMPDEST PUSH1 0x1 PUSH1 0x1 PUSH1 0xA0 SHL SUB SWAP4 SWAP1 SWAP4 AND DUP4 MSTORE PUSH8 0xFFFFFFFFFFFFFFFF SWAP2 SWAP1 SWAP2 AND PUSH1 0x20 DUP4 ADD MSTORE PUSH1 0x1 PUSH1 0x1 PUSH1 0xC0 SHL SUB AND PUSH1 0x40 DUP3 ADD MSTORE PUSH1 0x60 ADD SWAP1 JUMP JUMPDEST PUSH1 0x20 DUP1 DUP3 MSTORE DUP3 MLOAD DUP3 DUP3 ADD DUP2 SWAP1 MSTORE PUSH1 0x0 SWAP2 SWAP1 DUP5 DUP3 ADD SWAP1 PUSH1 0x40 DUP6 ADD SWAP1 DUP5 JUMPDEST DUP2 DUP2 LT ISZERO PUSH2 0x176C JUMPI DUP4 MLOAD DUP4 MSTORE SWAP3 DUP5 ADD SWAP3 SWAP2 DUP5 ADD SWAP2 PUSH1 0x1 ADD PUSH2 0x1750 JUMP JUMPDEST POP SWAP1 SWAP7 SWAP6 POP POP POP POP POP POP JUMP JUMPDEST PUSH1 0x1 PUSH1 0x1 PUSH1 0xE0 SHL SUB NOT SWAP2 SWAP1 SWAP2 AND DUP2 MSTORE PUSH1 0x20 ADD SWAP1 JUMP JUMPDEST PUSH1 0x0 PUSH1 0x20 DUP1 DUP4 MSTORE DUP4 MLOAD DUP1 DUP3 DUP6 ADD MSTORE DUP3 JUMPDEST DUP2 DUP2 LT ISZERO PUSH2 0x17B9 JUMPI DUP6 DUP2 ADD DUP4 ADD MLOAD DUP6 DUP3 ADD PUSH1 0x40 ADD MSTORE DUP3 ADD PUSH2 0x179D JUMP JUMPDEST DUP2 DUP2 GT ISZERO PUSH2 0x17CA JUMPI DUP4 PUSH1 0x40 DUP4 DUP8 ADD ADD MSTORE JUMPDEST POP PUSH1 0x1F ADD PUSH1 0x1F NOT AND SWAP3 SWAP1 SWAP3 ADD PUSH1 0x40 ADD SWAP4 SWAP3 POP POP POP JUMP JUMPDEST PUSH1 0x20 DUP1 DUP3 MSTORE PUSH1 0x23 SWAP1 DUP3 ADD MSTORE PUSH32 0x6D757374206265206F776E657220262061646472657373206D75737420636861 PUSH1 0x40 DUP3 ADD MSTORE PUSH3 0x6E6765 PUSH1 0xE8 SHL PUSH1 0x60 DUP3 ADD MSTORE PUSH1 0x80 ADD SWAP1 JUMP JUMPDEST PUSH1 0x20 DUP1 DUP3 MSTORE PUSH1 0x19 SWAP1 DUP3 ADD MSTORE PUSH32 0x4E6F74207175616C696669656420666F72207374616B696E6700000000000000 PUSH1 0x40 DUP3 ADD MSTORE PUSH1 0x60 ADD SWAP1 JUMP JUMPDEST PUSH1 0x20 DUP1 DUP3 MSTORE PUSH1 0x26 SWAP1 DUP3 ADD MSTORE PUSH32 0x4F776E61626C653A206E6577206F776E657220697320746865207A65726F2061 PUSH1 0x40 DUP3 ADD MSTORE PUSH6 0x646472657373 PUSH1 0xD0 SHL PUSH1 0x60 DUP3 ADD MSTORE PUSH1 0x80 ADD SWAP1 JUMP JUMPDEST PUSH1 0x20 DUP1 DUP3 MSTORE PUSH1 0x1D SWAP1 DUP3 ADD MSTORE PUSH32 0x4D696E696D756D207374616B696E672074696D65206E6F74206D65742E000000 PUSH1 0x40 DUP3 ADD MSTORE PUSH1 0x60 ADD SWAP1 JUMP JUMPDEST PUSH1 0x20 DUP1 DUP3 MSTORE PUSH1 0x2F SWAP1 DUP3 ADD MSTORE PUSH32 0x6D757374206265206F776E65722C2076616C7565203C3D2031303030302C2076 PUSH1 0x40 DUP3 ADD MSTORE PUSH15 0x185B1D59480F4F8818DA185B99D959 PUSH1 0x8A SHL PUSH1 0x60 DUP3 ADD MSTORE PUSH1 0x80 ADD SWAP1 JUMP JUMPDEST PUSH1 0x20 DUP1 DUP3 MSTORE DUP2 DUP2 ADD MSTORE PUSH32 0x4F776E61626C653A2063616C6C6572206973206E6F7420746865206F776E6572 PUSH1 0x40 DUP3 ADD MSTORE PUSH1 0x60 ADD SWAP1 JUMP JUMPDEST PUSH1 0x20 DUP1 DUP3 MSTORE PUSH1 0xA SWAP1 DUP3 ADD MSTORE PUSH10 0x2737BA1037BBB732B917 PUSH1 0xB1 SHL PUSH1 0x40 DUP3 ADD MSTORE PUSH1 0x60 ADD SWAP1 JUMP JUMPDEST PUSH1 0x20 DUP1 DUP3 MSTORE PUSH1 0x10 SWAP1 DUP3 ADD MSTORE PUSH16 0x2A3930B739B332B9103330B4B632B217 PUSH1 0x81 SHL PUSH1 0x40 DUP3 ADD MSTORE PUSH1 0x60 ADD SWAP1 JUMP JUMPDEST PUSH1 0x20 DUP1 DUP3 MSTORE PUSH1 0x1D SWAP1 DUP3 ADD MSTORE PUSH32 0x4E6F74206F776E6572206F722070726F6669742072656365697665722E000000 PUSH1 0x40 DUP3 ADD MSTORE PUSH1 0x60 ADD SWAP1 JUMP JUMPDEST SWAP1 DUP2 MSTORE PUSH1 0x20 ADD SWAP1 JUMP JUMPDEST SWAP3 DUP4 MSTORE PUSH1 0x1 PUSH1 0x1 PUSH1 0xA0 SHL SUB SWAP2 SWAP1 SWAP2 AND PUSH1 0x20 DUP4 ADD MSTORE PUSH1 0x40 DUP3 ADD MSTORE PUSH1 0x60 ADD SWAP1 JUMP JUMPDEST SWAP2 DUP3 MSTORE PUSH1 0x20 DUP3 ADD MSTORE PUSH1 0x40 ADD SWAP1 JUMP INVALID LOG2 PUSH5 0x6970667358 0x22 SLT KECCAK256 0xCD 0xAB 0xB3 CALLDATALOAD SELFBALANCE 0xE5 0xA6 0xA8 SSTORE 0x23 0x28 0xB1 0xD9 SWAP4 0xB4 PUSH20 0xCE1AA737D410578F35A2C96621CF3F2864736F6C PUSH4 0x4300060C STOP CALLER ",
  "sha1": "7395a21352bd6d9c00dcde03bab3c12e458db795",
  "source": "pragma solidity ^0.6.12;\n//pragma solidity >= 0.4.22 <0.9.0;\npragma experimental ABIEncoderV2;\n\nimport \"@openzeppelin/contracts/token/ERC721/ERC721.sol\";\nimport \"@chainlink/contracts/src/v0.6/VRFConsumerBase.sol\";\nimport \"@chainlink/contracts/src/v0.6/interfaces/AggregatorV3Interface.sol\";\nimport \"contracts/helpers/console.sol\";\nimport \"@chainlink/contracts/src/v0.6/interfaces/KeeperCompatibleInterface.sol\";\nimport \"@openzeppelin/contracts/access/Ownable.sol\";\n//import \"@openzeppelin/contracts/Base64.sol\";\nimport \"contracts/helpers/Base64.sol\";\nimport \"interfaces/IUniswapV2Router02.sol\";\nimport \"interfaces/IUniswapV2Pair.sol\";\nimport \"interfaces/IUniswapV2Factory.sol\";\nimport \"interfaces/IERC20.sol\";\n\n\nlibrary UniswapHelpers {\n\n    function _swapExactTokensForETH(uint256 tokenAmount, address tokenContractAddress, address to, IUniswapV2Router02 _router, uint256 _swapSlippage) internal  returns (uint256, uint256){\n\n        address[] memory path = new address[](2);\n        path[0] = tokenContractAddress; //address(0x3B00Ef435fA4FcFF5C209a37d1f3dcff37c705aD); // USDT Rinkeby\n        path[1] = _router.WETH();\n\n        uint256 minTokensToReceive; // Local scope for many variables\n        {\n            uint256 receivable = _router.getAmountsOut(tokenAmount, path)[0];\n            minTokensToReceive = receivable * (10000 - _swapSlippage)/10000;\n        }\n\n        uint256[] memory amounts = _router.swapExactTokensForETH(\n            tokenAmount,\n            minTokensToReceive, // set _swapSlippage to 10000 to accept anything\n            path,\n            to,\n            block.timestamp\n        );\n\n        require(amounts[0] != 0 && 0 != amounts[1], \"swapExactETH failed.\");\n        return (amounts[0], amounts[1]);\n    }\n\n    function _addLiquidity(uint256 tokenAmount, address contractAddress, IUniswapV2Router02 _router, uint256 coinAmount) internal returns(uint256) {\n        (uint amountToken,,) =  _router.addLiquidityETH{value: coinAmount}(\n            address(this),\n            tokenAmount,\n            0, // slippage is unavoidable\n            0, // slippage is unavoidable\n            contractAddress,\n            block.timestamp\n        );\n\n        return amountToken;\n    }\n\n    function _swapEthForTokens(uint256 ethAmount, address tokenContractAddress, address to, IUniswapV2Router02 _router, uint256 _swapSlippage) internal returns (uint256, uint256) {\n        address[] memory path = new address[](2);\n        path[0] = _router.WETH();\n        path[1] = tokenContractAddress; //address(0x3B00Ef435fA4FcFF5C209a37d1f3dcff37c705aD); // USDT Rinkeby\n\n        uint256 minTokensToReceive; // Local scope for many variables\n        {\n            uint256 receivable = _router.getAmountsOut(ethAmount, path)[0];\n            minTokensToReceive = receivable * (10000 - _swapSlippage)/10000;\n        }\n\n        uint256[] memory amounts = _router.swapExactETHForTokens{value: ethAmount}( // ethAmount, path, to, block.timestamp ){ //ExactTokensForETHSupportingFeeOnTransferTokens(\n            minTokensToReceive,\n            path,\n            to,\n            block.timestamp + 360 // 30 minutes before reverting\n        );\n\n        require(amounts[0] != 0 && 0 != amounts[1], \"swapExactETH failed.\");\n        return (amounts[0], amounts[1]);\n    }\n}\n\n// Address: 0x26EA744E5B887E5205727f55dFBE8685e3b21951 // Same for BSC, Polygon, ETH\ninterface IyUSDC {\n    function withdraw(uint256 _shares) external;\n    function deposit(uint256 _amount) external;\n\n    function balance() external view returns (uint256);\n    function balanceDydx() external view returns (uint256);\n    function balanceCompound() external view returns (uint256);\n    function balanceCompoundInToken() external view returns (uint256);\n    function balanceFulcrumInToken() external view returns (uint256);\n    function balanceFulcrum() external view returns (uint256);\n    function balanceAave() external view returns (uint256);\n    function recommend() external view returns (uint256);\n    function rebalance() external;\n    function calcPoolValueInToken() external view returns (uint256);\n    function getPricePerFullShare() external view returns (uint256);\n    function balanceOf(address _address) external view returns(uint);\n\n}\n\n/// @dev Note: the ERC-165 identifier for this interface is 0x150b7a02.\ninterface ERC721TokenReceiver {\n    /// @notice Handle the receipt of an NFT\n    /// @dev The ERC721 smart contract calls this function on the recipient\n    ///  after a `transfer`. This function MAY throw to revert and reject the\n    ///  transfer. Return of other than the magic value MUST result in the\n    ///  transaction being reverted.\n    ///  Note: the contract address is always the message sender.\n    /// @param _operator The address which called `safeTransferFrom` function\n    /// @param _from The address which previously owned the token\n    /// @param _tokenId The NFT identifier which is being transferred\n    /// @param _data Additional data with no specified format\n    /// @return `bytes4(keccak256(\"onERC721Received(address,address,uint256,bytes)\"))`\n    ///  unless throwing\n    function onERC721Received(address _operator, address _from, uint256 _tokenId, bytes memory _data) external returns(bytes4);\n}\n\ncontract DipStaking is Ownable, ERC721TokenReceiver  {\n    BuyTheDipNFT public BTD;\n    struct Staker {\n        address previousOwner;\n        uint64 stakeStartTimestamp;\n        uint192 moneys;\n    }\n\n//    mapping(uint256=>address) public previousOwner;\n//    mapping(uint256=>uint256) public stakeStartTimestamp; // we went to disencentivize people who game the system? Maybe don' need to worry\n//    mapping(uint256=>uint256) public moneys; // we went to disencentivize people who game the system? Maybe don' need to worry\n\n    mapping(uint256=>Staker) public stakers;\n\n    uint256[] public activeNFTArray;\n    uint256 public reservedFundsForInactiveStakers=0; // inactive Stakers\n    uint256 public reservedFundsForOwners=0;\n    uint256 public ownersCutPercentage=2500; // out of 10,000 (100%)\n    uint256 public MinStakingTime = 0; // 60*60*24*7; // 1 week -- todo change times, set function\n    address public primaryProfitReceiver;\n\n    event FundsWithdrawnToNFTStaker(\n        uint256 amount,\n        address indexed to,\n        uint256 timestamp\n    );\n\n    event FundsWithdrawnToPrimraryProfitReceiver(\n        uint256 amount,\n        address indexed to,\n        uint256 timestamp\n    );\n\n    event Unstaked(\n        uint256 token,\n        address to,\n        uint256 timestamp\n    );\n\n    // todo -- consider if this will be a pool for one token or all of them\n    constructor(address _BuyTheDipNFTAddress) public {\n        // set _BuyTheDipNFTAddress\n        BTD = BuyTheDipNFT(payable(_BuyTheDipNFTAddress));\n        primaryProfitReceiver = msg.sender;\n    }\n\n    // todo -- it seems like a bad idea to change state here. Is there going to be an issue for increased cost?\n    /** @dev Receive ETH, do accounting for owners/vip cut\n      */\n    receive() external payable{\n        reservedFundsForOwners += ownersCutPercentage*msg.value / 10000;\n    }\n\n\n    /** @dev changes ownersCutPercentage\n        @param _newCut -- percentage out of 10000\n      */\n    function setOwnersCutPercentage(uint256 _newCut) external {\n        require((owner() == msg.sender) && (_newCut != ownersCutPercentage) && (_newCut <= 10000), \"must be owner, value <= 10000, value => changed\");\n        ownersCutPercentage = _newCut;\n        // todo -- emit event\n    }\n\n\n    /** @dev Adds up all active energy contributed by stakers\n        @param _addy -- new address for btd\n      */\n    function setPrimaryProfitReceiverAddress(address _addy) external {\n        require((owner() == msg.sender) && (_addy != primaryProfitReceiver), \"must be owner & address must change\");\n        primaryProfitReceiver = _addy; //BuyTheDipNFT(payable(_addy));\n        // todo -- emit event\n    }\n\n\n    /** @dev Adds up all active energy contributed by stakers\n        @param _addy -- new address for btd\n      */\n    function setBTDAdress(address _addy) external {\n        require((owner() == msg.sender) && (_addy != address(BTD)), \"must be owner & address must change\");\n        BTD = BuyTheDipNFT(payable(_addy));\n    }\n\n\n    /** @dev Adds up all active energy contributed by stakers\n      */\n    function getTotalStakingEnergy() public view returns(uint256) {\n        // Make sure everyone is flushed.\n        uint256 _total = 0;\n        for(uint256 i = 0; i < activeNFTArray.length; i++){ // is activeNFTArray.length dynamic here?\n            uint256 _id = activeNFTArray[i];\n            if(BTD.getProperty(_id, 2) + stakers[_id].stakeStartTimestamp > block.timestamp){\n                _total += block.timestamp - stakers[_id].stakeStartTimestamp;\n            }\n            else {\n                _total += BTD.getProperty(_id, 2);\n            }\n        }\n        return _total;\n    }\n\n    /** @dev Remove NFT from staking pool, send all profits to owner\n        @param _id -- id of NFT. Must be previous owner to call\n      */\n    function unstake(uint256 _id) external {\n        require(msg.sender == stakers[_id].previousOwner, \"Not owner.\"); // dev: Not owner\n        require(stakers[_id].stakeStartTimestamp + MinStakingTime <= block.timestamp, \"Minimum staking time not met.\"); // dev: Minimum staking time not met\n\n        withdrawRewards(_id);\n//        BTD.approve(stakers[_id].previousOwner, _id); // todo -- necessary?\n        BTD.safeTransferFrom(address(this), stakers[_id].previousOwner, _id, \"\");\n\n        // Remove from array\n        for (uint256 i=0; i< activeNFTArray.length; i++) {\n            if(activeNFTArray[i]==_id){\n                activeNFTArray[i] = activeNFTArray[activeNFTArray.length - 1];\n                activeNFTArray.pop();\n                break;\n            }\n        }\n\n        emit Unstaked(_id, stakers[_id].previousOwner, block.timestamp);\n        delete stakers[_id];\n    }\n\n    \n    /** @dev Withdraw native coin, which has been earned as a reward.\n        @param _id -- id of NFT. Must be previous owner to call\n      */\n    function withdrawRewards(uint256 _id) public {\n        require(msg.sender == stakers[_id].previousOwner, \"Not owner.\");\n        flushTokenRewardsOf(_id);\n        reservedFundsForInactiveStakers -= stakers[_id].moneys;\n        uint256 _reward = stakers[_id].moneys;\n        stakers[_id].moneys = 0;\n        emit FundsWithdrawnToNFTStaker(_reward, stakers[_id].previousOwner, block.timestamp);\n        (bool success, ) = address(stakers[_id].previousOwner).call{value : _reward}(\"Releasing rewards to NFT owner.\"); // in native token\n        require(success, \"Transfer failed.\");\n    }\n\n\n    /** @dev Withdraw native coined, earned as reward, and set asid for owners/wallet\n      */\n    function withdrawRewardsForPrimaryProfitReceiver() external {\n        require(msg.sender == owner() || msg.sender == primaryProfitReceiver, \"Not owner or profit receiver.\");\n        uint256 _reward = reservedFundsForOwners;\n        reservedFundsForOwners = 0;\n        (bool success, ) = primaryProfitReceiver.call{value : _reward}(\"Releasing rewards to primaryProfitReceiver.\");\n        require(success, \"Transfer failed.\");\n        emit FundsWithdrawnToPrimraryProfitReceiver(_reward, primaryProfitReceiver, block.timestamp);\n    }\n\n    /** @dev Returns amount of staking funds available, total minus reserved for specific stakers who have been removed from active staking and from owners\n      */\n    function getAvailableStakingFunds() public view returns(uint256){\n        return (address(this).balance - reservedFundsForInactiveStakers - reservedFundsForOwners);\n    }\n\n    /** @dev moves token rewards from the pool and puts it in a separate account for one token. Decreases energy.\n        @param _tokenId -- token id\n      */\n    function flushTokenRewardsOf(uint256 _tokenId) internal returns(bool){\n        uint256 _totalStakingEnergy = getTotalStakingEnergy();\n        uint256 _rewards = _totalStakingEnergy==0 ? 0: getAvailableStakingFunds() * getActiveEnergyOfToken(_tokenId) / _totalStakingEnergy;\n        stakers[_tokenId].moneys += uint192(_rewards);\n        reservedFundsForInactiveStakers += _rewards;\n        bool popped = false;\n        uint256 activeNFTArrayIndex=0;\n        // if out of energy\n        if(BTD.getProperty(_tokenId, 2) + stakers[_tokenId].stakeStartTimestamp < block.timestamp){\n            BTD.setEnergy(_tokenId, 0);\n            for(uint256 i=0; i<activeNFTArray.length;i++){\n                if(activeNFTArray[i]==_tokenId){\n                    activeNFTArray[i] = activeNFTArray[activeNFTArray.length - 1];\n                    activeNFTArray.pop();\n                    popped = true;\n                    break;\n                }\n            }\n        }\n        else {\n            stakers[_tokenId].stakeStartTimestamp = uint64(block.timestamp);\n            BTD.setEnergy(_tokenId, BTD.getProperty(_tokenId, 2) - getActiveEnergyOfToken(_tokenId));\n        }\n        return popped;\n    }\n\n    /** @dev Get energy used since timestamp for specific NFT\n        @param _id -- id of NFT. Must be previous owner to call\n      */\n    function getActiveEnergyOfToken(uint256 _id) public view returns(uint256){\n            uint256 _energy;\n            if(BTD.getProperty(_id, 2) + stakers[_id].stakeStartTimestamp > block.timestamp){\n                _energy = block.timestamp - stakers[_id].stakeStartTimestamp;\n            }\n            else {\n                _energy = BTD.getProperty(_id, 2);\n            }\n            return _energy;\n    }\n\n    /** @dev Flush all staked NFTs that have used up their energy\n      */\n    function flushInactive() internal {\n        bool popped = false;\n        uint256 index;\n\n        for(uint256 i = 1; i < activeNFTArray.length + 1; i++){ // is activeNFTArray.length dynamic here?\n            if(BTD.getProperty(activeNFTArray[i], 2) + stakers[i].stakeStartTimestamp < block.timestamp){\n                index = i - 1;\n                // Here, we shift the index because of [] popping\n                // Being sure not to go beyond the array or miss\n                if(flushTokenRewardsOf(activeNFTArray[index])){\n                      i -= 1; // start with 1 to avoid underflow\n                }\n            }\n        }\n    }\n\n    /** @dev Get all NFTs owned by owner.\n        @param _addy -- address to get list of NFTs of\n        @return -- list of token IDs owned by addy\n      */\n    function getAllNFTsByPreviousOwner(address _addy) public view returns (uint256[] memory){\n        uint256 total=0;\n        uint256 _tokenCounter = BTD.tokenCounter();\n        for(uint256 i=0;i<_tokenCounter;i++){\n            if(stakers[i].previousOwner==_addy){\n                total +=1;\n            }\n        }\n\n        uint256[] memory owned = new uint256[](total);\n        uint256 count=0;\n\n        // Two cycles are needed because of inability to push integers to memory array\n        for(uint256 i=0;i<_tokenCounter;i++){\n            if(count>=total){ break; }\n            if(stakers[i].previousOwner == _addy){\n                owned[count]=i;\n                count +=1;\n            }\n        }\n        return owned;\n    }\n\n\n\n    /** @dev Upkeep when receiving NFTs\n      */\n    function onERC721Received(address _operator, address _from, uint256 _tokenId, bytes memory _data) external override returns(bytes4){\n          require(msg.sender==address(BTD), string(abi.encodePacked(msg.sender)));\n          require(BTD.qualifiesForStaking(_tokenId)==true,\"Not qualified for staking\");\n\n          stakers[_tokenId].stakeStartTimestamp = uint64(block.timestamp);\n          stakers[_tokenId].previousOwner = _from; //tx.origin; //msg.sender;\n          activeNFTArray.push(_tokenId);\n        //        bytes4(keccak256(\"onERC721Received(address,address,uint256,bytes)\"));\n        return this.onERC721Received.selector;\n    }\n}\n\ncontract BuyTheDipNFT is ERC721, KeeperCompatibleInterface, Ownable  {\n    uint256 public tokenCounter;\n\n    mapping(uint256 => uint256) public tokenIdToPackedData; // compressed data for NFT\n\n    // todo -- could pack these differently (not 256). Pros and cons?\n    struct Data {\n        uint256 dipValue;\n        uint256 stableCoinAmount;\n        uint256 energy;\n        uint256 dipPercent;\n        uint256 dipLevel;\n        uint256 isWaitingToBuy;\n    }\n    enum DataProperties {DipValue, StableCoinAmount, Energy, DipPercent, DipLevel, IsWaitingToBuy}\n\n    // todo -- set some to private?\n    uint256 public highestDip = 0;\n    uint256 public swapSlippage = 10000; // full slippage\n    uint256 public totalStableCoin = 0;\n    uint256 public contractStableCoinProfit;\n    address public profitReceiver;\n\n    uint256 private checkUpkeepInterval = 60;\n    uint256 private lastTimeStamp;\n    uint256 private MINCOINDEPOSIT = 10**14;\n    uint256 private EARLYWITHDRAWALFEEPERCENT = 300; // (out of 100*100)\n    uint256 private NORMALWITHDRAWALFEEPERCENT = 100; // (out of 100*100)\n    uint256 private MINTFEE = 10**12;\n    uint256 private STABLECOINDUSTTHRESHOLD = 10**6/10; //10 cents\n    uint256 private PROFITRELEASETHRESHOLD = 10**16;\n\n\n    // todo --- consider creating: minDipPercent ( createCollectible )\n\n    enum ConfigurableVariables { SwapSlippage,\n        CheckUpkeepInterval, MinCoinDeposit, EarlyWithdrawalFeePercent, NormalWithdrawalFeePercent,\n        MintFee, StableCoinDustThreshold, ProfitReleaseThreshold, ContractStableCoinProfit }\n\n\n    ///////////////////////////////////////////\n    ///////     CONFIG INFORMATION     ////////\n    ///////////////////////////////////////////\n\n    // Stable Coin Lending Vault\n//    IyUSDC yUSDC = IyUSDC(0x26EA744E5B887E5205727f55dFBE8685e3b21951); // ETH/BSC/Polygon\n    IyUSDC yUSDC = IyUSDC(0x232dA19534032CBfE838e5f620C495D52061e947); // Rinkeby\n//    IyUSDC yUSDC = IyUSDC(0x597ad1e0c13bfe8025993d9e79c69e1c0233522e); // Ropstein\n//    IyUSDC yUSDC = IyUSDC(0xd6aD7a6750A7593E092a9B218d66C0A814a3436e); // BSC Testnet\n\n    //ETHEREUM MAIN\n//    IUniswapV2Router02 router = IUniswapV2Router02(); // Ethereum Mainnet\n//    address factory = address(); // Ethereum Mainnet\n//    address StableCoinAddress = address(); // USDT, Ethereum Mainnet\n//    address StableCoinAddress = address(); // USDC, Ethereum Mainnet\n\n\n    // Swap Routers\n//  Rinkeby\n    IUniswapV2Router02 router = IUniswapV2Router02(0x7a250d5630B4cF539739dF2C5dAcb4c659F2488D); // testnet\n    address factory = address(0x5C69bEe701ef814a2B6a3EDD4B1652CB9cc5aA6f); // testnet\n//    address StableCoinAddress = address(0x3B00Ef435fA4FcFF5C209a37d1f3dcff37c705aD); // USDT, Rinkeby\n    address StableCoinAddress = address(0x4DBCdF9B62e891a7cec5A2568C3F4FAF9E8Abe2b); // USDC, Rinkeby\n\n    // BSC TESTNET\n    // PanckeSwap site: https://pancake.kiemtienonline360.com/#/swap\n//    IUniswapV2Router02 router = IUniswapV2Router02(0xD99D1c33F9fC3444f8101754aBC46c52416550D1); // testnet\n//    address factory = address(0x6725F303b657a9451d8BA641348b6761A6CC7a17); // testnet\n//    address StableCoinAddress = address(0x78867BbEeF44f2326bF8DDd1941a4439382EF2A7); // BUSD, BSC testnet --- WORKS\n//    address StableCoinAddress = address(0x7ef95a0FEE0Dd31b22626fA2e10Ee6A223F8a684); // USDT, BSC testnet --- WORKS\n\n    //BSC Main net\n//    IUniswapV2Router02 router = IUniswapV2Router02(0x10ED43C718714eb63d5aA57B78B54704E256024E); // BSC Main\n//    address factory = address(0xcA143Ce32Fe78f1f7019d7d551a6402fC5350c73); // BSC Main\n//    address StableCoinAddress = address(0x3B00Ef435fA4FcFF5C209a37d1f3dcff37c705aD); // BUSD? CONFIRM?\n\n\n    IERC20 usdc = IERC20(StableCoinAddress);\n\n    // Chainlink Price feeds\n//    AggregatorV3Interface internal priceFeed;\n//    AggregatorV3Interface internal priceFeed = AggregatorV3Interface(0x5f4eC3Df9cbd43714FE2740f5E3616155c5b8419) // ETH/USD, Ethereum mainnet\n    AggregatorV3Interface internal priceFeed = AggregatorV3Interface(0x8A753747A1Fa494EC906cE90E9f37563A8AF630e); // ETH/USD, Rinkeby (Ethereum testnet)\n//    AggregatorV3Interface internal priceFeed = AggregatorV3Interface(0x9326BFA02ADD2366b30bacB125260Af641031331); // ETH/USD, Kovan (Ethereum testnet\n//    AggregatorV3Interface internal priceFeed = AggregatorV3Interface(0x2514895c72f50D8bd4B4F9b1110F0D6bD2c97526); // BNB/USD, bsc testnet\n//    AggregatorV3Interface internal priceFeed = AggregatorV3Interface(0x0567F2323251f0Aab15c8dFb1967E4e8A7D42aeE); // BNB/USD, bsc mainnet\n\n\n//    address public addy;\n\n    event CoinsReleasedToOwner(\n        uint256 amountETH,\n        uint256 valueInUSD,\n        uint256 indexed tokenId,\n        address indexed addy,\n        uint256 date\n    );\n\n    event CoinsReleasedToProfitReceiver(\n        uint256 amountETH,\n        uint256 valueInUSD,\n        address indexed addy,\n        uint256 date\n    );\n\n    event CollectibleCreated(\n        uint256 _id,\n        uint256 data,\n        uint256 date\n    );\n\n    event NFTBurned(\n        uint256 _id,\n        address burner,\n        uint256 date\n    );\n\n    event Received(\n        address sender,\n        uint256 amount\n    );\n\n    event ReleaseInformation(\n        uint256 InformationA,\n        uint256 InformationB,\n        uint256 InformationC\n    );\n\n\n    modifier onlyKeeper {\n       require(true);\n       //require(msg.sender == owner); // ToDo: modify\n      _;\n   }\n\n    /** @dev Packs 6 uints from data structure into 1 uint to save space (96, 96, 32, 8, 8, 8) -> 256\n        @param _myData -- data structure holding attributes of NFT\n    */\n    function packDataStructure(Data memory _myData) internal pure returns (uint256){\n        return packData(_myData.dipValue, _myData.stableCoinAmount, _myData.energy, _myData.dipPercent, _myData.dipLevel, _myData.isWaitingToBuy);\n    }\n\n    // OLDER--Packs 6 uints into 1 uint to save space (90, 90, 32, 8, 3, 1) -> 256\n    /** @dev Packs 6 uints into 1 uint to save space (96, 96, 32, 8, 8, 8) -> 256\n        @param _dipValue -- strike price, uint96\n        @param _stableCoinAmount -- amount of stablecoin locked in NFT, uint96\n        @param _energy -- energy (time permitted to stake), uint32\n        @param _dipPercent -- percent drop to set strike price, uint8\n        @param _dipLevel -- level (number of times dip has been bought), \"uint8\"\n        @param _isWaitingToBuy -- true if waiting to buy dip, false if dip bought and not redipped, uint8\n      */\n    function packData(uint256 _dipValue, uint256 _stableCoinAmount, uint256 _energy, uint256 _dipPercent, uint256 _dipLevel, uint256 _isWaitingToBuy) internal pure returns (uint256){\n        uint256 count = 0;\n        uint256 ret = _dipValue;\n        count += 96;\n\n        ret |= _stableCoinAmount << count;\n        count += 96;\n\n        ret |= _energy << count;\n        count += 32;\n\n        ret |= _dipPercent << count;\n        count += 8;\n\n        ret |= _dipLevel << count;\n        count += 8;\n\n        ret |= _isWaitingToBuy << count;\n        count += 8;\n\n        return ret;\n    }\n\n\n    /** @dev Unpacks 1 uints into 3 uints; (256) -> (90, 90, 32, 8, 3, 1)\n        @param _id -- NFT id, which will pull the 256 bit encoding of _dipValue, _stableCoinAmount, _energy, _dipPercent, _dipLevel, and _isWaitingToBuy\n      */\n    function unpackData(uint256 _id) internal view returns (Data memory){\n//        uint256 _myData = tokenIdToPackedData[_id];\n        return _unpackData(tokenIdToPackedData[_id]);\n    }\n\n\n    /** @dev Unpacks 1 uints into 3 uints; (256) -> (90, 90, 32, 8, 3, 1)\n        @param _myData -- 256 bit encoding of _dipValue, _stableCoinAmount, _energy, _dipPercent, _dipLevel, and _isWaitingToBuy\n      */\n    function _unpackData(uint256 _myData) internal pure returns (Data memory){\n\n        uint256 _dipValue = uint256(uint96(_myData));\n        uint256 _stableCoinAmount = uint256(uint96(_myData >> 96));\n        uint256 _energy = uint256(uint32(_myData >> 192));\n\n        uint256 _dipPercent = uint256(uint8(_myData >> 224));\n        uint256 _dipLevel = uint256(uint8(_myData >> 232));\n        uint256 _isWaitingToBuy = uint256(uint8(_myData >> 240));\n\n        return Data(_dipValue, _stableCoinAmount, _energy, _dipPercent, _dipLevel, _isWaitingToBuy);\n    }\n\n//    function verifyPacking() public view returns(bool){\n//        uint256 compressed = packData(1,2,3,4,5,6);\n//        Data memory _myData = _unpackData(compressed);\n//        if(\n//            _myData.dipValue == 1 &&\n//            _myData.stableCoinAmount == 2 &&\n//            _myData.energy == 3 &&\n//            _myData.dipPercent == 4 &&\n//            _myData.dipLevel == 5 &&\n//            _myData.isWaitingToBuy == 6\n//        ) { return true;}\n//        else {return false;}\n//    }\n\n    constructor()\n    public\n    ERC721(\"WeBuyTheDip\", \"DIP\")\n    {\n        tokenCounter = 0;\n        profitReceiver = owner();\n        lastTimeStamp = block.timestamp;\n    }\n\n\n    // todo: Create liquidity pool for USDC on pancakeswap BSC testnet\n    function createCollectible(uint256 percentDrop)\n        public payable returns (bytes32){\n            require (msg.value >= MINCOINDEPOSIT + MINTFEE); // dev: Not enough native coin\n            require(percentDrop < 100, \"Percent X must conform to: 10 <= X < 100\"); // todo: adjust 10% after testing\n            updateAllBalances(); // todo --consider creating counterBalance\n            _safeMint(msg.sender, tokenCounter);\n            // MINTFEE and msg.value gets converted to stablecoin and sent to vault\n            (, uint256 stableCoinReceived) = UniswapHelpers._swapEthForTokens(msg.value, StableCoinAddress, address(this), router, swapSlippage);\n\n            Data memory _myData = Data( {\n                dipValue:(100 - percentDrop) * getLatestPrice() / 100,\n                stableCoinAmount:(msg.value - MINTFEE) * stableCoinReceived/ (msg.value),\n                energy:0,\n                dipPercent:percentDrop,\n                dipLevel:0,\n                isWaitingToBuy:1\n            });\n\n            tokenIdToPackedData[tokenCounter] = packDataStructure(_myData);\n            contractStableCoinProfit += MINTFEE * stableCoinReceived/ (msg.value);\n            require(_myData.stableCoinAmount > 0, \"Error! No tokens bought.\");\n            lendStableCoin(stableCoinReceived);\n\n            if(_myData.dipValue > highestDip){\n                highestDip = _myData.dipValue;\n            }\n\n            totalStableCoin += stableCoinReceived;\n            _setTokenURI(tokenCounter, tokenURI(tokenCounter));\n            emit CollectibleCreated(tokenCounter, tokenIdToPackedData[tokenCounter], block.timestamp);\n\n            tokenCounter = tokenCounter + 1;\n            if (contractStableCoinProfit > PROFITRELEASETHRESHOLD) {\n                releaseOwnerProfits(); // for contract, not NFTHolder\n            }\n    }\n\n    // todo: combine shared features from createCollectible\n    /** @dev Buying the dip again on existing NFTs\n      */\n    function redip(uint256 _tokenId) public payable returns (bytes32) {\n        // Constrain deposit to range based on previous deposits? Or always absolute minimum?\n        Data memory _myData = unpackData(_tokenId);\n\n        require (msg.value >= MINCOINDEPOSIT, \"Not Enough BNB--or whatever\");\n        require(_myData.isWaitingToBuy == 0, \"already in process of buying dip.\");\n\n        // update balances to keep lent funds fair\n        // no need to refresh _myData, as we are resetting StableCoinAmount\n        updateAllBalances();\n\n        _myData.dipValue = (100 - _myData.dipPercent) * getLatestPrice() / 100;\n        _setTokenURI(_tokenId, tokenURI(_tokenId));\n\n        (, uint256 stableCoinReceived) = UniswapHelpers._swapEthForTokens(msg.value, StableCoinAddress, address(this), router, swapSlippage);\n        _myData.stableCoinAmount = (msg.value - MINTFEE) * stableCoinReceived/ (msg.value);\n        contractStableCoinProfit += MINTFEE * stableCoinReceived/ (msg.value);\n\n        require(_myData.stableCoinAmount > 0, \"Error! No tokens bought.\");\n\n        lendStableCoin(stableCoinReceived);\n        totalStableCoin += stableCoinReceived;\n\n        _myData.isWaitingToBuy = 1;\n\n        if(_myData.dipValue > highestDip){\n            highestDip = _myData.dipValue;\n        }\n\n        tokenIdToPackedData[_tokenId] = packDataStructure(_myData);\n        // todo Emit LimitOrderCreated, Redip, ...\n    }\n\n\n    function qualifiesForStaking(uint256 _tokenId) external view returns(bool) {\n        Data memory _myData = unpackData(_tokenId);\n        return _myData.isWaitingToBuy==0 && _myData.energy > 0;\n    }\n\n//    // todo --replace with getProperty in dipStaking\n//    function getEnergy(uint256 _tokenId) external view returns(uint256) {\n//        Data memory _myData = unpackData(_tokenId);\n//        return _myData.energy;\n//    }\n\n    function getProperty(uint256 _tokenId, uint256 property) external view returns(uint256) {\n        Data memory _myData = unpackData(_tokenId);\n        require(property<6);\n//        enum DataProperties {DipValue, StableCoinAmount, Energy, DipPercent, DipLevel, IsWaitingToBuy};\n        uint256 value = 0;\n        if(property==0){\n            value = _myData.dipValue;\n        }\n        else if(property==1){\n            value = _myData.stableCoinAmount;\n        }\n        else if(property==2){\n            value = _myData.energy;\n        }\n        else if(property==3){\n            value = _myData.dipPercent;\n        }\n        else if(property==4){\n            value = _myData.dipLevel;\n        }\n        else if(property==5){\n            value = _myData.isWaitingToBuy;\n        }\n        return value;\n    }\n\n\n    function setTokenURI(uint256 tokenId, string memory _tokenURI) public {\n        require(\n            _isApprovedOrOwner(_msgSender(), tokenId),\n            \"ERC721: transfer caller is not owner nor approved\"\n        );\n        _setTokenURI(tokenId, _tokenURI);\n    }\n\n    // Required to receive ETH\n    receive() external payable {\n        emit Received(msg.sender, msg.value);\n    }\n\n\n    // todo -- consider creating a negative balance to avoid updating everyone elses -- not a simple calculation\n    // todo -- ie, a new token is minted, and instead of updating every single balance, the amount it would gain is tracked and reversed\n    /** @dev Update balances with new interest values\n      */\n    function updateAllBalances() internal {\n        uint256 _addedTokens;\n        uint256 _newTotal = totalStableCoin;\n        uint256 _newIndividialBalance;\n        Data memory _myData;\n\n        // update contractStableCoinProfit\n        _newIndividialBalance = totalStableCoin==0 ? 0 : contractStableCoinProfit * yUSDC.balanceOf(address(this)) / totalStableCoin;\n        _addedTokens = _newIndividialBalance > _myData.stableCoinAmount ? _newIndividialBalance - _myData.stableCoinAmount : 0;\n        if(_addedTokens > STABLECOINDUSTTHRESHOLD ){\n            contractStableCoinProfit = _newIndividialBalance;\n            _newTotal += _addedTokens;\n        }\n\n        for(uint256 i = 0; i < tokenCounter;i++){\n            _myData = unpackData(i);\n            if(_myData.isWaitingToBuy==1){\n                _newIndividialBalance = getStableCoinBalanceGivenId(i);\n                // todo -- will thise ever be negative? If so, ramifications?\n                _addedTokens = _newIndividialBalance > _myData.stableCoinAmount ? _newIndividialBalance - _myData.stableCoinAmount : 0;\n                if(_addedTokens > STABLECOINDUSTTHRESHOLD ){\n                    _myData.stableCoinAmount = _newIndividialBalance;\n                    _newTotal += _addedTokens;\n                    tokenIdToPackedData[i] = packDataStructure(_myData);\n                }\n            }\n        }\n        totalStableCoin = _newTotal;\n    }\n\n    /** @dev Functions like breaking a piggy bank. Burns NFT and retrieves contents, subjec to a early-withdrawal fee\n        @param _tokenId -- 256 bit encoding of _dipValue, _stableCoinAmount, _energy, _dipPercent, _dipLevel, and _isWaitingToBuy\n      */\n    function destroyAndRefund(uint256 _tokenId) public {\n        require(msg.sender == ownerOf(_tokenId), \"Must be token owner.\");\n        Data memory _myData = unpackData(_tokenId);\n\n        if (getLatestPrice() <= _myData.dipValue){\n            buyTheDip(_tokenId);\n        }\n        else {\n            // get stablecoin amount after penalty\n            uint256 _withdrawal = retrieveLentStablecoins(_tokenId, EARLYWITHDRAWALFEEPERCENT);\n            if(_withdrawal > 0) {\n                usdc.approve(address(router), _withdrawal);\n                (uint256 stableCoinSent, uint256 ETHReceived) = UniswapHelpers._swapExactTokensForETH(_withdrawal, StableCoinAddress, ownerOf(_tokenId), router, swapSlippage);\n                emit CoinsReleasedToOwner(ETHReceived, stableCoinSent, _tokenId, ownerOf(_tokenId), block.timestamp);\n            }\n        }\n        NFTBurned(_tokenId, ownerOf(_tokenId), block.timestamp);\n        safeTransferFrom(msg.sender, address(0x000000000000000000000000000000000000dEaD), _tokenId, \"burn NFT\");\n    }\n\n    /** @dev Get all NFTs owned by owner.\n        @param _addy -- address to get list of NFTs of\n        @return -- list of token IDs owned by addy\n      */\n    function getAllNFTsByOwner(address _addy) public view returns (uint256[] memory){\n        uint256 total=0;\n\n        for(uint256 i=0;i<tokenCounter;i++){\n            if(ownerOf(i)==_addy){\n                total +=1;\n            }\n        }\n\n        uint256[] memory owned = new uint256[](total);\n        uint256 count=0;\n\n        // Two cycles are needed because of inability to push integers to memory array\n        for(uint256 i=0;i<tokenCounter;i++){\n            if(count>=total){ break; }\n            if(ownerOf(i)==_addy){\n                owned[count]=i;\n                count +=1;\n            }\n        }\n        return owned;\n    }\n\n\n    function buyTheDip(uint256 _tokenId) internal {\n        // Confirm price\n        Data memory _myData = unpackData(_tokenId);\n        require(getLatestPrice() <= _myData.dipValue, 'Price above dipLevel');\n\n        uint256 _withdrawal = retrieveLentStablecoins(_tokenId, NORMALWITHDRAWALFEEPERCENT);\n        usdc.approve(address(router), _withdrawal);\n        (uint256 stableCoinSent, uint256 ETHReceived) = UniswapHelpers._swapExactTokensForETH(_withdrawal, StableCoinAddress, ownerOf(_tokenId), router, swapSlippage);\n\n        emit CoinsReleasedToOwner(ETHReceived, stableCoinSent, _tokenId, ownerOf(_tokenId), block.timestamp);\n        if (_myData.dipLevel < 7) { _myData.dipLevel += 1; }\n\n        _myData.energy += 86400 + _myData.stableCoinAmount * _myData.dipLevel  * (_myData.dipPercent **2) / 10000; // todo -- choose energy formula\n        _myData.stableCoinAmount = 0;\n        _myData.isWaitingToBuy = 0;\n        tokenIdToPackedData[_tokenId] = packDataStructure(_myData);\n    }\n\n\n    function getLatestPrice() public view returns (uint256) {\n        (\n            uint80 roundID,\n            int price,\n            uint startedAt,\n            uint timeStamp,\n            uint80 answeredInRound\n        ) = priceFeed.latestRoundData();\n        // If the round is not complete yet, timestamp is 0\n        require(timeStamp > 0, \"Round not complete\");\n        return uint256(price);\n    }\n\n    function checkUpkeep(bytes calldata /* checkData */) external override returns (bool upkeepNeeded, bytes memory /* performData */) {\n        upkeepNeeded = (block.timestamp - lastTimeStamp) > checkUpkeepInterval && getLatestPrice() <= highestDip;\n        // We don't use the checkData in this example. The checkData is defined when the Upkeep was registered.\n    }\n\n    function checkUpkeepView(bytes calldata /* checkData */) external view returns (bool upkeepNeeded) {\n        upkeepNeeded = (block.timestamp - lastTimeStamp) > checkUpkeepInterval && getLatestPrice() <= highestDip;\n        return upkeepNeeded;\n    }\n\n    function performUpkeep(bytes calldata /* performData */) external override {\n        // todo -- update\n        performUpkeepTest(); // Putting this here to make the functionality more legit. It is still to develop fully\n    }\n\n    function performUpkeepTest() public {\n        lastTimeStamp = block.timestamp;\n        uint256 latestPrice = getLatestPrice();\n        bool dipBought = false;\n        Data memory _myData;\n\n        for(uint256 i=0;i<tokenCounter;i++){\n            _myData = unpackData(i);\n            if (_myData.isWaitingToBuy == 1 && latestPrice <= _myData.dipValue) {\n                buyTheDip(i);\n                dipBought = true;\n            }\n        }\n\n        if(dipBought){\n            uint256 _highestDip = 0;\n            for(uint256 i=0;i<tokenCounter;i++){\n                _myData = unpackData(i);\n                if ( _myData.dipValue > highestDip) {\n                    highestDip = _myData.dipValue;\n                }\n            }\n            highestDip =  _highestDip;\n        }\n    }\n\n    function tokenURI(uint256 _tokenId) public view virtual override returns (string memory) {\n        require(_exists(_tokenId), \"ERC721Metadata: URI query for nonexistent token\");\n        Data memory _myData = unpackData(_tokenId);\n\n        uint256 _RADIUS = 78; // 80 - 2\n        uint256 _latestPrice = uint256(getLatestPrice());\n        uint256 _circleRadius;\n        if (_myData.isWaitingToBuy==0) { // full radius if dip bought\n            _circleRadius = _RADIUS;\n        }\n        else { // partial radius if waiting to buy\n            _circleRadius = (_latestPrice > ((_myData.dipValue)*100/(100 - _myData.dipPercent))) ? 0 : uint256(_RADIUS*(100 - 100*(_latestPrice - _myData.dipValue)/_latestPrice)/100); // temp, check for negative\n        }\n        string memory mainImage;\n        mainImage = string(abi.encodePacked(\n            \"%3Ccircle style='fill:%23ffffff;stroke:%230045bb;stroke-width:1.38;stroke-linejoin:round;stroke-opacity:1;stroke-miterlimit:4;stroke-dasharray:none' id='path846' cx='175' cy='200' r='100' /%3E \",\n            \"%3Ccircle style='fill:%23ffffff;stroke:%23000000;stroke-width:4;stroke-linejoin:round;stroke-miterlimit:4;stroke-dasharray:none;stroke-opacity:0.32' id='path846-5' cx='175' cy='200' r='80' /%3E\",\n            \"%3Ccircle cx='175' cy='200' r='\", uint2str(_circleRadius) ,\"' stroke='' stroke-width='0' fill='green' /%3E\"\n         ));\n\n        if (_myData.isWaitingToBuy==0) { // not waiting to buy, ie already bought the dip\n            mainImage = string(abi.encodePacked(mainImage,\n              // Checkmark\n              \"%3Cpath style='fill:none;stroke:%23ffffff;stroke-width:15;stroke-linecap:round;stroke-linejoin:round;stroke-miterlimit:4;stroke-opacity:1' d='m 139,218 20.4,23.7 56.9,-56.6' /%3E \",\n              // Congratulations (text)\n              \"%3Ctext x='55' y='318' fill='brown'%3ECongratulations! You bought the dip. %3C/text%3E\"\n            ));\n        }\n\n        string memory SVG = string(abi.encodePacked(\n            // Container\n           \"%3Csvg xmlns='http://www.w3.org/2000/svg' width='350' height='350'%3E %3Crect width='350' height='350' style='fill:rgb(255,255,255);stroke-width:3;stroke:rgb(0,0,0)' /%3E\",\n            // Green BG\n           \"%3Crect style='opacity:0.33;fill:%23157700;fill-opacity:0.33;stroke:%230b9100;stroke-width:1;stroke-linecap:round;stroke-linejoin:round;stroke-miterlimit:4;stroke-dasharray:none;stroke-opacity:1;paint-order:normal' width='350' height='350' x='0' y='0' /%3E\",\n           // Green Frame\n           \"%3Crect style = 'opacity:0.6;mix-blend-mode:normal;fill:none;stroke:%230b9100;stroke-width:15;stroke-linejoin:miter;stroke-miterlimit:4;stroke-dasharray:none;stroke-opacity:1;paint-order:normal' id = 'rect926' width = '315' height = '315' x = '17' y = '17' /%3E %3Crect style = 'opacity:0.33;mix-blend-mode:normal;fill:none;stroke:%230b9100;stroke-width:1.82496;stroke-linejoin:miter;stroke-miterlimit:4;stroke-dasharray:none;stroke-opacity:1;paint-order:normal' id = 'rect926-4' width = '288' height = '288' x = '31' y = '31' /%3E\",\n\n           // Data\n                // Current Eth Price\n           \"%3Ctext x='35' y='45' font-weight='bold' fill='brown'%3ECurrent Price:%3C/text%3E\",\n           \"%3Ctext x='175' y='45' font-weight='normal' fill='brown'%3E$\", uint2str(uint256(getLatestPrice()), 8, 2), \"%3C/text%3E\",\n                // Strike Price\n           \"%3Ctext x='35' y='60'  font-weight='bold' fill='brown'%3EStrike Price:%3C/text%3E\",\n           \"%3Ctext x='175' y='60' font-weight='normal' fill='brown'%3E$\", uint2str(uint256(_myData.dipValue), 8, 2), \"%3C/text%3E\",\n                // Stable Coin Invested (conversion)\n           \"%3Ctext x='35' y='75'  font-weight='bold' fill='brown'%3EUSDC Balance:%3C/text%3E\"\n            ));\n\n            // Stack-deepness error, so breaking this up\n            SVG = string(abi.encodePacked(SVG, // todo -- this is showing up incorrectly. consider using _myData.stableCoin (or whatever), and also see why the below is failing\n           \"%3Ctext x='175' y='75' font-weight='normal' fill='brown'%3E$\", uint2str(lendingBalance(_tokenId), 6, 2), \" %3C/text%3E\",\n                // Energy\n           \"%3Ctext x='35' y='90' font-weight='bold' fill='brown'%3EEnergy:%3C/text%3E\",\n           \"%3Ctext x='175' y='90' font-weight='normal' fill='brown'%3E\", uint2str(_myData.energy), \"%3C/text%3E\",\n\n           ///// Top Middle\n           \"%3Ctext x='50%' y='23' text-anchor='middle' font-weight='bold' font-size='1.1em' fill='white'%3E\", uint2str(uint256(_tokenId)), \"%3C/text%3E\",\n\n          ///// Bottom Middle\n           \"%3Ctext x='50%' y='338' text-anchor='middle' font-weight='bold' font-size='1.1em' fill='white'%3E ETHEREUM %3C/text%3E\",\n            // dominant-baseline='middle'\n\n            // Main image\n            mainImage,\n            // Error Message\n            \"Unsupported.\",\n            \"%3C/svg%3E\"\n            ));\n\n        return formatTokenURI(_tokenId, svgToImageURI(SVG));\n    }\n\n\n    function svgToImageURI(string memory svg) public pure returns (string memory) {\n        bool ENCODE = false;\n        string memory baseURL = \"data:image/svg+xml;base64,\";\n\n        if (!ENCODE) {\n            baseURL = \"data:image/svg+xml,\";\n            return string(abi.encodePacked(baseURL,svg));\n        }\n\n        //        string memory svgBase64Encoded = Base64.encode((string(abi.encodePacked(svg)))); // bytes?\n        string memory svgBase64Encoded = Base64.encode(svg); // bytes?\n        return string(abi.encodePacked(baseURL,svgBase64Encoded));\n    }\n\n    function setEnergy(uint256 _tokenId, uint256 _energy) external { // todo: Limit callers to Dip_Staking address\n        Data memory _myData = unpackData(_tokenId);\n        require(_energy <= _myData.energy, \"Can't increase energy\"); // set equal??? check in other places\n        _myData.energy = _energy;\n        tokenIdToPackedData[_tokenId] = packDataStructure(_myData);\n    }\n\n\n    function formatTokenURI(uint256 _tokenId, string memory imageURI) public view returns (string memory) {\n        Data memory _myData = unpackData(_tokenId);\n        string memory json_str = string(abi.encodePacked(\n            '{\"description\": \"The NFT limit order that earns money!\"',\n            ', \"external_url\": \"https://webuythedip.com\"',\n            ', \"image\": \"',\n             imageURI, '\"',\n            ', \"name\": \"BuyTheDip\"',\n            // attributes\n            ', \"attributes\": [{\"display_type\": \"number\", \"trait_type\": \"Dip Level\", \"value\": ',\n            uint2str(uint256(_myData.dipLevel)),   ' }'\n        ));\n        json_str = string(abi.encodePacked(json_str,\n            ', {\"display_type\": \"number\", \"trait_type\": \"Strike Price\", \"value\": ',\n            uint2str(uint256(_myData.dipValue)),   ' }',\n            ', {\"display_type\": \"number\", \"trait_type\": \"USDC Balance\", \"value\": ',\n            uint2str(uint256(_myData.stableCoinAmount)),   ' }',\n                ', {\"display_type\": \"number\", \"trait_type\": \"Energy\", \"value\": ',\n            uint2str(uint256(_myData.energy)),   ' }',\n            ']', // End Attributes\n            '}'\n        ));\n\n        return string(abi.encodePacked(\"data:application/json;base64,\", Base64.encode(json_str)));\n\n\n//        return string(\n//            abi.encodePacked(\n//                \"data:application/json;base64,\",\n//                Base64.encode(\n//                    string(\n//                        abi.encodePacked(\n//                            '{\"description\": \"The NFT limit order that earns money!\"',\n//                            ', \"external_url\": \"https://webuythedip.com\"',\n//                            ', \"image\": \"',\n//                             imageURI, '\"',\n//                            ', \"name\": \"BuyTheDip\"',\n//                            // attributes\n//                            ', \"attributes\": [{\"display_type\": \"number\", \"trait_type\": \"Dip Level\", \"value\": ',\n//                            uint2str(uint256(_myData.dipLevel)),   ' }',\n//                            ', {\"display_type\": \"number\", \"trait_type\": \"Strike Price\", \"value\": ',\n//                            uint2str(uint256(_myData.dipValue)),   ' }',\n//                            ', {\"display_type\": \"number\", \"trait_type\": \"USDC Balance\", \"value\": ',\n//                            uint2str(uint256(_myData.stableCoinAmount)),   ' }',\n//                                ', {\"display_type\": \"number\", \"trait_type\": \"Energy\", \"value\": ',\n//                            uint2str(uint256(_myData.energy)),   ' }',\n//                            ']', // End Attributes\n//                            '}'\n//                        )\n//                    )\n//                )\n//            )\n//        );\n    }\n\n    function uint2str(uint256 _i, uint256 _totalDecimals, uint256 _decimalPlaces) internal pure returns (string memory _uintAsString) {\n        string memory first = uint2str(_i / 10**_totalDecimals);\n        string memory second = uint2str((_i % 10**_totalDecimals)/ 10**(_totalDecimals - _decimalPlaces));\n        return string(abi.encodePacked(first, \".\", second));\n    }\n\n    function uint2str(uint _i) internal pure returns (string memory _uintAsString) {\n        if (_i == 0) {\n            return \"0\";\n        }\n        uint j = _i;\n        uint len;\n        while (j != 0) {\n            len++;\n            j /= 10;\n        }\n        bytes memory bstr = new bytes(len);\n        uint k = len - 1;\n        while (_i != 0) {\n            bstr[k--] = bytes1(uint8(48 + _i % 10));\n            _i /= 10;\n        }\n        return string(bstr);\n    }\n\n\n\n    /////////////////////////////////////////////\n    /////////// Configuration Helpers ///////////\n    /////////////////////////////////////////////\n\n  function setProfitReceiver(address _newReceiver) external {\n    require(msg.sender == owner() && _newReceiver != profitReceiver, \"only owner can change configuration\");\n    profitReceiver = _newReceiver;\n  }\n\n  function changeConfiguration(uint256 _enumValue, uint256 _newValue) external {\n    require(_enumValue < 8, \"No such configuration data.\");\n    require(msg.sender == owner(), \"only owner can change configuration\");\n\n    ConfigurableVariables parameter = ConfigurableVariables(_enumValue);\n\n    if(parameter == ConfigurableVariables.SwapSlippage){\n        require(_newValue<10000);\n        swapSlippage = _newValue;\n    }\n    else if(parameter == ConfigurableVariables.CheckUpkeepInterval){\n        checkUpkeepInterval = _newValue;\n    }\n    else if(parameter == ConfigurableVariables.MinCoinDeposit){\n        MINCOINDEPOSIT = _newValue;\n    }\n    else if(parameter == ConfigurableVariables.EarlyWithdrawalFeePercent){\n        require(_newValue<10000); // todo -- confirm percentage is out of 10,000\n        EARLYWITHDRAWALFEEPERCENT = _newValue;\n    }\n    else if(parameter == ConfigurableVariables.NormalWithdrawalFeePercent){\n        require(_newValue<10000); // todo -- confirm percentage is out of 10,000\n        NORMALWITHDRAWALFEEPERCENT = _newValue;\n    }\n    else if(parameter == ConfigurableVariables.MintFee){\n        MINTFEE = _newValue;\n    }\n    else if(parameter == ConfigurableVariables.StableCoinDustThreshold){\n        STABLECOINDUSTTHRESHOLD = _newValue;\n    }\n    else if(parameter == ConfigurableVariables.ProfitReleaseThreshold){\n        PROFITRELEASETHRESHOLD = _newValue;\n    }\n  }\n\n  function getConfiguration(uint256 _enumValue) external view returns(uint256) {\n    require(_enumValue < 8, \"No such configuration data.\");\n\n    ConfigurableVariables parameter = ConfigurableVariables(_enumValue);\n    uint256 _ret;\n\n    if(parameter == ConfigurableVariables.SwapSlippage){\n        _ret = swapSlippage;\n    }\n    else if(parameter == ConfigurableVariables.CheckUpkeepInterval){\n        _ret = checkUpkeepInterval;\n    }\n    else if(parameter == ConfigurableVariables.MinCoinDeposit){\n        _ret = MINCOINDEPOSIT;\n    }\n    else if(parameter == ConfigurableVariables.EarlyWithdrawalFeePercent){\n        _ret = EARLYWITHDRAWALFEEPERCENT;\n    }\n    else if(parameter == ConfigurableVariables.NormalWithdrawalFeePercent){\n        _ret = NORMALWITHDRAWALFEEPERCENT;\n    }\n    else if(parameter == ConfigurableVariables.MintFee){\n        _ret = MINTFEE;\n    }\n    else if(parameter == ConfigurableVariables.StableCoinDustThreshold){\n        _ret = STABLECOINDUSTTHRESHOLD;\n    }\n    else if(parameter == ConfigurableVariables.ProfitReleaseThreshold){\n        _ret = PROFITRELEASETHRESHOLD;\n    }\n      return _ret;\n  }\n\n\n\n    /////////////////////////////\n    /////////// yUDSC ///////////\n    /////////////////////////////\n\n//    function withdrawProfitsFromLending() internal returns(uint256){\n//        uint256 balanceShares = yUSDC.balanceOf(address(this));\n//        uint256 shareOfShares = contractStableCoinProfit * balanceShares / totalStableCoin;\n//\n//        totalStableCoin = totalStableCoin - contractStableCoinProfit; // amount invested, not active balance\n//        contractStableCoinProfit = 0;\n//\n//        yUSDC.withdraw(shareOfShares);\n//        usdc.transfer(address(this), shareOfShares);\n//        return shareOfShares;\n//    }\n\n\n    // Profits are going to be sent to the staking contract. For simplicity, in native coin.\n  function retrieveLentStablecoins(uint256 _tokenId, uint256 _feePercent) internal returns(uint256) {\n        Data memory _myData = unpackData(_tokenId);\n        uint256 balanceShares = yUSDC.balanceOf(address(this)); //yUSDC.wei_balance => ???\n        uint256 shareOfShares = _myData.stableCoinAmount * balanceShares / totalStableCoin;\n\n        // todo -- consider implimenting countershares, here\n        // idea: create a counterBalance amount when token is funded (minted or redipped)\n      // this amount is shareOfShares snapshot at time of funding\n      // and subtracted from future shareOfShares amounts\n      // this avoids recalculating everyone's transactions\n\n        _myData.stableCoinAmount = 0;\n        tokenIdToPackedData[_tokenId] = packDataStructure(_myData);\n\n        require(totalStableCoin >= shareOfShares, \"critical error: shareOfShares is oversized\");\n        totalStableCoin = totalStableCoin - shareOfShares*(10000 - _feePercent)/10000; // _myData.stableCoinAmount invested, not active balance to-- this should probably be less\n\n        yUSDC.withdraw(shareOfShares*(10000 - _feePercent)/10000);\n        usdc.transfer(address(this), shareOfShares*(10000 - _feePercent)/10000);\n\n        contractStableCoinProfit += shareOfShares*_feePercent/10000;\n\n        if (contractStableCoinProfit > PROFITRELEASETHRESHOLD) {\n            releaseOwnerProfits(); // for contract, not NFTHolder\n        }\n\n        return shareOfShares*(10000 - _feePercent)/10000;\n  }\n\n    // todo -- make internal after testing\n  function releaseOwnerProfits() internal {\n        require(contractStableCoinProfit > PROFITRELEASETHRESHOLD, \"Stablecoin profit below threshold.\");\n\n        // todo --review for reentrancy attack\n        uint256 profit = contractStableCoinProfit;\n        // get USDC\n        uint256 _withdrawal; { // = withdrawProfitsFromLending();\n            uint256 balanceShares = yUSDC.balanceOf(address(this));\n            uint256 shareOfShares = contractStableCoinProfit * balanceShares / totalStableCoin;\n\n            totalStableCoin = totalStableCoin - contractStableCoinProfit; // amount invested, not active balance\n            contractStableCoinProfit = 0;\n\n            yUSDC.withdraw(shareOfShares);\n            usdc.transfer(address(this), shareOfShares);\n            _withdrawal =  shareOfShares;\n        }\n\n        usdc.approve(address(router), _withdrawal);\n        (uint256 stableCoinSent, uint256 ETHReceived) = UniswapHelpers._swapExactTokensForETH(_withdrawal, StableCoinAddress, profitReceiver, router, swapSlippage);\n        emit CoinsReleasedToProfitReceiver(ETHReceived, stableCoinSent, profitReceiver, block.timestamp);\n  }\n\n\n\n    function lendStableCoin(uint256 _amount) internal {\n        usdc.approve(address(yUSDC), _amount);\n        yUSDC.deposit(_amount);\n    }\n\n\n    function getStableCoinBalanceGivenId(uint256 _tokenId) internal view returns(uint256) {\n        Data memory _myData = unpackData(_tokenId);\n        uint256 balanceShares = yUSDC.balanceOf(address(this));\n        return totalStableCoin==0 ? 0 : _myData.stableCoinAmount * balanceShares / totalStableCoin;\n    }\n\n  function lendingBalance(uint256 _tokenId) public view returns(uint256) {\n//    uint256 price = yUSDC.getPricePerFullShare();\n    Data memory _myData = unpackData(_tokenId);\n    uint256 price = 1;\n    uint256 balanceShares = yUSDC.balanceOf(address(this));\n    return totalStableCoin==0 ? 0 : balanceShares * price * _myData.stableCoinAmount / totalStableCoin; // todo --determine info here\n  }\n\n//  function releaseLendingInfo(uint256 _tokenId) public returns(uint256) {\n////    uint256 price = yUSDC.getPricePerFullShare();\n//    Data memory _myData = unpackData(_tokenId);\n//    uint256 price = 1;\n//    uint256 balanceShares = yUSDC.balanceOf(address(this));\n//    emit ReleaseInformation(balanceShares, yUSDC.getPricePerFullShare(), balanceShares * price * _myData.stableCoinAmount / totalStableCoin);\n//    return totalStableCoin==0 ? 0 : balanceShares * price * _myData.stableCoinAmount / totalStableCoin; // todo --determine info here\n//  }\n\n\n} // end BuyTheDip Contract\n",
  "sourcePath": "contracts/BuyTheDipNFT.sol",
  "type": "contract"
}